{
	"homework01/5/MergeArray.sol": {
		"MergeArray": {
			"abi": [
				{
					"inputs": [
						{
							"internalType": "uint256[]",
							"name": "dataA",
							"type": "uint256[]"
						},
						{
							"internalType": "uint256[]",
							"name": "dataB",
							"type": "uint256[]"
						}
					],
					"name": "processArray",
					"outputs": [
						{
							"internalType": "uint256[]",
							"name": "",
							"type": "uint256[]"
						}
					],
					"stateMutability": "pure",
					"type": "function"
				},
				{
					"inputs": [
						{
							"internalType": "uint256[]",
							"name": "dataA",
							"type": "uint256[]"
						},
						{
							"internalType": "uint256[]",
							"name": "dataB",
							"type": "uint256[]"
						}
					],
					"name": "processArray2",
					"outputs": [
						{
							"internalType": "uint256[]",
							"name": "",
							"type": "uint256[]"
						}
					],
					"stateMutability": "pure",
					"type": "function"
				}
			],
			"devdoc": {
				"kind": "dev",
				"methods": {},
				"version": 1
			},
			"evm": {
				"assembly": "    /* \"homework01/5/MergeArray.sol\":109:1896  contract MergeArray {... */\n  mstore(0x40, 0x80)\n  callvalue\n  dup1\n  iszero\n  tag_1\n  jumpi\n  revert(0x00, 0x00)\ntag_1:\n  pop\n  dataSize(sub_0)\n  dup1\n  dataOffset(sub_0)\n  0x00\n  codecopy\n  0x00\n  return\nstop\n\nsub_0: assembly {\n        /* \"homework01/5/MergeArray.sol\":109:1896  contract MergeArray {... */\n      mstore(0x40, 0x80)\n      callvalue\n      dup1\n      iszero\n      tag_1\n      jumpi\n      revert(0x00, 0x00)\n    tag_1:\n      pop\n      jumpi(tag_2, lt(calldatasize, 0x04))\n      shr(0xe0, calldataload(0x00))\n      dup1\n      0x3ccb569e\n      eq\n      tag_3\n      jumpi\n      dup1\n      0x8cee4cad\n      eq\n      tag_4\n      jumpi\n    tag_2:\n      revert(0x00, 0x00)\n        /* \"homework01/5/MergeArray.sol\":1048:1894  function processArray2(... */\n    tag_3:\n      tag_5\n      0x04\n      dup1\n      calldatasize\n      sub\n      dup2\n      add\n      swap1\n      tag_6\n      swap2\n      swap1\n      tag_7\n      jump\t// in\n    tag_6:\n      tag_8\n      jump\t// in\n    tag_5:\n      mload(0x40)\n      tag_9\n      swap2\n      swap1\n      tag_10\n      jump\t// in\n    tag_9:\n      mload(0x40)\n      dup1\n      swap2\n      sub\n      swap1\n      return\n        /* \"homework01/5/MergeArray.sol\":135:1043  function processArray(... */\n    tag_4:\n      tag_11\n      0x04\n      dup1\n      calldatasize\n      sub\n      dup2\n      add\n      swap1\n      tag_12\n      swap2\n      swap1\n      tag_7\n      jump\t// in\n    tag_12:\n      tag_13\n      jump\t// in\n    tag_11:\n      mload(0x40)\n      tag_14\n      swap2\n      swap1\n      tag_10\n      jump\t// in\n    tag_14:\n      mload(0x40)\n      dup1\n      swap2\n      sub\n      swap1\n      return\n        /* \"homework01/5/MergeArray.sol\":1048:1894  function processArray2(... */\n    tag_8:\n        /* \"homework01/5/MergeArray.sol\":1156:1169  uint[] memory */\n      0x60\n        /* \"homework01/5/MergeArray.sol\":1181:1190  uint lenA */\n      0x00\n        /* \"homework01/5/MergeArray.sol\":1193:1198  dataA */\n      dup4\n        /* \"homework01/5/MergeArray.sol\":1193:1205  dataA.length */\n      mload\n        /* \"homework01/5/MergeArray.sol\":1181:1205  uint lenA = dataA.length */\n      swap1\n      pop\n        /* \"homework01/5/MergeArray.sol\":1215:1224  uint lenB */\n      0x00\n        /* \"homework01/5/MergeArray.sol\":1227:1232  dataB */\n      dup4\n        /* \"homework01/5/MergeArray.sol\":1227:1239  dataB.length */\n      mload\n        /* \"homework01/5/MergeArray.sol\":1215:1239  uint lenB = dataB.length */\n      swap1\n      pop\n        /* \"homework01/5/MergeArray.sol\":1249:1272  uint256[] memory result */\n      0x00\n        /* \"homework01/5/MergeArray.sol\":1296:1300  lenB */\n      dup2\n        /* \"homework01/5/MergeArray.sol\":1289:1293  lenA */\n      dup4\n        /* \"homework01/5/MergeArray.sol\":1289:1300  lenA + lenB */\n      tag_16\n      swap2\n      swap1\n      tag_17\n      jump\t// in\n    tag_16:\n        /* \"homework01/5/MergeArray.sol\":1275:1301  new uint256[](lenA + lenB) */\n      0xffffffffffffffff\n      dup2\n      gt\n      iszero\n      tag_18\n      jumpi\n      tag_19\n      tag_20\n      jump\t// in\n    tag_19:\n    tag_18:\n      mload(0x40)\n      swap1\n      dup1\n      dup3\n      mstore\n      dup1\n      0x20\n      mul\n      0x20\n      add\n      dup3\n      add\n      0x40\n      mstore\n      dup1\n      iszero\n      tag_21\n      jumpi\n      dup2\n      0x20\n      add\n      0x20\n      dup3\n      mul\n      dup1\n      calldatasize\n      dup4\n      calldatacopy\n      dup1\n      dup3\n      add\n      swap2\n      pop\n      pop\n      swap1\n      pop\n    tag_21:\n      pop\n        /* \"homework01/5/MergeArray.sol\":1249:1301  uint256[] memory result = new uint256[](lenA + lenB) */\n      swap1\n      pop\n        /* \"homework01/5/MergeArray.sol\":1335:1344  uint256 a */\n      0x00\n        /* \"homework01/5/MergeArray.sol\":1347:1348  0 */\n      0x00\n        /* \"homework01/5/MergeArray.sol\":1335:1348  uint256 a = 0 */\n      swap1\n      pop\n        /* \"homework01/5/MergeArray.sol\":1358:1367  uint256 b */\n      0x00\n        /* \"homework01/5/MergeArray.sol\":1370:1371  0 */\n      0x00\n        /* \"homework01/5/MergeArray.sol\":1358:1371  uint256 b = 0 */\n      swap1\n      pop\n        /* \"homework01/5/MergeArray.sol\":1381:1390  uint256 c */\n      0x00\n        /* \"homework01/5/MergeArray.sol\":1393:1394  0 */\n      0x00\n        /* \"homework01/5/MergeArray.sol\":1381:1394  uint256 c = 0 */\n      swap1\n      pop\n        /* \"homework01/5/MergeArray.sol\":1404:1653  while (a < lenA && b < lenB) {... */\n    tag_22:\n        /* \"homework01/5/MergeArray.sol\":1415:1419  lenA */\n      dup6\n        /* \"homework01/5/MergeArray.sol\":1411:1412  a */\n      dup4\n        /* \"homework01/5/MergeArray.sol\":1411:1419  a < lenA */\n      lt\n        /* \"homework01/5/MergeArray.sol\":1411:1431  a < lenA && b < lenB */\n      dup1\n      iszero\n      tag_24\n      jumpi\n      pop\n        /* \"homework01/5/MergeArray.sol\":1427:1431  lenB */\n      dup5\n        /* \"homework01/5/MergeArray.sol\":1423:1424  b */\n      dup3\n        /* \"homework01/5/MergeArray.sol\":1423:1431  b < lenB */\n      lt\n        /* \"homework01/5/MergeArray.sol\":1411:1431  a < lenA && b < lenB */\n    tag_24:\n        /* \"homework01/5/MergeArray.sol\":1404:1653  while (a < lenA && b < lenB) {... */\n      iszero\n      tag_23\n      jumpi\n        /* \"homework01/5/MergeArray.sol\":1462:1467  dataB */\n      dup8\n        /* \"homework01/5/MergeArray.sol\":1468:1469  b */\n      dup3\n        /* \"homework01/5/MergeArray.sol\":1462:1470  dataB[b] */\n      dup2\n      mload\n      dup2\n      lt\n      tag_25\n      jumpi\n      tag_26\n      tag_27\n      jump\t// in\n    tag_26:\n    tag_25:\n      0x20\n      mul\n      0x20\n      add\n      add\n      mload\n        /* \"homework01/5/MergeArray.sol\":1451:1456  dataA */\n      dup10\n        /* \"homework01/5/MergeArray.sol\":1457:1458  a */\n      dup5\n        /* \"homework01/5/MergeArray.sol\":1451:1459  dataA[a] */\n      dup2\n      mload\n      dup2\n      lt\n      tag_28\n      jumpi\n      tag_29\n      tag_27\n      jump\t// in\n    tag_29:\n    tag_28:\n      0x20\n      mul\n      0x20\n      add\n      add\n      mload\n        /* \"homework01/5/MergeArray.sol\":1451:1470  dataA[a] < dataB[b] */\n      lt\n        /* \"homework01/5/MergeArray.sol\":1447:1626  if (dataA[a] < dataB[b]) {... */\n      iszero\n      tag_30\n      jumpi\n        /* \"homework01/5/MergeArray.sol\":1502:1507  dataA */\n      dup9\n        /* \"homework01/5/MergeArray.sol\":1508:1509  a */\n      dup4\n        /* \"homework01/5/MergeArray.sol\":1502:1510  dataA[a] */\n      dup2\n      mload\n      dup2\n      lt\n      tag_31\n      jumpi\n      tag_32\n      tag_27\n      jump\t// in\n    tag_32:\n    tag_31:\n      0x20\n      mul\n      0x20\n      add\n      add\n      mload\n        /* \"homework01/5/MergeArray.sol\":1490:1496  result */\n      dup5\n        /* \"homework01/5/MergeArray.sol\":1497:1498  c */\n      dup3\n        /* \"homework01/5/MergeArray.sol\":1490:1499  result[c] */\n      dup2\n      mload\n      dup2\n      lt\n      tag_33\n      jumpi\n      tag_34\n      tag_27\n      jump\t// in\n    tag_34:\n    tag_33:\n      0x20\n      mul\n      0x20\n      add\n      add\n        /* \"homework01/5/MergeArray.sol\":1490:1510  result[c] = dataA[a] */\n      dup2\n      dup2\n      mstore\n      pop\n      pop\n        /* \"homework01/5/MergeArray.sol\":1528:1531  a++ */\n      dup3\n      dup1\n      tag_35\n      swap1\n      tag_36\n      jump\t// in\n    tag_35:\n      swap4\n      pop\n      pop\n        /* \"homework01/5/MergeArray.sol\":1447:1626  if (dataA[a] < dataB[b]) {... */\n      jump(tag_37)\n    tag_30:\n        /* \"homework01/5/MergeArray.sol\":1582:1587  dataB */\n      dup8\n        /* \"homework01/5/MergeArray.sol\":1588:1589  b */\n      dup3\n        /* \"homework01/5/MergeArray.sol\":1582:1590  dataB[b] */\n      dup2\n      mload\n      dup2\n      lt\n      tag_38\n      jumpi\n      tag_39\n      tag_27\n      jump\t// in\n    tag_39:\n    tag_38:\n      0x20\n      mul\n      0x20\n      add\n      add\n      mload\n        /* \"homework01/5/MergeArray.sol\":1570:1576  result */\n      dup5\n        /* \"homework01/5/MergeArray.sol\":1577:1578  c */\n      dup3\n        /* \"homework01/5/MergeArray.sol\":1570:1579  result[c] */\n      dup2\n      mload\n      dup2\n      lt\n      tag_40\n      jumpi\n      tag_41\n      tag_27\n      jump\t// in\n    tag_41:\n    tag_40:\n      0x20\n      mul\n      0x20\n      add\n      add\n        /* \"homework01/5/MergeArray.sol\":1570:1590  result[c] = dataB[b] */\n      dup2\n      dup2\n      mstore\n      pop\n      pop\n        /* \"homework01/5/MergeArray.sol\":1608:1611  b++ */\n      dup2\n      dup1\n      tag_42\n      swap1\n      tag_36\n      jump\t// in\n    tag_42:\n      swap3\n      pop\n      pop\n        /* \"homework01/5/MergeArray.sol\":1447:1626  if (dataA[a] < dataB[b]) {... */\n    tag_37:\n        /* \"homework01/5/MergeArray.sol\":1639:1642  c++ */\n      dup1\n      dup1\n      tag_43\n      swap1\n      tag_36\n      jump\t// in\n    tag_43:\n      swap2\n      pop\n      pop\n        /* \"homework01/5/MergeArray.sol\":1404:1653  while (a < lenA && b < lenB) {... */\n      jump(tag_22)\n    tag_23:\n        /* \"homework01/5/MergeArray.sol\":1662:1759  while (a < lenA) {... */\n    tag_44:\n        /* \"homework01/5/MergeArray.sol\":1673:1677  lenA */\n      dup6\n        /* \"homework01/5/MergeArray.sol\":1669:1670  a */\n      dup4\n        /* \"homework01/5/MergeArray.sol\":1669:1677  a < lenA */\n      lt\n        /* \"homework01/5/MergeArray.sol\":1662:1759  while (a < lenA) {... */\n      iszero\n      tag_45\n      jumpi\n        /* \"homework01/5/MergeArray.sol\":1705:1710  dataA */\n      dup9\n        /* \"homework01/5/MergeArray.sol\":1711:1712  a */\n      dup4\n        /* \"homework01/5/MergeArray.sol\":1705:1713  dataA[a] */\n      dup2\n      mload\n      dup2\n      lt\n      tag_46\n      jumpi\n      tag_47\n      tag_27\n      jump\t// in\n    tag_47:\n    tag_46:\n      0x20\n      mul\n      0x20\n      add\n      add\n      mload\n        /* \"homework01/5/MergeArray.sol\":1693:1699  result */\n      dup5\n        /* \"homework01/5/MergeArray.sol\":1700:1701  c */\n      dup3\n        /* \"homework01/5/MergeArray.sol\":1693:1702  result[c] */\n      dup2\n      mload\n      dup2\n      lt\n      tag_48\n      jumpi\n      tag_49\n      tag_27\n      jump\t// in\n    tag_49:\n    tag_48:\n      0x20\n      mul\n      0x20\n      add\n      add\n        /* \"homework01/5/MergeArray.sol\":1693:1713  result[c] = dataA[a] */\n      dup2\n      dup2\n      mstore\n      pop\n      pop\n        /* \"homework01/5/MergeArray.sol\":1727:1730  a++ */\n      dup3\n      dup1\n      tag_50\n      swap1\n      tag_36\n      jump\t// in\n    tag_50:\n      swap4\n      pop\n      pop\n        /* \"homework01/5/MergeArray.sol\":1745:1748  c++ */\n      dup1\n      dup1\n      tag_51\n      swap1\n      tag_36\n      jump\t// in\n    tag_51:\n      swap2\n      pop\n      pop\n        /* \"homework01/5/MergeArray.sol\":1662:1759  while (a < lenA) {... */\n      jump(tag_44)\n    tag_45:\n        /* \"homework01/5/MergeArray.sol\":1768:1865  while (b < lenB) {... */\n    tag_52:\n        /* \"homework01/5/MergeArray.sol\":1779:1783  lenB */\n      dup5\n        /* \"homework01/5/MergeArray.sol\":1775:1776  b */\n      dup3\n        /* \"homework01/5/MergeArray.sol\":1775:1783  b < lenB */\n      lt\n        /* \"homework01/5/MergeArray.sol\":1768:1865  while (b < lenB) {... */\n      iszero\n      tag_53\n      jumpi\n        /* \"homework01/5/MergeArray.sol\":1811:1816  dataB */\n      dup8\n        /* \"homework01/5/MergeArray.sol\":1817:1818  b */\n      dup3\n        /* \"homework01/5/MergeArray.sol\":1811:1819  dataB[b] */\n      dup2\n      mload\n      dup2\n      lt\n      tag_54\n      jumpi\n      tag_55\n      tag_27\n      jump\t// in\n    tag_55:\n    tag_54:\n      0x20\n      mul\n      0x20\n      add\n      add\n      mload\n        /* \"homework01/5/MergeArray.sol\":1799:1805  result */\n      dup5\n        /* \"homework01/5/MergeArray.sol\":1806:1807  c */\n      dup3\n        /* \"homework01/5/MergeArray.sol\":1799:1808  result[c] */\n      dup2\n      mload\n      dup2\n      lt\n      tag_56\n      jumpi\n      tag_57\n      tag_27\n      jump\t// in\n    tag_57:\n    tag_56:\n      0x20\n      mul\n      0x20\n      add\n      add\n        /* \"homework01/5/MergeArray.sol\":1799:1819  result[c] = dataB[b] */\n      dup2\n      dup2\n      mstore\n      pop\n      pop\n        /* \"homework01/5/MergeArray.sol\":1833:1836  b++ */\n      dup2\n      dup1\n      tag_58\n      swap1\n      tag_36\n      jump\t// in\n    tag_58:\n      swap3\n      pop\n      pop\n        /* \"homework01/5/MergeArray.sol\":1851:1854  c++ */\n      dup1\n      dup1\n      tag_59\n      swap1\n      tag_36\n      jump\t// in\n    tag_59:\n      swap2\n      pop\n      pop\n        /* \"homework01/5/MergeArray.sol\":1768:1865  while (b < lenB) {... */\n      jump(tag_52)\n    tag_53:\n        /* \"homework01/5/MergeArray.sol\":1881:1887  result */\n      dup4\n        /* \"homework01/5/MergeArray.sol\":1874:1887  return result */\n      swap7\n      pop\n      pop\n      pop\n      pop\n      pop\n      pop\n      pop\n        /* \"homework01/5/MergeArray.sol\":1048:1894  function processArray2(... */\n      swap3\n      swap2\n      pop\n      pop\n      jump\t// out\n        /* \"homework01/5/MergeArray.sol\":135:1043  function processArray(... */\n    tag_13:\n        /* \"homework01/5/MergeArray.sol\":242:255  uint[] memory */\n      0x60\n        /* \"homework01/5/MergeArray.sol\":267:276  uint lenA */\n      0x00\n        /* \"homework01/5/MergeArray.sol\":279:284  dataA */\n      dup4\n        /* \"homework01/5/MergeArray.sol\":279:291  dataA.length */\n      mload\n        /* \"homework01/5/MergeArray.sol\":267:291  uint lenA = dataA.length */\n      swap1\n      pop\n        /* \"homework01/5/MergeArray.sol\":301:310  uint lenB */\n      0x00\n        /* \"homework01/5/MergeArray.sol\":313:318  dataB */\n      dup4\n        /* \"homework01/5/MergeArray.sol\":313:325  dataB.length */\n      mload\n        /* \"homework01/5/MergeArray.sol\":301:325  uint lenB = dataB.length */\n      swap1\n      pop\n        /* \"homework01/5/MergeArray.sol\":335:358  uint256[] memory result */\n      0x00\n        /* \"homework01/5/MergeArray.sol\":382:386  lenB */\n      dup2\n        /* \"homework01/5/MergeArray.sol\":375:379  lenA */\n      dup4\n        /* \"homework01/5/MergeArray.sol\":375:386  lenA + lenB */\n      tag_61\n      swap2\n      swap1\n      tag_17\n      jump\t// in\n    tag_61:\n        /* \"homework01/5/MergeArray.sol\":361:387  new uint256[](lenA + lenB) */\n      0xffffffffffffffff\n      dup2\n      gt\n      iszero\n      tag_62\n      jumpi\n      tag_63\n      tag_20\n      jump\t// in\n    tag_63:\n    tag_62:\n      mload(0x40)\n      swap1\n      dup1\n      dup3\n      mstore\n      dup1\n      0x20\n      mul\n      0x20\n      add\n      dup3\n      add\n      0x40\n      mstore\n      dup1\n      iszero\n      tag_64\n      jumpi\n      dup2\n      0x20\n      add\n      0x20\n      dup3\n      mul\n      dup1\n      calldatasize\n      dup4\n      calldatacopy\n      dup1\n      dup3\n      add\n      swap2\n      pop\n      pop\n      swap1\n      pop\n    tag_64:\n      pop\n        /* \"homework01/5/MergeArray.sol\":335:387  uint256[] memory result = new uint256[](lenA + lenB) */\n      swap1\n      pop\n        /* \"homework01/5/MergeArray.sol\":421:430  uint256 a */\n      0x00\n        /* \"homework01/5/MergeArray.sol\":433:434  0 */\n      0x00\n        /* \"homework01/5/MergeArray.sol\":421:434  uint256 a = 0 */\n      swap1\n      pop\n        /* \"homework01/5/MergeArray.sol\":444:453  uint256 b */\n      0x00\n        /* \"homework01/5/MergeArray.sol\":456:457  0 */\n      0x00\n        /* \"homework01/5/MergeArray.sol\":444:457  uint256 b = 0 */\n      swap1\n      pop\n        /* \"homework01/5/MergeArray.sol\":467:476  uint256 c */\n      0x00\n        /* \"homework01/5/MergeArray.sol\":479:480  0 */\n      0x00\n        /* \"homework01/5/MergeArray.sol\":467:480  uint256 c = 0 */\n      swap1\n      pop\n        /* \"homework01/5/MergeArray.sol\":490:1014  for (;;) {... */\n    tag_65:\n        /* \"homework01/5/MergeArray.sol\":522:526  lenA */\n      dup6\n        /* \"homework01/5/MergeArray.sol\":517:518  a */\n      dup4\n        /* \"homework01/5/MergeArray.sol\":517:526  a == lenA */\n      eq\n        /* \"homework01/5/MergeArray.sol\":517:539  a == lenA && b != lenB */\n      dup1\n      iszero\n      tag_68\n      jumpi\n      pop\n        /* \"homework01/5/MergeArray.sol\":535:539  lenB */\n      dup5\n        /* \"homework01/5/MergeArray.sol\":530:531  b */\n      dup3\n        /* \"homework01/5/MergeArray.sol\":530:539  b != lenB */\n      eq\n      iszero\n        /* \"homework01/5/MergeArray.sol\":517:539  a == lenA && b != lenB */\n    tag_68:\n        /* \"homework01/5/MergeArray.sol\":513:908  if (a == lenA && b != lenB) {... */\n      iszero\n      tag_69\n      jumpi\n        /* \"homework01/5/MergeArray.sol\":571:576  dataB */\n      dup8\n        /* \"homework01/5/MergeArray.sol\":577:578  b */\n      dup3\n        /* \"homework01/5/MergeArray.sol\":571:579  dataB[b] */\n      dup2\n      mload\n      dup2\n      lt\n      tag_70\n      jumpi\n      tag_71\n      tag_27\n      jump\t// in\n    tag_71:\n    tag_70:\n      0x20\n      mul\n      0x20\n      add\n      add\n      mload\n        /* \"homework01/5/MergeArray.sol\":559:565  result */\n      dup5\n        /* \"homework01/5/MergeArray.sol\":566:567  c */\n      dup3\n        /* \"homework01/5/MergeArray.sol\":559:568  result[c] */\n      dup2\n      mload\n      dup2\n      lt\n      tag_72\n      jumpi\n      tag_73\n      tag_27\n      jump\t// in\n    tag_73:\n    tag_72:\n      0x20\n      mul\n      0x20\n      add\n      add\n        /* \"homework01/5/MergeArray.sol\":559:579  result[c] = dataB[b] */\n      dup2\n      dup2\n      mstore\n      pop\n      pop\n        /* \"homework01/5/MergeArray.sol\":597:600  b++ */\n      dup2\n      dup1\n      tag_74\n      swap1\n      tag_36\n      jump\t// in\n    tag_74:\n      swap3\n      pop\n      pop\n        /* \"homework01/5/MergeArray.sol\":513:908  if (a == lenA && b != lenB) {... */\n      jump(tag_75)\n    tag_69:\n        /* \"homework01/5/MergeArray.sol\":630:634  lenA */\n      dup6\n        /* \"homework01/5/MergeArray.sol\":625:626  a */\n      dup4\n        /* \"homework01/5/MergeArray.sol\":625:634  a != lenA */\n      eq\n      iszero\n        /* \"homework01/5/MergeArray.sol\":625:647  a != lenA && b == lenB */\n      dup1\n      iszero\n      tag_76\n      jumpi\n      pop\n        /* \"homework01/5/MergeArray.sol\":643:647  lenB */\n      dup5\n        /* \"homework01/5/MergeArray.sol\":638:639  b */\n      dup3\n        /* \"homework01/5/MergeArray.sol\":638:647  b == lenB */\n      eq\n        /* \"homework01/5/MergeArray.sol\":625:647  a != lenA && b == lenB */\n    tag_76:\n        /* \"homework01/5/MergeArray.sol\":621:908  if (a != lenA && b == lenB) {... */\n      iszero\n      tag_77\n      jumpi\n        /* \"homework01/5/MergeArray.sol\":679:684  dataA */\n      dup9\n        /* \"homework01/5/MergeArray.sol\":685:686  a */\n      dup4\n        /* \"homework01/5/MergeArray.sol\":679:687  dataA[a] */\n      dup2\n      mload\n      dup2\n      lt\n      tag_78\n      jumpi\n      tag_79\n      tag_27\n      jump\t// in\n    tag_79:\n    tag_78:\n      0x20\n      mul\n      0x20\n      add\n      add\n      mload\n        /* \"homework01/5/MergeArray.sol\":667:673  result */\n      dup5\n        /* \"homework01/5/MergeArray.sol\":674:675  c */\n      dup3\n        /* \"homework01/5/MergeArray.sol\":667:676  result[c] */\n      dup2\n      mload\n      dup2\n      lt\n      tag_80\n      jumpi\n      tag_81\n      tag_27\n      jump\t// in\n    tag_81:\n    tag_80:\n      0x20\n      mul\n      0x20\n      add\n      add\n        /* \"homework01/5/MergeArray.sol\":667:687  result[c] = dataA[a] */\n      dup2\n      dup2\n      mstore\n      pop\n      pop\n        /* \"homework01/5/MergeArray.sol\":705:708  a++ */\n      dup3\n      dup1\n      tag_82\n      swap1\n      tag_36\n      jump\t// in\n    tag_82:\n      swap4\n      pop\n      pop\n        /* \"homework01/5/MergeArray.sol\":621:908  if (a != lenA && b == lenB) {... */\n      jump(tag_83)\n    tag_77:\n        /* \"homework01/5/MergeArray.sol\":744:749  dataB */\n      dup8\n        /* \"homework01/5/MergeArray.sol\":750:751  b */\n      dup3\n        /* \"homework01/5/MergeArray.sol\":744:752  dataB[b] */\n      dup2\n      mload\n      dup2\n      lt\n      tag_84\n      jumpi\n      tag_85\n      tag_27\n      jump\t// in\n    tag_85:\n    tag_84:\n      0x20\n      mul\n      0x20\n      add\n      add\n      mload\n        /* \"homework01/5/MergeArray.sol\":733:738  dataA */\n      dup10\n        /* \"homework01/5/MergeArray.sol\":739:740  a */\n      dup5\n        /* \"homework01/5/MergeArray.sol\":733:741  dataA[a] */\n      dup2\n      mload\n      dup2\n      lt\n      tag_86\n      jumpi\n      tag_87\n      tag_27\n      jump\t// in\n    tag_87:\n    tag_86:\n      0x20\n      mul\n      0x20\n      add\n      add\n      mload\n        /* \"homework01/5/MergeArray.sol\":733:752  dataA[a] < dataB[b] */\n      lt\n        /* \"homework01/5/MergeArray.sol\":729:908  if (dataA[a] < dataB[b]) {... */\n      iszero\n      tag_88\n      jumpi\n        /* \"homework01/5/MergeArray.sol\":784:789  dataA */\n      dup9\n        /* \"homework01/5/MergeArray.sol\":790:791  a */\n      dup4\n        /* \"homework01/5/MergeArray.sol\":784:792  dataA[a] */\n      dup2\n      mload\n      dup2\n      lt\n      tag_89\n      jumpi\n      tag_90\n      tag_27\n      jump\t// in\n    tag_90:\n    tag_89:\n      0x20\n      mul\n      0x20\n      add\n      add\n      mload\n        /* \"homework01/5/MergeArray.sol\":772:778  result */\n      dup5\n        /* \"homework01/5/MergeArray.sol\":779:780  c */\n      dup3\n        /* \"homework01/5/MergeArray.sol\":772:781  result[c] */\n      dup2\n      mload\n      dup2\n      lt\n      tag_91\n      jumpi\n      tag_92\n      tag_27\n      jump\t// in\n    tag_92:\n    tag_91:\n      0x20\n      mul\n      0x20\n      add\n      add\n        /* \"homework01/5/MergeArray.sol\":772:792  result[c] = dataA[a] */\n      dup2\n      dup2\n      mstore\n      pop\n      pop\n        /* \"homework01/5/MergeArray.sol\":810:813  a++ */\n      dup3\n      dup1\n      tag_93\n      swap1\n      tag_36\n      jump\t// in\n    tag_93:\n      swap4\n      pop\n      pop\n        /* \"homework01/5/MergeArray.sol\":729:908  if (dataA[a] < dataB[b]) {... */\n      jump(tag_94)\n    tag_88:\n        /* \"homework01/5/MergeArray.sol\":864:869  dataB */\n      dup8\n        /* \"homework01/5/MergeArray.sol\":870:871  b */\n      dup3\n        /* \"homework01/5/MergeArray.sol\":864:872  dataB[b] */\n      dup2\n      mload\n      dup2\n      lt\n      tag_95\n      jumpi\n      tag_96\n      tag_27\n      jump\t// in\n    tag_96:\n    tag_95:\n      0x20\n      mul\n      0x20\n      add\n      add\n      mload\n        /* \"homework01/5/MergeArray.sol\":852:858  result */\n      dup5\n        /* \"homework01/5/MergeArray.sol\":859:860  c */\n      dup3\n        /* \"homework01/5/MergeArray.sol\":852:861  result[c] */\n      dup2\n      mload\n      dup2\n      lt\n      tag_97\n      jumpi\n      tag_98\n      tag_27\n      jump\t// in\n    tag_98:\n    tag_97:\n      0x20\n      mul\n      0x20\n      add\n      add\n        /* \"homework01/5/MergeArray.sol\":852:872  result[c] = dataB[b] */\n      dup2\n      dup2\n      mstore\n      pop\n      pop\n        /* \"homework01/5/MergeArray.sol\":890:893  b++ */\n      dup2\n      dup1\n      tag_99\n      swap1\n      tag_36\n      jump\t// in\n    tag_99:\n      swap3\n      pop\n      pop\n        /* \"homework01/5/MergeArray.sol\":729:908  if (dataA[a] < dataB[b]) {... */\n    tag_94:\n        /* \"homework01/5/MergeArray.sol\":621:908  if (a != lenA && b == lenB) {... */\n    tag_83:\n        /* \"homework01/5/MergeArray.sol\":513:908  if (a == lenA && b != lenB) {... */\n    tag_75:\n        /* \"homework01/5/MergeArray.sol\":921:924  c++ */\n      dup1\n      dup1\n      tag_100\n      swap1\n      tag_36\n      jump\t// in\n    tag_100:\n      swap2\n      pop\n      pop\n        /* \"homework01/5/MergeArray.sol\":947:951  lenA */\n      dup6\n        /* \"homework01/5/MergeArray.sol\":942:943  a */\n      dup4\n        /* \"homework01/5/MergeArray.sol\":942:951  a == lenA */\n      eq\n        /* \"homework01/5/MergeArray.sol\":942:964  a == lenA && b == lenB */\n      dup1\n      iszero\n      tag_101\n      jumpi\n      pop\n        /* \"homework01/5/MergeArray.sol\":960:964  lenB */\n      dup5\n        /* \"homework01/5/MergeArray.sol\":955:956  b */\n      dup3\n        /* \"homework01/5/MergeArray.sol\":955:964  b == lenB */\n      eq\n        /* \"homework01/5/MergeArray.sol\":942:964  a == lenA && b == lenB */\n    tag_101:\n        /* \"homework01/5/MergeArray.sol\":938:1004  if (a == lenA && b == lenB) {... */\n      iszero\n        /* \"homework01/5/MergeArray.sol\":490:1014  for (;;) {... */\n      tag_65\n        /* \"homework01/5/MergeArray.sol\":938:1004  if (a == lenA && b == lenB) {... */\n      jumpi\n        /* \"homework01/5/MergeArray.sol\":1030:1036  result */\n      dup4\n        /* \"homework01/5/MergeArray.sol\":1023:1036  return result */\n      swap7\n      pop\n      pop\n      pop\n      pop\n      pop\n      pop\n      pop\n        /* \"homework01/5/MergeArray.sol\":135:1043  function processArray(... */\n      swap3\n      swap2\n      pop\n      pop\n      jump\t// out\n        /* \"#utility.yul\":7:82   */\n    tag_103:\n        /* \"#utility.yul\":40:46   */\n      0x00\n        /* \"#utility.yul\":73:75   */\n      0x40\n        /* \"#utility.yul\":67:76   */\n      mload\n        /* \"#utility.yul\":57:76   */\n      swap1\n      pop\n        /* \"#utility.yul\":7:82   */\n      swap1\n      jump\t// out\n        /* \"#utility.yul\":88:205   */\n    tag_104:\n        /* \"#utility.yul\":197:198   */\n      0x00\n        /* \"#utility.yul\":194:195   */\n      0x00\n        /* \"#utility.yul\":187:199   */\n      revert\n        /* \"#utility.yul\":211:328   */\n    tag_105:\n        /* \"#utility.yul\":320:321   */\n      0x00\n        /* \"#utility.yul\":317:318   */\n      0x00\n        /* \"#utility.yul\":310:322   */\n      revert\n        /* \"#utility.yul\":334:451   */\n    tag_106:\n        /* \"#utility.yul\":443:444   */\n      0x00\n        /* \"#utility.yul\":440:441   */\n      0x00\n        /* \"#utility.yul\":433:445   */\n      revert\n        /* \"#utility.yul\":457:559   */\n    tag_107:\n        /* \"#utility.yul\":498:504   */\n      0x00\n        /* \"#utility.yul\":549:551   */\n      0x1f\n        /* \"#utility.yul\":545:552   */\n      not\n        /* \"#utility.yul\":540:542   */\n      0x1f\n        /* \"#utility.yul\":533:538   */\n      dup4\n        /* \"#utility.yul\":529:543   */\n      add\n        /* \"#utility.yul\":525:553   */\n      and\n        /* \"#utility.yul\":515:553   */\n      swap1\n      pop\n        /* \"#utility.yul\":457:559   */\n      swap2\n      swap1\n      pop\n      jump\t// out\n        /* \"#utility.yul\":565:745   */\n    tag_20:\n        /* \"#utility.yul\":613:690   */\n      0x4e487b7100000000000000000000000000000000000000000000000000000000\n        /* \"#utility.yul\":610:611   */\n      0x00\n        /* \"#utility.yul\":603:691   */\n      mstore\n        /* \"#utility.yul\":710:714   */\n      0x41\n        /* \"#utility.yul\":707:708   */\n      0x04\n        /* \"#utility.yul\":700:715   */\n      mstore\n        /* \"#utility.yul\":734:738   */\n      0x24\n        /* \"#utility.yul\":731:732   */\n      0x00\n        /* \"#utility.yul\":724:739   */\n      revert\n        /* \"#utility.yul\":751:1032   */\n    tag_108:\n        /* \"#utility.yul\":834:861   */\n      tag_133\n        /* \"#utility.yul\":856:860   */\n      dup3\n        /* \"#utility.yul\":834:861   */\n      tag_107\n      jump\t// in\n    tag_133:\n        /* \"#utility.yul\":826:832   */\n      dup2\n        /* \"#utility.yul\":822:862   */\n      add\n        /* \"#utility.yul\":964:970   */\n      dup2\n        /* \"#utility.yul\":952:962   */\n      dup2\n        /* \"#utility.yul\":949:971   */\n      lt\n        /* \"#utility.yul\":928:946   */\n      0xffffffffffffffff\n        /* \"#utility.yul\":916:926   */\n      dup3\n        /* \"#utility.yul\":913:947   */\n      gt\n        /* \"#utility.yul\":910:972   */\n      or\n        /* \"#utility.yul\":907:995   */\n      iszero\n      tag_134\n      jumpi\n        /* \"#utility.yul\":975:993   */\n      tag_135\n      tag_20\n      jump\t// in\n    tag_135:\n        /* \"#utility.yul\":907:995   */\n    tag_134:\n        /* \"#utility.yul\":1015:1025   */\n      dup1\n        /* \"#utility.yul\":1011:1013   */\n      0x40\n        /* \"#utility.yul\":1004:1026   */\n      mstore\n        /* \"#utility.yul\":794:1032   */\n      pop\n        /* \"#utility.yul\":751:1032   */\n      pop\n      pop\n      jump\t// out\n        /* \"#utility.yul\":1038:1167   */\n    tag_109:\n        /* \"#utility.yul\":1072:1078   */\n      0x00\n        /* \"#utility.yul\":1099:1119   */\n      tag_137\n      tag_103\n      jump\t// in\n    tag_137:\n        /* \"#utility.yul\":1089:1119   */\n      swap1\n      pop\n        /* \"#utility.yul\":1128:1161   */\n      tag_138\n        /* \"#utility.yul\":1156:1160   */\n      dup3\n        /* \"#utility.yul\":1148:1154   */\n      dup3\n        /* \"#utility.yul\":1128:1161   */\n      tag_108\n      jump\t// in\n    tag_138:\n        /* \"#utility.yul\":1038:1167   */\n      swap2\n      swap1\n      pop\n      jump\t// out\n        /* \"#utility.yul\":1173:1484   */\n    tag_110:\n        /* \"#utility.yul\":1250:1254   */\n      0x00\n        /* \"#utility.yul\":1340:1358   */\n      0xffffffffffffffff\n        /* \"#utility.yul\":1332:1338   */\n      dup3\n        /* \"#utility.yul\":1329:1359   */\n      gt\n        /* \"#utility.yul\":1326:1382   */\n      iszero\n      tag_140\n      jumpi\n        /* \"#utility.yul\":1362:1380   */\n      tag_141\n      tag_20\n      jump\t// in\n    tag_141:\n        /* \"#utility.yul\":1326:1382   */\n    tag_140:\n        /* \"#utility.yul\":1412:1416   */\n      0x20\n        /* \"#utility.yul\":1404:1410   */\n      dup3\n        /* \"#utility.yul\":1400:1417   */\n      mul\n        /* \"#utility.yul\":1392:1417   */\n      swap1\n      pop\n        /* \"#utility.yul\":1472:1476   */\n      0x20\n        /* \"#utility.yul\":1466:1470   */\n      dup2\n        /* \"#utility.yul\":1462:1477   */\n      add\n        /* \"#utility.yul\":1454:1477   */\n      swap1\n      pop\n        /* \"#utility.yul\":1173:1484   */\n      swap2\n      swap1\n      pop\n      jump\t// out\n        /* \"#utility.yul\":1490:1607   */\n    tag_111:\n        /* \"#utility.yul\":1599:1600   */\n      0x00\n        /* \"#utility.yul\":1596:1597   */\n      0x00\n        /* \"#utility.yul\":1589:1601   */\n      revert\n        /* \"#utility.yul\":1613:1690   */\n    tag_112:\n        /* \"#utility.yul\":1650:1657   */\n      0x00\n        /* \"#utility.yul\":1679:1684   */\n      dup2\n        /* \"#utility.yul\":1668:1684   */\n      swap1\n      pop\n        /* \"#utility.yul\":1613:1690   */\n      swap2\n      swap1\n      pop\n      jump\t// out\n        /* \"#utility.yul\":1696:1818   */\n    tag_113:\n        /* \"#utility.yul\":1769:1793   */\n      tag_145\n        /* \"#utility.yul\":1787:1792   */\n      dup2\n        /* \"#utility.yul\":1769:1793   */\n      tag_112\n      jump\t// in\n    tag_145:\n        /* \"#utility.yul\":1762:1767   */\n      dup2\n        /* \"#utility.yul\":1759:1794   */\n      eq\n        /* \"#utility.yul\":1749:1812   */\n      tag_146\n      jumpi\n        /* \"#utility.yul\":1808:1809   */\n      0x00\n        /* \"#utility.yul\":1805:1806   */\n      0x00\n        /* \"#utility.yul\":1798:1810   */\n      revert\n        /* \"#utility.yul\":1749:1812   */\n    tag_146:\n        /* \"#utility.yul\":1696:1818   */\n      pop\n      jump\t// out\n        /* \"#utility.yul\":1824:1963   */\n    tag_114:\n        /* \"#utility.yul\":1870:1875   */\n      0x00\n        /* \"#utility.yul\":1908:1914   */\n      dup2\n        /* \"#utility.yul\":1895:1915   */\n      calldataload\n        /* \"#utility.yul\":1886:1915   */\n      swap1\n      pop\n        /* \"#utility.yul\":1924:1957   */\n      tag_148\n        /* \"#utility.yul\":1951:1956   */\n      dup2\n        /* \"#utility.yul\":1924:1957   */\n      tag_113\n      jump\t// in\n    tag_148:\n        /* \"#utility.yul\":1824:1963   */\n      swap3\n      swap2\n      pop\n      pop\n      jump\t// out\n        /* \"#utility.yul\":1986:2696   */\n    tag_115:\n        /* \"#utility.yul\":2082:2087   */\n      0x00\n        /* \"#utility.yul\":2107:2188   */\n      tag_150\n        /* \"#utility.yul\":2123:2187   */\n      tag_151\n        /* \"#utility.yul\":2180:2186   */\n      dup5\n        /* \"#utility.yul\":2123:2187   */\n      tag_110\n      jump\t// in\n    tag_151:\n        /* \"#utility.yul\":2107:2188   */\n      tag_109\n      jump\t// in\n    tag_150:\n        /* \"#utility.yul\":2098:2188   */\n      swap1\n      pop\n        /* \"#utility.yul\":2208:2213   */\n      dup1\n        /* \"#utility.yul\":2237:2243   */\n      dup4\n        /* \"#utility.yul\":2230:2235   */\n      dup3\n        /* \"#utility.yul\":2223:2244   */\n      mstore\n        /* \"#utility.yul\":2271:2275   */\n      0x20\n        /* \"#utility.yul\":2264:2269   */\n      dup3\n        /* \"#utility.yul\":2260:2276   */\n      add\n        /* \"#utility.yul\":2253:2276   */\n      swap1\n      pop\n        /* \"#utility.yul\":2324:2328   */\n      0x20\n        /* \"#utility.yul\":2316:2322   */\n      dup5\n        /* \"#utility.yul\":2312:2329   */\n      mul\n        /* \"#utility.yul\":2304:2310   */\n      dup4\n        /* \"#utility.yul\":2300:2330   */\n      add\n        /* \"#utility.yul\":2353:2356   */\n      dup6\n        /* \"#utility.yul\":2345:2351   */\n      dup2\n        /* \"#utility.yul\":2342:2357   */\n      gt\n        /* \"#utility.yul\":2339:2461   */\n      iszero\n      tag_152\n      jumpi\n        /* \"#utility.yul\":2372:2451   */\n      tag_153\n      tag_111\n      jump\t// in\n    tag_153:\n        /* \"#utility.yul\":2339:2461   */\n    tag_152:\n        /* \"#utility.yul\":2487:2493   */\n      dup4\n        /* \"#utility.yul\":2470:2690   */\n    tag_154:\n        /* \"#utility.yul\":2504:2510   */\n      dup2\n        /* \"#utility.yul\":2499:2502   */\n      dup2\n        /* \"#utility.yul\":2496:2511   */\n      lt\n        /* \"#utility.yul\":2470:2690   */\n      iszero\n      tag_156\n      jumpi\n        /* \"#utility.yul\":2579:2582   */\n      dup1\n        /* \"#utility.yul\":2608:2645   */\n      tag_157\n        /* \"#utility.yul\":2641:2644   */\n      dup9\n        /* \"#utility.yul\":2629:2639   */\n      dup3\n        /* \"#utility.yul\":2608:2645   */\n      tag_114\n      jump\t// in\n    tag_157:\n        /* \"#utility.yul\":2603:2606   */\n      dup5\n        /* \"#utility.yul\":2596:2646   */\n      mstore\n        /* \"#utility.yul\":2675:2679   */\n      0x20\n        /* \"#utility.yul\":2670:2673   */\n      dup5\n        /* \"#utility.yul\":2666:2680   */\n      add\n        /* \"#utility.yul\":2659:2680   */\n      swap4\n      pop\n        /* \"#utility.yul\":2546:2690   */\n      pop\n        /* \"#utility.yul\":2530:2534   */\n      0x20\n        /* \"#utility.yul\":2525:2528   */\n      dup2\n        /* \"#utility.yul\":2521:2535   */\n      add\n        /* \"#utility.yul\":2514:2535   */\n      swap1\n      pop\n        /* \"#utility.yul\":2470:2690   */\n      jump(tag_154)\n    tag_156:\n        /* \"#utility.yul\":2474:2495   */\n      pop\n        /* \"#utility.yul\":2088:2696   */\n      pop\n      pop\n        /* \"#utility.yul\":1986:2696   */\n      swap4\n      swap3\n      pop\n      pop\n      pop\n      jump\t// out\n        /* \"#utility.yul\":2719:3089   */\n    tag_116:\n        /* \"#utility.yul\":2790:2795   */\n      0x00\n        /* \"#utility.yul\":2839:2842   */\n      dup3\n        /* \"#utility.yul\":2832:2836   */\n      0x1f\n        /* \"#utility.yul\":2824:2830   */\n      dup4\n        /* \"#utility.yul\":2820:2837   */\n      add\n        /* \"#utility.yul\":2816:2843   */\n      slt\n        /* \"#utility.yul\":2806:2928   */\n      tag_159\n      jumpi\n        /* \"#utility.yul\":2847:2926   */\n      tag_160\n      tag_106\n      jump\t// in\n    tag_160:\n        /* \"#utility.yul\":2806:2928   */\n    tag_159:\n        /* \"#utility.yul\":2964:2970   */\n      dup2\n        /* \"#utility.yul\":2951:2971   */\n      calldataload\n        /* \"#utility.yul\":2989:3083   */\n      tag_161\n        /* \"#utility.yul\":3079:3082   */\n      dup5\n        /* \"#utility.yul\":3071:3077   */\n      dup3\n        /* \"#utility.yul\":3064:3068   */\n      0x20\n        /* \"#utility.yul\":3056:3062   */\n      dup7\n        /* \"#utility.yul\":3052:3069   */\n      add\n        /* \"#utility.yul\":2989:3083   */\n      tag_115\n      jump\t// in\n    tag_161:\n        /* \"#utility.yul\":2980:3083   */\n      swap2\n      pop\n        /* \"#utility.yul\":2796:3089   */\n      pop\n        /* \"#utility.yul\":2719:3089   */\n      swap3\n      swap2\n      pop\n      pop\n      jump\t// out\n        /* \"#utility.yul\":3095:3989   */\n    tag_7:\n        /* \"#utility.yul\":3213:3219   */\n      0x00\n        /* \"#utility.yul\":3221:3227   */\n      0x00\n        /* \"#utility.yul\":3270:3272   */\n      0x40\n        /* \"#utility.yul\":3258:3267   */\n      dup4\n        /* \"#utility.yul\":3249:3256   */\n      dup6\n        /* \"#utility.yul\":3245:3268   */\n      sub\n        /* \"#utility.yul\":3241:3273   */\n      slt\n        /* \"#utility.yul\":3238:3357   */\n      iszero\n      tag_163\n      jumpi\n        /* \"#utility.yul\":3276:3355   */\n      tag_164\n      tag_104\n      jump\t// in\n    tag_164:\n        /* \"#utility.yul\":3238:3357   */\n    tag_163:\n        /* \"#utility.yul\":3424:3425   */\n      0x00\n        /* \"#utility.yul\":3413:3422   */\n      dup4\n        /* \"#utility.yul\":3409:3426   */\n      add\n        /* \"#utility.yul\":3396:3427   */\n      calldataload\n        /* \"#utility.yul\":3454:3472   */\n      0xffffffffffffffff\n        /* \"#utility.yul\":3446:3452   */\n      dup2\n        /* \"#utility.yul\":3443:3473   */\n      gt\n        /* \"#utility.yul\":3440:3557   */\n      iszero\n      tag_165\n      jumpi\n        /* \"#utility.yul\":3476:3555   */\n      tag_166\n      tag_105\n      jump\t// in\n    tag_166:\n        /* \"#utility.yul\":3440:3557   */\n    tag_165:\n        /* \"#utility.yul\":3581:3659   */\n      tag_167\n        /* \"#utility.yul\":3651:3658   */\n      dup6\n        /* \"#utility.yul\":3642:3648   */\n      dup3\n        /* \"#utility.yul\":3631:3640   */\n      dup7\n        /* \"#utility.yul\":3627:3649   */\n      add\n        /* \"#utility.yul\":3581:3659   */\n      tag_116\n      jump\t// in\n    tag_167:\n        /* \"#utility.yul\":3571:3659   */\n      swap3\n      pop\n        /* \"#utility.yul\":3367:3669   */\n      pop\n        /* \"#utility.yul\":3736:3738   */\n      0x20\n        /* \"#utility.yul\":3725:3734   */\n      dup4\n        /* \"#utility.yul\":3721:3739   */\n      add\n        /* \"#utility.yul\":3708:3740   */\n      calldataload\n        /* \"#utility.yul\":3767:3785   */\n      0xffffffffffffffff\n        /* \"#utility.yul\":3759:3765   */\n      dup2\n        /* \"#utility.yul\":3756:3786   */\n      gt\n        /* \"#utility.yul\":3753:3870   */\n      iszero\n      tag_168\n      jumpi\n        /* \"#utility.yul\":3789:3868   */\n      tag_169\n      tag_105\n      jump\t// in\n    tag_169:\n        /* \"#utility.yul\":3753:3870   */\n    tag_168:\n        /* \"#utility.yul\":3894:3972   */\n      tag_170\n        /* \"#utility.yul\":3964:3971   */\n      dup6\n        /* \"#utility.yul\":3955:3961   */\n      dup3\n        /* \"#utility.yul\":3944:3953   */\n      dup7\n        /* \"#utility.yul\":3940:3962   */\n      add\n        /* \"#utility.yul\":3894:3972   */\n      tag_116\n      jump\t// in\n    tag_170:\n        /* \"#utility.yul\":3884:3972   */\n      swap2\n      pop\n        /* \"#utility.yul\":3679:3982   */\n      pop\n        /* \"#utility.yul\":3095:3989   */\n      swap3\n      pop\n      swap3\n      swap1\n      pop\n      jump\t// out\n        /* \"#utility.yul\":3995:4109   */\n    tag_117:\n        /* \"#utility.yul\":4062:4068   */\n      0x00\n        /* \"#utility.yul\":4096:4101   */\n      dup2\n        /* \"#utility.yul\":4090:4102   */\n      mload\n        /* \"#utility.yul\":4080:4102   */\n      swap1\n      pop\n        /* \"#utility.yul\":3995:4109   */\n      swap2\n      swap1\n      pop\n      jump\t// out\n        /* \"#utility.yul\":4115:4299   */\n    tag_118:\n        /* \"#utility.yul\":4214:4225   */\n      0x00\n        /* \"#utility.yul\":4248:4254   */\n      dup3\n        /* \"#utility.yul\":4243:4246   */\n      dup3\n        /* \"#utility.yul\":4236:4255   */\n      mstore\n        /* \"#utility.yul\":4288:4292   */\n      0x20\n        /* \"#utility.yul\":4283:4286   */\n      dup3\n        /* \"#utility.yul\":4279:4293   */\n      add\n        /* \"#utility.yul\":4264:4293   */\n      swap1\n      pop\n        /* \"#utility.yul\":4115:4299   */\n      swap3\n      swap2\n      pop\n      pop\n      jump\t// out\n        /* \"#utility.yul\":4305:4437   */\n    tag_119:\n        /* \"#utility.yul\":4372:4376   */\n      0x00\n        /* \"#utility.yul\":4395:4398   */\n      dup2\n        /* \"#utility.yul\":4387:4398   */\n      swap1\n      pop\n        /* \"#utility.yul\":4425:4429   */\n      0x20\n        /* \"#utility.yul\":4420:4423   */\n      dup3\n        /* \"#utility.yul\":4416:4430   */\n      add\n        /* \"#utility.yul\":4408:4430   */\n      swap1\n      pop\n        /* \"#utility.yul\":4305:4437   */\n      swap2\n      swap1\n      pop\n      jump\t// out\n        /* \"#utility.yul\":4443:4551   */\n    tag_120:\n        /* \"#utility.yul\":4520:4544   */\n      tag_175\n        /* \"#utility.yul\":4538:4543   */\n      dup2\n        /* \"#utility.yul\":4520:4544   */\n      tag_112\n      jump\t// in\n    tag_175:\n        /* \"#utility.yul\":4515:4518   */\n      dup3\n        /* \"#utility.yul\":4508:4545   */\n      mstore\n        /* \"#utility.yul\":4443:4551   */\n      pop\n      pop\n      jump\t// out\n        /* \"#utility.yul\":4557:4736   */\n    tag_121:\n        /* \"#utility.yul\":4626:4636   */\n      0x00\n        /* \"#utility.yul\":4647:4693   */\n      tag_177\n        /* \"#utility.yul\":4689:4692   */\n      dup4\n        /* \"#utility.yul\":4681:4687   */\n      dup4\n        /* \"#utility.yul\":4647:4693   */\n      tag_120\n      jump\t// in\n    tag_177:\n        /* \"#utility.yul\":4725:4729   */\n      0x20\n        /* \"#utility.yul\":4720:4723   */\n      dup4\n        /* \"#utility.yul\":4716:4730   */\n      add\n        /* \"#utility.yul\":4702:4730   */\n      swap1\n      pop\n        /* \"#utility.yul\":4557:4736   */\n      swap3\n      swap2\n      pop\n      pop\n      jump\t// out\n        /* \"#utility.yul\":4742:4855   */\n    tag_122:\n        /* \"#utility.yul\":4812:4816   */\n      0x00\n        /* \"#utility.yul\":4844:4848   */\n      0x20\n        /* \"#utility.yul\":4839:4842   */\n      dup3\n        /* \"#utility.yul\":4835:4849   */\n      add\n        /* \"#utility.yul\":4827:4849   */\n      swap1\n      pop\n        /* \"#utility.yul\":4742:4855   */\n      swap2\n      swap1\n      pop\n      jump\t// out\n        /* \"#utility.yul\":4891:5623   */\n    tag_123:\n        /* \"#utility.yul\":5010:5013   */\n      0x00\n        /* \"#utility.yul\":5039:5093   */\n      tag_180\n        /* \"#utility.yul\":5087:5092   */\n      dup3\n        /* \"#utility.yul\":5039:5093   */\n      tag_117\n      jump\t// in\n    tag_180:\n        /* \"#utility.yul\":5109:5195   */\n      tag_181\n        /* \"#utility.yul\":5188:5194   */\n      dup2\n        /* \"#utility.yul\":5183:5186   */\n      dup6\n        /* \"#utility.yul\":5109:5195   */\n      tag_118\n      jump\t// in\n    tag_181:\n        /* \"#utility.yul\":5102:5195   */\n      swap4\n      pop\n        /* \"#utility.yul\":5219:5275   */\n      tag_182\n        /* \"#utility.yul\":5269:5274   */\n      dup4\n        /* \"#utility.yul\":5219:5275   */\n      tag_119\n      jump\t// in\n    tag_182:\n        /* \"#utility.yul\":5298:5305   */\n      dup1\n        /* \"#utility.yul\":5329:5330   */\n      0x00\n        /* \"#utility.yul\":5314:5598   */\n    tag_183:\n        /* \"#utility.yul\":5339:5345   */\n      dup4\n        /* \"#utility.yul\":5336:5337   */\n      dup2\n        /* \"#utility.yul\":5333:5346   */\n      lt\n        /* \"#utility.yul\":5314:5598   */\n      iszero\n      tag_185\n      jumpi\n        /* \"#utility.yul\":5415:5421   */\n      dup2\n        /* \"#utility.yul\":5409:5422   */\n      mload\n        /* \"#utility.yul\":5442:5505   */\n      tag_186\n        /* \"#utility.yul\":5501:5504   */\n      dup9\n        /* \"#utility.yul\":5486:5499   */\n      dup3\n        /* \"#utility.yul\":5442:5505   */\n      tag_121\n      jump\t// in\n    tag_186:\n        /* \"#utility.yul\":5435:5505   */\n      swap8\n      pop\n        /* \"#utility.yul\":5528:5588   */\n      tag_187\n        /* \"#utility.yul\":5581:5587   */\n      dup4\n        /* \"#utility.yul\":5528:5588   */\n      tag_122\n      jump\t// in\n    tag_187:\n        /* \"#utility.yul\":5518:5588   */\n      swap3\n      pop\n        /* \"#utility.yul\":5374:5598   */\n      pop\n        /* \"#utility.yul\":5361:5362   */\n      0x01\n        /* \"#utility.yul\":5358:5359   */\n      dup2\n        /* \"#utility.yul\":5354:5363   */\n      add\n        /* \"#utility.yul\":5349:5363   */\n      swap1\n      pop\n        /* \"#utility.yul\":5314:5598   */\n      jump(tag_183)\n    tag_185:\n        /* \"#utility.yul\":5318:5332   */\n      pop\n        /* \"#utility.yul\":5614:5617   */\n      dup6\n        /* \"#utility.yul\":5607:5617   */\n      swap4\n      pop\n        /* \"#utility.yul\":5015:5623   */\n      pop\n      pop\n      pop\n        /* \"#utility.yul\":4891:5623   */\n      swap3\n      swap2\n      pop\n      pop\n      jump\t// out\n        /* \"#utility.yul\":5629:6002   */\n    tag_10:\n        /* \"#utility.yul\":5772:5776   */\n      0x00\n        /* \"#utility.yul\":5810:5812   */\n      0x20\n        /* \"#utility.yul\":5799:5808   */\n      dup3\n        /* \"#utility.yul\":5795:5813   */\n      add\n        /* \"#utility.yul\":5787:5813   */\n      swap1\n      pop\n        /* \"#utility.yul\":5859:5868   */\n      dup2\n        /* \"#utility.yul\":5853:5857   */\n      dup2\n        /* \"#utility.yul\":5849:5869   */\n      sub\n        /* \"#utility.yul\":5845:5846   */\n      0x00\n        /* \"#utility.yul\":5834:5843   */\n      dup4\n        /* \"#utility.yul\":5830:5847   */\n      add\n        /* \"#utility.yul\":5823:5870   */\n      mstore\n        /* \"#utility.yul\":5887:5995   */\n      tag_189\n        /* \"#utility.yul\":5990:5994   */\n      dup2\n        /* \"#utility.yul\":5981:5987   */\n      dup5\n        /* \"#utility.yul\":5887:5995   */\n      tag_123\n      jump\t// in\n    tag_189:\n        /* \"#utility.yul\":5879:5995   */\n      swap1\n      pop\n        /* \"#utility.yul\":5629:6002   */\n      swap3\n      swap2\n      pop\n      pop\n      jump\t// out\n        /* \"#utility.yul\":6008:6188   */\n    tag_124:\n        /* \"#utility.yul\":6056:6133   */\n      0x4e487b7100000000000000000000000000000000000000000000000000000000\n        /* \"#utility.yul\":6053:6054   */\n      0x00\n        /* \"#utility.yul\":6046:6134   */\n      mstore\n        /* \"#utility.yul\":6153:6157   */\n      0x11\n        /* \"#utility.yul\":6150:6151   */\n      0x04\n        /* \"#utility.yul\":6143:6158   */\n      mstore\n        /* \"#utility.yul\":6177:6181   */\n      0x24\n        /* \"#utility.yul\":6174:6175   */\n      0x00\n        /* \"#utility.yul\":6167:6182   */\n      revert\n        /* \"#utility.yul\":6194:6385   */\n    tag_17:\n        /* \"#utility.yul\":6234:6237   */\n      0x00\n        /* \"#utility.yul\":6253:6273   */\n      tag_192\n        /* \"#utility.yul\":6271:6272   */\n      dup3\n        /* \"#utility.yul\":6253:6273   */\n      tag_112\n      jump\t// in\n    tag_192:\n        /* \"#utility.yul\":6248:6273   */\n      swap2\n      pop\n        /* \"#utility.yul\":6287:6307   */\n      tag_193\n        /* \"#utility.yul\":6305:6306   */\n      dup4\n        /* \"#utility.yul\":6287:6307   */\n      tag_112\n      jump\t// in\n    tag_193:\n        /* \"#utility.yul\":6282:6307   */\n      swap3\n      pop\n        /* \"#utility.yul\":6330:6331   */\n      dup3\n        /* \"#utility.yul\":6327:6328   */\n      dup3\n        /* \"#utility.yul\":6323:6332   */\n      add\n        /* \"#utility.yul\":6316:6332   */\n      swap1\n      pop\n        /* \"#utility.yul\":6351:6354   */\n      dup1\n        /* \"#utility.yul\":6348:6349   */\n      dup3\n        /* \"#utility.yul\":6345:6355   */\n      gt\n        /* \"#utility.yul\":6342:6378   */\n      iszero\n      tag_194\n      jumpi\n        /* \"#utility.yul\":6358:6376   */\n      tag_195\n      tag_124\n      jump\t// in\n    tag_195:\n        /* \"#utility.yul\":6342:6378   */\n    tag_194:\n        /* \"#utility.yul\":6194:6385   */\n      swap3\n      swap2\n      pop\n      pop\n      jump\t// out\n        /* \"#utility.yul\":6391:6571   */\n    tag_27:\n        /* \"#utility.yul\":6439:6516   */\n      0x4e487b7100000000000000000000000000000000000000000000000000000000\n        /* \"#utility.yul\":6436:6437   */\n      0x00\n        /* \"#utility.yul\":6429:6517   */\n      mstore\n        /* \"#utility.yul\":6536:6540   */\n      0x32\n        /* \"#utility.yul\":6533:6534   */\n      0x04\n        /* \"#utility.yul\":6526:6541   */\n      mstore\n        /* \"#utility.yul\":6560:6564   */\n      0x24\n        /* \"#utility.yul\":6557:6558   */\n      0x00\n        /* \"#utility.yul\":6550:6565   */\n      revert\n        /* \"#utility.yul\":6577:6810   */\n    tag_36:\n        /* \"#utility.yul\":6616:6619   */\n      0x00\n        /* \"#utility.yul\":6639:6663   */\n      tag_198\n        /* \"#utility.yul\":6657:6662   */\n      dup3\n        /* \"#utility.yul\":6639:6663   */\n      tag_112\n      jump\t// in\n    tag_198:\n        /* \"#utility.yul\":6630:6663   */\n      swap2\n      pop\n        /* \"#utility.yul\":6685:6751   */\n      0xffffffffffffffffffffffffffffffffffffffffffffffffffffffffffffffff\n        /* \"#utility.yul\":6678:6683   */\n      dup3\n        /* \"#utility.yul\":6675:6752   */\n      sub\n        /* \"#utility.yul\":6672:6775   */\n      tag_199\n      jumpi\n        /* \"#utility.yul\":6755:6773   */\n      tag_200\n      tag_124\n      jump\t// in\n    tag_200:\n        /* \"#utility.yul\":6672:6775   */\n    tag_199:\n        /* \"#utility.yul\":6802:6803   */\n      0x01\n        /* \"#utility.yul\":6795:6800   */\n      dup3\n        /* \"#utility.yul\":6791:6804   */\n      add\n        /* \"#utility.yul\":6784:6804   */\n      swap1\n      pop\n        /* \"#utility.yul\":6577:6810   */\n      swap2\n      swap1\n      pop\n      jump\t// out\n\n    auxdata: 0xa26469706673582212207790b0eacdee73d1ca569f4c2c9bd84f9e15d046b47b8dcf8fa6be2de13ca21764736f6c63430008220033\n}\n",
				"bytecode": {
					"linkReferences": {},
					"object": "6080604052348015600e575f5ffd5b506108f88061001c5f395ff3fe608060405234801561000f575f5ffd5b5060043610610034575f3560e01c80633ccb569e146100385780638cee4cad14610068575b5f5ffd5b610052600480360381019061004d91906106a1565b610098565b60405161005f91906107ce565b60405180910390f35b610082600480360381019061007d91906106a1565b6102d7565b60405161008f91906107ce565b60405180910390f35b60605f835190505f835190505f81836100b1919061081b565b67ffffffffffffffff8111156100ca576100c9610532565b5b6040519080825280602002602001820160405280156100f85781602001602082028036833780820191505090505b5090505f5f90505f5f90505f5f90505b858310801561011657508482105b156102005787828151811061012e5761012d61084e565b5b60200260200101518984815181106101495761014861084e565b5b602002602001015110156101a45788838151811061016a5761016961084e565b5b60200260200101518482815181106101855761018461084e565b5b602002602001018181525050828061019c9061087b565b9350506101ed565b8782815181106101b7576101b661084e565b5b60200260200101518482815181106101d2576101d161084e565b5b60200260200101818152505081806101e99061087b565b9250505b80806101f89061087b565b915050610108565b5b858310156102645788838151811061021c5761021b61084e565b5b60200260200101518482815181106102375761023661084e565b5b602002602001018181525050828061024e9061087b565b935050808061025c9061087b565b915050610201565b5b848210156102c8578782815181106102805761027f61084e565b5b602002602001015184828151811061029b5761029a61084e565b5b60200260200101818152505081806102b29061087b565b92505080806102c09061087b565b915050610265565b83965050505050505092915050565b60605f835190505f835190505f81836102f0919061081b565b67ffffffffffffffff81111561030957610308610532565b5b6040519080825280602002602001820160405280156103375781602001602082028036833780820191505090505b5090505f5f90505f5f90505f5f90505b85831480156103565750848214155b156103a85787828151811061036e5761036d61084e565b5b60200260200101518482815181106103895761038861084e565b5b60200260200101818152505081806103a09061087b565b9250506104dd565b8583141580156103b757508482145b15610409578883815181106103cf576103ce61084e565b5b60200260200101518482815181106103ea576103e961084e565b5b60200260200101818152505082806104019061087b565b9350506104dc565b87828151811061041c5761041b61084e565b5b60200260200101518984815181106104375761043661084e565b5b60200260200101511015610492578883815181106104585761045761084e565b5b60200260200101518482815181106104735761047261084e565b5b602002602001018181525050828061048a9061087b565b9350506104db565b8782815181106104a5576104a461084e565b5b60200260200101518482815181106104c0576104bf61084e565b5b60200260200101818152505081806104d79061087b565b9250505b5b5b80806104e89061087b565b91505085831480156104f957508482145b156103475783965050505050505092915050565b5f604051905090565b5f5ffd5b5f5ffd5b5f5ffd5b5f601f19601f8301169050919050565b7f4e487b71000000000000000000000000000000000000000000000000000000005f52604160045260245ffd5b61056882610522565b810181811067ffffffffffffffff8211171561058757610586610532565b5b80604052505050565b5f61059961050d565b90506105a5828261055f565b919050565b5f67ffffffffffffffff8211156105c4576105c3610532565b5b602082029050602081019050919050565b5f5ffd5b5f819050919050565b6105eb816105d9565b81146105f5575f5ffd5b50565b5f81359050610606816105e2565b92915050565b5f61061e610619846105aa565b610590565b90508083825260208201905060208402830185811115610641576106406105d5565b5b835b8181101561066a578061065688826105f8565b845260208401935050602081019050610643565b5050509392505050565b5f82601f8301126106885761068761051e565b5b813561069884826020860161060c565b91505092915050565b5f5f604083850312156106b7576106b6610516565b5b5f83013567ffffffffffffffff8111156106d4576106d361051a565b5b6106e085828601610674565b925050602083013567ffffffffffffffff8111156107015761070061051a565b5b61070d85828601610674565b9150509250929050565b5f81519050919050565b5f82825260208201905092915050565b5f819050602082019050919050565b610749816105d9565b82525050565b5f61075a8383610740565b60208301905092915050565b5f602082019050919050565b5f61077c82610717565b6107868185610721565b935061079183610731565b805f5b838110156107c15781516107a8888261074f565b97506107b383610766565b925050600181019050610794565b5085935050505092915050565b5f6020820190508181035f8301526107e68184610772565b905092915050565b7f4e487b71000000000000000000000000000000000000000000000000000000005f52601160045260245ffd5b5f610825826105d9565b9150610830836105d9565b9250828201905080821115610848576108476107ee565b5b92915050565b7f4e487b71000000000000000000000000000000000000000000000000000000005f52603260045260245ffd5b5f610885826105d9565b91507fffffffffffffffffffffffffffffffffffffffffffffffffffffffffffffffff82036108b7576108b66107ee565b5b60018201905091905056fea26469706673582212207790b0eacdee73d1ca569f4c2c9bd84f9e15d046b47b8dcf8fa6be2de13ca21764736f6c63430008220033",
					"opcodes": "PUSH1 0x80 PUSH1 0x40 MSTORE CALLVALUE DUP1 ISZERO PUSH1 0xE JUMPI PUSH0 PUSH0 REVERT JUMPDEST POP PUSH2 0x8F8 DUP1 PUSH2 0x1C PUSH0 CODECOPY PUSH0 RETURN INVALID PUSH1 0x80 PUSH1 0x40 MSTORE CALLVALUE DUP1 ISZERO PUSH2 0xF JUMPI PUSH0 PUSH0 REVERT JUMPDEST POP PUSH1 0x4 CALLDATASIZE LT PUSH2 0x34 JUMPI PUSH0 CALLDATALOAD PUSH1 0xE0 SHR DUP1 PUSH4 0x3CCB569E EQ PUSH2 0x38 JUMPI DUP1 PUSH4 0x8CEE4CAD EQ PUSH2 0x68 JUMPI JUMPDEST PUSH0 PUSH0 REVERT JUMPDEST PUSH2 0x52 PUSH1 0x4 DUP1 CALLDATASIZE SUB DUP2 ADD SWAP1 PUSH2 0x4D SWAP2 SWAP1 PUSH2 0x6A1 JUMP JUMPDEST PUSH2 0x98 JUMP JUMPDEST PUSH1 0x40 MLOAD PUSH2 0x5F SWAP2 SWAP1 PUSH2 0x7CE JUMP JUMPDEST PUSH1 0x40 MLOAD DUP1 SWAP2 SUB SWAP1 RETURN JUMPDEST PUSH2 0x82 PUSH1 0x4 DUP1 CALLDATASIZE SUB DUP2 ADD SWAP1 PUSH2 0x7D SWAP2 SWAP1 PUSH2 0x6A1 JUMP JUMPDEST PUSH2 0x2D7 JUMP JUMPDEST PUSH1 0x40 MLOAD PUSH2 0x8F SWAP2 SWAP1 PUSH2 0x7CE JUMP JUMPDEST PUSH1 0x40 MLOAD DUP1 SWAP2 SUB SWAP1 RETURN JUMPDEST PUSH1 0x60 PUSH0 DUP4 MLOAD SWAP1 POP PUSH0 DUP4 MLOAD SWAP1 POP PUSH0 DUP2 DUP4 PUSH2 0xB1 SWAP2 SWAP1 PUSH2 0x81B JUMP JUMPDEST PUSH8 0xFFFFFFFFFFFFFFFF DUP2 GT ISZERO PUSH2 0xCA JUMPI PUSH2 0xC9 PUSH2 0x532 JUMP JUMPDEST JUMPDEST PUSH1 0x40 MLOAD SWAP1 DUP1 DUP3 MSTORE DUP1 PUSH1 0x20 MUL PUSH1 0x20 ADD DUP3 ADD PUSH1 0x40 MSTORE DUP1 ISZERO PUSH2 0xF8 JUMPI DUP2 PUSH1 0x20 ADD PUSH1 0x20 DUP3 MUL DUP1 CALLDATASIZE DUP4 CALLDATACOPY DUP1 DUP3 ADD SWAP2 POP POP SWAP1 POP JUMPDEST POP SWAP1 POP PUSH0 PUSH0 SWAP1 POP PUSH0 PUSH0 SWAP1 POP PUSH0 PUSH0 SWAP1 POP JUMPDEST DUP6 DUP4 LT DUP1 ISZERO PUSH2 0x116 JUMPI POP DUP5 DUP3 LT JUMPDEST ISZERO PUSH2 0x200 JUMPI DUP8 DUP3 DUP2 MLOAD DUP2 LT PUSH2 0x12E JUMPI PUSH2 0x12D PUSH2 0x84E JUMP JUMPDEST JUMPDEST PUSH1 0x20 MUL PUSH1 0x20 ADD ADD MLOAD DUP10 DUP5 DUP2 MLOAD DUP2 LT PUSH2 0x149 JUMPI PUSH2 0x148 PUSH2 0x84E JUMP JUMPDEST JUMPDEST PUSH1 0x20 MUL PUSH1 0x20 ADD ADD MLOAD LT ISZERO PUSH2 0x1A4 JUMPI DUP9 DUP4 DUP2 MLOAD DUP2 LT PUSH2 0x16A JUMPI PUSH2 0x169 PUSH2 0x84E JUMP JUMPDEST JUMPDEST PUSH1 0x20 MUL PUSH1 0x20 ADD ADD MLOAD DUP5 DUP3 DUP2 MLOAD DUP2 LT PUSH2 0x185 JUMPI PUSH2 0x184 PUSH2 0x84E JUMP JUMPDEST JUMPDEST PUSH1 0x20 MUL PUSH1 0x20 ADD ADD DUP2 DUP2 MSTORE POP POP DUP3 DUP1 PUSH2 0x19C SWAP1 PUSH2 0x87B JUMP JUMPDEST SWAP4 POP POP PUSH2 0x1ED JUMP JUMPDEST DUP8 DUP3 DUP2 MLOAD DUP2 LT PUSH2 0x1B7 JUMPI PUSH2 0x1B6 PUSH2 0x84E JUMP JUMPDEST JUMPDEST PUSH1 0x20 MUL PUSH1 0x20 ADD ADD MLOAD DUP5 DUP3 DUP2 MLOAD DUP2 LT PUSH2 0x1D2 JUMPI PUSH2 0x1D1 PUSH2 0x84E JUMP JUMPDEST JUMPDEST PUSH1 0x20 MUL PUSH1 0x20 ADD ADD DUP2 DUP2 MSTORE POP POP DUP2 DUP1 PUSH2 0x1E9 SWAP1 PUSH2 0x87B JUMP JUMPDEST SWAP3 POP POP JUMPDEST DUP1 DUP1 PUSH2 0x1F8 SWAP1 PUSH2 0x87B JUMP JUMPDEST SWAP2 POP POP PUSH2 0x108 JUMP JUMPDEST JUMPDEST DUP6 DUP4 LT ISZERO PUSH2 0x264 JUMPI DUP9 DUP4 DUP2 MLOAD DUP2 LT PUSH2 0x21C JUMPI PUSH2 0x21B PUSH2 0x84E JUMP JUMPDEST JUMPDEST PUSH1 0x20 MUL PUSH1 0x20 ADD ADD MLOAD DUP5 DUP3 DUP2 MLOAD DUP2 LT PUSH2 0x237 JUMPI PUSH2 0x236 PUSH2 0x84E JUMP JUMPDEST JUMPDEST PUSH1 0x20 MUL PUSH1 0x20 ADD ADD DUP2 DUP2 MSTORE POP POP DUP3 DUP1 PUSH2 0x24E SWAP1 PUSH2 0x87B JUMP JUMPDEST SWAP4 POP POP DUP1 DUP1 PUSH2 0x25C SWAP1 PUSH2 0x87B JUMP JUMPDEST SWAP2 POP POP PUSH2 0x201 JUMP JUMPDEST JUMPDEST DUP5 DUP3 LT ISZERO PUSH2 0x2C8 JUMPI DUP8 DUP3 DUP2 MLOAD DUP2 LT PUSH2 0x280 JUMPI PUSH2 0x27F PUSH2 0x84E JUMP JUMPDEST JUMPDEST PUSH1 0x20 MUL PUSH1 0x20 ADD ADD MLOAD DUP5 DUP3 DUP2 MLOAD DUP2 LT PUSH2 0x29B JUMPI PUSH2 0x29A PUSH2 0x84E JUMP JUMPDEST JUMPDEST PUSH1 0x20 MUL PUSH1 0x20 ADD ADD DUP2 DUP2 MSTORE POP POP DUP2 DUP1 PUSH2 0x2B2 SWAP1 PUSH2 0x87B JUMP JUMPDEST SWAP3 POP POP DUP1 DUP1 PUSH2 0x2C0 SWAP1 PUSH2 0x87B JUMP JUMPDEST SWAP2 POP POP PUSH2 0x265 JUMP JUMPDEST DUP4 SWAP7 POP POP POP POP POP POP POP SWAP3 SWAP2 POP POP JUMP JUMPDEST PUSH1 0x60 PUSH0 DUP4 MLOAD SWAP1 POP PUSH0 DUP4 MLOAD SWAP1 POP PUSH0 DUP2 DUP4 PUSH2 0x2F0 SWAP2 SWAP1 PUSH2 0x81B JUMP JUMPDEST PUSH8 0xFFFFFFFFFFFFFFFF DUP2 GT ISZERO PUSH2 0x309 JUMPI PUSH2 0x308 PUSH2 0x532 JUMP JUMPDEST JUMPDEST PUSH1 0x40 MLOAD SWAP1 DUP1 DUP3 MSTORE DUP1 PUSH1 0x20 MUL PUSH1 0x20 ADD DUP3 ADD PUSH1 0x40 MSTORE DUP1 ISZERO PUSH2 0x337 JUMPI DUP2 PUSH1 0x20 ADD PUSH1 0x20 DUP3 MUL DUP1 CALLDATASIZE DUP4 CALLDATACOPY DUP1 DUP3 ADD SWAP2 POP POP SWAP1 POP JUMPDEST POP SWAP1 POP PUSH0 PUSH0 SWAP1 POP PUSH0 PUSH0 SWAP1 POP PUSH0 PUSH0 SWAP1 POP JUMPDEST DUP6 DUP4 EQ DUP1 ISZERO PUSH2 0x356 JUMPI POP DUP5 DUP3 EQ ISZERO JUMPDEST ISZERO PUSH2 0x3A8 JUMPI DUP8 DUP3 DUP2 MLOAD DUP2 LT PUSH2 0x36E JUMPI PUSH2 0x36D PUSH2 0x84E JUMP JUMPDEST JUMPDEST PUSH1 0x20 MUL PUSH1 0x20 ADD ADD MLOAD DUP5 DUP3 DUP2 MLOAD DUP2 LT PUSH2 0x389 JUMPI PUSH2 0x388 PUSH2 0x84E JUMP JUMPDEST JUMPDEST PUSH1 0x20 MUL PUSH1 0x20 ADD ADD DUP2 DUP2 MSTORE POP POP DUP2 DUP1 PUSH2 0x3A0 SWAP1 PUSH2 0x87B JUMP JUMPDEST SWAP3 POP POP PUSH2 0x4DD JUMP JUMPDEST DUP6 DUP4 EQ ISZERO DUP1 ISZERO PUSH2 0x3B7 JUMPI POP DUP5 DUP3 EQ JUMPDEST ISZERO PUSH2 0x409 JUMPI DUP9 DUP4 DUP2 MLOAD DUP2 LT PUSH2 0x3CF JUMPI PUSH2 0x3CE PUSH2 0x84E JUMP JUMPDEST JUMPDEST PUSH1 0x20 MUL PUSH1 0x20 ADD ADD MLOAD DUP5 DUP3 DUP2 MLOAD DUP2 LT PUSH2 0x3EA JUMPI PUSH2 0x3E9 PUSH2 0x84E JUMP JUMPDEST JUMPDEST PUSH1 0x20 MUL PUSH1 0x20 ADD ADD DUP2 DUP2 MSTORE POP POP DUP3 DUP1 PUSH2 0x401 SWAP1 PUSH2 0x87B JUMP JUMPDEST SWAP4 POP POP PUSH2 0x4DC JUMP JUMPDEST DUP8 DUP3 DUP2 MLOAD DUP2 LT PUSH2 0x41C JUMPI PUSH2 0x41B PUSH2 0x84E JUMP JUMPDEST JUMPDEST PUSH1 0x20 MUL PUSH1 0x20 ADD ADD MLOAD DUP10 DUP5 DUP2 MLOAD DUP2 LT PUSH2 0x437 JUMPI PUSH2 0x436 PUSH2 0x84E JUMP JUMPDEST JUMPDEST PUSH1 0x20 MUL PUSH1 0x20 ADD ADD MLOAD LT ISZERO PUSH2 0x492 JUMPI DUP9 DUP4 DUP2 MLOAD DUP2 LT PUSH2 0x458 JUMPI PUSH2 0x457 PUSH2 0x84E JUMP JUMPDEST JUMPDEST PUSH1 0x20 MUL PUSH1 0x20 ADD ADD MLOAD DUP5 DUP3 DUP2 MLOAD DUP2 LT PUSH2 0x473 JUMPI PUSH2 0x472 PUSH2 0x84E JUMP JUMPDEST JUMPDEST PUSH1 0x20 MUL PUSH1 0x20 ADD ADD DUP2 DUP2 MSTORE POP POP DUP3 DUP1 PUSH2 0x48A SWAP1 PUSH2 0x87B JUMP JUMPDEST SWAP4 POP POP PUSH2 0x4DB JUMP JUMPDEST DUP8 DUP3 DUP2 MLOAD DUP2 LT PUSH2 0x4A5 JUMPI PUSH2 0x4A4 PUSH2 0x84E JUMP JUMPDEST JUMPDEST PUSH1 0x20 MUL PUSH1 0x20 ADD ADD MLOAD DUP5 DUP3 DUP2 MLOAD DUP2 LT PUSH2 0x4C0 JUMPI PUSH2 0x4BF PUSH2 0x84E JUMP JUMPDEST JUMPDEST PUSH1 0x20 MUL PUSH1 0x20 ADD ADD DUP2 DUP2 MSTORE POP POP DUP2 DUP1 PUSH2 0x4D7 SWAP1 PUSH2 0x87B JUMP JUMPDEST SWAP3 POP POP JUMPDEST JUMPDEST JUMPDEST DUP1 DUP1 PUSH2 0x4E8 SWAP1 PUSH2 0x87B JUMP JUMPDEST SWAP2 POP POP DUP6 DUP4 EQ DUP1 ISZERO PUSH2 0x4F9 JUMPI POP DUP5 DUP3 EQ JUMPDEST ISZERO PUSH2 0x347 JUMPI DUP4 SWAP7 POP POP POP POP POP POP POP SWAP3 SWAP2 POP POP JUMP JUMPDEST PUSH0 PUSH1 0x40 MLOAD SWAP1 POP SWAP1 JUMP JUMPDEST PUSH0 PUSH0 REVERT JUMPDEST PUSH0 PUSH0 REVERT JUMPDEST PUSH0 PUSH0 REVERT JUMPDEST PUSH0 PUSH1 0x1F NOT PUSH1 0x1F DUP4 ADD AND SWAP1 POP SWAP2 SWAP1 POP JUMP JUMPDEST PUSH32 0x4E487B7100000000000000000000000000000000000000000000000000000000 PUSH0 MSTORE PUSH1 0x41 PUSH1 0x4 MSTORE PUSH1 0x24 PUSH0 REVERT JUMPDEST PUSH2 0x568 DUP3 PUSH2 0x522 JUMP JUMPDEST DUP2 ADD DUP2 DUP2 LT PUSH8 0xFFFFFFFFFFFFFFFF DUP3 GT OR ISZERO PUSH2 0x587 JUMPI PUSH2 0x586 PUSH2 0x532 JUMP JUMPDEST JUMPDEST DUP1 PUSH1 0x40 MSTORE POP POP POP JUMP JUMPDEST PUSH0 PUSH2 0x599 PUSH2 0x50D JUMP JUMPDEST SWAP1 POP PUSH2 0x5A5 DUP3 DUP3 PUSH2 0x55F JUMP JUMPDEST SWAP2 SWAP1 POP JUMP JUMPDEST PUSH0 PUSH8 0xFFFFFFFFFFFFFFFF DUP3 GT ISZERO PUSH2 0x5C4 JUMPI PUSH2 0x5C3 PUSH2 0x532 JUMP JUMPDEST JUMPDEST PUSH1 0x20 DUP3 MUL SWAP1 POP PUSH1 0x20 DUP2 ADD SWAP1 POP SWAP2 SWAP1 POP JUMP JUMPDEST PUSH0 PUSH0 REVERT JUMPDEST PUSH0 DUP2 SWAP1 POP SWAP2 SWAP1 POP JUMP JUMPDEST PUSH2 0x5EB DUP2 PUSH2 0x5D9 JUMP JUMPDEST DUP2 EQ PUSH2 0x5F5 JUMPI PUSH0 PUSH0 REVERT JUMPDEST POP JUMP JUMPDEST PUSH0 DUP2 CALLDATALOAD SWAP1 POP PUSH2 0x606 DUP2 PUSH2 0x5E2 JUMP JUMPDEST SWAP3 SWAP2 POP POP JUMP JUMPDEST PUSH0 PUSH2 0x61E PUSH2 0x619 DUP5 PUSH2 0x5AA JUMP JUMPDEST PUSH2 0x590 JUMP JUMPDEST SWAP1 POP DUP1 DUP4 DUP3 MSTORE PUSH1 0x20 DUP3 ADD SWAP1 POP PUSH1 0x20 DUP5 MUL DUP4 ADD DUP6 DUP2 GT ISZERO PUSH2 0x641 JUMPI PUSH2 0x640 PUSH2 0x5D5 JUMP JUMPDEST JUMPDEST DUP4 JUMPDEST DUP2 DUP2 LT ISZERO PUSH2 0x66A JUMPI DUP1 PUSH2 0x656 DUP9 DUP3 PUSH2 0x5F8 JUMP JUMPDEST DUP5 MSTORE PUSH1 0x20 DUP5 ADD SWAP4 POP POP PUSH1 0x20 DUP2 ADD SWAP1 POP PUSH2 0x643 JUMP JUMPDEST POP POP POP SWAP4 SWAP3 POP POP POP JUMP JUMPDEST PUSH0 DUP3 PUSH1 0x1F DUP4 ADD SLT PUSH2 0x688 JUMPI PUSH2 0x687 PUSH2 0x51E JUMP JUMPDEST JUMPDEST DUP2 CALLDATALOAD PUSH2 0x698 DUP5 DUP3 PUSH1 0x20 DUP7 ADD PUSH2 0x60C JUMP JUMPDEST SWAP2 POP POP SWAP3 SWAP2 POP POP JUMP JUMPDEST PUSH0 PUSH0 PUSH1 0x40 DUP4 DUP6 SUB SLT ISZERO PUSH2 0x6B7 JUMPI PUSH2 0x6B6 PUSH2 0x516 JUMP JUMPDEST JUMPDEST PUSH0 DUP4 ADD CALLDATALOAD PUSH8 0xFFFFFFFFFFFFFFFF DUP2 GT ISZERO PUSH2 0x6D4 JUMPI PUSH2 0x6D3 PUSH2 0x51A JUMP JUMPDEST JUMPDEST PUSH2 0x6E0 DUP6 DUP3 DUP7 ADD PUSH2 0x674 JUMP JUMPDEST SWAP3 POP POP PUSH1 0x20 DUP4 ADD CALLDATALOAD PUSH8 0xFFFFFFFFFFFFFFFF DUP2 GT ISZERO PUSH2 0x701 JUMPI PUSH2 0x700 PUSH2 0x51A JUMP JUMPDEST JUMPDEST PUSH2 0x70D DUP6 DUP3 DUP7 ADD PUSH2 0x674 JUMP JUMPDEST SWAP2 POP POP SWAP3 POP SWAP3 SWAP1 POP JUMP JUMPDEST PUSH0 DUP2 MLOAD SWAP1 POP SWAP2 SWAP1 POP JUMP JUMPDEST PUSH0 DUP3 DUP3 MSTORE PUSH1 0x20 DUP3 ADD SWAP1 POP SWAP3 SWAP2 POP POP JUMP JUMPDEST PUSH0 DUP2 SWAP1 POP PUSH1 0x20 DUP3 ADD SWAP1 POP SWAP2 SWAP1 POP JUMP JUMPDEST PUSH2 0x749 DUP2 PUSH2 0x5D9 JUMP JUMPDEST DUP3 MSTORE POP POP JUMP JUMPDEST PUSH0 PUSH2 0x75A DUP4 DUP4 PUSH2 0x740 JUMP JUMPDEST PUSH1 0x20 DUP4 ADD SWAP1 POP SWAP3 SWAP2 POP POP JUMP JUMPDEST PUSH0 PUSH1 0x20 DUP3 ADD SWAP1 POP SWAP2 SWAP1 POP JUMP JUMPDEST PUSH0 PUSH2 0x77C DUP3 PUSH2 0x717 JUMP JUMPDEST PUSH2 0x786 DUP2 DUP6 PUSH2 0x721 JUMP JUMPDEST SWAP4 POP PUSH2 0x791 DUP4 PUSH2 0x731 JUMP JUMPDEST DUP1 PUSH0 JUMPDEST DUP4 DUP2 LT ISZERO PUSH2 0x7C1 JUMPI DUP2 MLOAD PUSH2 0x7A8 DUP9 DUP3 PUSH2 0x74F JUMP JUMPDEST SWAP8 POP PUSH2 0x7B3 DUP4 PUSH2 0x766 JUMP JUMPDEST SWAP3 POP POP PUSH1 0x1 DUP2 ADD SWAP1 POP PUSH2 0x794 JUMP JUMPDEST POP DUP6 SWAP4 POP POP POP POP SWAP3 SWAP2 POP POP JUMP JUMPDEST PUSH0 PUSH1 0x20 DUP3 ADD SWAP1 POP DUP2 DUP2 SUB PUSH0 DUP4 ADD MSTORE PUSH2 0x7E6 DUP2 DUP5 PUSH2 0x772 JUMP JUMPDEST SWAP1 POP SWAP3 SWAP2 POP POP JUMP JUMPDEST PUSH32 0x4E487B7100000000000000000000000000000000000000000000000000000000 PUSH0 MSTORE PUSH1 0x11 PUSH1 0x4 MSTORE PUSH1 0x24 PUSH0 REVERT JUMPDEST PUSH0 PUSH2 0x825 DUP3 PUSH2 0x5D9 JUMP JUMPDEST SWAP2 POP PUSH2 0x830 DUP4 PUSH2 0x5D9 JUMP JUMPDEST SWAP3 POP DUP3 DUP3 ADD SWAP1 POP DUP1 DUP3 GT ISZERO PUSH2 0x848 JUMPI PUSH2 0x847 PUSH2 0x7EE JUMP JUMPDEST JUMPDEST SWAP3 SWAP2 POP POP JUMP JUMPDEST PUSH32 0x4E487B7100000000000000000000000000000000000000000000000000000000 PUSH0 MSTORE PUSH1 0x32 PUSH1 0x4 MSTORE PUSH1 0x24 PUSH0 REVERT JUMPDEST PUSH0 PUSH2 0x885 DUP3 PUSH2 0x5D9 JUMP JUMPDEST SWAP2 POP PUSH32 0xFFFFFFFFFFFFFFFFFFFFFFFFFFFFFFFFFFFFFFFFFFFFFFFFFFFFFFFFFFFFFFFF DUP3 SUB PUSH2 0x8B7 JUMPI PUSH2 0x8B6 PUSH2 0x7EE JUMP JUMPDEST JUMPDEST PUSH1 0x1 DUP3 ADD SWAP1 POP SWAP2 SWAP1 POP JUMP INVALID LOG2 PUSH5 0x6970667358 0x22 SLT KECCAK256 PUSH24 0x90B0EACDEE73D1CA569F4C2C9BD84F9E15D046B47B8DCF8F 0xA6 0xBE 0x2D RJUMPI 0x3CA2 OR PUSH5 0x736F6C6343 STOP ADDMOD 0x22 STOP CALLER "
				},
				"gasEstimates": {
					"creation": {
						"codeDepositCost": "459200",
						"executionCost": "491",
						"totalCost": "459691"
					},
					"external": {
						"processArray(uint256[],uint256[])": "infinite",
						"processArray2(uint256[],uint256[])": "infinite"
					}
				},
				"methodIdentifiers": {
					"processArray(uint256[],uint256[])": "8cee4cad",
					"processArray2(uint256[],uint256[])": "3ccb569e"
				}
			},
			"storageLayout": {
				"storage": [],
				"types": null
			},
			"userdoc": {
				"kind": "user",
				"methods": {},
				"version": 1
			}
		}
	}
}