{
	"test/FundMe.sol": {
		"FundMe": {
			"abi": [
				{
					"inputs": [
						{
							"internalType": "uint256",
							"name": "_lockTime",
							"type": "uint256"
						}
					],
					"stateMutability": "nonpayable",
					"type": "constructor"
				},
				{
					"inputs": [],
					"name": "fund",
					"outputs": [],
					"stateMutability": "payable",
					"type": "function"
				},
				{
					"inputs": [],
					"name": "fundSuccess",
					"outputs": [
						{
							"internalType": "bool",
							"name": "",
							"type": "bool"
						}
					],
					"stateMutability": "view",
					"type": "function"
				},
				{
					"inputs": [],
					"name": "fundTokenAddr",
					"outputs": [
						{
							"internalType": "address",
							"name": "",
							"type": "address"
						}
					],
					"stateMutability": "view",
					"type": "function"
				},
				{
					"inputs": [
						{
							"internalType": "address",
							"name": "",
							"type": "address"
						}
					],
					"name": "funderToAmount",
					"outputs": [
						{
							"internalType": "uint256",
							"name": "",
							"type": "uint256"
						}
					],
					"stateMutability": "view",
					"type": "function"
				},
				{
					"inputs": [],
					"name": "getfund",
					"outputs": [],
					"stateMutability": "nonpayable",
					"type": "function"
				},
				{
					"inputs": [],
					"name": "owner",
					"outputs": [
						{
							"internalType": "address",
							"name": "",
							"type": "address"
						}
					],
					"stateMutability": "view",
					"type": "function"
				},
				{
					"inputs": [],
					"name": "refund",
					"outputs": [],
					"stateMutability": "nonpayable",
					"type": "function"
				},
				{
					"inputs": [
						{
							"internalType": "address",
							"name": "_fundTokenAddr",
							"type": "address"
						}
					],
					"name": "setFundTokenAddr",
					"outputs": [],
					"stateMutability": "nonpayable",
					"type": "function"
				},
				{
					"inputs": [
						{
							"internalType": "uint256",
							"name": "_amount",
							"type": "uint256"
						}
					],
					"name": "setFunderToAmount",
					"outputs": [],
					"stateMutability": "nonpayable",
					"type": "function"
				},
				{
					"inputs": [
						{
							"internalType": "address",
							"name": "newOwner",
							"type": "address"
						}
					],
					"name": "transferOwnership",
					"outputs": [],
					"stateMutability": "nonpayable",
					"type": "function"
				}
			],
			"devdoc": {
				"kind": "dev",
				"methods": {},
				"version": 1
			},
			"evm": {
				"assembly": "    /* \"test/FundMe.sol\":265:2728  contract FundMe {... */\n  mstore(0x40, 0x80)\n    /* \"test/FundMe.sol\":612:617  false */\n  0x00\n    /* \"test/FundMe.sol\":586:617  bool public fundSuccess = false */\n  0x05\n  exp(0x0100, 0x00)\n  dup2\n  sload\n  dup2\n  0xff\n  mul\n  not\n  and\n  swap1\n  dup4\n  iszero\n  iszero\n  mul\n  or\n  swap1\n  sstore\n  pop\n    /* \"test/FundMe.sol\":624:758  constructor(uint256 _lockTime) {... */\n  callvalue\n  dup1\n  iszero\n  tag_1\n  jumpi\n  revert(0x00, 0x00)\ntag_1:\n  pop\n  mload(0x40)\n  sub(codesize, bytecodeSize)\n  dup1\n  bytecodeSize\n  dup4\n  codecopy\n  dup2\n  dup2\n  add\n  0x40\n  mstore\n  dup2\n  add\n  swap1\n  tag_2\n  swap2\n  swap1\n  tag_3\n  jump\t// in\ntag_2:\n    /* \"test/FundMe.sol\":673:683  msg.sender */\n  caller\n    /* \"test/FundMe.sol\":665:670  owner */\n  0x01\n  0x00\n    /* \"test/FundMe.sol\":665:683  owner = msg.sender */\n  0x0100\n  exp\n  dup2\n  sload\n  dup2\n  0xffffffffffffffffffffffffffffffffffffffff\n  mul\n  not\n  and\n  swap1\n  dup4\n  0xffffffffffffffffffffffffffffffffffffffff\n  and\n  mul\n  or\n  swap1\n  sstore\n  pop\n    /* \"test/FundMe.sol\":706:721  block.timestamp */\n  timestamp\n    /* \"test/FundMe.sol\":693:703  deployTime */\n  0x03\n    /* \"test/FundMe.sol\":693:721  deployTime = block.timestamp */\n  dup2\n  swap1\n  sstore\n  pop\n    /* \"test/FundMe.sol\":742:751  _lockTime */\n  dup1\n    /* \"test/FundMe.sol\":731:739  lockTime */\n  0x04\n    /* \"test/FundMe.sol\":731:751  lockTime = _lockTime */\n  dup2\n  swap1\n  sstore\n  pop\n    /* \"test/FundMe.sol\":624:758  constructor(uint256 _lockTime) {... */\n  pop\n    /* \"test/FundMe.sol\":265:2728  contract FundMe {... */\n  jump(tag_6)\n    /* \"#utility.yul\":88:205   */\ntag_8:\n    /* \"#utility.yul\":197:198   */\n  0x00\n    /* \"#utility.yul\":194:195   */\n  0x00\n    /* \"#utility.yul\":187:199   */\n  revert\n    /* \"#utility.yul\":334:411   */\ntag_10:\n    /* \"#utility.yul\":371:378   */\n  0x00\n    /* \"#utility.yul\":400:405   */\n  dup2\n    /* \"#utility.yul\":389:405   */\n  swap1\n  pop\n    /* \"#utility.yul\":334:411   */\n  swap2\n  swap1\n  pop\n  jump\t// out\n    /* \"#utility.yul\":417:539   */\ntag_11:\n    /* \"#utility.yul\":490:514   */\n  tag_19\n    /* \"#utility.yul\":508:513   */\n  dup2\n    /* \"#utility.yul\":490:514   */\n  tag_10\n  jump\t// in\ntag_19:\n    /* \"#utility.yul\":483:488   */\n  dup2\n    /* \"#utility.yul\":480:515   */\n  eq\n    /* \"#utility.yul\":470:533   */\n  tag_20\n  jumpi\n    /* \"#utility.yul\":529:530   */\n  0x00\n    /* \"#utility.yul\":526:527   */\n  0x00\n    /* \"#utility.yul\":519:531   */\n  revert\n    /* \"#utility.yul\":470:533   */\ntag_20:\n    /* \"#utility.yul\":417:539   */\n  pop\n  jump\t// out\n    /* \"#utility.yul\":545:688   */\ntag_12:\n    /* \"#utility.yul\":602:607   */\n  0x00\n    /* \"#utility.yul\":633:639   */\n  dup2\n    /* \"#utility.yul\":627:640   */\n  mload\n    /* \"#utility.yul\":618:640   */\n  swap1\n  pop\n    /* \"#utility.yul\":649:682   */\n  tag_22\n    /* \"#utility.yul\":676:681   */\n  dup2\n    /* \"#utility.yul\":649:682   */\n  tag_11\n  jump\t// in\ntag_22:\n    /* \"#utility.yul\":545:688   */\n  swap3\n  swap2\n  pop\n  pop\n  jump\t// out\n    /* \"#utility.yul\":694:1045   */\ntag_3:\n    /* \"#utility.yul\":764:770   */\n  0x00\n    /* \"#utility.yul\":813:815   */\n  0x20\n    /* \"#utility.yul\":801:810   */\n  dup3\n    /* \"#utility.yul\":792:799   */\n  dup5\n    /* \"#utility.yul\":788:811   */\n  sub\n    /* \"#utility.yul\":784:816   */\n  slt\n    /* \"#utility.yul\":781:900   */\n  iszero\n  tag_24\n  jumpi\n    /* \"#utility.yul\":819:898   */\n  tag_25\n  tag_8\n  jump\t// in\ntag_25:\n    /* \"#utility.yul\":781:900   */\ntag_24:\n    /* \"#utility.yul\":939:940   */\n  0x00\n    /* \"#utility.yul\":964:1028   */\n  tag_26\n    /* \"#utility.yul\":1020:1027   */\n  dup5\n    /* \"#utility.yul\":1011:1017   */\n  dup3\n    /* \"#utility.yul\":1000:1009   */\n  dup6\n    /* \"#utility.yul\":996:1018   */\n  add\n    /* \"#utility.yul\":964:1028   */\n  tag_12\n  jump\t// in\ntag_26:\n    /* \"#utility.yul\":954:1028   */\n  swap2\n  pop\n    /* \"#utility.yul\":910:1038   */\n  pop\n    /* \"#utility.yul\":694:1045   */\n  swap3\n  swap2\n  pop\n  pop\n  jump\t// out\n    /* \"test/FundMe.sol\":265:2728  contract FundMe {... */\ntag_6:\n  dataSize(sub_0)\n  dup1\n  dataOffset(sub_0)\n  0x00\n  codecopy\n  0x00\n  return\nstop\n\nsub_0: assembly {\n        /* \"test/FundMe.sol\":265:2728  contract FundMe {... */\n      mstore(0x40, 0x80)\n      jumpi(tag_1, lt(calldatasize, 0x04))\n      shr(0xe0, calldataload(0x00))\n      dup1\n      0x8da5cb5b\n      gt\n      tag_12\n      jumpi\n      dup1\n      0x8da5cb5b\n      eq\n      tag_7\n      jumpi\n      dup1\n      0xb60d4288\n      eq\n      tag_8\n      jumpi\n      dup1\n      0xbb7517ac\n      eq\n      tag_9\n      jumpi\n      dup1\n      0xe9d5480d\n      eq\n      tag_10\n      jumpi\n      dup1\n      0xf2fde38b\n      eq\n      tag_11\n      jumpi\n      jump(tag_1)\n    tag_12:\n      dup1\n      0x101ed53c\n      eq\n      tag_2\n      jumpi\n      dup1\n      0x1871ec70\n      eq\n      tag_3\n      jumpi\n      dup1\n      0x4407e1e8\n      eq\n      tag_4\n      jumpi\n      dup1\n      0x590e1ae3\n      eq\n      tag_5\n      jumpi\n      dup1\n      0x69edbb52\n      eq\n      tag_6\n      jumpi\n    tag_1:\n      revert(0x00, 0x00)\n        /* \"test/FundMe.sol\":2539:2726  function setFunderToAmount(uint256 _amount) external {... */\n    tag_2:\n      callvalue\n      dup1\n      iszero\n      tag_13\n      jumpi\n      revert(0x00, 0x00)\n    tag_13:\n      pop\n      tag_14\n      0x04\n      dup1\n      calldatasize\n      sub\n      dup2\n      add\n      swap1\n      tag_15\n      swap2\n      swap1\n      tag_16\n      jump\t// in\n    tag_15:\n      tag_17\n      jump\t// in\n    tag_14:\n      stop\n        /* \"test/FundMe.sol\":2417:2533  function setFundTokenAddr(address _fundTokenAddr) external onlyOwner {... */\n    tag_3:\n      callvalue\n      dup1\n      iszero\n      tag_18\n      jumpi\n      revert(0x00, 0x00)\n    tag_18:\n      pop\n      tag_19\n      0x04\n      dup1\n      calldatasize\n      sub\n      dup2\n      add\n      swap1\n      tag_20\n      swap2\n      swap1\n      tag_21\n      jump\t// in\n    tag_20:\n      tag_22\n      jump\t// in\n    tag_19:\n      stop\n        /* \"test/FundMe.sol\":287:336  mapping(address => uint256) public funderToAmount */\n    tag_4:\n      callvalue\n      dup1\n      iszero\n      tag_23\n      jumpi\n      revert(0x00, 0x00)\n    tag_23:\n      pop\n      tag_24\n      0x04\n      dup1\n      calldatasize\n      sub\n      dup2\n      add\n      swap1\n      tag_25\n      swap2\n      swap1\n      tag_21\n      jump\t// in\n    tag_25:\n      tag_26\n      jump\t// in\n    tag_24:\n      mload(0x40)\n      tag_27\n      swap2\n      swap1\n      tag_28\n      jump\t// in\n    tag_27:\n      mload(0x40)\n      dup1\n      swap2\n      sub\n      swap1\n      return\n        /* \"test/FundMe.sol\":1635:2041  function refund() external windowClosed {... */\n    tag_5:\n      callvalue\n      dup1\n      iszero\n      tag_29\n      jumpi\n      revert(0x00, 0x00)\n    tag_29:\n      pop\n      tag_30\n      tag_31\n      jump\t// in\n    tag_30:\n      stop\n        /* \"test/FundMe.sol\":482:510  address public fundTokenAddr */\n    tag_6:\n      callvalue\n      dup1\n      iszero\n      tag_32\n      jumpi\n      revert(0x00, 0x00)\n    tag_32:\n      pop\n      tag_33\n      tag_34\n      jump\t// in\n    tag_33:\n      mload(0x40)\n      tag_35\n      swap2\n      swap1\n      tag_36\n      jump\t// in\n    tag_35:\n      mload(0x40)\n      dup1\n      swap2\n      sub\n      swap1\n      return\n        /* \"test/FundMe.sol\":456:476  address public owner */\n    tag_7:\n      callvalue\n      dup1\n      iszero\n      tag_37\n      jumpi\n      revert(0x00, 0x00)\n    tag_37:\n      pop\n      tag_38\n      tag_39\n      jump\t// in\n    tag_38:\n      mload(0x40)\n      tag_40\n      swap2\n      swap1\n      tag_36\n      jump\t// in\n    tag_40:\n      mload(0x40)\n      dup1\n      swap2\n      sub\n      swap1\n      return\n        /* \"test/FundMe.sol\":776:1001  function fund() external payable {... */\n    tag_8:\n      tag_41\n      tag_42\n      jump\t// in\n    tag_41:\n      stop\n        /* \"test/FundMe.sol\":1019:1617  function getfund() external windowClosed {... */\n    tag_9:\n      callvalue\n      dup1\n      iszero\n      tag_43\n      jumpi\n      revert(0x00, 0x00)\n    tag_43:\n      pop\n      tag_44\n      tag_45\n      jump\t// in\n    tag_44:\n      stop\n        /* \"test/FundMe.sol\":586:617  bool public fundSuccess = false */\n    tag_10:\n      callvalue\n      dup1\n      iszero\n      tag_46\n      jumpi\n      revert(0x00, 0x00)\n    tag_46:\n      pop\n      tag_47\n      tag_48\n      jump\t// in\n    tag_47:\n      mload(0x40)\n      tag_49\n      swap2\n      swap1\n      tag_50\n      jump\t// in\n    tag_49:\n      mload(0x40)\n      dup1\n      swap2\n      sub\n      swap1\n      return\n        /* \"test/FundMe.sol\":2069:2164  function transferOwnership(address newOwner) public onlyOwner {... */\n    tag_11:\n      callvalue\n      dup1\n      iszero\n      tag_51\n      jumpi\n      revert(0x00, 0x00)\n    tag_51:\n      pop\n      tag_52\n      0x04\n      dup1\n      calldatasize\n      sub\n      dup2\n      add\n      swap1\n      tag_53\n      swap2\n      swap1\n      tag_21\n      jump\t// in\n    tag_53:\n      tag_54\n      jump\t// in\n    tag_52:\n      stop\n        /* \"test/FundMe.sol\":2539:2726  function setFunderToAmount(uint256 _amount) external {... */\n    tag_17:\n        /* \"test/FundMe.sol\":2624:2637  fundTokenAddr */\n      0x02\n      0x00\n      swap1\n      sload\n      swap1\n      0x0100\n      exp\n      swap1\n      div\n      0xffffffffffffffffffffffffffffffffffffffff\n      and\n        /* \"test/FundMe.sol\":2610:2637  msg.sender == fundTokenAddr */\n      0xffffffffffffffffffffffffffffffffffffffff\n      and\n        /* \"test/FundMe.sol\":2610:2620  msg.sender */\n      caller\n        /* \"test/FundMe.sol\":2610:2637  msg.sender == fundTokenAddr */\n      0xffffffffffffffffffffffffffffffffffffffff\n      and\n      eq\n        /* \"test/FundMe.sol\":2602:2673  require(msg.sender == fundTokenAddr, unicode\"你没有足够的权限\") */\n      tag_56\n      jumpi\n      mload(0x40)\n      0x08c379a000000000000000000000000000000000000000000000000000000000\n      dup2\n      mstore\n      0x04\n      add\n      tag_57\n      swap1\n      tag_58\n      jump\t// in\n    tag_57:\n      mload(0x40)\n      dup1\n      swap2\n      sub\n      swap1\n      revert\n    tag_56:\n        /* \"test/FundMe.sol\":2712:2719  _amount */\n      dup1\n        /* \"test/FundMe.sol\":2683:2697  funderToAmount */\n      0x00\n        /* \"test/FundMe.sol\":2683:2709  funderToAmount[msg.sender] */\n      0x00\n        /* \"test/FundMe.sol\":2698:2708  msg.sender */\n      caller\n        /* \"test/FundMe.sol\":2683:2709  funderToAmount[msg.sender] */\n      0xffffffffffffffffffffffffffffffffffffffff\n      and\n      0xffffffffffffffffffffffffffffffffffffffff\n      and\n      dup2\n      mstore\n      0x20\n      add\n      swap1\n      dup2\n      mstore\n      0x20\n      add\n      0x00\n      keccak256\n        /* \"test/FundMe.sol\":2683:2719  funderToAmount[msg.sender] = _amount */\n      dup2\n      swap1\n      sstore\n      pop\n        /* \"test/FundMe.sol\":2539:2726  function setFunderToAmount(uint256 _amount) external {... */\n      pop\n      jump\t// out\n        /* \"test/FundMe.sol\":2417:2533  function setFundTokenAddr(address _fundTokenAddr) external onlyOwner {... */\n    tag_22:\n        /* \"test/FundMe.sol\":2350:2355  owner */\n      0x01\n      0x00\n      swap1\n      sload\n      swap1\n      0x0100\n      exp\n      swap1\n      div\n      0xffffffffffffffffffffffffffffffffffffffff\n      and\n        /* \"test/FundMe.sol\":2336:2355  msg.sender == owner */\n      0xffffffffffffffffffffffffffffffffffffffff\n      and\n        /* \"test/FundMe.sol\":2336:2346  msg.sender */\n      caller\n        /* \"test/FundMe.sol\":2336:2355  msg.sender == owner */\n      0xffffffffffffffffffffffffffffffffffffffff\n      and\n      eq\n        /* \"test/FundMe.sol\":2328:2393  require(msg.sender == owner, \"Only owner can call this function\") */\n      tag_60\n      jumpi\n      mload(0x40)\n      0x08c379a000000000000000000000000000000000000000000000000000000000\n      dup2\n      mstore\n      0x04\n      add\n      tag_61\n      swap1\n      tag_62\n      jump\t// in\n    tag_61:\n      mload(0x40)\n      dup1\n      swap2\n      sub\n      swap1\n      revert\n    tag_60:\n        /* \"test/FundMe.sol\":2512:2526  _fundTokenAddr */\n      dup1\n        /* \"test/FundMe.sol\":2496:2509  fundTokenAddr */\n      0x02\n      0x00\n        /* \"test/FundMe.sol\":2496:2526  fundTokenAddr = _fundTokenAddr */\n      0x0100\n      exp\n      dup2\n      sload\n      dup2\n      0xffffffffffffffffffffffffffffffffffffffff\n      mul\n      not\n      and\n      swap1\n      dup4\n      0xffffffffffffffffffffffffffffffffffffffff\n      and\n      mul\n      or\n      swap1\n      sstore\n      pop\n        /* \"test/FundMe.sol\":2417:2533  function setFundTokenAddr(address _fundTokenAddr) external onlyOwner {... */\n      pop\n      jump\t// out\n        /* \"test/FundMe.sol\":287:336  mapping(address => uint256) public funderToAmount */\n    tag_26:\n      mstore(0x20, 0x00)\n      dup1\n      0x00\n      mstore\n      keccak256(0x00, 0x40)\n      0x00\n      swap2\n      pop\n      swap1\n      pop\n      sload\n      dup2\n      jump\t// out\n        /* \"test/FundMe.sol\":1635:2041  function refund() external windowClosed {... */\n    tag_31:\n        /* \"test/FundMe.sol\":2244:2252  lockTime */\n      sload(0x04)\n        /* \"test/FundMe.sol\":2231:2241  deployTime */\n      sload(0x03)\n        /* \"test/FundMe.sol\":2231:2252  deployTime + lockTime */\n      tag_65\n      swap2\n      swap1\n      tag_66\n      jump\t// in\n    tag_65:\n        /* \"test/FundMe.sol\":2212:2227  block.timestamp */\n      timestamp\n        /* \"test/FundMe.sol\":2212:2252  block.timestamp >= deployTime + lockTime */\n      lt\n      iszero\n        /* \"test/FundMe.sol\":2204:2274  require(block.timestamp >= deployTime + lockTime, \"Window not Closed\") */\n      tag_67\n      jumpi\n      mload(0x40)\n      0x08c379a000000000000000000000000000000000000000000000000000000000\n      dup2\n      mstore\n      0x04\n      add\n      tag_68\n      swap1\n      tag_69\n      jump\t// in\n    tag_68:\n      mload(0x40)\n      dup1\n      swap2\n      sub\n      swap1\n      revert\n    tag_67:\n        /* \"test/FundMe.sol\":430:443  10 * 10 ** 18 */\n      0x8ac7230489e80000\n        /* \"test/FundMe.sol\":1693:1714  address(this).balance */\n      selfbalance\n        /* \"test/FundMe.sol\":1693:1729  address(this).balance < TARGET_VALUE */\n      lt\n        /* \"test/FundMe.sol\":1685:1752  require(address(this).balance < TARGET_VALUE, \"Target is  reached\") */\n      tag_71\n      jumpi\n      mload(0x40)\n      0x08c379a000000000000000000000000000000000000000000000000000000000\n      dup2\n      mstore\n      0x04\n      add\n      tag_72\n      swap1\n      tag_73\n      jump\t// in\n    tag_72:\n      mload(0x40)\n      dup1\n      swap2\n      sub\n      swap1\n      revert\n    tag_71:\n        /* \"test/FundMe.sol\":1800:1801  0 */\n      0x00\n        /* \"test/FundMe.sol\":1770:1784  funderToAmount */\n      0x00\n        /* \"test/FundMe.sol\":1770:1796  funderToAmount[msg.sender] */\n      0x00\n        /* \"test/FundMe.sol\":1785:1795  msg.sender */\n      caller\n        /* \"test/FundMe.sol\":1770:1796  funderToAmount[msg.sender] */\n      0xffffffffffffffffffffffffffffffffffffffff\n      and\n      0xffffffffffffffffffffffffffffffffffffffff\n      and\n      dup2\n      mstore\n      0x20\n      add\n      swap1\n      dup2\n      mstore\n      0x20\n      add\n      0x00\n      keccak256\n      sload\n        /* \"test/FundMe.sol\":1770:1801  funderToAmount[msg.sender] != 0 */\n      sub\n        /* \"test/FundMe.sol\":1762:1821  require(funderToAmount[msg.sender] != 0, \"No fund for you\") */\n      tag_74\n      jumpi\n      mload(0x40)\n      0x08c379a000000000000000000000000000000000000000000000000000000000\n      dup2\n      mstore\n      0x04\n      add\n      tag_75\n      swap1\n      tag_76\n      jump\t// in\n    tag_75:\n      mload(0x40)\n      dup1\n      swap2\n      sub\n      swap1\n      revert\n    tag_74:\n        /* \"test/FundMe.sol\":1861:1862  0 */\n      0x00\n        /* \"test/FundMe.sol\":1832:1846  funderToAmount */\n      0x00\n        /* \"test/FundMe.sol\":1832:1858  funderToAmount[msg.sender] */\n      0x00\n        /* \"test/FundMe.sol\":1847:1857  msg.sender */\n      caller\n        /* \"test/FundMe.sol\":1832:1858  funderToAmount[msg.sender] */\n      0xffffffffffffffffffffffffffffffffffffffff\n      and\n      0xffffffffffffffffffffffffffffffffffffffff\n      and\n      dup2\n      mstore\n      0x20\n      add\n      swap1\n      dup2\n      mstore\n      0x20\n      add\n      0x00\n      keccak256\n        /* \"test/FundMe.sol\":1832:1862  funderToAmount[msg.sender] = 0 */\n      dup2\n      swap1\n      sstore\n      pop\n        /* \"test/FundMe.sol\":1873:1885  bool success */\n      0x00\n        /* \"test/FundMe.sol\":1917:1927  msg.sender */\n      caller\n        /* \"test/FundMe.sol\":1909:1933  payable(msg.sender).call */\n      0xffffffffffffffffffffffffffffffffffffffff\n      and\n        /* \"test/FundMe.sol\":1954:1968  funderToAmount */\n      0x00\n        /* \"test/FundMe.sol\":1954:1980  funderToAmount[msg.sender] */\n      0x00\n        /* \"test/FundMe.sol\":1969:1979  msg.sender */\n      caller\n        /* \"test/FundMe.sol\":1954:1980  funderToAmount[msg.sender] */\n      0xffffffffffffffffffffffffffffffffffffffff\n      and\n      0xffffffffffffffffffffffffffffffffffffffff\n      and\n      dup2\n      mstore\n      0x20\n      add\n      swap1\n      dup2\n      mstore\n      0x20\n      add\n      0x00\n      keccak256\n      sload\n        /* \"test/FundMe.sol\":1909:1994  payable(msg.sender).call{... */\n      mload(0x40)\n      tag_77\n      swap1\n      tag_78\n      jump\t// in\n    tag_77:\n      0x00\n      mload(0x40)\n      dup1\n      dup4\n      sub\n      dup2\n      dup6\n      dup8\n      gas\n      call\n      swap3\n      pop\n      pop\n      pop\n      returndatasize\n      dup1\n      0x00\n      dup2\n      eq\n      tag_81\n      jumpi\n      mload(0x40)\n      swap2\n      pop\n      and(add(returndatasize, 0x3f), not(0x1f))\n      dup3\n      add\n      0x40\n      mstore\n      returndatasize\n      dup3\n      mstore\n      returndatasize\n      0x00\n      0x20\n      dup5\n      add\n      returndatacopy\n      jump(tag_80)\n    tag_81:\n      0x60\n      swap2\n      pop\n    tag_80:\n      pop\n        /* \"test/FundMe.sol\":1895:1994  (success, ) = payable(msg.sender).call{... */\n      pop\n      dup1\n      swap2\n      pop\n      pop\n        /* \"test/FundMe.sol\":2013:2020  success */\n      dup1\n        /* \"test/FundMe.sol\":2005:2034  require(success, \"tx failed\") */\n      tag_82\n      jumpi\n      mload(0x40)\n      0x08c379a000000000000000000000000000000000000000000000000000000000\n      dup2\n      mstore\n      0x04\n      add\n      tag_83\n      swap1\n      tag_84\n      jump\t// in\n    tag_83:\n      mload(0x40)\n      dup1\n      swap2\n      sub\n      swap1\n      revert\n    tag_82:\n        /* \"test/FundMe.sol\":1675:2041  {... */\n      pop\n        /* \"test/FundMe.sol\":1635:2041  function refund() external windowClosed {... */\n      jump\t// out\n        /* \"test/FundMe.sol\":482:510  address public fundTokenAddr */\n    tag_34:\n      0x02\n      0x00\n      swap1\n      sload\n      swap1\n      0x0100\n      exp\n      swap1\n      div\n      0xffffffffffffffffffffffffffffffffffffffff\n      and\n      dup2\n      jump\t// out\n        /* \"test/FundMe.sol\":456:476  address public owner */\n    tag_39:\n      0x01\n      0x00\n      swap1\n      sload\n      swap1\n      0x0100\n      exp\n      swap1\n      div\n      0xffffffffffffffffffffffffffffffffffffffff\n      and\n      dup2\n      jump\t// out\n        /* \"test/FundMe.sol\":776:1001  function fund() external payable {... */\n    tag_42:\n        /* \"test/FundMe.sol\":858:866  lockTime */\n      sload(0x04)\n        /* \"test/FundMe.sol\":845:855  deployTime */\n      sload(0x03)\n        /* \"test/FundMe.sol\":845:866  deployTime + lockTime */\n      tag_86\n      swap2\n      swap1\n      tag_66\n      jump\t// in\n    tag_86:\n        /* \"test/FundMe.sol\":827:842  block.timestamp */\n      timestamp\n        /* \"test/FundMe.sol\":827:866  block.timestamp < deployTime + lockTime */\n      lt\n        /* \"test/FundMe.sol\":819:884  require(block.timestamp < deployTime + lockTime, \"Window Closed\") */\n      tag_87\n      jumpi\n      mload(0x40)\n      0x08c379a000000000000000000000000000000000000000000000000000000000\n      dup2\n      mstore\n      0x04\n      add\n      tag_88\n      swap1\n      tag_89\n      jump\t// in\n    tag_88:\n      mload(0x40)\n      dup1\n      swap2\n      sub\n      swap1\n      revert\n    tag_87:\n        /* \"test/FundMe.sol\":374:386  1 * 10 ** 18 */\n      0x0de0b6b3a7640000\n        /* \"test/FundMe.sol\":902:911  msg.value */\n      callvalue\n        /* \"test/FundMe.sol\":902:927  msg.value >= MINMUM_VALUE */\n      lt\n      iszero\n        /* \"test/FundMe.sol\":894:945  require(msg.value >= MINMUM_VALUE, \"SEND MORE ETH\") */\n      tag_90\n      jumpi\n      mload(0x40)\n      0x08c379a000000000000000000000000000000000000000000000000000000000\n      dup2\n      mstore\n      0x04\n      add\n      tag_91\n      swap1\n      tag_92\n      jump\t// in\n    tag_91:\n      mload(0x40)\n      dup1\n      swap2\n      sub\n      swap1\n      revert\n    tag_90:\n        /* \"test/FundMe.sol\":985:994  msg.value */\n      callvalue\n        /* \"test/FundMe.sol\":955:969  funderToAmount */\n      0x00\n        /* \"test/FundMe.sol\":955:981  funderToAmount[msg.sender] */\n      0x00\n        /* \"test/FundMe.sol\":970:980  msg.sender */\n      caller\n        /* \"test/FundMe.sol\":955:981  funderToAmount[msg.sender] */\n      0xffffffffffffffffffffffffffffffffffffffff\n      and\n      0xffffffffffffffffffffffffffffffffffffffff\n      and\n      dup2\n      mstore\n      0x20\n      add\n      swap1\n      dup2\n      mstore\n      0x20\n      add\n      0x00\n      keccak256\n      0x00\n        /* \"test/FundMe.sol\":955:994  funderToAmount[msg.sender] += msg.value */\n      dup3\n      dup3\n      sload\n      tag_93\n      swap2\n      swap1\n      tag_66\n      jump\t// in\n    tag_93:\n      swap3\n      pop\n      pop\n      dup2\n      swap1\n      sstore\n      pop\n        /* \"test/FundMe.sol\":776:1001  function fund() external payable {... */\n      jump\t// out\n        /* \"test/FundMe.sol\":1019:1617  function getfund() external windowClosed {... */\n    tag_45:\n        /* \"test/FundMe.sol\":2244:2252  lockTime */\n      sload(0x04)\n        /* \"test/FundMe.sol\":2231:2241  deployTime */\n      sload(0x03)\n        /* \"test/FundMe.sol\":2231:2252  deployTime + lockTime */\n      tag_95\n      swap2\n      swap1\n      tag_66\n      jump\t// in\n    tag_95:\n        /* \"test/FundMe.sol\":2212:2227  block.timestamp */\n      timestamp\n        /* \"test/FundMe.sol\":2212:2252  block.timestamp >= deployTime + lockTime */\n      lt\n      iszero\n        /* \"test/FundMe.sol\":2204:2274  require(block.timestamp >= deployTime + lockTime, \"Window not Closed\") */\n      tag_96\n      jumpi\n      mload(0x40)\n      0x08c379a000000000000000000000000000000000000000000000000000000000\n      dup2\n      mstore\n      0x04\n      add\n      tag_97\n      swap1\n      tag_69\n      jump\t// in\n    tag_97:\n      mload(0x40)\n      dup1\n      swap2\n      sub\n      swap1\n      revert\n    tag_96:\n        /* \"test/FundMe.sol\":430:443  10 * 10 ** 18 */\n      0x8ac7230489e80000\n        /* \"test/FundMe.sol\":1078:1099  address(this).balance */\n      selfbalance\n        /* \"test/FundMe.sol\":1078:1115  address(this).balance >= TARGET_VALUE */\n      lt\n      iszero\n        /* \"test/FundMe.sol\":1070:1141  require(address(this).balance >= TARGET_VALUE, \"Target is not reached\") */\n      tag_99\n      jumpi\n      mload(0x40)\n      0x08c379a000000000000000000000000000000000000000000000000000000000\n      dup2\n      mstore\n      0x04\n      add\n      tag_100\n      swap1\n      tag_101\n      jump\t// in\n    tag_100:\n      mload(0x40)\n      dup1\n      swap2\n      sub\n      swap1\n      revert\n    tag_99:\n        /* \"test/FundMe.sol\":1173:1178  owner */\n      0x01\n      0x00\n      swap1\n      sload\n      swap1\n      0x0100\n      exp\n      swap1\n      div\n      0xffffffffffffffffffffffffffffffffffffffff\n      and\n        /* \"test/FundMe.sol\":1159:1178  msg.sender == owner */\n      0xffffffffffffffffffffffffffffffffffffffff\n      and\n        /* \"test/FundMe.sol\":1159:1169  msg.sender */\n      caller\n        /* \"test/FundMe.sol\":1159:1178  msg.sender == owner */\n      0xffffffffffffffffffffffffffffffffffffffff\n      and\n      eq\n        /* \"test/FundMe.sol\":1151:1216  require(msg.sender == owner, \"Only owner can call this function\") */\n      tag_102\n      jumpi\n      mload(0x40)\n      0x08c379a000000000000000000000000000000000000000000000000000000000\n      dup2\n      mstore\n      0x04\n      add\n      tag_103\n      swap1\n      tag_62\n      jump\t// in\n    tag_103:\n      mload(0x40)\n      dup1\n      swap2\n      sub\n      swap1\n      revert\n    tag_102:\n        /* \"test/FundMe.sol\":1426:1438  bool success */\n      0x00\n        /* \"test/FundMe.sol\":1470:1480  msg.sender */\n      caller\n        /* \"test/FundMe.sol\":1462:1486  payable(msg.sender).call */\n      0xffffffffffffffffffffffffffffffffffffffff\n      and\n        /* \"test/FundMe.sol\":1494:1515  address(this).balance */\n      selfbalance\n        /* \"test/FundMe.sol\":1462:1542  payable(msg.sender).call{value: address(this).balance}(... */\n      mload(0x40)\n      tag_104\n      swap1\n      tag_78\n      jump\t// in\n    tag_104:\n      0x00\n      mload(0x40)\n      dup1\n      dup4\n      sub\n      dup2\n      dup6\n      dup8\n      gas\n      call\n      swap3\n      pop\n      pop\n      pop\n      returndatasize\n      dup1\n      0x00\n      dup2\n      eq\n      tag_107\n      jumpi\n      mload(0x40)\n      swap2\n      pop\n      and(add(returndatasize, 0x3f), not(0x1f))\n      dup3\n      add\n      0x40\n      mstore\n      returndatasize\n      dup3\n      mstore\n      returndatasize\n      0x00\n      0x20\n      dup5\n      add\n      returndatacopy\n      jump(tag_106)\n    tag_107:\n      0x60\n      swap2\n      pop\n    tag_106:\n      pop\n        /* \"test/FundMe.sol\":1448:1542  (success, ) = payable(msg.sender).call{value: address(this).balance}(... */\n      pop\n      dup1\n      swap2\n      pop\n      pop\n        /* \"test/FundMe.sol\":1561:1568  success */\n      dup1\n        /* \"test/FundMe.sol\":1553:1582  require(success, \"tx failed\") */\n      tag_108\n      jumpi\n      mload(0x40)\n      0x08c379a000000000000000000000000000000000000000000000000000000000\n      dup2\n      mstore\n      0x04\n      add\n      tag_109\n      swap1\n      tag_84\n      jump\t// in\n    tag_109:\n      mload(0x40)\n      dup1\n      swap2\n      sub\n      swap1\n      revert\n    tag_108:\n        /* \"test/FundMe.sol\":1606:1610  true */\n      0x01\n        /* \"test/FundMe.sol\":1592:1603  fundSuccess */\n      0x05\n      0x00\n        /* \"test/FundMe.sol\":1592:1610  fundSuccess = true */\n      0x0100\n      exp\n      dup2\n      sload\n      dup2\n      0xff\n      mul\n      not\n      and\n      swap1\n      dup4\n      iszero\n      iszero\n      mul\n      or\n      swap1\n      sstore\n      pop\n        /* \"test/FundMe.sol\":1060:1617  {... */\n      pop\n        /* \"test/FundMe.sol\":1019:1617  function getfund() external windowClosed {... */\n      jump\t// out\n        /* \"test/FundMe.sol\":586:617  bool public fundSuccess = false */\n    tag_48:\n      0x05\n      0x00\n      swap1\n      sload\n      swap1\n      0x0100\n      exp\n      swap1\n      div\n      0xff\n      and\n      dup2\n      jump\t// out\n        /* \"test/FundMe.sol\":2069:2164  function transferOwnership(address newOwner) public onlyOwner {... */\n    tag_54:\n        /* \"test/FundMe.sol\":2350:2355  owner */\n      0x01\n      0x00\n      swap1\n      sload\n      swap1\n      0x0100\n      exp\n      swap1\n      div\n      0xffffffffffffffffffffffffffffffffffffffff\n      and\n        /* \"test/FundMe.sol\":2336:2355  msg.sender == owner */\n      0xffffffffffffffffffffffffffffffffffffffff\n      and\n        /* \"test/FundMe.sol\":2336:2346  msg.sender */\n      caller\n        /* \"test/FundMe.sol\":2336:2355  msg.sender == owner */\n      0xffffffffffffffffffffffffffffffffffffffff\n      and\n      eq\n        /* \"test/FundMe.sol\":2328:2393  require(msg.sender == owner, \"Only owner can call this function\") */\n      tag_111\n      jumpi\n      mload(0x40)\n      0x08c379a000000000000000000000000000000000000000000000000000000000\n      dup2\n      mstore\n      0x04\n      add\n      tag_112\n      swap1\n      tag_62\n      jump\t// in\n    tag_112:\n      mload(0x40)\n      dup1\n      swap2\n      sub\n      swap1\n      revert\n    tag_111:\n        /* \"test/FundMe.sol\":2149:2157  newOwner */\n      dup1\n        /* \"test/FundMe.sol\":2141:2146  owner */\n      0x01\n      0x00\n        /* \"test/FundMe.sol\":2141:2157  owner = newOwner */\n      0x0100\n      exp\n      dup2\n      sload\n      dup2\n      0xffffffffffffffffffffffffffffffffffffffff\n      mul\n      not\n      and\n      swap1\n      dup4\n      0xffffffffffffffffffffffffffffffffffffffff\n      and\n      mul\n      or\n      swap1\n      sstore\n      pop\n        /* \"test/FundMe.sol\":2069:2164  function transferOwnership(address newOwner) public onlyOwner {... */\n      pop\n      jump\t// out\n        /* \"#utility.yul\":88:205   */\n    tag_115:\n        /* \"#utility.yul\":197:198   */\n      0x00\n        /* \"#utility.yul\":194:195   */\n      0x00\n        /* \"#utility.yul\":187:199   */\n      revert\n        /* \"#utility.yul\":334:411   */\n    tag_117:\n        /* \"#utility.yul\":371:378   */\n      0x00\n        /* \"#utility.yul\":400:405   */\n      dup2\n        /* \"#utility.yul\":389:405   */\n      swap1\n      pop\n        /* \"#utility.yul\":334:411   */\n      swap2\n      swap1\n      pop\n      jump\t// out\n        /* \"#utility.yul\":417:539   */\n    tag_118:\n        /* \"#utility.yul\":490:514   */\n      tag_157\n        /* \"#utility.yul\":508:513   */\n      dup2\n        /* \"#utility.yul\":490:514   */\n      tag_117\n      jump\t// in\n    tag_157:\n        /* \"#utility.yul\":483:488   */\n      dup2\n        /* \"#utility.yul\":480:515   */\n      eq\n        /* \"#utility.yul\":470:533   */\n      tag_158\n      jumpi\n        /* \"#utility.yul\":529:530   */\n      0x00\n        /* \"#utility.yul\":526:527   */\n      0x00\n        /* \"#utility.yul\":519:531   */\n      revert\n        /* \"#utility.yul\":470:533   */\n    tag_158:\n        /* \"#utility.yul\":417:539   */\n      pop\n      jump\t// out\n        /* \"#utility.yul\":545:684   */\n    tag_119:\n        /* \"#utility.yul\":591:596   */\n      0x00\n        /* \"#utility.yul\":629:635   */\n      dup2\n        /* \"#utility.yul\":616:636   */\n      calldataload\n        /* \"#utility.yul\":607:636   */\n      swap1\n      pop\n        /* \"#utility.yul\":645:678   */\n      tag_160\n        /* \"#utility.yul\":672:677   */\n      dup2\n        /* \"#utility.yul\":645:678   */\n      tag_118\n      jump\t// in\n    tag_160:\n        /* \"#utility.yul\":545:684   */\n      swap3\n      swap2\n      pop\n      pop\n      jump\t// out\n        /* \"#utility.yul\":690:1019   */\n    tag_16:\n        /* \"#utility.yul\":749:755   */\n      0x00\n        /* \"#utility.yul\":798:800   */\n      0x20\n        /* \"#utility.yul\":786:795   */\n      dup3\n        /* \"#utility.yul\":777:784   */\n      dup5\n        /* \"#utility.yul\":773:796   */\n      sub\n        /* \"#utility.yul\":769:801   */\n      slt\n        /* \"#utility.yul\":766:885   */\n      iszero\n      tag_162\n      jumpi\n        /* \"#utility.yul\":804:883   */\n      tag_163\n      tag_115\n      jump\t// in\n    tag_163:\n        /* \"#utility.yul\":766:885   */\n    tag_162:\n        /* \"#utility.yul\":924:925   */\n      0x00\n        /* \"#utility.yul\":949:1002   */\n      tag_164\n        /* \"#utility.yul\":994:1001   */\n      dup5\n        /* \"#utility.yul\":985:991   */\n      dup3\n        /* \"#utility.yul\":974:983   */\n      dup6\n        /* \"#utility.yul\":970:992   */\n      add\n        /* \"#utility.yul\":949:1002   */\n      tag_119\n      jump\t// in\n    tag_164:\n        /* \"#utility.yul\":939:1002   */\n      swap2\n      pop\n        /* \"#utility.yul\":895:1012   */\n      pop\n        /* \"#utility.yul\":690:1019   */\n      swap3\n      swap2\n      pop\n      pop\n      jump\t// out\n        /* \"#utility.yul\":1025:1151   */\n    tag_120:\n        /* \"#utility.yul\":1062:1069   */\n      0x00\n        /* \"#utility.yul\":1102:1144   */\n      0xffffffffffffffffffffffffffffffffffffffff\n        /* \"#utility.yul\":1095:1100   */\n      dup3\n        /* \"#utility.yul\":1091:1145   */\n      and\n        /* \"#utility.yul\":1080:1145   */\n      swap1\n      pop\n        /* \"#utility.yul\":1025:1151   */\n      swap2\n      swap1\n      pop\n      jump\t// out\n        /* \"#utility.yul\":1157:1253   */\n    tag_121:\n        /* \"#utility.yul\":1194:1201   */\n      0x00\n        /* \"#utility.yul\":1223:1247   */\n      tag_167\n        /* \"#utility.yul\":1241:1246   */\n      dup3\n        /* \"#utility.yul\":1223:1247   */\n      tag_120\n      jump\t// in\n    tag_167:\n        /* \"#utility.yul\":1212:1247   */\n      swap1\n      pop\n        /* \"#utility.yul\":1157:1253   */\n      swap2\n      swap1\n      pop\n      jump\t// out\n        /* \"#utility.yul\":1259:1381   */\n    tag_122:\n        /* \"#utility.yul\":1332:1356   */\n      tag_169\n        /* \"#utility.yul\":1350:1355   */\n      dup2\n        /* \"#utility.yul\":1332:1356   */\n      tag_121\n      jump\t// in\n    tag_169:\n        /* \"#utility.yul\":1325:1330   */\n      dup2\n        /* \"#utility.yul\":1322:1357   */\n      eq\n        /* \"#utility.yul\":1312:1375   */\n      tag_170\n      jumpi\n        /* \"#utility.yul\":1371:1372   */\n      0x00\n        /* \"#utility.yul\":1368:1369   */\n      0x00\n        /* \"#utility.yul\":1361:1373   */\n      revert\n        /* \"#utility.yul\":1312:1375   */\n    tag_170:\n        /* \"#utility.yul\":1259:1381   */\n      pop\n      jump\t// out\n        /* \"#utility.yul\":1387:1526   */\n    tag_123:\n        /* \"#utility.yul\":1433:1438   */\n      0x00\n        /* \"#utility.yul\":1471:1477   */\n      dup2\n        /* \"#utility.yul\":1458:1478   */\n      calldataload\n        /* \"#utility.yul\":1449:1478   */\n      swap1\n      pop\n        /* \"#utility.yul\":1487:1520   */\n      tag_172\n        /* \"#utility.yul\":1514:1519   */\n      dup2\n        /* \"#utility.yul\":1487:1520   */\n      tag_122\n      jump\t// in\n    tag_172:\n        /* \"#utility.yul\":1387:1526   */\n      swap3\n      swap2\n      pop\n      pop\n      jump\t// out\n        /* \"#utility.yul\":1532:1861   */\n    tag_21:\n        /* \"#utility.yul\":1591:1597   */\n      0x00\n        /* \"#utility.yul\":1640:1642   */\n      0x20\n        /* \"#utility.yul\":1628:1637   */\n      dup3\n        /* \"#utility.yul\":1619:1626   */\n      dup5\n        /* \"#utility.yul\":1615:1638   */\n      sub\n        /* \"#utility.yul\":1611:1643   */\n      slt\n        /* \"#utility.yul\":1608:1727   */\n      iszero\n      tag_174\n      jumpi\n        /* \"#utility.yul\":1646:1725   */\n      tag_175\n      tag_115\n      jump\t// in\n    tag_175:\n        /* \"#utility.yul\":1608:1727   */\n    tag_174:\n        /* \"#utility.yul\":1766:1767   */\n      0x00\n        /* \"#utility.yul\":1791:1844   */\n      tag_176\n        /* \"#utility.yul\":1836:1843   */\n      dup5\n        /* \"#utility.yul\":1827:1833   */\n      dup3\n        /* \"#utility.yul\":1816:1825   */\n      dup6\n        /* \"#utility.yul\":1812:1834   */\n      add\n        /* \"#utility.yul\":1791:1844   */\n      tag_123\n      jump\t// in\n    tag_176:\n        /* \"#utility.yul\":1781:1844   */\n      swap2\n      pop\n        /* \"#utility.yul\":1737:1854   */\n      pop\n        /* \"#utility.yul\":1532:1861   */\n      swap3\n      swap2\n      pop\n      pop\n      jump\t// out\n        /* \"#utility.yul\":1867:1985   */\n    tag_124:\n        /* \"#utility.yul\":1954:1978   */\n      tag_178\n        /* \"#utility.yul\":1972:1977   */\n      dup2\n        /* \"#utility.yul\":1954:1978   */\n      tag_117\n      jump\t// in\n    tag_178:\n        /* \"#utility.yul\":1949:1952   */\n      dup3\n        /* \"#utility.yul\":1942:1979   */\n      mstore\n        /* \"#utility.yul\":1867:1985   */\n      pop\n      pop\n      jump\t// out\n        /* \"#utility.yul\":1991:2213   */\n    tag_28:\n        /* \"#utility.yul\":2084:2088   */\n      0x00\n        /* \"#utility.yul\":2122:2124   */\n      0x20\n        /* \"#utility.yul\":2111:2120   */\n      dup3\n        /* \"#utility.yul\":2107:2125   */\n      add\n        /* \"#utility.yul\":2099:2125   */\n      swap1\n      pop\n        /* \"#utility.yul\":2135:2206   */\n      tag_180\n        /* \"#utility.yul\":2203:2204   */\n      0x00\n        /* \"#utility.yul\":2192:2201   */\n      dup4\n        /* \"#utility.yul\":2188:2205   */\n      add\n        /* \"#utility.yul\":2179:2185   */\n      dup5\n        /* \"#utility.yul\":2135:2206   */\n      tag_124\n      jump\t// in\n    tag_180:\n        /* \"#utility.yul\":1991:2213   */\n      swap3\n      swap2\n      pop\n      pop\n      jump\t// out\n        /* \"#utility.yul\":2219:2337   */\n    tag_125:\n        /* \"#utility.yul\":2306:2330   */\n      tag_182\n        /* \"#utility.yul\":2324:2329   */\n      dup2\n        /* \"#utility.yul\":2306:2330   */\n      tag_121\n      jump\t// in\n    tag_182:\n        /* \"#utility.yul\":2301:2304   */\n      dup3\n        /* \"#utility.yul\":2294:2331   */\n      mstore\n        /* \"#utility.yul\":2219:2337   */\n      pop\n      pop\n      jump\t// out\n        /* \"#utility.yul\":2343:2565   */\n    tag_36:\n        /* \"#utility.yul\":2436:2440   */\n      0x00\n        /* \"#utility.yul\":2474:2476   */\n      0x20\n        /* \"#utility.yul\":2463:2472   */\n      dup3\n        /* \"#utility.yul\":2459:2477   */\n      add\n        /* \"#utility.yul\":2451:2477   */\n      swap1\n      pop\n        /* \"#utility.yul\":2487:2558   */\n      tag_184\n        /* \"#utility.yul\":2555:2556   */\n      0x00\n        /* \"#utility.yul\":2544:2553   */\n      dup4\n        /* \"#utility.yul\":2540:2557   */\n      add\n        /* \"#utility.yul\":2531:2537   */\n      dup5\n        /* \"#utility.yul\":2487:2558   */\n      tag_125\n      jump\t// in\n    tag_184:\n        /* \"#utility.yul\":2343:2565   */\n      swap3\n      swap2\n      pop\n      pop\n      jump\t// out\n        /* \"#utility.yul\":2571:2661   */\n    tag_126:\n        /* \"#utility.yul\":2605:2612   */\n      0x00\n        /* \"#utility.yul\":2648:2653   */\n      dup2\n        /* \"#utility.yul\":2641:2654   */\n      iszero\n        /* \"#utility.yul\":2634:2655   */\n      iszero\n        /* \"#utility.yul\":2623:2655   */\n      swap1\n      pop\n        /* \"#utility.yul\":2571:2661   */\n      swap2\n      swap1\n      pop\n      jump\t// out\n        /* \"#utility.yul\":2667:2776   */\n    tag_127:\n        /* \"#utility.yul\":2748:2769   */\n      tag_187\n        /* \"#utility.yul\":2763:2768   */\n      dup2\n        /* \"#utility.yul\":2748:2769   */\n      tag_126\n      jump\t// in\n    tag_187:\n        /* \"#utility.yul\":2743:2746   */\n      dup3\n        /* \"#utility.yul\":2736:2770   */\n      mstore\n        /* \"#utility.yul\":2667:2776   */\n      pop\n      pop\n      jump\t// out\n        /* \"#utility.yul\":2782:2992   */\n    tag_50:\n        /* \"#utility.yul\":2869:2873   */\n      0x00\n        /* \"#utility.yul\":2907:2909   */\n      0x20\n        /* \"#utility.yul\":2896:2905   */\n      dup3\n        /* \"#utility.yul\":2892:2910   */\n      add\n        /* \"#utility.yul\":2884:2910   */\n      swap1\n      pop\n        /* \"#utility.yul\":2920:2985   */\n      tag_189\n        /* \"#utility.yul\":2982:2983   */\n      0x00\n        /* \"#utility.yul\":2971:2980   */\n      dup4\n        /* \"#utility.yul\":2967:2984   */\n      add\n        /* \"#utility.yul\":2958:2964   */\n      dup5\n        /* \"#utility.yul\":2920:2985   */\n      tag_127\n      jump\t// in\n    tag_189:\n        /* \"#utility.yul\":2782:2992   */\n      swap3\n      swap2\n      pop\n      pop\n      jump\t// out\n        /* \"#utility.yul\":2998:3167   */\n    tag_128:\n        /* \"#utility.yul\":3082:3093   */\n      0x00\n        /* \"#utility.yul\":3116:3122   */\n      dup3\n        /* \"#utility.yul\":3111:3114   */\n      dup3\n        /* \"#utility.yul\":3104:3123   */\n      mstore\n        /* \"#utility.yul\":3156:3160   */\n      0x20\n        /* \"#utility.yul\":3151:3154   */\n      dup3\n        /* \"#utility.yul\":3147:3161   */\n      add\n        /* \"#utility.yul\":3132:3161   */\n      swap1\n      pop\n        /* \"#utility.yul\":2998:3167   */\n      swap3\n      swap2\n      pop\n      pop\n      jump\t// out\n        /* \"#utility.yul\":3173:3387   */\n    tag_129:\n        /* \"#utility.yul\":3313:3379   */\n      0xe4bda0e6b2a1e69c89e8b6b3e5a49fe79a84e69d83e999900000000000000000\n        /* \"#utility.yul\":3309:3310   */\n      0x00\n        /* \"#utility.yul\":3301:3307   */\n      dup3\n        /* \"#utility.yul\":3297:3311   */\n      add\n        /* \"#utility.yul\":3290:3380   */\n      mstore\n        /* \"#utility.yul\":3173:3387   */\n      pop\n      jump\t// out\n        /* \"#utility.yul\":3393:3759   */\n    tag_130:\n        /* \"#utility.yul\":3535:3538   */\n      0x00\n        /* \"#utility.yul\":3556:3623   */\n      tag_193\n        /* \"#utility.yul\":3620:3622   */\n      0x18\n        /* \"#utility.yul\":3615:3618   */\n      dup4\n        /* \"#utility.yul\":3556:3623   */\n      tag_128\n      jump\t// in\n    tag_193:\n        /* \"#utility.yul\":3549:3623   */\n      swap2\n      pop\n        /* \"#utility.yul\":3632:3725   */\n      tag_194\n        /* \"#utility.yul\":3721:3724   */\n      dup3\n        /* \"#utility.yul\":3632:3725   */\n      tag_129\n      jump\t// in\n    tag_194:\n        /* \"#utility.yul\":3750:3752   */\n      0x20\n        /* \"#utility.yul\":3745:3748   */\n      dup3\n        /* \"#utility.yul\":3741:3753   */\n      add\n        /* \"#utility.yul\":3734:3753   */\n      swap1\n      pop\n        /* \"#utility.yul\":3393:3759   */\n      swap2\n      swap1\n      pop\n      jump\t// out\n        /* \"#utility.yul\":3765:4184   */\n    tag_58:\n        /* \"#utility.yul\":3931:3935   */\n      0x00\n        /* \"#utility.yul\":3969:3971   */\n      0x20\n        /* \"#utility.yul\":3958:3967   */\n      dup3\n        /* \"#utility.yul\":3954:3972   */\n      add\n        /* \"#utility.yul\":3946:3972   */\n      swap1\n      pop\n        /* \"#utility.yul\":4018:4027   */\n      dup2\n        /* \"#utility.yul\":4012:4016   */\n      dup2\n        /* \"#utility.yul\":4008:4028   */\n      sub\n        /* \"#utility.yul\":4004:4005   */\n      0x00\n        /* \"#utility.yul\":3993:4002   */\n      dup4\n        /* \"#utility.yul\":3989:4006   */\n      add\n        /* \"#utility.yul\":3982:4029   */\n      mstore\n        /* \"#utility.yul\":4046:4177   */\n      tag_196\n        /* \"#utility.yul\":4172:4176   */\n      dup2\n        /* \"#utility.yul\":4046:4177   */\n      tag_130\n      jump\t// in\n    tag_196:\n        /* \"#utility.yul\":4038:4177   */\n      swap1\n      pop\n        /* \"#utility.yul\":3765:4184   */\n      swap2\n      swap1\n      pop\n      jump\t// out\n        /* \"#utility.yul\":4190:4410   */\n    tag_131:\n        /* \"#utility.yul\":4330:4364   */\n      0x4f6e6c79206f776e65722063616e2063616c6c20746869732066756e6374696f\n        /* \"#utility.yul\":4326:4327   */\n      0x00\n        /* \"#utility.yul\":4318:4324   */\n      dup3\n        /* \"#utility.yul\":4314:4328   */\n      add\n        /* \"#utility.yul\":4307:4365   */\n      mstore\n        /* \"#utility.yul\":4399:4402   */\n      0x6e00000000000000000000000000000000000000000000000000000000000000\n        /* \"#utility.yul\":4394:4396   */\n      0x20\n        /* \"#utility.yul\":4386:4392   */\n      dup3\n        /* \"#utility.yul\":4382:4397   */\n      add\n        /* \"#utility.yul\":4375:4403   */\n      mstore\n        /* \"#utility.yul\":4190:4410   */\n      pop\n      jump\t// out\n        /* \"#utility.yul\":4416:4782   */\n    tag_132:\n        /* \"#utility.yul\":4558:4561   */\n      0x00\n        /* \"#utility.yul\":4579:4646   */\n      tag_199\n        /* \"#utility.yul\":4643:4645   */\n      0x21\n        /* \"#utility.yul\":4638:4641   */\n      dup4\n        /* \"#utility.yul\":4579:4646   */\n      tag_128\n      jump\t// in\n    tag_199:\n        /* \"#utility.yul\":4572:4646   */\n      swap2\n      pop\n        /* \"#utility.yul\":4655:4748   */\n      tag_200\n        /* \"#utility.yul\":4744:4747   */\n      dup3\n        /* \"#utility.yul\":4655:4748   */\n      tag_131\n      jump\t// in\n    tag_200:\n        /* \"#utility.yul\":4773:4775   */\n      0x40\n        /* \"#utility.yul\":4768:4771   */\n      dup3\n        /* \"#utility.yul\":4764:4776   */\n      add\n        /* \"#utility.yul\":4757:4776   */\n      swap1\n      pop\n        /* \"#utility.yul\":4416:4782   */\n      swap2\n      swap1\n      pop\n      jump\t// out\n        /* \"#utility.yul\":4788:5207   */\n    tag_62:\n        /* \"#utility.yul\":4954:4958   */\n      0x00\n        /* \"#utility.yul\":4992:4994   */\n      0x20\n        /* \"#utility.yul\":4981:4990   */\n      dup3\n        /* \"#utility.yul\":4977:4995   */\n      add\n        /* \"#utility.yul\":4969:4995   */\n      swap1\n      pop\n        /* \"#utility.yul\":5041:5050   */\n      dup2\n        /* \"#utility.yul\":5035:5039   */\n      dup2\n        /* \"#utility.yul\":5031:5051   */\n      sub\n        /* \"#utility.yul\":5027:5028   */\n      0x00\n        /* \"#utility.yul\":5016:5025   */\n      dup4\n        /* \"#utility.yul\":5012:5029   */\n      add\n        /* \"#utility.yul\":5005:5052   */\n      mstore\n        /* \"#utility.yul\":5069:5200   */\n      tag_202\n        /* \"#utility.yul\":5195:5199   */\n      dup2\n        /* \"#utility.yul\":5069:5200   */\n      tag_132\n      jump\t// in\n    tag_202:\n        /* \"#utility.yul\":5061:5200   */\n      swap1\n      pop\n        /* \"#utility.yul\":4788:5207   */\n      swap2\n      swap1\n      pop\n      jump\t// out\n        /* \"#utility.yul\":5213:5393   */\n    tag_133:\n        /* \"#utility.yul\":5261:5338   */\n      0x4e487b7100000000000000000000000000000000000000000000000000000000\n        /* \"#utility.yul\":5258:5259   */\n      0x00\n        /* \"#utility.yul\":5251:5339   */\n      mstore\n        /* \"#utility.yul\":5358:5362   */\n      0x11\n        /* \"#utility.yul\":5355:5356   */\n      0x04\n        /* \"#utility.yul\":5348:5363   */\n      mstore\n        /* \"#utility.yul\":5382:5386   */\n      0x24\n        /* \"#utility.yul\":5379:5380   */\n      0x00\n        /* \"#utility.yul\":5372:5387   */\n      revert\n        /* \"#utility.yul\":5399:5590   */\n    tag_66:\n        /* \"#utility.yul\":5439:5442   */\n      0x00\n        /* \"#utility.yul\":5458:5478   */\n      tag_205\n        /* \"#utility.yul\":5476:5477   */\n      dup3\n        /* \"#utility.yul\":5458:5478   */\n      tag_117\n      jump\t// in\n    tag_205:\n        /* \"#utility.yul\":5453:5478   */\n      swap2\n      pop\n        /* \"#utility.yul\":5492:5512   */\n      tag_206\n        /* \"#utility.yul\":5510:5511   */\n      dup4\n        /* \"#utility.yul\":5492:5512   */\n      tag_117\n      jump\t// in\n    tag_206:\n        /* \"#utility.yul\":5487:5512   */\n      swap3\n      pop\n        /* \"#utility.yul\":5535:5536   */\n      dup3\n        /* \"#utility.yul\":5532:5533   */\n      dup3\n        /* \"#utility.yul\":5528:5537   */\n      add\n        /* \"#utility.yul\":5521:5537   */\n      swap1\n      pop\n        /* \"#utility.yul\":5556:5559   */\n      dup1\n        /* \"#utility.yul\":5553:5554   */\n      dup3\n        /* \"#utility.yul\":5550:5560   */\n      gt\n        /* \"#utility.yul\":5547:5583   */\n      iszero\n      tag_207\n      jumpi\n        /* \"#utility.yul\":5563:5581   */\n      tag_208\n      tag_133\n      jump\t// in\n    tag_208:\n        /* \"#utility.yul\":5547:5583   */\n    tag_207:\n        /* \"#utility.yul\":5399:5590   */\n      swap3\n      swap2\n      pop\n      pop\n      jump\t// out\n        /* \"#utility.yul\":5596:5763   */\n    tag_134:\n        /* \"#utility.yul\":5736:5755   */\n      0x57696e646f77206e6f7420436c6f736564000000000000000000000000000000\n        /* \"#utility.yul\":5732:5733   */\n      0x00\n        /* \"#utility.yul\":5724:5730   */\n      dup3\n        /* \"#utility.yul\":5720:5734   */\n      add\n        /* \"#utility.yul\":5713:5756   */\n      mstore\n        /* \"#utility.yul\":5596:5763   */\n      pop\n      jump\t// out\n        /* \"#utility.yul\":5769:6135   */\n    tag_135:\n        /* \"#utility.yul\":5911:5914   */\n      0x00\n        /* \"#utility.yul\":5932:5999   */\n      tag_211\n        /* \"#utility.yul\":5996:5998   */\n      0x11\n        /* \"#utility.yul\":5991:5994   */\n      dup4\n        /* \"#utility.yul\":5932:5999   */\n      tag_128\n      jump\t// in\n    tag_211:\n        /* \"#utility.yul\":5925:5999   */\n      swap2\n      pop\n        /* \"#utility.yul\":6008:6101   */\n      tag_212\n        /* \"#utility.yul\":6097:6100   */\n      dup3\n        /* \"#utility.yul\":6008:6101   */\n      tag_134\n      jump\t// in\n    tag_212:\n        /* \"#utility.yul\":6126:6128   */\n      0x20\n        /* \"#utility.yul\":6121:6124   */\n      dup3\n        /* \"#utility.yul\":6117:6129   */\n      add\n        /* \"#utility.yul\":6110:6129   */\n      swap1\n      pop\n        /* \"#utility.yul\":5769:6135   */\n      swap2\n      swap1\n      pop\n      jump\t// out\n        /* \"#utility.yul\":6141:6560   */\n    tag_69:\n        /* \"#utility.yul\":6307:6311   */\n      0x00\n        /* \"#utility.yul\":6345:6347   */\n      0x20\n        /* \"#utility.yul\":6334:6343   */\n      dup3\n        /* \"#utility.yul\":6330:6348   */\n      add\n        /* \"#utility.yul\":6322:6348   */\n      swap1\n      pop\n        /* \"#utility.yul\":6394:6403   */\n      dup2\n        /* \"#utility.yul\":6388:6392   */\n      dup2\n        /* \"#utility.yul\":6384:6404   */\n      sub\n        /* \"#utility.yul\":6380:6381   */\n      0x00\n        /* \"#utility.yul\":6369:6378   */\n      dup4\n        /* \"#utility.yul\":6365:6382   */\n      add\n        /* \"#utility.yul\":6358:6405   */\n      mstore\n        /* \"#utility.yul\":6422:6553   */\n      tag_214\n        /* \"#utility.yul\":6548:6552   */\n      dup2\n        /* \"#utility.yul\":6422:6553   */\n      tag_135\n      jump\t// in\n    tag_214:\n        /* \"#utility.yul\":6414:6553   */\n      swap1\n      pop\n        /* \"#utility.yul\":6141:6560   */\n      swap2\n      swap1\n      pop\n      jump\t// out\n        /* \"#utility.yul\":6566:6734   */\n    tag_136:\n        /* \"#utility.yul\":6706:6726   */\n      0x5461726765742069732020726561636865640000000000000000000000000000\n        /* \"#utility.yul\":6702:6703   */\n      0x00\n        /* \"#utility.yul\":6694:6700   */\n      dup3\n        /* \"#utility.yul\":6690:6704   */\n      add\n        /* \"#utility.yul\":6683:6727   */\n      mstore\n        /* \"#utility.yul\":6566:6734   */\n      pop\n      jump\t// out\n        /* \"#utility.yul\":6740:7106   */\n    tag_137:\n        /* \"#utility.yul\":6882:6885   */\n      0x00\n        /* \"#utility.yul\":6903:6970   */\n      tag_217\n        /* \"#utility.yul\":6967:6969   */\n      0x12\n        /* \"#utility.yul\":6962:6965   */\n      dup4\n        /* \"#utility.yul\":6903:6970   */\n      tag_128\n      jump\t// in\n    tag_217:\n        /* \"#utility.yul\":6896:6970   */\n      swap2\n      pop\n        /* \"#utility.yul\":6979:7072   */\n      tag_218\n        /* \"#utility.yul\":7068:7071   */\n      dup3\n        /* \"#utility.yul\":6979:7072   */\n      tag_136\n      jump\t// in\n    tag_218:\n        /* \"#utility.yul\":7097:7099   */\n      0x20\n        /* \"#utility.yul\":7092:7095   */\n      dup3\n        /* \"#utility.yul\":7088:7100   */\n      add\n        /* \"#utility.yul\":7081:7100   */\n      swap1\n      pop\n        /* \"#utility.yul\":6740:7106   */\n      swap2\n      swap1\n      pop\n      jump\t// out\n        /* \"#utility.yul\":7112:7531   */\n    tag_73:\n        /* \"#utility.yul\":7278:7282   */\n      0x00\n        /* \"#utility.yul\":7316:7318   */\n      0x20\n        /* \"#utility.yul\":7305:7314   */\n      dup3\n        /* \"#utility.yul\":7301:7319   */\n      add\n        /* \"#utility.yul\":7293:7319   */\n      swap1\n      pop\n        /* \"#utility.yul\":7365:7374   */\n      dup2\n        /* \"#utility.yul\":7359:7363   */\n      dup2\n        /* \"#utility.yul\":7355:7375   */\n      sub\n        /* \"#utility.yul\":7351:7352   */\n      0x00\n        /* \"#utility.yul\":7340:7349   */\n      dup4\n        /* \"#utility.yul\":7336:7353   */\n      add\n        /* \"#utility.yul\":7329:7376   */\n      mstore\n        /* \"#utility.yul\":7393:7524   */\n      tag_220\n        /* \"#utility.yul\":7519:7523   */\n      dup2\n        /* \"#utility.yul\":7393:7524   */\n      tag_137\n      jump\t// in\n    tag_220:\n        /* \"#utility.yul\":7385:7524   */\n      swap1\n      pop\n        /* \"#utility.yul\":7112:7531   */\n      swap2\n      swap1\n      pop\n      jump\t// out\n        /* \"#utility.yul\":7537:7702   */\n    tag_138:\n        /* \"#utility.yul\":7677:7694   */\n      0x4e6f2066756e6420666f7220796f750000000000000000000000000000000000\n        /* \"#utility.yul\":7673:7674   */\n      0x00\n        /* \"#utility.yul\":7665:7671   */\n      dup3\n        /* \"#utility.yul\":7661:7675   */\n      add\n        /* \"#utility.yul\":7654:7695   */\n      mstore\n        /* \"#utility.yul\":7537:7702   */\n      pop\n      jump\t// out\n        /* \"#utility.yul\":7708:8074   */\n    tag_139:\n        /* \"#utility.yul\":7850:7853   */\n      0x00\n        /* \"#utility.yul\":7871:7938   */\n      tag_223\n        /* \"#utility.yul\":7935:7937   */\n      0x0f\n        /* \"#utility.yul\":7930:7933   */\n      dup4\n        /* \"#utility.yul\":7871:7938   */\n      tag_128\n      jump\t// in\n    tag_223:\n        /* \"#utility.yul\":7864:7938   */\n      swap2\n      pop\n        /* \"#utility.yul\":7947:8040   */\n      tag_224\n        /* \"#utility.yul\":8036:8039   */\n      dup3\n        /* \"#utility.yul\":7947:8040   */\n      tag_138\n      jump\t// in\n    tag_224:\n        /* \"#utility.yul\":8065:8067   */\n      0x20\n        /* \"#utility.yul\":8060:8063   */\n      dup3\n        /* \"#utility.yul\":8056:8068   */\n      add\n        /* \"#utility.yul\":8049:8068   */\n      swap1\n      pop\n        /* \"#utility.yul\":7708:8074   */\n      swap2\n      swap1\n      pop\n      jump\t// out\n        /* \"#utility.yul\":8080:8499   */\n    tag_76:\n        /* \"#utility.yul\":8246:8250   */\n      0x00\n        /* \"#utility.yul\":8284:8286   */\n      0x20\n        /* \"#utility.yul\":8273:8282   */\n      dup3\n        /* \"#utility.yul\":8269:8287   */\n      add\n        /* \"#utility.yul\":8261:8287   */\n      swap1\n      pop\n        /* \"#utility.yul\":8333:8342   */\n      dup2\n        /* \"#utility.yul\":8327:8331   */\n      dup2\n        /* \"#utility.yul\":8323:8343   */\n      sub\n        /* \"#utility.yul\":8319:8320   */\n      0x00\n        /* \"#utility.yul\":8308:8317   */\n      dup4\n        /* \"#utility.yul\":8304:8321   */\n      add\n        /* \"#utility.yul\":8297:8344   */\n      mstore\n        /* \"#utility.yul\":8361:8492   */\n      tag_226\n        /* \"#utility.yul\":8487:8491   */\n      dup2\n        /* \"#utility.yul\":8361:8492   */\n      tag_139\n      jump\t// in\n    tag_226:\n        /* \"#utility.yul\":8353:8492   */\n      swap1\n      pop\n        /* \"#utility.yul\":8080:8499   */\n      swap2\n      swap1\n      pop\n      jump\t// out\n        /* \"#utility.yul\":8505:8652   */\n    tag_140:\n        /* \"#utility.yul\":8606:8617   */\n      0x00\n        /* \"#utility.yul\":8643:8646   */\n      dup2\n        /* \"#utility.yul\":8628:8646   */\n      swap1\n      pop\n        /* \"#utility.yul\":8505:8652   */\n      swap3\n      swap2\n      pop\n      pop\n      jump\t// out\n        /* \"#utility.yul\":8658:8772   */\n    tag_141:\n      pop\n      jump\t// out\n        /* \"#utility.yul\":8778:9176   */\n    tag_142:\n        /* \"#utility.yul\":8937:8940   */\n      0x00\n        /* \"#utility.yul\":8958:9041   */\n      tag_230\n        /* \"#utility.yul\":9039:9040   */\n      0x00\n        /* \"#utility.yul\":9034:9037   */\n      dup4\n        /* \"#utility.yul\":8958:9041   */\n      tag_140\n      jump\t// in\n    tag_230:\n        /* \"#utility.yul\":8951:9041   */\n      swap2\n      pop\n        /* \"#utility.yul\":9050:9143   */\n      tag_231\n        /* \"#utility.yul\":9139:9142   */\n      dup3\n        /* \"#utility.yul\":9050:9143   */\n      tag_141\n      jump\t// in\n    tag_231:\n        /* \"#utility.yul\":9168:9169   */\n      0x00\n        /* \"#utility.yul\":9163:9166   */\n      dup3\n        /* \"#utility.yul\":9159:9170   */\n      add\n        /* \"#utility.yul\":9152:9170   */\n      swap1\n      pop\n        /* \"#utility.yul\":8778:9176   */\n      swap2\n      swap1\n      pop\n      jump\t// out\n        /* \"#utility.yul\":9182:9561   */\n    tag_78:\n        /* \"#utility.yul\":9366:9369   */\n      0x00\n        /* \"#utility.yul\":9388:9535   */\n      tag_233\n        /* \"#utility.yul\":9531:9534   */\n      dup3\n        /* \"#utility.yul\":9388:9535   */\n      tag_142\n      jump\t// in\n    tag_233:\n        /* \"#utility.yul\":9381:9535   */\n      swap2\n      pop\n        /* \"#utility.yul\":9552:9555   */\n      dup2\n        /* \"#utility.yul\":9545:9555   */\n      swap1\n      pop\n        /* \"#utility.yul\":9182:9561   */\n      swap2\n      swap1\n      pop\n      jump\t// out\n        /* \"#utility.yul\":9567:9726   */\n    tag_143:\n        /* \"#utility.yul\":9707:9718   */\n      0x7478206661696c65640000000000000000000000000000000000000000000000\n        /* \"#utility.yul\":9703:9704   */\n      0x00\n        /* \"#utility.yul\":9695:9701   */\n      dup3\n        /* \"#utility.yul\":9691:9705   */\n      add\n        /* \"#utility.yul\":9684:9719   */\n      mstore\n        /* \"#utility.yul\":9567:9726   */\n      pop\n      jump\t// out\n        /* \"#utility.yul\":9732:10097   */\n    tag_144:\n        /* \"#utility.yul\":9874:9877   */\n      0x00\n        /* \"#utility.yul\":9895:9961   */\n      tag_236\n        /* \"#utility.yul\":9959:9960   */\n      0x09\n        /* \"#utility.yul\":9954:9957   */\n      dup4\n        /* \"#utility.yul\":9895:9961   */\n      tag_128\n      jump\t// in\n    tag_236:\n        /* \"#utility.yul\":9888:9961   */\n      swap2\n      pop\n        /* \"#utility.yul\":9970:10063   */\n      tag_237\n        /* \"#utility.yul\":10059:10062   */\n      dup3\n        /* \"#utility.yul\":9970:10063   */\n      tag_143\n      jump\t// in\n    tag_237:\n        /* \"#utility.yul\":10088:10090   */\n      0x20\n        /* \"#utility.yul\":10083:10086   */\n      dup3\n        /* \"#utility.yul\":10079:10091   */\n      add\n        /* \"#utility.yul\":10072:10091   */\n      swap1\n      pop\n        /* \"#utility.yul\":9732:10097   */\n      swap2\n      swap1\n      pop\n      jump\t// out\n        /* \"#utility.yul\":10103:10522   */\n    tag_84:\n        /* \"#utility.yul\":10269:10273   */\n      0x00\n        /* \"#utility.yul\":10307:10309   */\n      0x20\n        /* \"#utility.yul\":10296:10305   */\n      dup3\n        /* \"#utility.yul\":10292:10310   */\n      add\n        /* \"#utility.yul\":10284:10310   */\n      swap1\n      pop\n        /* \"#utility.yul\":10356:10365   */\n      dup2\n        /* \"#utility.yul\":10350:10354   */\n      dup2\n        /* \"#utility.yul\":10346:10366   */\n      sub\n        /* \"#utility.yul\":10342:10343   */\n      0x00\n        /* \"#utility.yul\":10331:10340   */\n      dup4\n        /* \"#utility.yul\":10327:10344   */\n      add\n        /* \"#utility.yul\":10320:10367   */\n      mstore\n        /* \"#utility.yul\":10384:10515   */\n      tag_239\n        /* \"#utility.yul\":10510:10514   */\n      dup2\n        /* \"#utility.yul\":10384:10515   */\n      tag_144\n      jump\t// in\n    tag_239:\n        /* \"#utility.yul\":10376:10515   */\n      swap1\n      pop\n        /* \"#utility.yul\":10103:10522   */\n      swap2\n      swap1\n      pop\n      jump\t// out\n        /* \"#utility.yul\":10528:10691   */\n    tag_145:\n        /* \"#utility.yul\":10668:10683   */\n      0x57696e646f7720436c6f73656400000000000000000000000000000000000000\n        /* \"#utility.yul\":10664:10665   */\n      0x00\n        /* \"#utility.yul\":10656:10662   */\n      dup3\n        /* \"#utility.yul\":10652:10666   */\n      add\n        /* \"#utility.yul\":10645:10684   */\n      mstore\n        /* \"#utility.yul\":10528:10691   */\n      pop\n      jump\t// out\n        /* \"#utility.yul\":10697:11063   */\n    tag_146:\n        /* \"#utility.yul\":10839:10842   */\n      0x00\n        /* \"#utility.yul\":10860:10927   */\n      tag_242\n        /* \"#utility.yul\":10924:10926   */\n      0x0d\n        /* \"#utility.yul\":10919:10922   */\n      dup4\n        /* \"#utility.yul\":10860:10927   */\n      tag_128\n      jump\t// in\n    tag_242:\n        /* \"#utility.yul\":10853:10927   */\n      swap2\n      pop\n        /* \"#utility.yul\":10936:11029   */\n      tag_243\n        /* \"#utility.yul\":11025:11028   */\n      dup3\n        /* \"#utility.yul\":10936:11029   */\n      tag_145\n      jump\t// in\n    tag_243:\n        /* \"#utility.yul\":11054:11056   */\n      0x20\n        /* \"#utility.yul\":11049:11052   */\n      dup3\n        /* \"#utility.yul\":11045:11057   */\n      add\n        /* \"#utility.yul\":11038:11057   */\n      swap1\n      pop\n        /* \"#utility.yul\":10697:11063   */\n      swap2\n      swap1\n      pop\n      jump\t// out\n        /* \"#utility.yul\":11069:11488   */\n    tag_89:\n        /* \"#utility.yul\":11235:11239   */\n      0x00\n        /* \"#utility.yul\":11273:11275   */\n      0x20\n        /* \"#utility.yul\":11262:11271   */\n      dup3\n        /* \"#utility.yul\":11258:11276   */\n      add\n        /* \"#utility.yul\":11250:11276   */\n      swap1\n      pop\n        /* \"#utility.yul\":11322:11331   */\n      dup2\n        /* \"#utility.yul\":11316:11320   */\n      dup2\n        /* \"#utility.yul\":11312:11332   */\n      sub\n        /* \"#utility.yul\":11308:11309   */\n      0x00\n        /* \"#utility.yul\":11297:11306   */\n      dup4\n        /* \"#utility.yul\":11293:11310   */\n      add\n        /* \"#utility.yul\":11286:11333   */\n      mstore\n        /* \"#utility.yul\":11350:11481   */\n      tag_245\n        /* \"#utility.yul\":11476:11480   */\n      dup2\n        /* \"#utility.yul\":11350:11481   */\n      tag_146\n      jump\t// in\n    tag_245:\n        /* \"#utility.yul\":11342:11481   */\n      swap1\n      pop\n        /* \"#utility.yul\":11069:11488   */\n      swap2\n      swap1\n      pop\n      jump\t// out\n        /* \"#utility.yul\":11494:11657   */\n    tag_147:\n        /* \"#utility.yul\":11634:11649   */\n      0x53454e44204d4f52452045544800000000000000000000000000000000000000\n        /* \"#utility.yul\":11630:11631   */\n      0x00\n        /* \"#utility.yul\":11622:11628   */\n      dup3\n        /* \"#utility.yul\":11618:11632   */\n      add\n        /* \"#utility.yul\":11611:11650   */\n      mstore\n        /* \"#utility.yul\":11494:11657   */\n      pop\n      jump\t// out\n        /* \"#utility.yul\":11663:12029   */\n    tag_148:\n        /* \"#utility.yul\":11805:11808   */\n      0x00\n        /* \"#utility.yul\":11826:11893   */\n      tag_248\n        /* \"#utility.yul\":11890:11892   */\n      0x0d\n        /* \"#utility.yul\":11885:11888   */\n      dup4\n        /* \"#utility.yul\":11826:11893   */\n      tag_128\n      jump\t// in\n    tag_248:\n        /* \"#utility.yul\":11819:11893   */\n      swap2\n      pop\n        /* \"#utility.yul\":11902:11995   */\n      tag_249\n        /* \"#utility.yul\":11991:11994   */\n      dup3\n        /* \"#utility.yul\":11902:11995   */\n      tag_147\n      jump\t// in\n    tag_249:\n        /* \"#utility.yul\":12020:12022   */\n      0x20\n        /* \"#utility.yul\":12015:12018   */\n      dup3\n        /* \"#utility.yul\":12011:12023   */\n      add\n        /* \"#utility.yul\":12004:12023   */\n      swap1\n      pop\n        /* \"#utility.yul\":11663:12029   */\n      swap2\n      swap1\n      pop\n      jump\t// out\n        /* \"#utility.yul\":12035:12454   */\n    tag_92:\n        /* \"#utility.yul\":12201:12205   */\n      0x00\n        /* \"#utility.yul\":12239:12241   */\n      0x20\n        /* \"#utility.yul\":12228:12237   */\n      dup3\n        /* \"#utility.yul\":12224:12242   */\n      add\n        /* \"#utility.yul\":12216:12242   */\n      swap1\n      pop\n        /* \"#utility.yul\":12288:12297   */\n      dup2\n        /* \"#utility.yul\":12282:12286   */\n      dup2\n        /* \"#utility.yul\":12278:12298   */\n      sub\n        /* \"#utility.yul\":12274:12275   */\n      0x00\n        /* \"#utility.yul\":12263:12272   */\n      dup4\n        /* \"#utility.yul\":12259:12276   */\n      add\n        /* \"#utility.yul\":12252:12299   */\n      mstore\n        /* \"#utility.yul\":12316:12447   */\n      tag_251\n        /* \"#utility.yul\":12442:12446   */\n      dup2\n        /* \"#utility.yul\":12316:12447   */\n      tag_148\n      jump\t// in\n    tag_251:\n        /* \"#utility.yul\":12308:12447   */\n      swap1\n      pop\n        /* \"#utility.yul\":12035:12454   */\n      swap2\n      swap1\n      pop\n      jump\t// out\n        /* \"#utility.yul\":12460:12631   */\n    tag_149:\n        /* \"#utility.yul\":12600:12623   */\n      0x546172676574206973206e6f7420726561636865640000000000000000000000\n        /* \"#utility.yul\":12596:12597   */\n      0x00\n        /* \"#utility.yul\":12588:12594   */\n      dup3\n        /* \"#utility.yul\":12584:12598   */\n      add\n        /* \"#utility.yul\":12577:12624   */\n      mstore\n        /* \"#utility.yul\":12460:12631   */\n      pop\n      jump\t// out\n        /* \"#utility.yul\":12637:13003   */\n    tag_150:\n        /* \"#utility.yul\":12779:12782   */\n      0x00\n        /* \"#utility.yul\":12800:12867   */\n      tag_254\n        /* \"#utility.yul\":12864:12866   */\n      0x15\n        /* \"#utility.yul\":12859:12862   */\n      dup4\n        /* \"#utility.yul\":12800:12867   */\n      tag_128\n      jump\t// in\n    tag_254:\n        /* \"#utility.yul\":12793:12867   */\n      swap2\n      pop\n        /* \"#utility.yul\":12876:12969   */\n      tag_255\n        /* \"#utility.yul\":12965:12968   */\n      dup3\n        /* \"#utility.yul\":12876:12969   */\n      tag_149\n      jump\t// in\n    tag_255:\n        /* \"#utility.yul\":12994:12996   */\n      0x20\n        /* \"#utility.yul\":12989:12992   */\n      dup3\n        /* \"#utility.yul\":12985:12997   */\n      add\n        /* \"#utility.yul\":12978:12997   */\n      swap1\n      pop\n        /* \"#utility.yul\":12637:13003   */\n      swap2\n      swap1\n      pop\n      jump\t// out\n        /* \"#utility.yul\":13009:13428   */\n    tag_101:\n        /* \"#utility.yul\":13175:13179   */\n      0x00\n        /* \"#utility.yul\":13213:13215   */\n      0x20\n        /* \"#utility.yul\":13202:13211   */\n      dup3\n        /* \"#utility.yul\":13198:13216   */\n      add\n        /* \"#utility.yul\":13190:13216   */\n      swap1\n      pop\n        /* \"#utility.yul\":13262:13271   */\n      dup2\n        /* \"#utility.yul\":13256:13260   */\n      dup2\n        /* \"#utility.yul\":13252:13272   */\n      sub\n        /* \"#utility.yul\":13248:13249   */\n      0x00\n        /* \"#utility.yul\":13237:13246   */\n      dup4\n        /* \"#utility.yul\":13233:13250   */\n      add\n        /* \"#utility.yul\":13226:13273   */\n      mstore\n        /* \"#utility.yul\":13290:13421   */\n      tag_257\n        /* \"#utility.yul\":13416:13420   */\n      dup2\n        /* \"#utility.yul\":13290:13421   */\n      tag_150\n      jump\t// in\n    tag_257:\n        /* \"#utility.yul\":13282:13421   */\n      swap1\n      pop\n        /* \"#utility.yul\":13009:13428   */\n      swap2\n      swap1\n      pop\n      jump\t// out\n\n    auxdata: 0xa2646970667358221220ccd0b353ddea3f115d98cd4e9ed43be5a3a02c23340d6b823ebf5f863b8d5ec164736f6c63430008220033\n}\n",
				"bytecode": {
					"linkReferences": {},
					"object": "60806040525f60055f6101000a81548160ff021916908315150217905550348015610028575f5ffd5b50604051611136380380611136833981810160405281019061004a91906100d5565b3360015f6101000a81548173ffffffffffffffffffffffffffffffffffffffff021916908373ffffffffffffffffffffffffffffffffffffffff160217905550426003819055508060048190555050610100565b5f5ffd5b5f819050919050565b6100b4816100a2565b81146100be575f5ffd5b50565b5f815190506100cf816100ab565b92915050565b5f602082840312156100ea576100e961009e565b5b5f6100f7848285016100c1565b91505092915050565b6110298061010d5f395ff3fe608060405260043610610090575f3560e01c80638da5cb5b116100585780638da5cb5b14610160578063b60d42881461018a578063bb7517ac14610194578063e9d5480d146101aa578063f2fde38b146101d457610090565b8063101ed53c146100945780631871ec70146100bc5780634407e1e8146100e4578063590e1ae31461012057806369edbb5214610136575b5f5ffd5b34801561009f575f5ffd5b506100ba60048036038101906100b59190610a41565b6101fc565b005b3480156100c7575f5ffd5b506100e260048036038101906100dd9190610ac6565b6102cf565b005b3480156100ef575f5ffd5b5061010a60048036038101906101059190610ac6565b6103a1565b6040516101179190610b00565b60405180910390f35b34801561012b575f5ffd5b506101346103b5565b005b348015610141575f5ffd5b5061014a6105f9565b6040516101579190610b28565b60405180910390f35b34801561016b575f5ffd5b5061017461061e565b6040516101819190610b28565b60405180910390f35b610192610643565b005b34801561019f575f5ffd5b506101a8610733565b005b3480156101b5575f5ffd5b506101be610926565b6040516101cb9190610b5b565b60405180910390f35b3480156101df575f5ffd5b506101fa60048036038101906101f59190610ac6565b610938565b005b60025f9054906101000a900473ffffffffffffffffffffffffffffffffffffffff1673ffffffffffffffffffffffffffffffffffffffff163373ffffffffffffffffffffffffffffffffffffffff161461028b576040517f08c379a000000000000000000000000000000000000000000000000000000000815260040161028290610bce565b60405180910390fd5b805f5f3373ffffffffffffffffffffffffffffffffffffffff1673ffffffffffffffffffffffffffffffffffffffff1681526020019081526020015f208190555050565b60015f9054906101000a900473ffffffffffffffffffffffffffffffffffffffff1673ffffffffffffffffffffffffffffffffffffffff163373ffffffffffffffffffffffffffffffffffffffff161461035e576040517f08c379a000000000000000000000000000000000000000000000000000000000815260040161035590610c5c565b60405180910390fd5b8060025f6101000a81548173ffffffffffffffffffffffffffffffffffffffff021916908373ffffffffffffffffffffffffffffffffffffffff16021790555050565b5f602052805f5260405f205f915090505481565b6004546003546103c59190610ca7565b421015610407576040517f08c379a00000000000000000000000000000000000000000000000000000000081526004016103fe90610d24565b60405180910390fd5b678ac7230489e800004710610451576040517f08c379a000000000000000000000000000000000000000000000000000000000815260040161044890610d8c565b60405180910390fd5b5f5f5f3373ffffffffffffffffffffffffffffffffffffffff1673ffffffffffffffffffffffffffffffffffffffff1681526020019081526020015f2054036104cf576040517f08c379a00000000000000000000000000000000000000000000000000000000081526004016104c690610df4565b60405180910390fd5b5f5f5f3373ffffffffffffffffffffffffffffffffffffffff1673ffffffffffffffffffffffffffffffffffffffff1681526020019081526020015f20819055505f3373ffffffffffffffffffffffffffffffffffffffff165f5f3373ffffffffffffffffffffffffffffffffffffffff1673ffffffffffffffffffffffffffffffffffffffff1681526020019081526020015f205460405161057190610e3f565b5f6040518083038185875af1925050503d805f81146105ab576040519150601f19603f3d011682016040523d82523d5f602084013e6105b0565b606091505b505080915050806105f6576040517f08c379a00000000000000000000000000000000000000000000000000000000081526004016105ed90610e9d565b60405180910390fd5b50565b60025f9054906101000a900473ffffffffffffffffffffffffffffffffffffffff1681565b60015f9054906101000a900473ffffffffffffffffffffffffffffffffffffffff1681565b6004546003546106539190610ca7565b4210610694576040517f08c379a000000000000000000000000000000000000000000000000000000000815260040161068b90610f05565b60405180910390fd5b670de0b6b3a76400003410156106df576040517f08c379a00000000000000000000000000000000000000000000000000000000081526004016106d690610f6d565b60405180910390fd5b345f5f3373ffffffffffffffffffffffffffffffffffffffff1673ffffffffffffffffffffffffffffffffffffffff1681526020019081526020015f205f82825461072a9190610ca7565b92505081905550565b6004546003546107439190610ca7565b421015610785576040517f08c379a000000000000000000000000000000000000000000000000000000000815260040161077c90610d24565b60405180910390fd5b678ac7230489e800004710156107d0576040517f08c379a00000000000000000000000000000000000000000000000000000000081526004016107c790610fd5565b60405180910390fd5b60015f9054906101000a900473ffffffffffffffffffffffffffffffffffffffff1673ffffffffffffffffffffffffffffffffffffffff163373ffffffffffffffffffffffffffffffffffffffff161461085f576040517f08c379a000000000000000000000000000000000000000000000000000000000815260040161085690610c5c565b60405180910390fd5b5f3373ffffffffffffffffffffffffffffffffffffffff164760405161088490610e3f565b5f6040518083038185875af1925050503d805f81146108be576040519150601f19603f3d011682016040523d82523d5f602084013e6108c3565b606091505b50508091505080610909576040517f08c379a000000000000000000000000000000000000000000000000000000000815260040161090090610e9d565b60405180910390fd5b600160055f6101000a81548160ff02191690831515021790555050565b60055f9054906101000a900460ff1681565b60015f9054906101000a900473ffffffffffffffffffffffffffffffffffffffff1673ffffffffffffffffffffffffffffffffffffffff163373ffffffffffffffffffffffffffffffffffffffff16146109c7576040517f08c379a00000000000000000000000000000000000000000000000000000000081526004016109be90610c5c565b60405180910390fd5b8060015f6101000a81548173ffffffffffffffffffffffffffffffffffffffff021916908373ffffffffffffffffffffffffffffffffffffffff16021790555050565b5f5ffd5b5f819050919050565b610a2081610a0e565b8114610a2a575f5ffd5b50565b5f81359050610a3b81610a17565b92915050565b5f60208284031215610a5657610a55610a0a565b5b5f610a6384828501610a2d565b91505092915050565b5f73ffffffffffffffffffffffffffffffffffffffff82169050919050565b5f610a9582610a6c565b9050919050565b610aa581610a8b565b8114610aaf575f5ffd5b50565b5f81359050610ac081610a9c565b92915050565b5f60208284031215610adb57610ada610a0a565b5b5f610ae884828501610ab2565b91505092915050565b610afa81610a0e565b82525050565b5f602082019050610b135f830184610af1565b92915050565b610b2281610a8b565b82525050565b5f602082019050610b3b5f830184610b19565b92915050565b5f8115159050919050565b610b5581610b41565b82525050565b5f602082019050610b6e5f830184610b4c565b92915050565b5f82825260208201905092915050565b7fe4bda0e6b2a1e69c89e8b6b3e5a49fe79a84e69d83e9999000000000000000005f82015250565b5f610bb8601883610b74565b9150610bc382610b84565b602082019050919050565b5f6020820190508181035f830152610be581610bac565b9050919050565b7f4f6e6c79206f776e65722063616e2063616c6c20746869732066756e6374696f5f8201527f6e00000000000000000000000000000000000000000000000000000000000000602082015250565b5f610c46602183610b74565b9150610c5182610bec565b604082019050919050565b5f6020820190508181035f830152610c7381610c3a565b9050919050565b7f4e487b71000000000000000000000000000000000000000000000000000000005f52601160045260245ffd5b5f610cb182610a0e565b9150610cbc83610a0e565b9250828201905080821115610cd457610cd3610c7a565b5b92915050565b7f57696e646f77206e6f7420436c6f7365640000000000000000000000000000005f82015250565b5f610d0e601183610b74565b9150610d1982610cda565b602082019050919050565b5f6020820190508181035f830152610d3b81610d02565b9050919050565b7f54617267657420697320207265616368656400000000000000000000000000005f82015250565b5f610d76601283610b74565b9150610d8182610d42565b602082019050919050565b5f6020820190508181035f830152610da381610d6a565b9050919050565b7f4e6f2066756e6420666f7220796f7500000000000000000000000000000000005f82015250565b5f610dde600f83610b74565b9150610de982610daa565b602082019050919050565b5f6020820190508181035f830152610e0b81610dd2565b9050919050565b5f81905092915050565b50565b5f610e2a5f83610e12565b9150610e3582610e1c565b5f82019050919050565b5f610e4982610e1f565b9150819050919050565b7f7478206661696c656400000000000000000000000000000000000000000000005f82015250565b5f610e87600983610b74565b9150610e9282610e53565b602082019050919050565b5f6020820190508181035f830152610eb481610e7b565b9050919050565b7f57696e646f7720436c6f736564000000000000000000000000000000000000005f82015250565b5f610eef600d83610b74565b9150610efa82610ebb565b602082019050919050565b5f6020820190508181035f830152610f1c81610ee3565b9050919050565b7f53454e44204d4f524520455448000000000000000000000000000000000000005f82015250565b5f610f57600d83610b74565b9150610f6282610f23565b602082019050919050565b5f6020820190508181035f830152610f8481610f4b565b9050919050565b7f546172676574206973206e6f74207265616368656400000000000000000000005f82015250565b5f610fbf601583610b74565b9150610fca82610f8b565b602082019050919050565b5f6020820190508181035f830152610fec81610fb3565b905091905056fea2646970667358221220ccd0b353ddea3f115d98cd4e9ed43be5a3a02c23340d6b823ebf5f863b8d5ec164736f6c63430008220033",
					"opcodes": "PUSH1 0x80 PUSH1 0x40 MSTORE PUSH0 PUSH1 0x5 PUSH0 PUSH2 0x100 EXP DUP2 SLOAD DUP2 PUSH1 0xFF MUL NOT AND SWAP1 DUP4 ISZERO ISZERO MUL OR SWAP1 SSTORE POP CALLVALUE DUP1 ISZERO PUSH2 0x28 JUMPI PUSH0 PUSH0 REVERT JUMPDEST POP PUSH1 0x40 MLOAD PUSH2 0x1136 CODESIZE SUB DUP1 PUSH2 0x1136 DUP4 CODECOPY DUP2 DUP2 ADD PUSH1 0x40 MSTORE DUP2 ADD SWAP1 PUSH2 0x4A SWAP2 SWAP1 PUSH2 0xD5 JUMP JUMPDEST CALLER PUSH1 0x1 PUSH0 PUSH2 0x100 EXP DUP2 SLOAD DUP2 PUSH20 0xFFFFFFFFFFFFFFFFFFFFFFFFFFFFFFFFFFFFFFFF MUL NOT AND SWAP1 DUP4 PUSH20 0xFFFFFFFFFFFFFFFFFFFFFFFFFFFFFFFFFFFFFFFF AND MUL OR SWAP1 SSTORE POP TIMESTAMP PUSH1 0x3 DUP2 SWAP1 SSTORE POP DUP1 PUSH1 0x4 DUP2 SWAP1 SSTORE POP POP PUSH2 0x100 JUMP JUMPDEST PUSH0 PUSH0 REVERT JUMPDEST PUSH0 DUP2 SWAP1 POP SWAP2 SWAP1 POP JUMP JUMPDEST PUSH2 0xB4 DUP2 PUSH2 0xA2 JUMP JUMPDEST DUP2 EQ PUSH2 0xBE JUMPI PUSH0 PUSH0 REVERT JUMPDEST POP JUMP JUMPDEST PUSH0 DUP2 MLOAD SWAP1 POP PUSH2 0xCF DUP2 PUSH2 0xAB JUMP JUMPDEST SWAP3 SWAP2 POP POP JUMP JUMPDEST PUSH0 PUSH1 0x20 DUP3 DUP5 SUB SLT ISZERO PUSH2 0xEA JUMPI PUSH2 0xE9 PUSH2 0x9E JUMP JUMPDEST JUMPDEST PUSH0 PUSH2 0xF7 DUP5 DUP3 DUP6 ADD PUSH2 0xC1 JUMP JUMPDEST SWAP2 POP POP SWAP3 SWAP2 POP POP JUMP JUMPDEST PUSH2 0x1029 DUP1 PUSH2 0x10D PUSH0 CODECOPY PUSH0 RETURN INVALID PUSH1 0x80 PUSH1 0x40 MSTORE PUSH1 0x4 CALLDATASIZE LT PUSH2 0x90 JUMPI PUSH0 CALLDATALOAD PUSH1 0xE0 SHR DUP1 PUSH4 0x8DA5CB5B GT PUSH2 0x58 JUMPI DUP1 PUSH4 0x8DA5CB5B EQ PUSH2 0x160 JUMPI DUP1 PUSH4 0xB60D4288 EQ PUSH2 0x18A JUMPI DUP1 PUSH4 0xBB7517AC EQ PUSH2 0x194 JUMPI DUP1 PUSH4 0xE9D5480D EQ PUSH2 0x1AA JUMPI DUP1 PUSH4 0xF2FDE38B EQ PUSH2 0x1D4 JUMPI PUSH2 0x90 JUMP JUMPDEST DUP1 PUSH4 0x101ED53C EQ PUSH2 0x94 JUMPI DUP1 PUSH4 0x1871EC70 EQ PUSH2 0xBC JUMPI DUP1 PUSH4 0x4407E1E8 EQ PUSH2 0xE4 JUMPI DUP1 PUSH4 0x590E1AE3 EQ PUSH2 0x120 JUMPI DUP1 PUSH4 0x69EDBB52 EQ PUSH2 0x136 JUMPI JUMPDEST PUSH0 PUSH0 REVERT JUMPDEST CALLVALUE DUP1 ISZERO PUSH2 0x9F JUMPI PUSH0 PUSH0 REVERT JUMPDEST POP PUSH2 0xBA PUSH1 0x4 DUP1 CALLDATASIZE SUB DUP2 ADD SWAP1 PUSH2 0xB5 SWAP2 SWAP1 PUSH2 0xA41 JUMP JUMPDEST PUSH2 0x1FC JUMP JUMPDEST STOP JUMPDEST CALLVALUE DUP1 ISZERO PUSH2 0xC7 JUMPI PUSH0 PUSH0 REVERT JUMPDEST POP PUSH2 0xE2 PUSH1 0x4 DUP1 CALLDATASIZE SUB DUP2 ADD SWAP1 PUSH2 0xDD SWAP2 SWAP1 PUSH2 0xAC6 JUMP JUMPDEST PUSH2 0x2CF JUMP JUMPDEST STOP JUMPDEST CALLVALUE DUP1 ISZERO PUSH2 0xEF JUMPI PUSH0 PUSH0 REVERT JUMPDEST POP PUSH2 0x10A PUSH1 0x4 DUP1 CALLDATASIZE SUB DUP2 ADD SWAP1 PUSH2 0x105 SWAP2 SWAP1 PUSH2 0xAC6 JUMP JUMPDEST PUSH2 0x3A1 JUMP JUMPDEST PUSH1 0x40 MLOAD PUSH2 0x117 SWAP2 SWAP1 PUSH2 0xB00 JUMP JUMPDEST PUSH1 0x40 MLOAD DUP1 SWAP2 SUB SWAP1 RETURN JUMPDEST CALLVALUE DUP1 ISZERO PUSH2 0x12B JUMPI PUSH0 PUSH0 REVERT JUMPDEST POP PUSH2 0x134 PUSH2 0x3B5 JUMP JUMPDEST STOP JUMPDEST CALLVALUE DUP1 ISZERO PUSH2 0x141 JUMPI PUSH0 PUSH0 REVERT JUMPDEST POP PUSH2 0x14A PUSH2 0x5F9 JUMP JUMPDEST PUSH1 0x40 MLOAD PUSH2 0x157 SWAP2 SWAP1 PUSH2 0xB28 JUMP JUMPDEST PUSH1 0x40 MLOAD DUP1 SWAP2 SUB SWAP1 RETURN JUMPDEST CALLVALUE DUP1 ISZERO PUSH2 0x16B JUMPI PUSH0 PUSH0 REVERT JUMPDEST POP PUSH2 0x174 PUSH2 0x61E JUMP JUMPDEST PUSH1 0x40 MLOAD PUSH2 0x181 SWAP2 SWAP1 PUSH2 0xB28 JUMP JUMPDEST PUSH1 0x40 MLOAD DUP1 SWAP2 SUB SWAP1 RETURN JUMPDEST PUSH2 0x192 PUSH2 0x643 JUMP JUMPDEST STOP JUMPDEST CALLVALUE DUP1 ISZERO PUSH2 0x19F JUMPI PUSH0 PUSH0 REVERT JUMPDEST POP PUSH2 0x1A8 PUSH2 0x733 JUMP JUMPDEST STOP JUMPDEST CALLVALUE DUP1 ISZERO PUSH2 0x1B5 JUMPI PUSH0 PUSH0 REVERT JUMPDEST POP PUSH2 0x1BE PUSH2 0x926 JUMP JUMPDEST PUSH1 0x40 MLOAD PUSH2 0x1CB SWAP2 SWAP1 PUSH2 0xB5B JUMP JUMPDEST PUSH1 0x40 MLOAD DUP1 SWAP2 SUB SWAP1 RETURN JUMPDEST CALLVALUE DUP1 ISZERO PUSH2 0x1DF JUMPI PUSH0 PUSH0 REVERT JUMPDEST POP PUSH2 0x1FA PUSH1 0x4 DUP1 CALLDATASIZE SUB DUP2 ADD SWAP1 PUSH2 0x1F5 SWAP2 SWAP1 PUSH2 0xAC6 JUMP JUMPDEST PUSH2 0x938 JUMP JUMPDEST STOP JUMPDEST PUSH1 0x2 PUSH0 SWAP1 SLOAD SWAP1 PUSH2 0x100 EXP SWAP1 DIV PUSH20 0xFFFFFFFFFFFFFFFFFFFFFFFFFFFFFFFFFFFFFFFF AND PUSH20 0xFFFFFFFFFFFFFFFFFFFFFFFFFFFFFFFFFFFFFFFF AND CALLER PUSH20 0xFFFFFFFFFFFFFFFFFFFFFFFFFFFFFFFFFFFFFFFF AND EQ PUSH2 0x28B JUMPI PUSH1 0x40 MLOAD PUSH32 0x8C379A000000000000000000000000000000000000000000000000000000000 DUP2 MSTORE PUSH1 0x4 ADD PUSH2 0x282 SWAP1 PUSH2 0xBCE JUMP JUMPDEST PUSH1 0x40 MLOAD DUP1 SWAP2 SUB SWAP1 REVERT JUMPDEST DUP1 PUSH0 PUSH0 CALLER PUSH20 0xFFFFFFFFFFFFFFFFFFFFFFFFFFFFFFFFFFFFFFFF AND PUSH20 0xFFFFFFFFFFFFFFFFFFFFFFFFFFFFFFFFFFFFFFFF AND DUP2 MSTORE PUSH1 0x20 ADD SWAP1 DUP2 MSTORE PUSH1 0x20 ADD PUSH0 KECCAK256 DUP2 SWAP1 SSTORE POP POP JUMP JUMPDEST PUSH1 0x1 PUSH0 SWAP1 SLOAD SWAP1 PUSH2 0x100 EXP SWAP1 DIV PUSH20 0xFFFFFFFFFFFFFFFFFFFFFFFFFFFFFFFFFFFFFFFF AND PUSH20 0xFFFFFFFFFFFFFFFFFFFFFFFFFFFFFFFFFFFFFFFF AND CALLER PUSH20 0xFFFFFFFFFFFFFFFFFFFFFFFFFFFFFFFFFFFFFFFF AND EQ PUSH2 0x35E JUMPI PUSH1 0x40 MLOAD PUSH32 0x8C379A000000000000000000000000000000000000000000000000000000000 DUP2 MSTORE PUSH1 0x4 ADD PUSH2 0x355 SWAP1 PUSH2 0xC5C JUMP JUMPDEST PUSH1 0x40 MLOAD DUP1 SWAP2 SUB SWAP1 REVERT JUMPDEST DUP1 PUSH1 0x2 PUSH0 PUSH2 0x100 EXP DUP2 SLOAD DUP2 PUSH20 0xFFFFFFFFFFFFFFFFFFFFFFFFFFFFFFFFFFFFFFFF MUL NOT AND SWAP1 DUP4 PUSH20 0xFFFFFFFFFFFFFFFFFFFFFFFFFFFFFFFFFFFFFFFF AND MUL OR SWAP1 SSTORE POP POP JUMP JUMPDEST PUSH0 PUSH1 0x20 MSTORE DUP1 PUSH0 MSTORE PUSH1 0x40 PUSH0 KECCAK256 PUSH0 SWAP2 POP SWAP1 POP SLOAD DUP2 JUMP JUMPDEST PUSH1 0x4 SLOAD PUSH1 0x3 SLOAD PUSH2 0x3C5 SWAP2 SWAP1 PUSH2 0xCA7 JUMP JUMPDEST TIMESTAMP LT ISZERO PUSH2 0x407 JUMPI PUSH1 0x40 MLOAD PUSH32 0x8C379A000000000000000000000000000000000000000000000000000000000 DUP2 MSTORE PUSH1 0x4 ADD PUSH2 0x3FE SWAP1 PUSH2 0xD24 JUMP JUMPDEST PUSH1 0x40 MLOAD DUP1 SWAP2 SUB SWAP1 REVERT JUMPDEST PUSH8 0x8AC7230489E80000 SELFBALANCE LT PUSH2 0x451 JUMPI PUSH1 0x40 MLOAD PUSH32 0x8C379A000000000000000000000000000000000000000000000000000000000 DUP2 MSTORE PUSH1 0x4 ADD PUSH2 0x448 SWAP1 PUSH2 0xD8C JUMP JUMPDEST PUSH1 0x40 MLOAD DUP1 SWAP2 SUB SWAP1 REVERT JUMPDEST PUSH0 PUSH0 PUSH0 CALLER PUSH20 0xFFFFFFFFFFFFFFFFFFFFFFFFFFFFFFFFFFFFFFFF AND PUSH20 0xFFFFFFFFFFFFFFFFFFFFFFFFFFFFFFFFFFFFFFFF AND DUP2 MSTORE PUSH1 0x20 ADD SWAP1 DUP2 MSTORE PUSH1 0x20 ADD PUSH0 KECCAK256 SLOAD SUB PUSH2 0x4CF JUMPI PUSH1 0x40 MLOAD PUSH32 0x8C379A000000000000000000000000000000000000000000000000000000000 DUP2 MSTORE PUSH1 0x4 ADD PUSH2 0x4C6 SWAP1 PUSH2 0xDF4 JUMP JUMPDEST PUSH1 0x40 MLOAD DUP1 SWAP2 SUB SWAP1 REVERT JUMPDEST PUSH0 PUSH0 PUSH0 CALLER PUSH20 0xFFFFFFFFFFFFFFFFFFFFFFFFFFFFFFFFFFFFFFFF AND PUSH20 0xFFFFFFFFFFFFFFFFFFFFFFFFFFFFFFFFFFFFFFFF AND DUP2 MSTORE PUSH1 0x20 ADD SWAP1 DUP2 MSTORE PUSH1 0x20 ADD PUSH0 KECCAK256 DUP2 SWAP1 SSTORE POP PUSH0 CALLER PUSH20 0xFFFFFFFFFFFFFFFFFFFFFFFFFFFFFFFFFFFFFFFF AND PUSH0 PUSH0 CALLER PUSH20 0xFFFFFFFFFFFFFFFFFFFFFFFFFFFFFFFFFFFFFFFF AND PUSH20 0xFFFFFFFFFFFFFFFFFFFFFFFFFFFFFFFFFFFFFFFF AND DUP2 MSTORE PUSH1 0x20 ADD SWAP1 DUP2 MSTORE PUSH1 0x20 ADD PUSH0 KECCAK256 SLOAD PUSH1 0x40 MLOAD PUSH2 0x571 SWAP1 PUSH2 0xE3F JUMP JUMPDEST PUSH0 PUSH1 0x40 MLOAD DUP1 DUP4 SUB DUP2 DUP6 DUP8 GAS CALL SWAP3 POP POP POP RETURNDATASIZE DUP1 PUSH0 DUP2 EQ PUSH2 0x5AB JUMPI PUSH1 0x40 MLOAD SWAP2 POP PUSH1 0x1F NOT PUSH1 0x3F RETURNDATASIZE ADD AND DUP3 ADD PUSH1 0x40 MSTORE RETURNDATASIZE DUP3 MSTORE RETURNDATASIZE PUSH0 PUSH1 0x20 DUP5 ADD RETURNDATACOPY PUSH2 0x5B0 JUMP JUMPDEST PUSH1 0x60 SWAP2 POP JUMPDEST POP POP DUP1 SWAP2 POP POP DUP1 PUSH2 0x5F6 JUMPI PUSH1 0x40 MLOAD PUSH32 0x8C379A000000000000000000000000000000000000000000000000000000000 DUP2 MSTORE PUSH1 0x4 ADD PUSH2 0x5ED SWAP1 PUSH2 0xE9D JUMP JUMPDEST PUSH1 0x40 MLOAD DUP1 SWAP2 SUB SWAP1 REVERT JUMPDEST POP JUMP JUMPDEST PUSH1 0x2 PUSH0 SWAP1 SLOAD SWAP1 PUSH2 0x100 EXP SWAP1 DIV PUSH20 0xFFFFFFFFFFFFFFFFFFFFFFFFFFFFFFFFFFFFFFFF AND DUP2 JUMP JUMPDEST PUSH1 0x1 PUSH0 SWAP1 SLOAD SWAP1 PUSH2 0x100 EXP SWAP1 DIV PUSH20 0xFFFFFFFFFFFFFFFFFFFFFFFFFFFFFFFFFFFFFFFF AND DUP2 JUMP JUMPDEST PUSH1 0x4 SLOAD PUSH1 0x3 SLOAD PUSH2 0x653 SWAP2 SWAP1 PUSH2 0xCA7 JUMP JUMPDEST TIMESTAMP LT PUSH2 0x694 JUMPI PUSH1 0x40 MLOAD PUSH32 0x8C379A000000000000000000000000000000000000000000000000000000000 DUP2 MSTORE PUSH1 0x4 ADD PUSH2 0x68B SWAP1 PUSH2 0xF05 JUMP JUMPDEST PUSH1 0x40 MLOAD DUP1 SWAP2 SUB SWAP1 REVERT JUMPDEST PUSH8 0xDE0B6B3A7640000 CALLVALUE LT ISZERO PUSH2 0x6DF JUMPI PUSH1 0x40 MLOAD PUSH32 0x8C379A000000000000000000000000000000000000000000000000000000000 DUP2 MSTORE PUSH1 0x4 ADD PUSH2 0x6D6 SWAP1 PUSH2 0xF6D JUMP JUMPDEST PUSH1 0x40 MLOAD DUP1 SWAP2 SUB SWAP1 REVERT JUMPDEST CALLVALUE PUSH0 PUSH0 CALLER PUSH20 0xFFFFFFFFFFFFFFFFFFFFFFFFFFFFFFFFFFFFFFFF AND PUSH20 0xFFFFFFFFFFFFFFFFFFFFFFFFFFFFFFFFFFFFFFFF AND DUP2 MSTORE PUSH1 0x20 ADD SWAP1 DUP2 MSTORE PUSH1 0x20 ADD PUSH0 KECCAK256 PUSH0 DUP3 DUP3 SLOAD PUSH2 0x72A SWAP2 SWAP1 PUSH2 0xCA7 JUMP JUMPDEST SWAP3 POP POP DUP2 SWAP1 SSTORE POP JUMP JUMPDEST PUSH1 0x4 SLOAD PUSH1 0x3 SLOAD PUSH2 0x743 SWAP2 SWAP1 PUSH2 0xCA7 JUMP JUMPDEST TIMESTAMP LT ISZERO PUSH2 0x785 JUMPI PUSH1 0x40 MLOAD PUSH32 0x8C379A000000000000000000000000000000000000000000000000000000000 DUP2 MSTORE PUSH1 0x4 ADD PUSH2 0x77C SWAP1 PUSH2 0xD24 JUMP JUMPDEST PUSH1 0x40 MLOAD DUP1 SWAP2 SUB SWAP1 REVERT JUMPDEST PUSH8 0x8AC7230489E80000 SELFBALANCE LT ISZERO PUSH2 0x7D0 JUMPI PUSH1 0x40 MLOAD PUSH32 0x8C379A000000000000000000000000000000000000000000000000000000000 DUP2 MSTORE PUSH1 0x4 ADD PUSH2 0x7C7 SWAP1 PUSH2 0xFD5 JUMP JUMPDEST PUSH1 0x40 MLOAD DUP1 SWAP2 SUB SWAP1 REVERT JUMPDEST PUSH1 0x1 PUSH0 SWAP1 SLOAD SWAP1 PUSH2 0x100 EXP SWAP1 DIV PUSH20 0xFFFFFFFFFFFFFFFFFFFFFFFFFFFFFFFFFFFFFFFF AND PUSH20 0xFFFFFFFFFFFFFFFFFFFFFFFFFFFFFFFFFFFFFFFF AND CALLER PUSH20 0xFFFFFFFFFFFFFFFFFFFFFFFFFFFFFFFFFFFFFFFF AND EQ PUSH2 0x85F JUMPI PUSH1 0x40 MLOAD PUSH32 0x8C379A000000000000000000000000000000000000000000000000000000000 DUP2 MSTORE PUSH1 0x4 ADD PUSH2 0x856 SWAP1 PUSH2 0xC5C JUMP JUMPDEST PUSH1 0x40 MLOAD DUP1 SWAP2 SUB SWAP1 REVERT JUMPDEST PUSH0 CALLER PUSH20 0xFFFFFFFFFFFFFFFFFFFFFFFFFFFFFFFFFFFFFFFF AND SELFBALANCE PUSH1 0x40 MLOAD PUSH2 0x884 SWAP1 PUSH2 0xE3F JUMP JUMPDEST PUSH0 PUSH1 0x40 MLOAD DUP1 DUP4 SUB DUP2 DUP6 DUP8 GAS CALL SWAP3 POP POP POP RETURNDATASIZE DUP1 PUSH0 DUP2 EQ PUSH2 0x8BE JUMPI PUSH1 0x40 MLOAD SWAP2 POP PUSH1 0x1F NOT PUSH1 0x3F RETURNDATASIZE ADD AND DUP3 ADD PUSH1 0x40 MSTORE RETURNDATASIZE DUP3 MSTORE RETURNDATASIZE PUSH0 PUSH1 0x20 DUP5 ADD RETURNDATACOPY PUSH2 0x8C3 JUMP JUMPDEST PUSH1 0x60 SWAP2 POP JUMPDEST POP POP DUP1 SWAP2 POP POP DUP1 PUSH2 0x909 JUMPI PUSH1 0x40 MLOAD PUSH32 0x8C379A000000000000000000000000000000000000000000000000000000000 DUP2 MSTORE PUSH1 0x4 ADD PUSH2 0x900 SWAP1 PUSH2 0xE9D JUMP JUMPDEST PUSH1 0x40 MLOAD DUP1 SWAP2 SUB SWAP1 REVERT JUMPDEST PUSH1 0x1 PUSH1 0x5 PUSH0 PUSH2 0x100 EXP DUP2 SLOAD DUP2 PUSH1 0xFF MUL NOT AND SWAP1 DUP4 ISZERO ISZERO MUL OR SWAP1 SSTORE POP POP JUMP JUMPDEST PUSH1 0x5 PUSH0 SWAP1 SLOAD SWAP1 PUSH2 0x100 EXP SWAP1 DIV PUSH1 0xFF AND DUP2 JUMP JUMPDEST PUSH1 0x1 PUSH0 SWAP1 SLOAD SWAP1 PUSH2 0x100 EXP SWAP1 DIV PUSH20 0xFFFFFFFFFFFFFFFFFFFFFFFFFFFFFFFFFFFFFFFF AND PUSH20 0xFFFFFFFFFFFFFFFFFFFFFFFFFFFFFFFFFFFFFFFF AND CALLER PUSH20 0xFFFFFFFFFFFFFFFFFFFFFFFFFFFFFFFFFFFFFFFF AND EQ PUSH2 0x9C7 JUMPI PUSH1 0x40 MLOAD PUSH32 0x8C379A000000000000000000000000000000000000000000000000000000000 DUP2 MSTORE PUSH1 0x4 ADD PUSH2 0x9BE SWAP1 PUSH2 0xC5C JUMP JUMPDEST PUSH1 0x40 MLOAD DUP1 SWAP2 SUB SWAP1 REVERT JUMPDEST DUP1 PUSH1 0x1 PUSH0 PUSH2 0x100 EXP DUP2 SLOAD DUP2 PUSH20 0xFFFFFFFFFFFFFFFFFFFFFFFFFFFFFFFFFFFFFFFF MUL NOT AND SWAP1 DUP4 PUSH20 0xFFFFFFFFFFFFFFFFFFFFFFFFFFFFFFFFFFFFFFFF AND MUL OR SWAP1 SSTORE POP POP JUMP JUMPDEST PUSH0 PUSH0 REVERT JUMPDEST PUSH0 DUP2 SWAP1 POP SWAP2 SWAP1 POP JUMP JUMPDEST PUSH2 0xA20 DUP2 PUSH2 0xA0E JUMP JUMPDEST DUP2 EQ PUSH2 0xA2A JUMPI PUSH0 PUSH0 REVERT JUMPDEST POP JUMP JUMPDEST PUSH0 DUP2 CALLDATALOAD SWAP1 POP PUSH2 0xA3B DUP2 PUSH2 0xA17 JUMP JUMPDEST SWAP3 SWAP2 POP POP JUMP JUMPDEST PUSH0 PUSH1 0x20 DUP3 DUP5 SUB SLT ISZERO PUSH2 0xA56 JUMPI PUSH2 0xA55 PUSH2 0xA0A JUMP JUMPDEST JUMPDEST PUSH0 PUSH2 0xA63 DUP5 DUP3 DUP6 ADD PUSH2 0xA2D JUMP JUMPDEST SWAP2 POP POP SWAP3 SWAP2 POP POP JUMP JUMPDEST PUSH0 PUSH20 0xFFFFFFFFFFFFFFFFFFFFFFFFFFFFFFFFFFFFFFFF DUP3 AND SWAP1 POP SWAP2 SWAP1 POP JUMP JUMPDEST PUSH0 PUSH2 0xA95 DUP3 PUSH2 0xA6C JUMP JUMPDEST SWAP1 POP SWAP2 SWAP1 POP JUMP JUMPDEST PUSH2 0xAA5 DUP2 PUSH2 0xA8B JUMP JUMPDEST DUP2 EQ PUSH2 0xAAF JUMPI PUSH0 PUSH0 REVERT JUMPDEST POP JUMP JUMPDEST PUSH0 DUP2 CALLDATALOAD SWAP1 POP PUSH2 0xAC0 DUP2 PUSH2 0xA9C JUMP JUMPDEST SWAP3 SWAP2 POP POP JUMP JUMPDEST PUSH0 PUSH1 0x20 DUP3 DUP5 SUB SLT ISZERO PUSH2 0xADB JUMPI PUSH2 0xADA PUSH2 0xA0A JUMP JUMPDEST JUMPDEST PUSH0 PUSH2 0xAE8 DUP5 DUP3 DUP6 ADD PUSH2 0xAB2 JUMP JUMPDEST SWAP2 POP POP SWAP3 SWAP2 POP POP JUMP JUMPDEST PUSH2 0xAFA DUP2 PUSH2 0xA0E JUMP JUMPDEST DUP3 MSTORE POP POP JUMP JUMPDEST PUSH0 PUSH1 0x20 DUP3 ADD SWAP1 POP PUSH2 0xB13 PUSH0 DUP4 ADD DUP5 PUSH2 0xAF1 JUMP JUMPDEST SWAP3 SWAP2 POP POP JUMP JUMPDEST PUSH2 0xB22 DUP2 PUSH2 0xA8B JUMP JUMPDEST DUP3 MSTORE POP POP JUMP JUMPDEST PUSH0 PUSH1 0x20 DUP3 ADD SWAP1 POP PUSH2 0xB3B PUSH0 DUP4 ADD DUP5 PUSH2 0xB19 JUMP JUMPDEST SWAP3 SWAP2 POP POP JUMP JUMPDEST PUSH0 DUP2 ISZERO ISZERO SWAP1 POP SWAP2 SWAP1 POP JUMP JUMPDEST PUSH2 0xB55 DUP2 PUSH2 0xB41 JUMP JUMPDEST DUP3 MSTORE POP POP JUMP JUMPDEST PUSH0 PUSH1 0x20 DUP3 ADD SWAP1 POP PUSH2 0xB6E PUSH0 DUP4 ADD DUP5 PUSH2 0xB4C JUMP JUMPDEST SWAP3 SWAP2 POP POP JUMP JUMPDEST PUSH0 DUP3 DUP3 MSTORE PUSH1 0x20 DUP3 ADD SWAP1 POP SWAP3 SWAP2 POP POP JUMP JUMPDEST PUSH32 0xE4BDA0E6B2A1E69C89E8B6B3E5A49FE79A84E69D83E999900000000000000000 PUSH0 DUP3 ADD MSTORE POP JUMP JUMPDEST PUSH0 PUSH2 0xBB8 PUSH1 0x18 DUP4 PUSH2 0xB74 JUMP JUMPDEST SWAP2 POP PUSH2 0xBC3 DUP3 PUSH2 0xB84 JUMP JUMPDEST PUSH1 0x20 DUP3 ADD SWAP1 POP SWAP2 SWAP1 POP JUMP JUMPDEST PUSH0 PUSH1 0x20 DUP3 ADD SWAP1 POP DUP2 DUP2 SUB PUSH0 DUP4 ADD MSTORE PUSH2 0xBE5 DUP2 PUSH2 0xBAC JUMP JUMPDEST SWAP1 POP SWAP2 SWAP1 POP JUMP JUMPDEST PUSH32 0x4F6E6C79206F776E65722063616E2063616C6C20746869732066756E6374696F PUSH0 DUP3 ADD MSTORE PUSH32 0x6E00000000000000000000000000000000000000000000000000000000000000 PUSH1 0x20 DUP3 ADD MSTORE POP JUMP JUMPDEST PUSH0 PUSH2 0xC46 PUSH1 0x21 DUP4 PUSH2 0xB74 JUMP JUMPDEST SWAP2 POP PUSH2 0xC51 DUP3 PUSH2 0xBEC JUMP JUMPDEST PUSH1 0x40 DUP3 ADD SWAP1 POP SWAP2 SWAP1 POP JUMP JUMPDEST PUSH0 PUSH1 0x20 DUP3 ADD SWAP1 POP DUP2 DUP2 SUB PUSH0 DUP4 ADD MSTORE PUSH2 0xC73 DUP2 PUSH2 0xC3A JUMP JUMPDEST SWAP1 POP SWAP2 SWAP1 POP JUMP JUMPDEST PUSH32 0x4E487B7100000000000000000000000000000000000000000000000000000000 PUSH0 MSTORE PUSH1 0x11 PUSH1 0x4 MSTORE PUSH1 0x24 PUSH0 REVERT JUMPDEST PUSH0 PUSH2 0xCB1 DUP3 PUSH2 0xA0E JUMP JUMPDEST SWAP2 POP PUSH2 0xCBC DUP4 PUSH2 0xA0E JUMP JUMPDEST SWAP3 POP DUP3 DUP3 ADD SWAP1 POP DUP1 DUP3 GT ISZERO PUSH2 0xCD4 JUMPI PUSH2 0xCD3 PUSH2 0xC7A JUMP JUMPDEST JUMPDEST SWAP3 SWAP2 POP POP JUMP JUMPDEST PUSH32 0x57696E646F77206E6F7420436C6F736564000000000000000000000000000000 PUSH0 DUP3 ADD MSTORE POP JUMP JUMPDEST PUSH0 PUSH2 0xD0E PUSH1 0x11 DUP4 PUSH2 0xB74 JUMP JUMPDEST SWAP2 POP PUSH2 0xD19 DUP3 PUSH2 0xCDA JUMP JUMPDEST PUSH1 0x20 DUP3 ADD SWAP1 POP SWAP2 SWAP1 POP JUMP JUMPDEST PUSH0 PUSH1 0x20 DUP3 ADD SWAP1 POP DUP2 DUP2 SUB PUSH0 DUP4 ADD MSTORE PUSH2 0xD3B DUP2 PUSH2 0xD02 JUMP JUMPDEST SWAP1 POP SWAP2 SWAP1 POP JUMP JUMPDEST PUSH32 0x5461726765742069732020726561636865640000000000000000000000000000 PUSH0 DUP3 ADD MSTORE POP JUMP JUMPDEST PUSH0 PUSH2 0xD76 PUSH1 0x12 DUP4 PUSH2 0xB74 JUMP JUMPDEST SWAP2 POP PUSH2 0xD81 DUP3 PUSH2 0xD42 JUMP JUMPDEST PUSH1 0x20 DUP3 ADD SWAP1 POP SWAP2 SWAP1 POP JUMP JUMPDEST PUSH0 PUSH1 0x20 DUP3 ADD SWAP1 POP DUP2 DUP2 SUB PUSH0 DUP4 ADD MSTORE PUSH2 0xDA3 DUP2 PUSH2 0xD6A JUMP JUMPDEST SWAP1 POP SWAP2 SWAP1 POP JUMP JUMPDEST PUSH32 0x4E6F2066756E6420666F7220796F750000000000000000000000000000000000 PUSH0 DUP3 ADD MSTORE POP JUMP JUMPDEST PUSH0 PUSH2 0xDDE PUSH1 0xF DUP4 PUSH2 0xB74 JUMP JUMPDEST SWAP2 POP PUSH2 0xDE9 DUP3 PUSH2 0xDAA JUMP JUMPDEST PUSH1 0x20 DUP3 ADD SWAP1 POP SWAP2 SWAP1 POP JUMP JUMPDEST PUSH0 PUSH1 0x20 DUP3 ADD SWAP1 POP DUP2 DUP2 SUB PUSH0 DUP4 ADD MSTORE PUSH2 0xE0B DUP2 PUSH2 0xDD2 JUMP JUMPDEST SWAP1 POP SWAP2 SWAP1 POP JUMP JUMPDEST PUSH0 DUP2 SWAP1 POP SWAP3 SWAP2 POP POP JUMP JUMPDEST POP JUMP JUMPDEST PUSH0 PUSH2 0xE2A PUSH0 DUP4 PUSH2 0xE12 JUMP JUMPDEST SWAP2 POP PUSH2 0xE35 DUP3 PUSH2 0xE1C JUMP JUMPDEST PUSH0 DUP3 ADD SWAP1 POP SWAP2 SWAP1 POP JUMP JUMPDEST PUSH0 PUSH2 0xE49 DUP3 PUSH2 0xE1F JUMP JUMPDEST SWAP2 POP DUP2 SWAP1 POP SWAP2 SWAP1 POP JUMP JUMPDEST PUSH32 0x7478206661696C65640000000000000000000000000000000000000000000000 PUSH0 DUP3 ADD MSTORE POP JUMP JUMPDEST PUSH0 PUSH2 0xE87 PUSH1 0x9 DUP4 PUSH2 0xB74 JUMP JUMPDEST SWAP2 POP PUSH2 0xE92 DUP3 PUSH2 0xE53 JUMP JUMPDEST PUSH1 0x20 DUP3 ADD SWAP1 POP SWAP2 SWAP1 POP JUMP JUMPDEST PUSH0 PUSH1 0x20 DUP3 ADD SWAP1 POP DUP2 DUP2 SUB PUSH0 DUP4 ADD MSTORE PUSH2 0xEB4 DUP2 PUSH2 0xE7B JUMP JUMPDEST SWAP1 POP SWAP2 SWAP1 POP JUMP JUMPDEST PUSH32 0x57696E646F7720436C6F73656400000000000000000000000000000000000000 PUSH0 DUP3 ADD MSTORE POP JUMP JUMPDEST PUSH0 PUSH2 0xEEF PUSH1 0xD DUP4 PUSH2 0xB74 JUMP JUMPDEST SWAP2 POP PUSH2 0xEFA DUP3 PUSH2 0xEBB JUMP JUMPDEST PUSH1 0x20 DUP3 ADD SWAP1 POP SWAP2 SWAP1 POP JUMP JUMPDEST PUSH0 PUSH1 0x20 DUP3 ADD SWAP1 POP DUP2 DUP2 SUB PUSH0 DUP4 ADD MSTORE PUSH2 0xF1C DUP2 PUSH2 0xEE3 JUMP JUMPDEST SWAP1 POP SWAP2 SWAP1 POP JUMP JUMPDEST PUSH32 0x53454E44204D4F52452045544800000000000000000000000000000000000000 PUSH0 DUP3 ADD MSTORE POP JUMP JUMPDEST PUSH0 PUSH2 0xF57 PUSH1 0xD DUP4 PUSH2 0xB74 JUMP JUMPDEST SWAP2 POP PUSH2 0xF62 DUP3 PUSH2 0xF23 JUMP JUMPDEST PUSH1 0x20 DUP3 ADD SWAP1 POP SWAP2 SWAP1 POP JUMP JUMPDEST PUSH0 PUSH1 0x20 DUP3 ADD SWAP1 POP DUP2 DUP2 SUB PUSH0 DUP4 ADD MSTORE PUSH2 0xF84 DUP2 PUSH2 0xF4B JUMP JUMPDEST SWAP1 POP SWAP2 SWAP1 POP JUMP JUMPDEST PUSH32 0x546172676574206973206E6F7420726561636865640000000000000000000000 PUSH0 DUP3 ADD MSTORE POP JUMP JUMPDEST PUSH0 PUSH2 0xFBF PUSH1 0x15 DUP4 PUSH2 0xB74 JUMP JUMPDEST SWAP2 POP PUSH2 0xFCA DUP3 PUSH2 0xF8B JUMP JUMPDEST PUSH1 0x20 DUP3 ADD SWAP1 POP SWAP2 SWAP1 POP JUMP JUMPDEST PUSH0 PUSH1 0x20 DUP3 ADD SWAP1 POP DUP2 DUP2 SUB PUSH0 DUP4 ADD MSTORE PUSH2 0xFEC DUP2 PUSH2 0xFB3 JUMP JUMPDEST SWAP1 POP SWAP2 SWAP1 POP JUMP INVALID LOG2 PUSH5 0x6970667358 0x22 SLT KECCAK256 0xCC 0xD0 0xB3 MSTORE8 0xDD 0xEA EXTCODEHASH GT TSTORE SWAP9 0xCD 0x4E SWAP15 0xD4 EXTCODESIZE JUMPF 0xA3A0 0x2C 0x23 CALLVALUE 0xD PUSH12 0x823EBF5F863B8D5EC164736F PUSH13 0x63430008220033000000000000 "
				},
				"gasEstimates": {
					"creation": {
						"codeDepositCost": "827400",
						"executionCost": "infinite",
						"totalCost": "infinite"
					},
					"external": {
						"fund()": "infinite",
						"fundSuccess()": "2532",
						"fundTokenAddr()": "2597",
						"funderToAmount(address)": "2846",
						"getfund()": "infinite",
						"owner()": "2508",
						"refund()": "infinite",
						"setFundTokenAddr(address)": "26907",
						"setFunderToAmount(uint256)": "24771",
						"transferOwnership(address)": "26972"
					}
				},
				"methodIdentifiers": {
					"fund()": "b60d4288",
					"fundSuccess()": "e9d5480d",
					"fundTokenAddr()": "69edbb52",
					"funderToAmount(address)": "4407e1e8",
					"getfund()": "bb7517ac",
					"owner()": "8da5cb5b",
					"refund()": "590e1ae3",
					"setFundTokenAddr(address)": "1871ec70",
					"setFunderToAmount(uint256)": "101ed53c",
					"transferOwnership(address)": "f2fde38b"
				}
			},
			"storageLayout": {
				"storage": [
					{
						"astId": 5,
						"contract": "test/FundMe.sol:FundMe",
						"label": "funderToAmount",
						"offset": 0,
						"slot": "0",
						"type": "t_mapping(t_address,t_uint256)"
					},
					{
						"astId": 21,
						"contract": "test/FundMe.sol:FundMe",
						"label": "owner",
						"offset": 0,
						"slot": "1",
						"type": "t_address"
					},
					{
						"astId": 23,
						"contract": "test/FundMe.sol:FundMe",
						"label": "fundTokenAddr",
						"offset": 0,
						"slot": "2",
						"type": "t_address"
					},
					{
						"astId": 25,
						"contract": "test/FundMe.sol:FundMe",
						"label": "deployTime",
						"offset": 0,
						"slot": "3",
						"type": "t_uint256"
					},
					{
						"astId": 27,
						"contract": "test/FundMe.sol:FundMe",
						"label": "lockTime",
						"offset": 0,
						"slot": "4",
						"type": "t_uint256"
					},
					{
						"astId": 30,
						"contract": "test/FundMe.sol:FundMe",
						"label": "fundSuccess",
						"offset": 0,
						"slot": "5",
						"type": "t_bool"
					}
				],
				"types": {
					"t_address": {
						"encoding": "inplace",
						"label": "address",
						"numberOfBytes": "20"
					},
					"t_bool": {
						"encoding": "inplace",
						"label": "bool",
						"numberOfBytes": "1"
					},
					"t_mapping(t_address,t_uint256)": {
						"encoding": "mapping",
						"key": "t_address",
						"label": "mapping(address => uint256)",
						"numberOfBytes": "32",
						"value": "t_uint256"
					},
					"t_uint256": {
						"encoding": "inplace",
						"label": "uint256",
						"numberOfBytes": "32"
					}
				}
			},
			"userdoc": {
				"kind": "user",
				"methods": {},
				"version": 1
			}
		}
	}
}