{
	"homework01/3/RomanToInt.sol": {
		"RomanToInt": {
			"abi": [
				{
					"inputs": [],
					"stateMutability": "nonpayable",
					"type": "constructor"
				},
				{
					"inputs": [
						{
							"internalType": "string",
							"name": "str",
							"type": "string"
						}
					],
					"name": "romantoInt",
					"outputs": [
						{
							"internalType": "uint256",
							"name": "",
							"type": "uint256"
						}
					],
					"stateMutability": "view",
					"type": "function"
				},
				{
					"inputs": [
						{
							"internalType": "bytes1",
							"name": "",
							"type": "bytes1"
						}
					],
					"name": "symbol",
					"outputs": [
						{
							"internalType": "uint256",
							"name": "",
							"type": "uint256"
						}
					],
					"stateMutability": "view",
					"type": "function"
				}
			],
			"devdoc": {
				"kind": "dev",
				"methods": {},
				"version": 1
			},
			"evm": {
				"assembly": "    /* \"homework01/3/RomanToInt.sol\":58:903  contract RomanToInt {... */\n  mstore(0x40, 0x80)\n    /* \"homework01/3/RomanToInt.sol\":131:336  constructor() {... */\n  callvalue\n  dup1\n  iszero\n  tag_1\n  jumpi\n  revert(0x00, 0x00)\ntag_1:\n  pop\n    /* \"homework01/3/RomanToInt.sol\":169:170  1 */\n  0x01\n    /* \"homework01/3/RomanToInt.sol\":155:161  symbol */\n  0x00\n    /* \"homework01/3/RomanToInt.sol\":155:166  symbol[\"I\"] */\n  0x00\n  and(not(0xffffffffffffffffffffffffffffffffffffffffffffffffffffffffffffff), 0x4900000000000000000000000000000000000000000000000000000000000000)\n  dup2\n  mstore\n  0x20\n  add\n  swap1\n  dup2\n  mstore\n  0x20\n  add\n  0x00\n  keccak256\n    /* \"homework01/3/RomanToInt.sol\":155:170  symbol[\"I\"] = 1 */\n  dup2\n  swap1\n  sstore\n  pop\n    /* \"homework01/3/RomanToInt.sol\":194:195  5 */\n  0x05\n    /* \"homework01/3/RomanToInt.sol\":180:186  symbol */\n  0x00\n    /* \"homework01/3/RomanToInt.sol\":180:191  symbol[\"V\"] */\n  0x00\n  and(not(0xffffffffffffffffffffffffffffffffffffffffffffffffffffffffffffff), 0x5600000000000000000000000000000000000000000000000000000000000000)\n  dup2\n  mstore\n  0x20\n  add\n  swap1\n  dup2\n  mstore\n  0x20\n  add\n  0x00\n  keccak256\n    /* \"homework01/3/RomanToInt.sol\":180:195  symbol[\"V\"] = 5 */\n  dup2\n  swap1\n  sstore\n  pop\n    /* \"homework01/3/RomanToInt.sol\":219:221  10 */\n  0x0a\n    /* \"homework01/3/RomanToInt.sol\":205:211  symbol */\n  0x00\n    /* \"homework01/3/RomanToInt.sol\":205:216  symbol[\"X\"] */\n  0x00\n  and(not(0xffffffffffffffffffffffffffffffffffffffffffffffffffffffffffffff), 0x5800000000000000000000000000000000000000000000000000000000000000)\n  dup2\n  mstore\n  0x20\n  add\n  swap1\n  dup2\n  mstore\n  0x20\n  add\n  0x00\n  keccak256\n    /* \"homework01/3/RomanToInt.sol\":205:221  symbol[\"X\"] = 10 */\n  dup2\n  swap1\n  sstore\n  pop\n    /* \"homework01/3/RomanToInt.sol\":245:247  50 */\n  0x32\n    /* \"homework01/3/RomanToInt.sol\":231:237  symbol */\n  0x00\n    /* \"homework01/3/RomanToInt.sol\":231:242  symbol[\"L\"] */\n  0x00\n  and(not(0xffffffffffffffffffffffffffffffffffffffffffffffffffffffffffffff), 0x4c00000000000000000000000000000000000000000000000000000000000000)\n  dup2\n  mstore\n  0x20\n  add\n  swap1\n  dup2\n  mstore\n  0x20\n  add\n  0x00\n  keccak256\n    /* \"homework01/3/RomanToInt.sol\":231:247  symbol[\"L\"] = 50 */\n  dup2\n  swap1\n  sstore\n  pop\n    /* \"homework01/3/RomanToInt.sol\":271:274  100 */\n  0x64\n    /* \"homework01/3/RomanToInt.sol\":257:263  symbol */\n  0x00\n    /* \"homework01/3/RomanToInt.sol\":257:268  symbol[\"C\"] */\n  0x00\n  and(not(0xffffffffffffffffffffffffffffffffffffffffffffffffffffffffffffff), 0x4300000000000000000000000000000000000000000000000000000000000000)\n  dup2\n  mstore\n  0x20\n  add\n  swap1\n  dup2\n  mstore\n  0x20\n  add\n  0x00\n  keccak256\n    /* \"homework01/3/RomanToInt.sol\":257:274  symbol[\"C\"] = 100 */\n  dup2\n  swap1\n  sstore\n  pop\n    /* \"homework01/3/RomanToInt.sol\":298:301  500 */\n  0x01f4\n    /* \"homework01/3/RomanToInt.sol\":284:290  symbol */\n  0x00\n    /* \"homework01/3/RomanToInt.sol\":284:295  symbol[\"D\"] */\n  0x00\n  and(not(0xffffffffffffffffffffffffffffffffffffffffffffffffffffffffffffff), 0x4400000000000000000000000000000000000000000000000000000000000000)\n  dup2\n  mstore\n  0x20\n  add\n  swap1\n  dup2\n  mstore\n  0x20\n  add\n  0x00\n  keccak256\n    /* \"homework01/3/RomanToInt.sol\":284:301  symbol[\"D\"] = 500 */\n  dup2\n  swap1\n  sstore\n  pop\n    /* \"homework01/3/RomanToInt.sol\":325:329  1000 */\n  0x03e8\n    /* \"homework01/3/RomanToInt.sol\":311:317  symbol */\n  0x00\n    /* \"homework01/3/RomanToInt.sol\":311:322  symbol[\"M\"] */\n  0x00\n  and(not(0xffffffffffffffffffffffffffffffffffffffffffffffffffffffffffffff), 0x4d00000000000000000000000000000000000000000000000000000000000000)\n  dup2\n  mstore\n  0x20\n  add\n  swap1\n  dup2\n  mstore\n  0x20\n  add\n  0x00\n  keccak256\n    /* \"homework01/3/RomanToInt.sol\":311:329  symbol[\"M\"] = 1000 */\n  dup2\n  swap1\n  sstore\n  pop\n    /* \"homework01/3/RomanToInt.sol\":58:903  contract RomanToInt {... */\n  dataSize(sub_0)\n  dup1\n  dataOffset(sub_0)\n  0x00\n  codecopy\n  0x00\n  return\nstop\n\nsub_0: assembly {\n        /* \"homework01/3/RomanToInt.sol\":58:903  contract RomanToInt {... */\n      mstore(0x40, 0x80)\n      callvalue\n      dup1\n      iszero\n      tag_1\n      jumpi\n      revert(0x00, 0x00)\n    tag_1:\n      pop\n      jumpi(tag_2, lt(calldatasize, 0x04))\n      shr(0xe0, calldataload(0x00))\n      dup1\n      0x819644a3\n      eq\n      tag_3\n      jumpi\n      dup1\n      0xa4b3e705\n      eq\n      tag_4\n      jumpi\n    tag_2:\n      revert(0x00, 0x00)\n        /* \"homework01/3/RomanToInt.sol\":341:901  function romantoInt(string memory str) public view returns (uint256) {... */\n    tag_3:\n      tag_5\n      0x04\n      dup1\n      calldatasize\n      sub\n      dup2\n      add\n      swap1\n      tag_6\n      swap2\n      swap1\n      tag_7\n      jump\t// in\n    tag_6:\n      tag_8\n      jump\t// in\n    tag_5:\n      mload(0x40)\n      tag_9\n      swap2\n      swap1\n      tag_10\n      jump\t// in\n    tag_9:\n      mload(0x40)\n      dup1\n      swap2\n      sub\n      swap1\n      return\n        /* \"homework01/3/RomanToInt.sol\":84:124  mapping(bytes1 => uint256) public symbol */\n    tag_4:\n      tag_11\n      0x04\n      dup1\n      calldatasize\n      sub\n      dup2\n      add\n      swap1\n      tag_12\n      swap2\n      swap1\n      tag_13\n      jump\t// in\n    tag_12:\n      tag_14\n      jump\t// in\n    tag_11:\n      mload(0x40)\n      tag_15\n      swap2\n      swap1\n      tag_10\n      jump\t// in\n    tag_15:\n      mload(0x40)\n      dup1\n      swap2\n      sub\n      swap1\n      return\n        /* \"homework01/3/RomanToInt.sol\":341:901  function romantoInt(string memory str) public view returns (uint256) {... */\n    tag_8:\n        /* \"homework01/3/RomanToInt.sol\":401:408  uint256 */\n      0x00\n        /* \"homework01/3/RomanToInt.sol\":420:434  uint256 result */\n      0x00\n        /* \"homework01/3/RomanToInt.sol\":437:438  1 */\n      0x01\n        /* \"homework01/3/RomanToInt.sol\":420:438  uint256 result = 1 */\n      swap1\n      pop\n        /* \"homework01/3/RomanToInt.sol\":509:530  bytes memory strbytes */\n      0x00\n        /* \"homework01/3/RomanToInt.sol\":539:542  str */\n      dup4\n        /* \"homework01/3/RomanToInt.sol\":509:543  bytes memory strbytes = bytes(str) */\n      swap1\n      pop\n        /* \"homework01/3/RomanToInt.sol\":553:561  uint len */\n      0x00\n        /* \"homework01/3/RomanToInt.sol\":564:572  strbytes */\n      dup2\n        /* \"homework01/3/RomanToInt.sol\":564:579  strbytes.length */\n      mload\n        /* \"homework01/3/RomanToInt.sol\":553:579  uint len = strbytes.length */\n      swap1\n      pop\n        /* \"homework01/3/RomanToInt.sol\":594:600  uint i */\n      0x00\n        /* \"homework01/3/RomanToInt.sol\":603:604  0 */\n      0x00\n        /* \"homework01/3/RomanToInt.sol\":594:604  uint i = 0 */\n      swap1\n      pop\n        /* \"homework01/3/RomanToInt.sol\":589:840  for (uint i = 0; i < len; i++) {... */\n    tag_17:\n        /* \"homework01/3/RomanToInt.sol\":610:613  len */\n      dup2\n        /* \"homework01/3/RomanToInt.sol\":606:607  i */\n      dup2\n        /* \"homework01/3/RomanToInt.sol\":606:613  i < len */\n      lt\n        /* \"homework01/3/RomanToInt.sol\":589:840  for (uint i = 0; i < len; i++) {... */\n      iszero\n      tag_18\n      jumpi\n        /* \"homework01/3/RomanToInt.sol\":648:649  1 */\n      0x01\n        /* \"homework01/3/RomanToInt.sol\":642:645  len */\n      dup3\n        /* \"homework01/3/RomanToInt.sol\":642:649  len - 1 */\n      tag_20\n      swap2\n      swap1\n      tag_21\n      jump\t// in\n    tag_20:\n        /* \"homework01/3/RomanToInt.sol\":638:639  i */\n      dup2\n        /* \"homework01/3/RomanToInt.sol\":638:649  i < len - 1 */\n      lt\n        /* \"homework01/3/RomanToInt.sol\":638:698  i < len - 1 && symbol[strbytes[i]] < symbol[strbytes[i + 1]] */\n      dup1\n      iszero\n      tag_22\n      jumpi\n      pop\n        /* \"homework01/3/RomanToInt.sol\":675:681  symbol */\n      0x00\n        /* \"homework01/3/RomanToInt.sol\":675:698  symbol[strbytes[i + 1]] */\n      0x00\n        /* \"homework01/3/RomanToInt.sol\":682:690  strbytes */\n      dup5\n        /* \"homework01/3/RomanToInt.sol\":695:696  1 */\n      0x01\n        /* \"homework01/3/RomanToInt.sol\":691:692  i */\n      dup5\n        /* \"homework01/3/RomanToInt.sol\":691:696  i + 1 */\n      tag_23\n      swap2\n      swap1\n      tag_24\n      jump\t// in\n    tag_23:\n        /* \"homework01/3/RomanToInt.sol\":682:697  strbytes[i + 1] */\n      dup2\n      mload\n      dup2\n      lt\n      tag_25\n      jumpi\n      tag_26\n      tag_27\n      jump\t// in\n    tag_26:\n    tag_25:\n      0x20\n      add\n      add\n      mload\n      0xf8\n      shr\n      0xf8\n      shl\n        /* \"homework01/3/RomanToInt.sol\":675:698  symbol[strbytes[i + 1]] */\n      not(0xffffffffffffffffffffffffffffffffffffffffffffffffffffffffffffff)\n      and\n      not(0xffffffffffffffffffffffffffffffffffffffffffffffffffffffffffffff)\n      and\n      dup2\n      mstore\n      0x20\n      add\n      swap1\n      dup2\n      mstore\n      0x20\n      add\n      0x00\n      keccak256\n      sload\n        /* \"homework01/3/RomanToInt.sol\":653:659  symbol */\n      0x00\n        /* \"homework01/3/RomanToInt.sol\":653:672  symbol[strbytes[i]] */\n      0x00\n        /* \"homework01/3/RomanToInt.sol\":660:668  strbytes */\n      dup6\n        /* \"homework01/3/RomanToInt.sol\":669:670  i */\n      dup5\n        /* \"homework01/3/RomanToInt.sol\":660:671  strbytes[i] */\n      dup2\n      mload\n      dup2\n      lt\n      tag_28\n      jumpi\n      tag_29\n      tag_27\n      jump\t// in\n    tag_29:\n    tag_28:\n      0x20\n      add\n      add\n      mload\n      0xf8\n      shr\n      0xf8\n      shl\n        /* \"homework01/3/RomanToInt.sol\":653:672  symbol[strbytes[i]] */\n      not(0xffffffffffffffffffffffffffffffffffffffffffffffffffffffffffffff)\n      and\n      not(0xffffffffffffffffffffffffffffffffffffffffffffffffffffffffffffff)\n      and\n      dup2\n      mstore\n      0x20\n      add\n      swap1\n      dup2\n      mstore\n      0x20\n      add\n      0x00\n      keccak256\n      sload\n        /* \"homework01/3/RomanToInt.sol\":653:698  symbol[strbytes[i]] < symbol[strbytes[i + 1]] */\n      lt\n        /* \"homework01/3/RomanToInt.sol\":638:698  i < len - 1 && symbol[strbytes[i]] < symbol[strbytes[i + 1]] */\n    tag_22:\n        /* \"homework01/3/RomanToInt.sol\":634:830  if (i < len - 1 && symbol[strbytes[i]] < symbol[strbytes[i + 1]]) {... */\n      iszero\n      tag_30\n      jumpi\n        /* \"homework01/3/RomanToInt.sol\":728:734  symbol */\n      0x00\n        /* \"homework01/3/RomanToInt.sol\":728:747  symbol[strbytes[i]] */\n      0x00\n        /* \"homework01/3/RomanToInt.sol\":735:743  strbytes */\n      dup5\n        /* \"homework01/3/RomanToInt.sol\":744:745  i */\n      dup4\n        /* \"homework01/3/RomanToInt.sol\":735:746  strbytes[i] */\n      dup2\n      mload\n      dup2\n      lt\n      tag_31\n      jumpi\n      tag_32\n      tag_27\n      jump\t// in\n    tag_32:\n    tag_31:\n      0x20\n      add\n      add\n      mload\n      0xf8\n      shr\n      0xf8\n      shl\n        /* \"homework01/3/RomanToInt.sol\":728:747  symbol[strbytes[i]] */\n      not(0xffffffffffffffffffffffffffffffffffffffffffffffffffffffffffffff)\n      and\n      not(0xffffffffffffffffffffffffffffffffffffffffffffffffffffffffffffff)\n      and\n      dup2\n      mstore\n      0x20\n      add\n      swap1\n      dup2\n      mstore\n      0x20\n      add\n      0x00\n      keccak256\n      sload\n        /* \"homework01/3/RomanToInt.sol\":718:747  result -= symbol[strbytes[i]] */\n      dup5\n      tag_33\n      swap2\n      swap1\n      tag_21\n      jump\t// in\n    tag_33:\n      swap4\n      pop\n        /* \"homework01/3/RomanToInt.sol\":634:830  if (i < len - 1 && symbol[strbytes[i]] < symbol[strbytes[i + 1]]) {... */\n      jump(tag_34)\n    tag_30:\n        /* \"homework01/3/RomanToInt.sol\":796:802  symbol */\n      0x00\n        /* \"homework01/3/RomanToInt.sol\":796:815  symbol[strbytes[i]] */\n      0x00\n        /* \"homework01/3/RomanToInt.sol\":803:811  strbytes */\n      dup5\n        /* \"homework01/3/RomanToInt.sol\":812:813  i */\n      dup4\n        /* \"homework01/3/RomanToInt.sol\":803:814  strbytes[i] */\n      dup2\n      mload\n      dup2\n      lt\n      tag_35\n      jumpi\n      tag_36\n      tag_27\n      jump\t// in\n    tag_36:\n    tag_35:\n      0x20\n      add\n      add\n      mload\n      0xf8\n      shr\n      0xf8\n      shl\n        /* \"homework01/3/RomanToInt.sol\":796:815  symbol[strbytes[i]] */\n      not(0xffffffffffffffffffffffffffffffffffffffffffffffffffffffffffffff)\n      and\n      not(0xffffffffffffffffffffffffffffffffffffffffffffffffffffffffffffff)\n      and\n      dup2\n      mstore\n      0x20\n      add\n      swap1\n      dup2\n      mstore\n      0x20\n      add\n      0x00\n      keccak256\n      sload\n        /* \"homework01/3/RomanToInt.sol\":786:815  result += symbol[strbytes[i]] */\n      dup5\n      tag_37\n      swap2\n      swap1\n      tag_24\n      jump\t// in\n    tag_37:\n      swap4\n      pop\n        /* \"homework01/3/RomanToInt.sol\":634:830  if (i < len - 1 && symbol[strbytes[i]] < symbol[strbytes[i + 1]]) {... */\n    tag_34:\n        /* \"homework01/3/RomanToInt.sol\":615:618  i++ */\n      dup1\n      dup1\n      0x01\n      add\n      swap2\n      pop\n      pop\n        /* \"homework01/3/RomanToInt.sol\":589:840  for (uint i = 0; i < len; i++) {... */\n      jump(tag_17)\n    tag_18:\n      pop\n        /* \"homework01/3/RomanToInt.sol\":865:866  1 */\n      0x01\n        /* \"homework01/3/RomanToInt.sol\":856:862  result */\n      dup4\n        /* \"homework01/3/RomanToInt.sol\":856:866  result - 1 */\n      tag_38\n      swap2\n      swap1\n      tag_21\n      jump\t// in\n    tag_38:\n        /* \"homework01/3/RomanToInt.sol\":849:866  return result - 1 */\n      swap4\n      pop\n      pop\n      pop\n      pop\n        /* \"homework01/3/RomanToInt.sol\":341:901  function romantoInt(string memory str) public view returns (uint256) {... */\n      swap2\n      swap1\n      pop\n      jump\t// out\n        /* \"homework01/3/RomanToInt.sol\":84:124  mapping(bytes1 => uint256) public symbol */\n    tag_14:\n      mstore(0x20, 0x00)\n      dup1\n      0x00\n      mstore\n      keccak256(0x00, 0x40)\n      0x00\n      swap2\n      pop\n      swap1\n      pop\n      sload\n      dup2\n      jump\t// out\n        /* \"#utility.yul\":7:82   */\n    tag_39:\n        /* \"#utility.yul\":40:46   */\n      0x00\n        /* \"#utility.yul\":73:75   */\n      0x40\n        /* \"#utility.yul\":67:76   */\n      mload\n        /* \"#utility.yul\":57:76   */\n      swap1\n      pop\n        /* \"#utility.yul\":7:82   */\n      swap1\n      jump\t// out\n        /* \"#utility.yul\":88:205   */\n    tag_40:\n        /* \"#utility.yul\":197:198   */\n      0x00\n        /* \"#utility.yul\":194:195   */\n      0x00\n        /* \"#utility.yul\":187:199   */\n      revert\n        /* \"#utility.yul\":211:328   */\n    tag_41:\n        /* \"#utility.yul\":320:321   */\n      0x00\n        /* \"#utility.yul\":317:318   */\n      0x00\n        /* \"#utility.yul\":310:322   */\n      revert\n        /* \"#utility.yul\":334:451   */\n    tag_42:\n        /* \"#utility.yul\":443:444   */\n      0x00\n        /* \"#utility.yul\":440:441   */\n      0x00\n        /* \"#utility.yul\":433:445   */\n      revert\n        /* \"#utility.yul\":457:574   */\n    tag_43:\n        /* \"#utility.yul\":566:567   */\n      0x00\n        /* \"#utility.yul\":563:564   */\n      0x00\n        /* \"#utility.yul\":556:568   */\n      revert\n        /* \"#utility.yul\":580:682   */\n    tag_44:\n        /* \"#utility.yul\":621:627   */\n      0x00\n        /* \"#utility.yul\":672:674   */\n      0x1f\n        /* \"#utility.yul\":668:675   */\n      not\n        /* \"#utility.yul\":663:665   */\n      0x1f\n        /* \"#utility.yul\":656:661   */\n      dup4\n        /* \"#utility.yul\":652:666   */\n      add\n        /* \"#utility.yul\":648:676   */\n      and\n        /* \"#utility.yul\":638:676   */\n      swap1\n      pop\n        /* \"#utility.yul\":580:682   */\n      swap2\n      swap1\n      pop\n      jump\t// out\n        /* \"#utility.yul\":688:868   */\n    tag_45:\n        /* \"#utility.yul\":736:813   */\n      0x4e487b7100000000000000000000000000000000000000000000000000000000\n        /* \"#utility.yul\":733:734   */\n      0x00\n        /* \"#utility.yul\":726:814   */\n      mstore\n        /* \"#utility.yul\":833:837   */\n      0x41\n        /* \"#utility.yul\":830:831   */\n      0x04\n        /* \"#utility.yul\":823:838   */\n      mstore\n        /* \"#utility.yul\":857:861   */\n      0x24\n        /* \"#utility.yul\":854:855   */\n      0x00\n        /* \"#utility.yul\":847:862   */\n      revert\n        /* \"#utility.yul\":874:1155   */\n    tag_46:\n        /* \"#utility.yul\":957:984   */\n      tag_67\n        /* \"#utility.yul\":979:983   */\n      dup3\n        /* \"#utility.yul\":957:984   */\n      tag_44\n      jump\t// in\n    tag_67:\n        /* \"#utility.yul\":949:955   */\n      dup2\n        /* \"#utility.yul\":945:985   */\n      add\n        /* \"#utility.yul\":1087:1093   */\n      dup2\n        /* \"#utility.yul\":1075:1085   */\n      dup2\n        /* \"#utility.yul\":1072:1094   */\n      lt\n        /* \"#utility.yul\":1051:1069   */\n      0xffffffffffffffff\n        /* \"#utility.yul\":1039:1049   */\n      dup3\n        /* \"#utility.yul\":1036:1070   */\n      gt\n        /* \"#utility.yul\":1033:1095   */\n      or\n        /* \"#utility.yul\":1030:1118   */\n      iszero\n      tag_68\n      jumpi\n        /* \"#utility.yul\":1098:1116   */\n      tag_69\n      tag_45\n      jump\t// in\n    tag_69:\n        /* \"#utility.yul\":1030:1118   */\n    tag_68:\n        /* \"#utility.yul\":1138:1148   */\n      dup1\n        /* \"#utility.yul\":1134:1136   */\n      0x40\n        /* \"#utility.yul\":1127:1149   */\n      mstore\n        /* \"#utility.yul\":917:1155   */\n      pop\n        /* \"#utility.yul\":874:1155   */\n      pop\n      pop\n      jump\t// out\n        /* \"#utility.yul\":1161:1290   */\n    tag_47:\n        /* \"#utility.yul\":1195:1201   */\n      0x00\n        /* \"#utility.yul\":1222:1242   */\n      tag_71\n      tag_39\n      jump\t// in\n    tag_71:\n        /* \"#utility.yul\":1212:1242   */\n      swap1\n      pop\n        /* \"#utility.yul\":1251:1284   */\n      tag_72\n        /* \"#utility.yul\":1279:1283   */\n      dup3\n        /* \"#utility.yul\":1271:1277   */\n      dup3\n        /* \"#utility.yul\":1251:1284   */\n      tag_46\n      jump\t// in\n    tag_72:\n        /* \"#utility.yul\":1161:1290   */\n      swap2\n      swap1\n      pop\n      jump\t// out\n        /* \"#utility.yul\":1296:1604   */\n    tag_48:\n        /* \"#utility.yul\":1358:1362   */\n      0x00\n        /* \"#utility.yul\":1448:1466   */\n      0xffffffffffffffff\n        /* \"#utility.yul\":1440:1446   */\n      dup3\n        /* \"#utility.yul\":1437:1467   */\n      gt\n        /* \"#utility.yul\":1434:1490   */\n      iszero\n      tag_74\n      jumpi\n        /* \"#utility.yul\":1470:1488   */\n      tag_75\n      tag_45\n      jump\t// in\n    tag_75:\n        /* \"#utility.yul\":1434:1490   */\n    tag_74:\n        /* \"#utility.yul\":1508:1537   */\n      tag_76\n        /* \"#utility.yul\":1530:1536   */\n      dup3\n        /* \"#utility.yul\":1508:1537   */\n      tag_44\n      jump\t// in\n    tag_76:\n        /* \"#utility.yul\":1500:1537   */\n      swap1\n      pop\n        /* \"#utility.yul\":1592:1596   */\n      0x20\n        /* \"#utility.yul\":1586:1590   */\n      dup2\n        /* \"#utility.yul\":1582:1597   */\n      add\n        /* \"#utility.yul\":1574:1597   */\n      swap1\n      pop\n        /* \"#utility.yul\":1296:1604   */\n      swap2\n      swap1\n      pop\n      jump\t// out\n        /* \"#utility.yul\":1610:1758   */\n    tag_49:\n        /* \"#utility.yul\":1708:1714   */\n      dup3\n        /* \"#utility.yul\":1703:1706   */\n      dup2\n        /* \"#utility.yul\":1698:1701   */\n      dup4\n        /* \"#utility.yul\":1685:1715   */\n      calldatacopy\n        /* \"#utility.yul\":1749:1750   */\n      0x00\n        /* \"#utility.yul\":1740:1746   */\n      dup4\n        /* \"#utility.yul\":1735:1738   */\n      dup4\n        /* \"#utility.yul\":1731:1747   */\n      add\n        /* \"#utility.yul\":1724:1751   */\n      mstore\n        /* \"#utility.yul\":1610:1758   */\n      pop\n      pop\n      pop\n      jump\t// out\n        /* \"#utility.yul\":1764:2189   */\n    tag_50:\n        /* \"#utility.yul\":1842:1847   */\n      0x00\n        /* \"#utility.yul\":1867:1933   */\n      tag_79\n        /* \"#utility.yul\":1883:1932   */\n      tag_80\n        /* \"#utility.yul\":1925:1931   */\n      dup5\n        /* \"#utility.yul\":1883:1932   */\n      tag_48\n      jump\t// in\n    tag_80:\n        /* \"#utility.yul\":1867:1933   */\n      tag_47\n      jump\t// in\n    tag_79:\n        /* \"#utility.yul\":1858:1933   */\n      swap1\n      pop\n        /* \"#utility.yul\":1956:1962   */\n      dup3\n        /* \"#utility.yul\":1949:1954   */\n      dup2\n        /* \"#utility.yul\":1942:1963   */\n      mstore\n        /* \"#utility.yul\":1994:1998   */\n      0x20\n        /* \"#utility.yul\":1987:1992   */\n      dup2\n        /* \"#utility.yul\":1983:1999   */\n      add\n        /* \"#utility.yul\":2032:2035   */\n      dup5\n        /* \"#utility.yul\":2023:2029   */\n      dup5\n        /* \"#utility.yul\":2018:2021   */\n      dup5\n        /* \"#utility.yul\":2014:2030   */\n      add\n        /* \"#utility.yul\":2011:2036   */\n      gt\n        /* \"#utility.yul\":2008:2120   */\n      iszero\n      tag_81\n      jumpi\n        /* \"#utility.yul\":2039:2118   */\n      tag_82\n      tag_43\n      jump\t// in\n    tag_82:\n        /* \"#utility.yul\":2008:2120   */\n    tag_81:\n        /* \"#utility.yul\":2129:2183   */\n      tag_83\n        /* \"#utility.yul\":2176:2182   */\n      dup5\n        /* \"#utility.yul\":2171:2174   */\n      dup3\n        /* \"#utility.yul\":2166:2169   */\n      dup6\n        /* \"#utility.yul\":2129:2183   */\n      tag_49\n      jump\t// in\n    tag_83:\n        /* \"#utility.yul\":1848:2189   */\n      pop\n        /* \"#utility.yul\":1764:2189   */\n      swap4\n      swap3\n      pop\n      pop\n      pop\n      jump\t// out\n        /* \"#utility.yul\":2209:2549   */\n    tag_51:\n        /* \"#utility.yul\":2265:2270   */\n      0x00\n        /* \"#utility.yul\":2314:2317   */\n      dup3\n        /* \"#utility.yul\":2307:2311   */\n      0x1f\n        /* \"#utility.yul\":2299:2305   */\n      dup4\n        /* \"#utility.yul\":2295:2312   */\n      add\n        /* \"#utility.yul\":2291:2318   */\n      slt\n        /* \"#utility.yul\":2281:2403   */\n      tag_85\n      jumpi\n        /* \"#utility.yul\":2322:2401   */\n      tag_86\n      tag_42\n      jump\t// in\n    tag_86:\n        /* \"#utility.yul\":2281:2403   */\n    tag_85:\n        /* \"#utility.yul\":2439:2445   */\n      dup2\n        /* \"#utility.yul\":2426:2446   */\n      calldataload\n        /* \"#utility.yul\":2464:2543   */\n      tag_87\n        /* \"#utility.yul\":2539:2542   */\n      dup5\n        /* \"#utility.yul\":2531:2537   */\n      dup3\n        /* \"#utility.yul\":2524:2528   */\n      0x20\n        /* \"#utility.yul\":2516:2522   */\n      dup7\n        /* \"#utility.yul\":2512:2529   */\n      add\n        /* \"#utility.yul\":2464:2543   */\n      tag_50\n      jump\t// in\n    tag_87:\n        /* \"#utility.yul\":2455:2543   */\n      swap2\n      pop\n        /* \"#utility.yul\":2271:2549   */\n      pop\n        /* \"#utility.yul\":2209:2549   */\n      swap3\n      swap2\n      pop\n      pop\n      jump\t// out\n        /* \"#utility.yul\":2555:3064   */\n    tag_7:\n        /* \"#utility.yul\":2624:2630   */\n      0x00\n        /* \"#utility.yul\":2673:2675   */\n      0x20\n        /* \"#utility.yul\":2661:2670   */\n      dup3\n        /* \"#utility.yul\":2652:2659   */\n      dup5\n        /* \"#utility.yul\":2648:2671   */\n      sub\n        /* \"#utility.yul\":2644:2676   */\n      slt\n        /* \"#utility.yul\":2641:2760   */\n      iszero\n      tag_89\n      jumpi\n        /* \"#utility.yul\":2679:2758   */\n      tag_90\n      tag_40\n      jump\t// in\n    tag_90:\n        /* \"#utility.yul\":2641:2760   */\n    tag_89:\n        /* \"#utility.yul\":2827:2828   */\n      0x00\n        /* \"#utility.yul\":2816:2825   */\n      dup3\n        /* \"#utility.yul\":2812:2829   */\n      add\n        /* \"#utility.yul\":2799:2830   */\n      calldataload\n        /* \"#utility.yul\":2857:2875   */\n      0xffffffffffffffff\n        /* \"#utility.yul\":2849:2855   */\n      dup2\n        /* \"#utility.yul\":2846:2876   */\n      gt\n        /* \"#utility.yul\":2843:2960   */\n      iszero\n      tag_91\n      jumpi\n        /* \"#utility.yul\":2879:2958   */\n      tag_92\n      tag_41\n      jump\t// in\n    tag_92:\n        /* \"#utility.yul\":2843:2960   */\n    tag_91:\n        /* \"#utility.yul\":2984:3047   */\n      tag_93\n        /* \"#utility.yul\":3039:3046   */\n      dup5\n        /* \"#utility.yul\":3030:3036   */\n      dup3\n        /* \"#utility.yul\":3019:3028   */\n      dup6\n        /* \"#utility.yul\":3015:3037   */\n      add\n        /* \"#utility.yul\":2984:3047   */\n      tag_51\n      jump\t// in\n    tag_93:\n        /* \"#utility.yul\":2974:3047   */\n      swap2\n      pop\n        /* \"#utility.yul\":2770:3057   */\n      pop\n        /* \"#utility.yul\":2555:3064   */\n      swap3\n      swap2\n      pop\n      pop\n      jump\t// out\n        /* \"#utility.yul\":3070:3147   */\n    tag_52:\n        /* \"#utility.yul\":3107:3114   */\n      0x00\n        /* \"#utility.yul\":3136:3141   */\n      dup2\n        /* \"#utility.yul\":3125:3141   */\n      swap1\n      pop\n        /* \"#utility.yul\":3070:3147   */\n      swap2\n      swap1\n      pop\n      jump\t// out\n        /* \"#utility.yul\":3153:3271   */\n    tag_53:\n        /* \"#utility.yul\":3240:3264   */\n      tag_96\n        /* \"#utility.yul\":3258:3263   */\n      dup2\n        /* \"#utility.yul\":3240:3264   */\n      tag_52\n      jump\t// in\n    tag_96:\n        /* \"#utility.yul\":3235:3238   */\n      dup3\n        /* \"#utility.yul\":3228:3265   */\n      mstore\n        /* \"#utility.yul\":3153:3271   */\n      pop\n      pop\n      jump\t// out\n        /* \"#utility.yul\":3277:3499   */\n    tag_10:\n        /* \"#utility.yul\":3370:3374   */\n      0x00\n        /* \"#utility.yul\":3408:3410   */\n      0x20\n        /* \"#utility.yul\":3397:3406   */\n      dup3\n        /* \"#utility.yul\":3393:3411   */\n      add\n        /* \"#utility.yul\":3385:3411   */\n      swap1\n      pop\n        /* \"#utility.yul\":3421:3492   */\n      tag_98\n        /* \"#utility.yul\":3489:3490   */\n      0x00\n        /* \"#utility.yul\":3478:3487   */\n      dup4\n        /* \"#utility.yul\":3474:3491   */\n      add\n        /* \"#utility.yul\":3465:3471   */\n      dup5\n        /* \"#utility.yul\":3421:3492   */\n      tag_53\n      jump\t// in\n    tag_98:\n        /* \"#utility.yul\":3277:3499   */\n      swap3\n      swap2\n      pop\n      pop\n      jump\t// out\n        /* \"#utility.yul\":3505:3654   */\n    tag_54:\n        /* \"#utility.yul\":3541:3548   */\n      0x00\n        /* \"#utility.yul\":3581:3647   */\n      0xff00000000000000000000000000000000000000000000000000000000000000\n        /* \"#utility.yul\":3574:3579   */\n      dup3\n        /* \"#utility.yul\":3570:3648   */\n      and\n        /* \"#utility.yul\":3559:3648   */\n      swap1\n      pop\n        /* \"#utility.yul\":3505:3654   */\n      swap2\n      swap1\n      pop\n      jump\t// out\n        /* \"#utility.yul\":3660:3780   */\n    tag_55:\n        /* \"#utility.yul\":3732:3755   */\n      tag_101\n        /* \"#utility.yul\":3749:3754   */\n      dup2\n        /* \"#utility.yul\":3732:3755   */\n      tag_54\n      jump\t// in\n    tag_101:\n        /* \"#utility.yul\":3725:3730   */\n      dup2\n        /* \"#utility.yul\":3722:3756   */\n      eq\n        /* \"#utility.yul\":3712:3774   */\n      tag_102\n      jumpi\n        /* \"#utility.yul\":3770:3771   */\n      0x00\n        /* \"#utility.yul\":3767:3768   */\n      0x00\n        /* \"#utility.yul\":3760:3772   */\n      revert\n        /* \"#utility.yul\":3712:3774   */\n    tag_102:\n        /* \"#utility.yul\":3660:3780   */\n      pop\n      jump\t// out\n        /* \"#utility.yul\":3786:3923   */\n    tag_56:\n        /* \"#utility.yul\":3831:3836   */\n      0x00\n        /* \"#utility.yul\":3869:3875   */\n      dup2\n        /* \"#utility.yul\":3856:3876   */\n      calldataload\n        /* \"#utility.yul\":3847:3876   */\n      swap1\n      pop\n        /* \"#utility.yul\":3885:3917   */\n      tag_104\n        /* \"#utility.yul\":3911:3916   */\n      dup2\n        /* \"#utility.yul\":3885:3917   */\n      tag_55\n      jump\t// in\n    tag_104:\n        /* \"#utility.yul\":3786:3923   */\n      swap3\n      swap2\n      pop\n      pop\n      jump\t// out\n        /* \"#utility.yul\":3929:4256   */\n    tag_13:\n        /* \"#utility.yul\":3987:3993   */\n      0x00\n        /* \"#utility.yul\":4036:4038   */\n      0x20\n        /* \"#utility.yul\":4024:4033   */\n      dup3\n        /* \"#utility.yul\":4015:4022   */\n      dup5\n        /* \"#utility.yul\":4011:4034   */\n      sub\n        /* \"#utility.yul\":4007:4039   */\n      slt\n        /* \"#utility.yul\":4004:4123   */\n      iszero\n      tag_106\n      jumpi\n        /* \"#utility.yul\":4042:4121   */\n      tag_107\n      tag_40\n      jump\t// in\n    tag_107:\n        /* \"#utility.yul\":4004:4123   */\n    tag_106:\n        /* \"#utility.yul\":4162:4163   */\n      0x00\n        /* \"#utility.yul\":4187:4239   */\n      tag_108\n        /* \"#utility.yul\":4231:4238   */\n      dup5\n        /* \"#utility.yul\":4222:4228   */\n      dup3\n        /* \"#utility.yul\":4211:4220   */\n      dup6\n        /* \"#utility.yul\":4207:4229   */\n      add\n        /* \"#utility.yul\":4187:4239   */\n      tag_56\n      jump\t// in\n    tag_108:\n        /* \"#utility.yul\":4177:4239   */\n      swap2\n      pop\n        /* \"#utility.yul\":4133:4249   */\n      pop\n        /* \"#utility.yul\":3929:4256   */\n      swap3\n      swap2\n      pop\n      pop\n      jump\t// out\n        /* \"#utility.yul\":4262:4442   */\n    tag_57:\n        /* \"#utility.yul\":4310:4387   */\n      0x4e487b7100000000000000000000000000000000000000000000000000000000\n        /* \"#utility.yul\":4307:4308   */\n      0x00\n        /* \"#utility.yul\":4300:4388   */\n      mstore\n        /* \"#utility.yul\":4407:4411   */\n      0x11\n        /* \"#utility.yul\":4404:4405   */\n      0x04\n        /* \"#utility.yul\":4397:4412   */\n      mstore\n        /* \"#utility.yul\":4431:4435   */\n      0x24\n        /* \"#utility.yul\":4428:4429   */\n      0x00\n        /* \"#utility.yul\":4421:4436   */\n      revert\n        /* \"#utility.yul\":4448:4642   */\n    tag_21:\n        /* \"#utility.yul\":4488:4492   */\n      0x00\n        /* \"#utility.yul\":4508:4528   */\n      tag_111\n        /* \"#utility.yul\":4526:4527   */\n      dup3\n        /* \"#utility.yul\":4508:4528   */\n      tag_52\n      jump\t// in\n    tag_111:\n        /* \"#utility.yul\":4503:4528   */\n      swap2\n      pop\n        /* \"#utility.yul\":4542:4562   */\n      tag_112\n        /* \"#utility.yul\":4560:4561   */\n      dup4\n        /* \"#utility.yul\":4542:4562   */\n      tag_52\n      jump\t// in\n    tag_112:\n        /* \"#utility.yul\":4537:4562   */\n      swap3\n      pop\n        /* \"#utility.yul\":4586:4587   */\n      dup3\n        /* \"#utility.yul\":4583:4584   */\n      dup3\n        /* \"#utility.yul\":4579:4588   */\n      sub\n        /* \"#utility.yul\":4571:4588   */\n      swap1\n      pop\n        /* \"#utility.yul\":4610:4611   */\n      dup2\n        /* \"#utility.yul\":4604:4608   */\n      dup2\n        /* \"#utility.yul\":4601:4612   */\n      gt\n        /* \"#utility.yul\":4598:4635   */\n      iszero\n      tag_113\n      jumpi\n        /* \"#utility.yul\":4615:4633   */\n      tag_114\n      tag_57\n      jump\t// in\n    tag_114:\n        /* \"#utility.yul\":4598:4635   */\n    tag_113:\n        /* \"#utility.yul\":4448:4642   */\n      swap3\n      swap2\n      pop\n      pop\n      jump\t// out\n        /* \"#utility.yul\":4648:4839   */\n    tag_24:\n        /* \"#utility.yul\":4688:4691   */\n      0x00\n        /* \"#utility.yul\":4707:4727   */\n      tag_116\n        /* \"#utility.yul\":4725:4726   */\n      dup3\n        /* \"#utility.yul\":4707:4727   */\n      tag_52\n      jump\t// in\n    tag_116:\n        /* \"#utility.yul\":4702:4727   */\n      swap2\n      pop\n        /* \"#utility.yul\":4741:4761   */\n      tag_117\n        /* \"#utility.yul\":4759:4760   */\n      dup4\n        /* \"#utility.yul\":4741:4761   */\n      tag_52\n      jump\t// in\n    tag_117:\n        /* \"#utility.yul\":4736:4761   */\n      swap3\n      pop\n        /* \"#utility.yul\":4784:4785   */\n      dup3\n        /* \"#utility.yul\":4781:4782   */\n      dup3\n        /* \"#utility.yul\":4777:4786   */\n      add\n        /* \"#utility.yul\":4770:4786   */\n      swap1\n      pop\n        /* \"#utility.yul\":4805:4808   */\n      dup1\n        /* \"#utility.yul\":4802:4803   */\n      dup3\n        /* \"#utility.yul\":4799:4809   */\n      gt\n        /* \"#utility.yul\":4796:4832   */\n      iszero\n      tag_118\n      jumpi\n        /* \"#utility.yul\":4812:4830   */\n      tag_119\n      tag_57\n      jump\t// in\n    tag_119:\n        /* \"#utility.yul\":4796:4832   */\n    tag_118:\n        /* \"#utility.yul\":4648:4839   */\n      swap3\n      swap2\n      pop\n      pop\n      jump\t// out\n        /* \"#utility.yul\":4845:5025   */\n    tag_27:\n        /* \"#utility.yul\":4893:4970   */\n      0x4e487b7100000000000000000000000000000000000000000000000000000000\n        /* \"#utility.yul\":4890:4891   */\n      0x00\n        /* \"#utility.yul\":4883:4971   */\n      mstore\n        /* \"#utility.yul\":4990:4994   */\n      0x32\n        /* \"#utility.yul\":4987:4988   */\n      0x04\n        /* \"#utility.yul\":4980:4995   */\n      mstore\n        /* \"#utility.yul\":5014:5018   */\n      0x24\n        /* \"#utility.yul\":5011:5012   */\n      0x00\n        /* \"#utility.yul\":5004:5019   */\n      revert\n\n    auxdata: 0xa264697066735822122001b1aea38d1b3b57e13fe5e03939d6d86384e29a45dbbd1af54f7d973e5681db64736f6c63430008220033\n}\n",
				"bytecode": {
					"linkReferences": {},
					"object": "608060405234801561000f575f5ffd5b5060015f5f7f49000000000000000000000000000000000000000000000000000000000000007effffffffffffffffffffffffffffffffffffffffffffffffffffffffffffff191681526020019081526020015f208190555060055f5f7f56000000000000000000000000000000000000000000000000000000000000007effffffffffffffffffffffffffffffffffffffffffffffffffffffffffffff191681526020019081526020015f2081905550600a5f5f7f58000000000000000000000000000000000000000000000000000000000000007effffffffffffffffffffffffffffffffffffffffffffffffffffffffffffff191681526020019081526020015f208190555060325f5f7f4c000000000000000000000000000000000000000000000000000000000000007effffffffffffffffffffffffffffffffffffffffffffffffffffffffffffff191681526020019081526020015f208190555060645f5f7f43000000000000000000000000000000000000000000000000000000000000007effffffffffffffffffffffffffffffffffffffffffffffffffffffffffffff191681526020019081526020015f20819055506101f45f5f7f44000000000000000000000000000000000000000000000000000000000000007effffffffffffffffffffffffffffffffffffffffffffffffffffffffffffff191681526020019081526020015f20819055506103e85f5f7f4d000000000000000000000000000000000000000000000000000000000000007effffffffffffffffffffffffffffffffffffffffffffffffffffffffffffff191681526020019081526020015f2081905550610639806102875f395ff3fe608060405234801561000f575f5ffd5b5060043610610034575f3560e01c8063819644a314610038578063a4b3e70514610068575b5f5ffd5b610052600480360381019061004d919061044b565b610098565b60405161005f91906104aa565b60405180910390f35b610082600480360381019061007d9190610518565b6102ea565b60405161008f91906104aa565b60405180910390f35b5f5f600190505f8390505f815190505f5f90505b818110156102d2576001826100c19190610570565b811080156101bc57505f5f846001846100da91906105a3565b815181106100eb576100ea6105d6565b5b602001015160f81c60f81b7effffffffffffffffffffffffffffffffffffffffffffffffffffffffffffff19167effffffffffffffffffffffffffffffffffffffffffffffffffffffffffffff191681526020019081526020015f20545f5f85848151811061015d5761015c6105d6565b5b602001015160f81c60f81b7effffffffffffffffffffffffffffffffffffffffffffffffffffffffffffff19167effffffffffffffffffffffffffffffffffffffffffffffffffffffffffffff191681526020019081526020015f2054105b15610245575f5f8483815181106101d6576101d56105d6565b5b602001015160f81c60f81b7effffffffffffffffffffffffffffffffffffffffffffffffffffffffffffff19167effffffffffffffffffffffffffffffffffffffffffffffffffffffffffffff191681526020019081526020015f20548461023e9190610570565b93506102c5565b5f5f84838151811061025a576102596105d6565b5b602001015160f81c60f81b7effffffffffffffffffffffffffffffffffffffffffffffffffffffffffffff19167effffffffffffffffffffffffffffffffffffffffffffffffffffffffffffff191681526020019081526020015f2054846102c291906105a3565b93505b80806001019150506100ac565b506001836102e09190610570565b9350505050919050565b5f602052805f5260405f205f915090505481565b5f604051905090565b5f5ffd5b5f5ffd5b5f5ffd5b5f5ffd5b5f601f19601f8301169050919050565b7f4e487b71000000000000000000000000000000000000000000000000000000005f52604160045260245ffd5b61035d82610317565b810181811067ffffffffffffffff8211171561037c5761037b610327565b5b80604052505050565b5f61038e6102fe565b905061039a8282610354565b919050565b5f67ffffffffffffffff8211156103b9576103b8610327565b5b6103c282610317565b9050602081019050919050565b828183375f83830152505050565b5f6103ef6103ea8461039f565b610385565b90508281526020810184848401111561040b5761040a610313565b5b6104168482856103cf565b509392505050565b5f82601f8301126104325761043161030f565b5b81356104428482602086016103dd565b91505092915050565b5f602082840312156104605761045f610307565b5b5f82013567ffffffffffffffff81111561047d5761047c61030b565b5b6104898482850161041e565b91505092915050565b5f819050919050565b6104a481610492565b82525050565b5f6020820190506104bd5f83018461049b565b92915050565b5f7fff0000000000000000000000000000000000000000000000000000000000000082169050919050565b6104f7816104c3565b8114610501575f5ffd5b50565b5f81359050610512816104ee565b92915050565b5f6020828403121561052d5761052c610307565b5b5f61053a84828501610504565b91505092915050565b7f4e487b71000000000000000000000000000000000000000000000000000000005f52601160045260245ffd5b5f61057a82610492565b915061058583610492565b925082820390508181111561059d5761059c610543565b5b92915050565b5f6105ad82610492565b91506105b883610492565b92508282019050808211156105d0576105cf610543565b5b92915050565b7f4e487b71000000000000000000000000000000000000000000000000000000005f52603260045260245ffdfea264697066735822122001b1aea38d1b3b57e13fe5e03939d6d86384e29a45dbbd1af54f7d973e5681db64736f6c63430008220033",
					"opcodes": "PUSH1 0x80 PUSH1 0x40 MSTORE CALLVALUE DUP1 ISZERO PUSH2 0xF JUMPI PUSH0 PUSH0 REVERT JUMPDEST POP PUSH1 0x1 PUSH0 PUSH0 PUSH32 0x4900000000000000000000000000000000000000000000000000000000000000 PUSH31 0xFFFFFFFFFFFFFFFFFFFFFFFFFFFFFFFFFFFFFFFFFFFFFFFFFFFFFFFFFFFFFF NOT AND DUP2 MSTORE PUSH1 0x20 ADD SWAP1 DUP2 MSTORE PUSH1 0x20 ADD PUSH0 KECCAK256 DUP2 SWAP1 SSTORE POP PUSH1 0x5 PUSH0 PUSH0 PUSH32 0x5600000000000000000000000000000000000000000000000000000000000000 PUSH31 0xFFFFFFFFFFFFFFFFFFFFFFFFFFFFFFFFFFFFFFFFFFFFFFFFFFFFFFFFFFFFFF NOT AND DUP2 MSTORE PUSH1 0x20 ADD SWAP1 DUP2 MSTORE PUSH1 0x20 ADD PUSH0 KECCAK256 DUP2 SWAP1 SSTORE POP PUSH1 0xA PUSH0 PUSH0 PUSH32 0x5800000000000000000000000000000000000000000000000000000000000000 PUSH31 0xFFFFFFFFFFFFFFFFFFFFFFFFFFFFFFFFFFFFFFFFFFFFFFFFFFFFFFFFFFFFFF NOT AND DUP2 MSTORE PUSH1 0x20 ADD SWAP1 DUP2 MSTORE PUSH1 0x20 ADD PUSH0 KECCAK256 DUP2 SWAP1 SSTORE POP PUSH1 0x32 PUSH0 PUSH0 PUSH32 0x4C00000000000000000000000000000000000000000000000000000000000000 PUSH31 0xFFFFFFFFFFFFFFFFFFFFFFFFFFFFFFFFFFFFFFFFFFFFFFFFFFFFFFFFFFFFFF NOT AND DUP2 MSTORE PUSH1 0x20 ADD SWAP1 DUP2 MSTORE PUSH1 0x20 ADD PUSH0 KECCAK256 DUP2 SWAP1 SSTORE POP PUSH1 0x64 PUSH0 PUSH0 PUSH32 0x4300000000000000000000000000000000000000000000000000000000000000 PUSH31 0xFFFFFFFFFFFFFFFFFFFFFFFFFFFFFFFFFFFFFFFFFFFFFFFFFFFFFFFFFFFFFF NOT AND DUP2 MSTORE PUSH1 0x20 ADD SWAP1 DUP2 MSTORE PUSH1 0x20 ADD PUSH0 KECCAK256 DUP2 SWAP1 SSTORE POP PUSH2 0x1F4 PUSH0 PUSH0 PUSH32 0x4400000000000000000000000000000000000000000000000000000000000000 PUSH31 0xFFFFFFFFFFFFFFFFFFFFFFFFFFFFFFFFFFFFFFFFFFFFFFFFFFFFFFFFFFFFFF NOT AND DUP2 MSTORE PUSH1 0x20 ADD SWAP1 DUP2 MSTORE PUSH1 0x20 ADD PUSH0 KECCAK256 DUP2 SWAP1 SSTORE POP PUSH2 0x3E8 PUSH0 PUSH0 PUSH32 0x4D00000000000000000000000000000000000000000000000000000000000000 PUSH31 0xFFFFFFFFFFFFFFFFFFFFFFFFFFFFFFFFFFFFFFFFFFFFFFFFFFFFFFFFFFFFFF NOT AND DUP2 MSTORE PUSH1 0x20 ADD SWAP1 DUP2 MSTORE PUSH1 0x20 ADD PUSH0 KECCAK256 DUP2 SWAP1 SSTORE POP PUSH2 0x639 DUP1 PUSH2 0x287 PUSH0 CODECOPY PUSH0 RETURN INVALID PUSH1 0x80 PUSH1 0x40 MSTORE CALLVALUE DUP1 ISZERO PUSH2 0xF JUMPI PUSH0 PUSH0 REVERT JUMPDEST POP PUSH1 0x4 CALLDATASIZE LT PUSH2 0x34 JUMPI PUSH0 CALLDATALOAD PUSH1 0xE0 SHR DUP1 PUSH4 0x819644A3 EQ PUSH2 0x38 JUMPI DUP1 PUSH4 0xA4B3E705 EQ PUSH2 0x68 JUMPI JUMPDEST PUSH0 PUSH0 REVERT JUMPDEST PUSH2 0x52 PUSH1 0x4 DUP1 CALLDATASIZE SUB DUP2 ADD SWAP1 PUSH2 0x4D SWAP2 SWAP1 PUSH2 0x44B JUMP JUMPDEST PUSH2 0x98 JUMP JUMPDEST PUSH1 0x40 MLOAD PUSH2 0x5F SWAP2 SWAP1 PUSH2 0x4AA JUMP JUMPDEST PUSH1 0x40 MLOAD DUP1 SWAP2 SUB SWAP1 RETURN JUMPDEST PUSH2 0x82 PUSH1 0x4 DUP1 CALLDATASIZE SUB DUP2 ADD SWAP1 PUSH2 0x7D SWAP2 SWAP1 PUSH2 0x518 JUMP JUMPDEST PUSH2 0x2EA JUMP JUMPDEST PUSH1 0x40 MLOAD PUSH2 0x8F SWAP2 SWAP1 PUSH2 0x4AA JUMP JUMPDEST PUSH1 0x40 MLOAD DUP1 SWAP2 SUB SWAP1 RETURN JUMPDEST PUSH0 PUSH0 PUSH1 0x1 SWAP1 POP PUSH0 DUP4 SWAP1 POP PUSH0 DUP2 MLOAD SWAP1 POP PUSH0 PUSH0 SWAP1 POP JUMPDEST DUP2 DUP2 LT ISZERO PUSH2 0x2D2 JUMPI PUSH1 0x1 DUP3 PUSH2 0xC1 SWAP2 SWAP1 PUSH2 0x570 JUMP JUMPDEST DUP2 LT DUP1 ISZERO PUSH2 0x1BC JUMPI POP PUSH0 PUSH0 DUP5 PUSH1 0x1 DUP5 PUSH2 0xDA SWAP2 SWAP1 PUSH2 0x5A3 JUMP JUMPDEST DUP2 MLOAD DUP2 LT PUSH2 0xEB JUMPI PUSH2 0xEA PUSH2 0x5D6 JUMP JUMPDEST JUMPDEST PUSH1 0x20 ADD ADD MLOAD PUSH1 0xF8 SHR PUSH1 0xF8 SHL PUSH31 0xFFFFFFFFFFFFFFFFFFFFFFFFFFFFFFFFFFFFFFFFFFFFFFFFFFFFFFFFFFFFFF NOT AND PUSH31 0xFFFFFFFFFFFFFFFFFFFFFFFFFFFFFFFFFFFFFFFFFFFFFFFFFFFFFFFFFFFFFF NOT AND DUP2 MSTORE PUSH1 0x20 ADD SWAP1 DUP2 MSTORE PUSH1 0x20 ADD PUSH0 KECCAK256 SLOAD PUSH0 PUSH0 DUP6 DUP5 DUP2 MLOAD DUP2 LT PUSH2 0x15D JUMPI PUSH2 0x15C PUSH2 0x5D6 JUMP JUMPDEST JUMPDEST PUSH1 0x20 ADD ADD MLOAD PUSH1 0xF8 SHR PUSH1 0xF8 SHL PUSH31 0xFFFFFFFFFFFFFFFFFFFFFFFFFFFFFFFFFFFFFFFFFFFFFFFFFFFFFFFFFFFFFF NOT AND PUSH31 0xFFFFFFFFFFFFFFFFFFFFFFFFFFFFFFFFFFFFFFFFFFFFFFFFFFFFFFFFFFFFFF NOT AND DUP2 MSTORE PUSH1 0x20 ADD SWAP1 DUP2 MSTORE PUSH1 0x20 ADD PUSH0 KECCAK256 SLOAD LT JUMPDEST ISZERO PUSH2 0x245 JUMPI PUSH0 PUSH0 DUP5 DUP4 DUP2 MLOAD DUP2 LT PUSH2 0x1D6 JUMPI PUSH2 0x1D5 PUSH2 0x5D6 JUMP JUMPDEST JUMPDEST PUSH1 0x20 ADD ADD MLOAD PUSH1 0xF8 SHR PUSH1 0xF8 SHL PUSH31 0xFFFFFFFFFFFFFFFFFFFFFFFFFFFFFFFFFFFFFFFFFFFFFFFFFFFFFFFFFFFFFF NOT AND PUSH31 0xFFFFFFFFFFFFFFFFFFFFFFFFFFFFFFFFFFFFFFFFFFFFFFFFFFFFFFFFFFFFFF NOT AND DUP2 MSTORE PUSH1 0x20 ADD SWAP1 DUP2 MSTORE PUSH1 0x20 ADD PUSH0 KECCAK256 SLOAD DUP5 PUSH2 0x23E SWAP2 SWAP1 PUSH2 0x570 JUMP JUMPDEST SWAP4 POP PUSH2 0x2C5 JUMP JUMPDEST PUSH0 PUSH0 DUP5 DUP4 DUP2 MLOAD DUP2 LT PUSH2 0x25A JUMPI PUSH2 0x259 PUSH2 0x5D6 JUMP JUMPDEST JUMPDEST PUSH1 0x20 ADD ADD MLOAD PUSH1 0xF8 SHR PUSH1 0xF8 SHL PUSH31 0xFFFFFFFFFFFFFFFFFFFFFFFFFFFFFFFFFFFFFFFFFFFFFFFFFFFFFFFFFFFFFF NOT AND PUSH31 0xFFFFFFFFFFFFFFFFFFFFFFFFFFFFFFFFFFFFFFFFFFFFFFFFFFFFFFFFFFFFFF NOT AND DUP2 MSTORE PUSH1 0x20 ADD SWAP1 DUP2 MSTORE PUSH1 0x20 ADD PUSH0 KECCAK256 SLOAD DUP5 PUSH2 0x2C2 SWAP2 SWAP1 PUSH2 0x5A3 JUMP JUMPDEST SWAP4 POP JUMPDEST DUP1 DUP1 PUSH1 0x1 ADD SWAP2 POP POP PUSH2 0xAC JUMP JUMPDEST POP PUSH1 0x1 DUP4 PUSH2 0x2E0 SWAP2 SWAP1 PUSH2 0x570 JUMP JUMPDEST SWAP4 POP POP POP POP SWAP2 SWAP1 POP JUMP JUMPDEST PUSH0 PUSH1 0x20 MSTORE DUP1 PUSH0 MSTORE PUSH1 0x40 PUSH0 KECCAK256 PUSH0 SWAP2 POP SWAP1 POP SLOAD DUP2 JUMP JUMPDEST PUSH0 PUSH1 0x40 MLOAD SWAP1 POP SWAP1 JUMP JUMPDEST PUSH0 PUSH0 REVERT JUMPDEST PUSH0 PUSH0 REVERT JUMPDEST PUSH0 PUSH0 REVERT JUMPDEST PUSH0 PUSH0 REVERT JUMPDEST PUSH0 PUSH1 0x1F NOT PUSH1 0x1F DUP4 ADD AND SWAP1 POP SWAP2 SWAP1 POP JUMP JUMPDEST PUSH32 0x4E487B7100000000000000000000000000000000000000000000000000000000 PUSH0 MSTORE PUSH1 0x41 PUSH1 0x4 MSTORE PUSH1 0x24 PUSH0 REVERT JUMPDEST PUSH2 0x35D DUP3 PUSH2 0x317 JUMP JUMPDEST DUP2 ADD DUP2 DUP2 LT PUSH8 0xFFFFFFFFFFFFFFFF DUP3 GT OR ISZERO PUSH2 0x37C JUMPI PUSH2 0x37B PUSH2 0x327 JUMP JUMPDEST JUMPDEST DUP1 PUSH1 0x40 MSTORE POP POP POP JUMP JUMPDEST PUSH0 PUSH2 0x38E PUSH2 0x2FE JUMP JUMPDEST SWAP1 POP PUSH2 0x39A DUP3 DUP3 PUSH2 0x354 JUMP JUMPDEST SWAP2 SWAP1 POP JUMP JUMPDEST PUSH0 PUSH8 0xFFFFFFFFFFFFFFFF DUP3 GT ISZERO PUSH2 0x3B9 JUMPI PUSH2 0x3B8 PUSH2 0x327 JUMP JUMPDEST JUMPDEST PUSH2 0x3C2 DUP3 PUSH2 0x317 JUMP JUMPDEST SWAP1 POP PUSH1 0x20 DUP2 ADD SWAP1 POP SWAP2 SWAP1 POP JUMP JUMPDEST DUP3 DUP2 DUP4 CALLDATACOPY PUSH0 DUP4 DUP4 ADD MSTORE POP POP POP JUMP JUMPDEST PUSH0 PUSH2 0x3EF PUSH2 0x3EA DUP5 PUSH2 0x39F JUMP JUMPDEST PUSH2 0x385 JUMP JUMPDEST SWAP1 POP DUP3 DUP2 MSTORE PUSH1 0x20 DUP2 ADD DUP5 DUP5 DUP5 ADD GT ISZERO PUSH2 0x40B JUMPI PUSH2 0x40A PUSH2 0x313 JUMP JUMPDEST JUMPDEST PUSH2 0x416 DUP5 DUP3 DUP6 PUSH2 0x3CF JUMP JUMPDEST POP SWAP4 SWAP3 POP POP POP JUMP JUMPDEST PUSH0 DUP3 PUSH1 0x1F DUP4 ADD SLT PUSH2 0x432 JUMPI PUSH2 0x431 PUSH2 0x30F JUMP JUMPDEST JUMPDEST DUP2 CALLDATALOAD PUSH2 0x442 DUP5 DUP3 PUSH1 0x20 DUP7 ADD PUSH2 0x3DD JUMP JUMPDEST SWAP2 POP POP SWAP3 SWAP2 POP POP JUMP JUMPDEST PUSH0 PUSH1 0x20 DUP3 DUP5 SUB SLT ISZERO PUSH2 0x460 JUMPI PUSH2 0x45F PUSH2 0x307 JUMP JUMPDEST JUMPDEST PUSH0 DUP3 ADD CALLDATALOAD PUSH8 0xFFFFFFFFFFFFFFFF DUP2 GT ISZERO PUSH2 0x47D JUMPI PUSH2 0x47C PUSH2 0x30B JUMP JUMPDEST JUMPDEST PUSH2 0x489 DUP5 DUP3 DUP6 ADD PUSH2 0x41E JUMP JUMPDEST SWAP2 POP POP SWAP3 SWAP2 POP POP JUMP JUMPDEST PUSH0 DUP2 SWAP1 POP SWAP2 SWAP1 POP JUMP JUMPDEST PUSH2 0x4A4 DUP2 PUSH2 0x492 JUMP JUMPDEST DUP3 MSTORE POP POP JUMP JUMPDEST PUSH0 PUSH1 0x20 DUP3 ADD SWAP1 POP PUSH2 0x4BD PUSH0 DUP4 ADD DUP5 PUSH2 0x49B JUMP JUMPDEST SWAP3 SWAP2 POP POP JUMP JUMPDEST PUSH0 PUSH32 0xFF00000000000000000000000000000000000000000000000000000000000000 DUP3 AND SWAP1 POP SWAP2 SWAP1 POP JUMP JUMPDEST PUSH2 0x4F7 DUP2 PUSH2 0x4C3 JUMP JUMPDEST DUP2 EQ PUSH2 0x501 JUMPI PUSH0 PUSH0 REVERT JUMPDEST POP JUMP JUMPDEST PUSH0 DUP2 CALLDATALOAD SWAP1 POP PUSH2 0x512 DUP2 PUSH2 0x4EE JUMP JUMPDEST SWAP3 SWAP2 POP POP JUMP JUMPDEST PUSH0 PUSH1 0x20 DUP3 DUP5 SUB SLT ISZERO PUSH2 0x52D JUMPI PUSH2 0x52C PUSH2 0x307 JUMP JUMPDEST JUMPDEST PUSH0 PUSH2 0x53A DUP5 DUP3 DUP6 ADD PUSH2 0x504 JUMP JUMPDEST SWAP2 POP POP SWAP3 SWAP2 POP POP JUMP JUMPDEST PUSH32 0x4E487B7100000000000000000000000000000000000000000000000000000000 PUSH0 MSTORE PUSH1 0x11 PUSH1 0x4 MSTORE PUSH1 0x24 PUSH0 REVERT JUMPDEST PUSH0 PUSH2 0x57A DUP3 PUSH2 0x492 JUMP JUMPDEST SWAP2 POP PUSH2 0x585 DUP4 PUSH2 0x492 JUMP JUMPDEST SWAP3 POP DUP3 DUP3 SUB SWAP1 POP DUP2 DUP2 GT ISZERO PUSH2 0x59D JUMPI PUSH2 0x59C PUSH2 0x543 JUMP JUMPDEST JUMPDEST SWAP3 SWAP2 POP POP JUMP JUMPDEST PUSH0 PUSH2 0x5AD DUP3 PUSH2 0x492 JUMP JUMPDEST SWAP2 POP PUSH2 0x5B8 DUP4 PUSH2 0x492 JUMP JUMPDEST SWAP3 POP DUP3 DUP3 ADD SWAP1 POP DUP1 DUP3 GT ISZERO PUSH2 0x5D0 JUMPI PUSH2 0x5CF PUSH2 0x543 JUMP JUMPDEST JUMPDEST SWAP3 SWAP2 POP POP JUMP JUMPDEST PUSH32 0x4E487B7100000000000000000000000000000000000000000000000000000000 PUSH0 MSTORE PUSH1 0x32 PUSH1 0x4 MSTORE PUSH1 0x24 PUSH0 REVERT INVALID LOG2 PUSH5 0x6970667358 0x22 SLT KECCAK256 ADD 0xB1 0xAE LOG3 DUP14 SHL EXTCODESIZE JUMPI RJUMPI 0x3FE5 RJUMP 0x3939 0xD6 0xD8 PUSH4 0x84E29A45 0xDB 0xBD BYTE CREATE2 0x4F PUSH30 0x973E5681DB64736F6C634300082200330000000000000000000000000000 "
				},
				"gasEstimates": {
					"creation": {
						"codeDepositCost": "318600",
						"executionCost": "155739",
						"totalCost": "474339"
					},
					"external": {
						"romantoInt(string)": "infinite",
						"symbol(bytes1)": "2759"
					}
				},
				"methodIdentifiers": {
					"romantoInt(string)": "819644a3",
					"symbol(bytes1)": "a4b3e705"
				}
			},
			"storageLayout": {
				"storage": [
					{
						"astId": 5,
						"contract": "homework01/3/RomanToInt.sol:RomanToInt",
						"label": "symbol",
						"offset": 0,
						"slot": "0",
						"type": "t_mapping(t_bytes1,t_uint256)"
					}
				],
				"types": {
					"t_bytes1": {
						"encoding": "inplace",
						"label": "bytes1",
						"numberOfBytes": "1"
					},
					"t_mapping(t_bytes1,t_uint256)": {
						"encoding": "mapping",
						"key": "t_bytes1",
						"label": "mapping(bytes1 => uint256)",
						"numberOfBytes": "32",
						"value": "t_uint256"
					},
					"t_uint256": {
						"encoding": "inplace",
						"label": "uint256",
						"numberOfBytes": "32"
					}
				}
			},
			"userdoc": {
				"kind": "user",
				"methods": {},
				"version": 1
			}
		}
	}
}