{
	"test/继承.sol": {
		"Child": {
			"abi": [
				{
					"inputs": [],
					"name": "a",
					"outputs": [
						{
							"internalType": "uint256",
							"name": "",
							"type": "uint256"
						}
					],
					"stateMutability": "view",
					"type": "function"
				},
				{
					"inputs": [],
					"name": "addOne",
					"outputs": [],
					"stateMutability": "nonpayable",
					"type": "function"
				},
				{
					"inputs": [],
					"name": "addTwo",
					"outputs": [],
					"stateMutability": "nonpayable",
					"type": "function"
				}
			],
			"devdoc": {
				"kind": "dev",
				"methods": {},
				"version": 1
			},
			"evm": {
				"assembly": "    /* \"test/\\xe7\\xbb\\xa7\\xe6\\x89\\xbf.sol\":240:321  contract Child is Parent {... */\n  mstore(0x40, 0x80)\n  callvalue\n  dup1\n  iszero\n  tag_1\n  jumpi\n  revert(0x00, 0x00)\ntag_1:\n  pop\n  dataSize(sub_0)\n  dup1\n  dataOffset(sub_0)\n  0x00\n  codecopy\n  0x00\n  return\nstop\n\nsub_0: assembly {\n        /* \"test/\\xe7\\xbb\\xa7\\xe6\\x89\\xbf.sol\":240:321  contract Child is Parent {... */\n      mstore(0x40, 0x80)\n      callvalue\n      dup1\n      iszero\n      tag_1\n      jumpi\n      revert(0x00, 0x00)\n    tag_1:\n      pop\n      jumpi(tag_2, lt(calldatasize, 0x04))\n      shr(0xe0, calldataload(0x00))\n      dup1\n      0x0dbe671f\n      eq\n      tag_3\n      jumpi\n      dup1\n      0x4d47524e\n      eq\n      tag_4\n      jumpi\n      dup1\n      0x6057d3ee\n      eq\n      tag_5\n      jumpi\n    tag_2:\n      revert(0x00, 0x00)\n        /* \"test/\\xe7\\xbb\\xa7\\xe6\\x89\\xbf.sol\":80:96  uint256 public a */\n    tag_3:\n      tag_6\n      tag_7\n      jump\t// in\n    tag_6:\n      mload(0x40)\n      tag_8\n      swap2\n      swap1\n      tag_9\n      jump\t// in\n    tag_8:\n      mload(0x40)\n      dup1\n      swap2\n      sub\n      swap1\n      return\n        /* \"test/\\xe7\\xbb\\xa7\\xe6\\x89\\xbf.sol\":271:319  function addTwo() public {... */\n    tag_4:\n      tag_10\n      tag_11\n      jump\t// in\n    tag_10:\n      stop\n        /* \"test/\\xe7\\xbb\\xa7\\xe6\\x89\\xbf.sol\":191:236  function addOne() public {... */\n    tag_5:\n      tag_12\n      tag_13\n      jump\t// in\n    tag_12:\n      stop\n        /* \"test/\\xe7\\xbb\\xa7\\xe6\\x89\\xbf.sol\":80:96  uint256 public a */\n    tag_7:\n      sload(0x00)\n      dup2\n      jump\t// out\n        /* \"test/\\xe7\\xbb\\xa7\\xe6\\x89\\xbf.sol\":271:319  function addTwo() public {... */\n    tag_11:\n        /* \"test/\\xe7\\xbb\\xa7\\xe6\\x89\\xbf.sol\":311:312  2 */\n      0x02\n        /* \"test/\\xe7\\xbb\\xa7\\xe6\\x89\\xbf.sol\":306:307  a */\n      0x00\n      0x00\n        /* \"test/\\xe7\\xbb\\xa7\\xe6\\x89\\xbf.sol\":306:312  a += 2 */\n      dup3\n      dup3\n      sload\n      tag_15\n      swap2\n      swap1\n      tag_16\n      jump\t// in\n    tag_15:\n      swap3\n      pop\n      pop\n      dup2\n      swap1\n      sstore\n      pop\n        /* \"test/\\xe7\\xbb\\xa7\\xe6\\x89\\xbf.sol\":271:319  function addTwo() public {... */\n      jump\t// out\n        /* \"test/\\xe7\\xbb\\xa7\\xe6\\x89\\xbf.sol\":191:236  function addOne() public {... */\n    tag_13:\n        /* \"test/\\xe7\\xbb\\xa7\\xe6\\x89\\xbf.sol\":226:227  a */\n      0x00\n      0x00\n        /* \"test/\\xe7\\xbb\\xa7\\xe6\\x89\\xbf.sol\":226:229  a++ */\n      dup2\n      sload\n      dup1\n      swap3\n      swap2\n      swap1\n      tag_18\n      swap1\n      tag_19\n      jump\t// in\n    tag_18:\n      swap2\n      swap1\n      pop\n      sstore\n      pop\n        /* \"test/\\xe7\\xbb\\xa7\\xe6\\x89\\xbf.sol\":191:236  function addOne() public {... */\n      jump\t// out\n        /* \"#utility.yul\":7:84   */\n    tag_20:\n        /* \"#utility.yul\":44:51   */\n      0x00\n        /* \"#utility.yul\":73:78   */\n      dup2\n        /* \"#utility.yul\":62:78   */\n      swap1\n      pop\n        /* \"#utility.yul\":7:84   */\n      swap2\n      swap1\n      pop\n      jump\t// out\n        /* \"#utility.yul\":90:208   */\n    tag_21:\n        /* \"#utility.yul\":177:201   */\n      tag_26\n        /* \"#utility.yul\":195:200   */\n      dup2\n        /* \"#utility.yul\":177:201   */\n      tag_20\n      jump\t// in\n    tag_26:\n        /* \"#utility.yul\":172:175   */\n      dup3\n        /* \"#utility.yul\":165:202   */\n      mstore\n        /* \"#utility.yul\":90:208   */\n      pop\n      pop\n      jump\t// out\n        /* \"#utility.yul\":214:436   */\n    tag_9:\n        /* \"#utility.yul\":307:311   */\n      0x00\n        /* \"#utility.yul\":345:347   */\n      0x20\n        /* \"#utility.yul\":334:343   */\n      dup3\n        /* \"#utility.yul\":330:348   */\n      add\n        /* \"#utility.yul\":322:348   */\n      swap1\n      pop\n        /* \"#utility.yul\":358:429   */\n      tag_28\n        /* \"#utility.yul\":426:427   */\n      0x00\n        /* \"#utility.yul\":415:424   */\n      dup4\n        /* \"#utility.yul\":411:428   */\n      add\n        /* \"#utility.yul\":402:408   */\n      dup5\n        /* \"#utility.yul\":358:429   */\n      tag_21\n      jump\t// in\n    tag_28:\n        /* \"#utility.yul\":214:436   */\n      swap3\n      swap2\n      pop\n      pop\n      jump\t// out\n        /* \"#utility.yul\":442:622   */\n    tag_22:\n        /* \"#utility.yul\":490:567   */\n      0x4e487b7100000000000000000000000000000000000000000000000000000000\n        /* \"#utility.yul\":487:488   */\n      0x00\n        /* \"#utility.yul\":480:568   */\n      mstore\n        /* \"#utility.yul\":587:591   */\n      0x11\n        /* \"#utility.yul\":584:585   */\n      0x04\n        /* \"#utility.yul\":577:592   */\n      mstore\n        /* \"#utility.yul\":611:615   */\n      0x24\n        /* \"#utility.yul\":608:609   */\n      0x00\n        /* \"#utility.yul\":601:616   */\n      revert\n        /* \"#utility.yul\":628:819   */\n    tag_16:\n        /* \"#utility.yul\":668:671   */\n      0x00\n        /* \"#utility.yul\":687:707   */\n      tag_31\n        /* \"#utility.yul\":705:706   */\n      dup3\n        /* \"#utility.yul\":687:707   */\n      tag_20\n      jump\t// in\n    tag_31:\n        /* \"#utility.yul\":682:707   */\n      swap2\n      pop\n        /* \"#utility.yul\":721:741   */\n      tag_32\n        /* \"#utility.yul\":739:740   */\n      dup4\n        /* \"#utility.yul\":721:741   */\n      tag_20\n      jump\t// in\n    tag_32:\n        /* \"#utility.yul\":716:741   */\n      swap3\n      pop\n        /* \"#utility.yul\":764:765   */\n      dup3\n        /* \"#utility.yul\":761:762   */\n      dup3\n        /* \"#utility.yul\":757:766   */\n      add\n        /* \"#utility.yul\":750:766   */\n      swap1\n      pop\n        /* \"#utility.yul\":785:788   */\n      dup1\n        /* \"#utility.yul\":782:783   */\n      dup3\n        /* \"#utility.yul\":779:789   */\n      gt\n        /* \"#utility.yul\":776:812   */\n      iszero\n      tag_33\n      jumpi\n        /* \"#utility.yul\":792:810   */\n      tag_34\n      tag_22\n      jump\t// in\n    tag_34:\n        /* \"#utility.yul\":776:812   */\n    tag_33:\n        /* \"#utility.yul\":628:819   */\n      swap3\n      swap2\n      pop\n      pop\n      jump\t// out\n        /* \"#utility.yul\":825:1058   */\n    tag_19:\n        /* \"#utility.yul\":864:867   */\n      0x00\n        /* \"#utility.yul\":887:911   */\n      tag_36\n        /* \"#utility.yul\":905:910   */\n      dup3\n        /* \"#utility.yul\":887:911   */\n      tag_20\n      jump\t// in\n    tag_36:\n        /* \"#utility.yul\":878:911   */\n      swap2\n      pop\n        /* \"#utility.yul\":933:999   */\n      0xffffffffffffffffffffffffffffffffffffffffffffffffffffffffffffffff\n        /* \"#utility.yul\":926:931   */\n      dup3\n        /* \"#utility.yul\":923:1000   */\n      sub\n        /* \"#utility.yul\":920:1023   */\n      tag_37\n      jumpi\n        /* \"#utility.yul\":1003:1021   */\n      tag_38\n      tag_22\n      jump\t// in\n    tag_38:\n        /* \"#utility.yul\":920:1023   */\n    tag_37:\n        /* \"#utility.yul\":1050:1051   */\n      0x01\n        /* \"#utility.yul\":1043:1048   */\n      dup3\n        /* \"#utility.yul\":1039:1052   */\n      add\n        /* \"#utility.yul\":1032:1052   */\n      swap1\n      pop\n        /* \"#utility.yul\":825:1058   */\n      swap2\n      swap1\n      pop\n      jump\t// out\n\n    auxdata: 0xa264697066735822122013404ffb9826914f418d69ac0881f7d3912c77b0c0f1bcf902950e3e0f24eedf64736f6c63430008220033\n}\n",
				"bytecode": {
					"linkReferences": {},
					"object": "6080604052348015600e575f5ffd5b506101ba8061001c5f395ff3fe608060405234801561000f575f5ffd5b506004361061003f575f3560e01c80630dbe671f146100435780634d47524e146100615780636057d3ee1461006b575b5f5ffd5b61004b610075565b60405161005891906100c4565b60405180910390f35b61006961007a565b005b610073610094565b005b5f5481565b60025f5f82825461008b919061010a565b92505081905550565b5f5f8154809291906100a59061013d565b9190505550565b5f819050919050565b6100be816100ac565b82525050565b5f6020820190506100d75f8301846100b5565b92915050565b7f4e487b71000000000000000000000000000000000000000000000000000000005f52601160045260245ffd5b5f610114826100ac565b915061011f836100ac565b9250828201905080821115610137576101366100dd565b5b92915050565b5f610147826100ac565b91507fffffffffffffffffffffffffffffffffffffffffffffffffffffffffffffffff8203610179576101786100dd565b5b60018201905091905056fea264697066735822122013404ffb9826914f418d69ac0881f7d3912c77b0c0f1bcf902950e3e0f24eedf64736f6c63430008220033",
					"opcodes": "PUSH1 0x80 PUSH1 0x40 MSTORE CALLVALUE DUP1 ISZERO PUSH1 0xE JUMPI PUSH0 PUSH0 REVERT JUMPDEST POP PUSH2 0x1BA DUP1 PUSH2 0x1C PUSH0 CODECOPY PUSH0 RETURN INVALID PUSH1 0x80 PUSH1 0x40 MSTORE CALLVALUE DUP1 ISZERO PUSH2 0xF JUMPI PUSH0 PUSH0 REVERT JUMPDEST POP PUSH1 0x4 CALLDATASIZE LT PUSH2 0x3F JUMPI PUSH0 CALLDATALOAD PUSH1 0xE0 SHR DUP1 PUSH4 0xDBE671F EQ PUSH2 0x43 JUMPI DUP1 PUSH4 0x4D47524E EQ PUSH2 0x61 JUMPI DUP1 PUSH4 0x6057D3EE EQ PUSH2 0x6B JUMPI JUMPDEST PUSH0 PUSH0 REVERT JUMPDEST PUSH2 0x4B PUSH2 0x75 JUMP JUMPDEST PUSH1 0x40 MLOAD PUSH2 0x58 SWAP2 SWAP1 PUSH2 0xC4 JUMP JUMPDEST PUSH1 0x40 MLOAD DUP1 SWAP2 SUB SWAP1 RETURN JUMPDEST PUSH2 0x69 PUSH2 0x7A JUMP JUMPDEST STOP JUMPDEST PUSH2 0x73 PUSH2 0x94 JUMP JUMPDEST STOP JUMPDEST PUSH0 SLOAD DUP2 JUMP JUMPDEST PUSH1 0x2 PUSH0 PUSH0 DUP3 DUP3 SLOAD PUSH2 0x8B SWAP2 SWAP1 PUSH2 0x10A JUMP JUMPDEST SWAP3 POP POP DUP2 SWAP1 SSTORE POP JUMP JUMPDEST PUSH0 PUSH0 DUP2 SLOAD DUP1 SWAP3 SWAP2 SWAP1 PUSH2 0xA5 SWAP1 PUSH2 0x13D JUMP JUMPDEST SWAP2 SWAP1 POP SSTORE POP JUMP JUMPDEST PUSH0 DUP2 SWAP1 POP SWAP2 SWAP1 POP JUMP JUMPDEST PUSH2 0xBE DUP2 PUSH2 0xAC JUMP JUMPDEST DUP3 MSTORE POP POP JUMP JUMPDEST PUSH0 PUSH1 0x20 DUP3 ADD SWAP1 POP PUSH2 0xD7 PUSH0 DUP4 ADD DUP5 PUSH2 0xB5 JUMP JUMPDEST SWAP3 SWAP2 POP POP JUMP JUMPDEST PUSH32 0x4E487B7100000000000000000000000000000000000000000000000000000000 PUSH0 MSTORE PUSH1 0x11 PUSH1 0x4 MSTORE PUSH1 0x24 PUSH0 REVERT JUMPDEST PUSH0 PUSH2 0x114 DUP3 PUSH2 0xAC JUMP JUMPDEST SWAP2 POP PUSH2 0x11F DUP4 PUSH2 0xAC JUMP JUMPDEST SWAP3 POP DUP3 DUP3 ADD SWAP1 POP DUP1 DUP3 GT ISZERO PUSH2 0x137 JUMPI PUSH2 0x136 PUSH2 0xDD JUMP JUMPDEST JUMPDEST SWAP3 SWAP2 POP POP JUMP JUMPDEST PUSH0 PUSH2 0x147 DUP3 PUSH2 0xAC JUMP JUMPDEST SWAP2 POP PUSH32 0xFFFFFFFFFFFFFFFFFFFFFFFFFFFFFFFFFFFFFFFFFFFFFFFFFFFFFFFFFFFFFFFF DUP3 SUB PUSH2 0x179 JUMPI PUSH2 0x178 PUSH2 0xDD JUMP JUMPDEST JUMPDEST PUSH1 0x1 DUP3 ADD SWAP1 POP SWAP2 SWAP1 POP JUMP INVALID LOG2 PUSH5 0x6970667358 0x22 SLT KECCAK256 SGT BLOCKHASH 0x4F EXTSTATICCALL SWAP9 0x26 SWAP2 0x4F COINBASE DUP14 PUSH10 0xAC0881F7D3912C77B0C0 CALL 0xBC EXTDELEGATECALL MUL SWAP6 0xE RETURNDATACOPY 0xF 0x24 RETURNCONTRACT 0xDF PUSH5 0x736F6C6343 STOP ADDMOD 0x22 STOP CALLER "
				},
				"gasEstimates": {
					"creation": {
						"codeDepositCost": "88400",
						"executionCost": "133",
						"totalCost": "88533"
					},
					"external": {
						"a()": "2402",
						"addOne()": "24518",
						"addTwo()": "infinite"
					}
				},
				"methodIdentifiers": {
					"a()": "0dbe671f",
					"addOne()": "6057d3ee",
					"addTwo()": "4d47524e"
				}
			},
			"storageLayout": {
				"storage": [
					{
						"astId": 3,
						"contract": "test/继承.sol:Child",
						"label": "a",
						"offset": 0,
						"slot": "0",
						"type": "t_uint256"
					},
					{
						"astId": 5,
						"contract": "test/继承.sol:Child",
						"label": "b",
						"offset": 0,
						"slot": "1",
						"type": "t_uint256"
					}
				],
				"types": {
					"t_uint256": {
						"encoding": "inplace",
						"label": "uint256",
						"numberOfBytes": "32"
					}
				}
			},
			"userdoc": {
				"kind": "user",
				"methods": {},
				"version": 1
			}
		}
	}
}