{
	"homework01/2/ReverseString.sol": {
		"ReverseString": {
			"abi": [
				{
					"inputs": [
						{
							"internalType": "string",
							"name": "str",
							"type": "string"
						}
					],
					"name": "reverseString",
					"outputs": [
						{
							"internalType": "string",
							"name": "",
							"type": "string"
						}
					],
					"stateMutability": "pure",
					"type": "function"
				},
				{
					"inputs": [
						{
							"internalType": "string",
							"name": "str",
							"type": "string"
						}
					],
					"name": "reverseString2",
					"outputs": [
						{
							"internalType": "string",
							"name": "",
							"type": "string"
						}
					],
					"stateMutability": "pure",
					"type": "function"
				}
			],
			"devdoc": {
				"kind": "dev",
				"methods": {},
				"version": 1
			},
			"evm": {
				"assembly": "    /* \"homework01/2/ReverseString.sol\":58:815  contract ReverseString {... */\n  mstore(0x40, 0x80)\n  callvalue\n  dup1\n  iszero\n  tag_1\n  jumpi\n  revert(0x00, 0x00)\ntag_1:\n  pop\n  dataSize(sub_0)\n  dup1\n  dataOffset(sub_0)\n  0x00\n  codecopy\n  0x00\n  return\nstop\n\nsub_0: assembly {\n        /* \"homework01/2/ReverseString.sol\":58:815  contract ReverseString {... */\n      mstore(0x40, 0x80)\n      callvalue\n      dup1\n      iszero\n      tag_1\n      jumpi\n      revert(0x00, 0x00)\n    tag_1:\n      pop\n      jumpi(tag_2, lt(calldatasize, 0x04))\n      shr(0xe0, calldataload(0x00))\n      dup1\n      0x5729c211\n      eq\n      tag_3\n      jumpi\n      dup1\n      0xceb6a200\n      eq\n      tag_4\n      jumpi\n    tag_2:\n      revert(0x00, 0x00)\n        /* \"homework01/2/ReverseString.sol\":87:458  function reverseString(... */\n    tag_3:\n      tag_5\n      0x04\n      dup1\n      calldatasize\n      sub\n      dup2\n      add\n      swap1\n      tag_6\n      swap2\n      swap1\n      tag_7\n      jump\t// in\n    tag_6:\n      tag_8\n      jump\t// in\n    tag_5:\n      mload(0x40)\n      tag_9\n      swap2\n      swap1\n      tag_10\n      jump\t// in\n    tag_9:\n      mload(0x40)\n      dup1\n      swap2\n      sub\n      swap1\n      return\n        /* \"homework01/2/ReverseString.sol\":464:813  function reverseString2(... */\n    tag_4:\n      tag_11\n      0x04\n      dup1\n      calldatasize\n      sub\n      dup2\n      add\n      swap1\n      tag_12\n      swap2\n      swap1\n      tag_7\n      jump\t// in\n    tag_12:\n      tag_13\n      jump\t// in\n    tag_11:\n      mload(0x40)\n      tag_14\n      swap2\n      swap1\n      tag_10\n      jump\t// in\n    tag_14:\n      mload(0x40)\n      dup1\n      swap2\n      sub\n      swap1\n      return\n        /* \"homework01/2/ReverseString.sol\":87:458  function reverseString(... */\n    tag_8:\n        /* \"homework01/2/ReverseString.sol\":164:177  string memory */\n      0x60\n        /* \"homework01/2/ReverseString.sol\":189:207  string memory temp */\n      dup1\n        /* \"homework01/2/ReverseString.sol\":217:238  bytes memory strBytes */\n      0x00\n        /* \"homework01/2/ReverseString.sol\":247:250  str */\n      dup4\n        /* \"homework01/2/ReverseString.sol\":217:251  bytes memory strBytes = bytes(str) */\n      swap1\n      pop\n        /* \"homework01/2/ReverseString.sol\":266:272  uint i */\n      0x00\n        /* \"homework01/2/ReverseString.sol\":275:276  0 */\n      0x00\n        /* \"homework01/2/ReverseString.sol\":266:276  uint i = 0 */\n      swap1\n      pop\n        /* \"homework01/2/ReverseString.sol\":261:431  for (uint i = 0; i < strBytes.length; i++) {... */\n    tag_16:\n        /* \"homework01/2/ReverseString.sol\":282:290  strBytes */\n      dup2\n        /* \"homework01/2/ReverseString.sol\":282:297  strBytes.length */\n      mload\n        /* \"homework01/2/ReverseString.sol\":278:279  i */\n      dup2\n        /* \"homework01/2/ReverseString.sol\":278:297  i < strBytes.length */\n      lt\n        /* \"homework01/2/ReverseString.sol\":261:431  for (uint i = 0; i < strBytes.length; i++) {... */\n      iszero\n      tag_17\n      jumpi\n        /* \"homework01/2/ReverseString.sol\":366:370  temp */\n      dup3\n        /* \"homework01/2/ReverseString.sol\":372:380  strBytes */\n      dup3\n        /* \"homework01/2/ReverseString.sol\":403:404  i */\n      dup3\n        /* \"homework01/2/ReverseString.sol\":399:400  1 */\n      0x01\n        /* \"homework01/2/ReverseString.sol\":381:389  strBytes */\n      dup6\n        /* \"homework01/2/ReverseString.sol\":381:396  strBytes.length */\n      mload\n        /* \"homework01/2/ReverseString.sol\":381:400  strBytes.length - 1 */\n      tag_19\n      swap2\n      swap1\n      tag_20\n      jump\t// in\n    tag_19:\n        /* \"homework01/2/ReverseString.sol\":381:404  strBytes.length - 1 - i */\n      tag_21\n      swap2\n      swap1\n      tag_20\n      jump\t// in\n    tag_21:\n        /* \"homework01/2/ReverseString.sol\":372:405  strBytes[strBytes.length - 1 - i] */\n      dup2\n      mload\n      dup2\n      lt\n      tag_22\n      jumpi\n      tag_23\n      tag_24\n      jump\t// in\n    tag_23:\n    tag_22:\n      0x20\n      add\n      add\n      mload\n      0xf8\n      shr\n      0xf8\n      shl\n        /* \"homework01/2/ReverseString.sol\":349:406  abi.encodePacked(temp, strBytes[strBytes.length - 1 - i]) */\n      add(0x20, mload(0x40))\n      tag_25\n      swap3\n      swap2\n      swap1\n      tag_26\n      jump\t// in\n    tag_25:\n      mload(0x40)\n      0x20\n      dup2\n      dup4\n      sub\n      sub\n      dup2\n      mstore\n      swap1\n      0x40\n      mstore\n        /* \"homework01/2/ReverseString.sol\":318:420  temp = string(... */\n      swap3\n      pop\n        /* \"homework01/2/ReverseString.sol\":299:302  i++ */\n      dup1\n      dup1\n      0x01\n      add\n      swap2\n      pop\n      pop\n        /* \"homework01/2/ReverseString.sol\":261:431  for (uint i = 0; i < strBytes.length; i++) {... */\n      jump(tag_16)\n    tag_17:\n      pop\n        /* \"homework01/2/ReverseString.sol\":447:451  temp */\n      dup2\n        /* \"homework01/2/ReverseString.sol\":440:451  return temp */\n      swap3\n      pop\n      pop\n      pop\n        /* \"homework01/2/ReverseString.sol\":87:458  function reverseString(... */\n      swap2\n      swap1\n      pop\n      jump\t// out\n        /* \"homework01/2/ReverseString.sol\":464:813  function reverseString2(... */\n    tag_13:\n        /* \"homework01/2/ReverseString.sol\":542:555  string memory */\n      0x60\n        /* \"homework01/2/ReverseString.sol\":567:588  bytes memory strBytes */\n      0x00\n        /* \"homework01/2/ReverseString.sol\":597:600  str */\n      dup3\n        /* \"homework01/2/ReverseString.sol\":567:601  bytes memory strBytes = bytes(str) */\n      swap1\n      pop\n        /* \"homework01/2/ReverseString.sol\":611:628  bytes memory temp */\n      0x00\n        /* \"homework01/2/ReverseString.sol\":641:649  strBytes */\n      dup2\n        /* \"homework01/2/ReverseString.sol\":641:656  strBytes.length */\n      mload\n        /* \"homework01/2/ReverseString.sol\":631:657  new bytes(strBytes.length) */\n      0xffffffffffffffff\n      dup2\n      gt\n      iszero\n      tag_28\n      jumpi\n      tag_29\n      tag_30\n      jump\t// in\n    tag_29:\n    tag_28:\n      mload(0x40)\n      swap1\n      dup1\n      dup3\n      mstore\n      dup1\n      0x1f\n      add\n      not(0x1f)\n      and\n      0x20\n      add\n      dup3\n      add\n      0x40\n      mstore\n      dup1\n      iszero\n      tag_31\n      jumpi\n      dup2\n      0x20\n      add\n      0x01\n      dup3\n      mul\n      dup1\n      calldatasize\n      dup4\n      calldatacopy\n      dup1\n      dup3\n      add\n      swap2\n      pop\n      pop\n      swap1\n      pop\n    tag_31:\n      pop\n        /* \"homework01/2/ReverseString.sol\":611:657  bytes memory temp = new bytes(strBytes.length) */\n      swap1\n      pop\n        /* \"homework01/2/ReverseString.sol\":672:678  uint i */\n      0x00\n        /* \"homework01/2/ReverseString.sol\":681:682  0 */\n      0x00\n        /* \"homework01/2/ReverseString.sol\":672:682  uint i = 0 */\n      swap1\n      pop\n        /* \"homework01/2/ReverseString.sol\":667:778  for (uint i = 0; i < strBytes.length; i++) {... */\n    tag_32:\n        /* \"homework01/2/ReverseString.sol\":688:696  strBytes */\n      dup3\n        /* \"homework01/2/ReverseString.sol\":688:703  strBytes.length */\n      mload\n        /* \"homework01/2/ReverseString.sol\":684:685  i */\n      dup2\n        /* \"homework01/2/ReverseString.sol\":684:703  i < strBytes.length */\n      lt\n        /* \"homework01/2/ReverseString.sol\":667:778  for (uint i = 0; i < strBytes.length; i++) {... */\n      iszero\n      tag_33\n      jumpi\n        /* \"homework01/2/ReverseString.sol\":734:742  strBytes */\n      dup3\n        /* \"homework01/2/ReverseString.sol\":765:766  i */\n      dup2\n        /* \"homework01/2/ReverseString.sol\":761:762  1 */\n      0x01\n        /* \"homework01/2/ReverseString.sol\":743:751  strBytes */\n      dup6\n        /* \"homework01/2/ReverseString.sol\":743:758  strBytes.length */\n      mload\n        /* \"homework01/2/ReverseString.sol\":743:762  strBytes.length - 1 */\n      tag_35\n      swap2\n      swap1\n      tag_20\n      jump\t// in\n    tag_35:\n        /* \"homework01/2/ReverseString.sol\":743:766  strBytes.length - 1 - i */\n      tag_36\n      swap2\n      swap1\n      tag_20\n      jump\t// in\n    tag_36:\n        /* \"homework01/2/ReverseString.sol\":734:767  strBytes[strBytes.length - 1 - i] */\n      dup2\n      mload\n      dup2\n      lt\n      tag_37\n      jumpi\n      tag_38\n      tag_24\n      jump\t// in\n    tag_38:\n    tag_37:\n      0x20\n      add\n      add\n      mload\n      0xf8\n      shr\n      0xf8\n      shl\n        /* \"homework01/2/ReverseString.sol\":724:728  temp */\n      dup3\n        /* \"homework01/2/ReverseString.sol\":729:730  i */\n      dup3\n        /* \"homework01/2/ReverseString.sol\":724:731  temp[i] */\n      dup2\n      mload\n      dup2\n      lt\n      tag_39\n      jumpi\n      tag_40\n      tag_24\n      jump\t// in\n    tag_40:\n    tag_39:\n      0x20\n      add\n      add\n        /* \"homework01/2/ReverseString.sol\":724:767  temp[i] = strBytes[strBytes.length - 1 - i] */\n      swap1\n      not(0xffffffffffffffffffffffffffffffffffffffffffffffffffffffffffffff)\n      and\n      swap1\n      dup2\n      0x00\n      byte\n      swap1\n      mstore8\n      pop\n        /* \"homework01/2/ReverseString.sol\":705:708  i++ */\n      dup1\n      dup1\n      0x01\n      add\n      swap2\n      pop\n      pop\n        /* \"homework01/2/ReverseString.sol\":667:778  for (uint i = 0; i < strBytes.length; i++) {... */\n      jump(tag_32)\n    tag_33:\n      pop\n        /* \"homework01/2/ReverseString.sol\":801:805  temp */\n      dup1\n        /* \"homework01/2/ReverseString.sol\":787:806  return string(temp) */\n      swap3\n      pop\n      pop\n      pop\n        /* \"homework01/2/ReverseString.sol\":464:813  function reverseString2(... */\n      swap2\n      swap1\n      pop\n      jump\t// out\n        /* \"#utility.yul\":7:82   */\n    tag_41:\n        /* \"#utility.yul\":40:46   */\n      0x00\n        /* \"#utility.yul\":73:75   */\n      0x40\n        /* \"#utility.yul\":67:76   */\n      mload\n        /* \"#utility.yul\":57:76   */\n      swap1\n      pop\n        /* \"#utility.yul\":7:82   */\n      swap1\n      jump\t// out\n        /* \"#utility.yul\":88:205   */\n    tag_42:\n        /* \"#utility.yul\":197:198   */\n      0x00\n        /* \"#utility.yul\":194:195   */\n      0x00\n        /* \"#utility.yul\":187:199   */\n      revert\n        /* \"#utility.yul\":211:328   */\n    tag_43:\n        /* \"#utility.yul\":320:321   */\n      0x00\n        /* \"#utility.yul\":317:318   */\n      0x00\n        /* \"#utility.yul\":310:322   */\n      revert\n        /* \"#utility.yul\":334:451   */\n    tag_44:\n        /* \"#utility.yul\":443:444   */\n      0x00\n        /* \"#utility.yul\":440:441   */\n      0x00\n        /* \"#utility.yul\":433:445   */\n      revert\n        /* \"#utility.yul\":457:574   */\n    tag_45:\n        /* \"#utility.yul\":566:567   */\n      0x00\n        /* \"#utility.yul\":563:564   */\n      0x00\n        /* \"#utility.yul\":556:568   */\n      revert\n        /* \"#utility.yul\":580:682   */\n    tag_46:\n        /* \"#utility.yul\":621:627   */\n      0x00\n        /* \"#utility.yul\":672:674   */\n      0x1f\n        /* \"#utility.yul\":668:675   */\n      not\n        /* \"#utility.yul\":663:665   */\n      0x1f\n        /* \"#utility.yul\":656:661   */\n      dup4\n        /* \"#utility.yul\":652:666   */\n      add\n        /* \"#utility.yul\":648:676   */\n      and\n        /* \"#utility.yul\":638:676   */\n      swap1\n      pop\n        /* \"#utility.yul\":580:682   */\n      swap2\n      swap1\n      pop\n      jump\t// out\n        /* \"#utility.yul\":688:868   */\n    tag_30:\n        /* \"#utility.yul\":736:813   */\n      0x4e487b7100000000000000000000000000000000000000000000000000000000\n        /* \"#utility.yul\":733:734   */\n      0x00\n        /* \"#utility.yul\":726:814   */\n      mstore\n        /* \"#utility.yul\":833:837   */\n      0x41\n        /* \"#utility.yul\":830:831   */\n      0x04\n        /* \"#utility.yul\":823:838   */\n      mstore\n        /* \"#utility.yul\":857:861   */\n      0x24\n        /* \"#utility.yul\":854:855   */\n      0x00\n        /* \"#utility.yul\":847:862   */\n      revert\n        /* \"#utility.yul\":874:1155   */\n    tag_47:\n        /* \"#utility.yul\":957:984   */\n      tag_73\n        /* \"#utility.yul\":979:983   */\n      dup3\n        /* \"#utility.yul\":957:984   */\n      tag_46\n      jump\t// in\n    tag_73:\n        /* \"#utility.yul\":949:955   */\n      dup2\n        /* \"#utility.yul\":945:985   */\n      add\n        /* \"#utility.yul\":1087:1093   */\n      dup2\n        /* \"#utility.yul\":1075:1085   */\n      dup2\n        /* \"#utility.yul\":1072:1094   */\n      lt\n        /* \"#utility.yul\":1051:1069   */\n      0xffffffffffffffff\n        /* \"#utility.yul\":1039:1049   */\n      dup3\n        /* \"#utility.yul\":1036:1070   */\n      gt\n        /* \"#utility.yul\":1033:1095   */\n      or\n        /* \"#utility.yul\":1030:1118   */\n      iszero\n      tag_74\n      jumpi\n        /* \"#utility.yul\":1098:1116   */\n      tag_75\n      tag_30\n      jump\t// in\n    tag_75:\n        /* \"#utility.yul\":1030:1118   */\n    tag_74:\n        /* \"#utility.yul\":1138:1148   */\n      dup1\n        /* \"#utility.yul\":1134:1136   */\n      0x40\n        /* \"#utility.yul\":1127:1149   */\n      mstore\n        /* \"#utility.yul\":917:1155   */\n      pop\n        /* \"#utility.yul\":874:1155   */\n      pop\n      pop\n      jump\t// out\n        /* \"#utility.yul\":1161:1290   */\n    tag_48:\n        /* \"#utility.yul\":1195:1201   */\n      0x00\n        /* \"#utility.yul\":1222:1242   */\n      tag_77\n      tag_41\n      jump\t// in\n    tag_77:\n        /* \"#utility.yul\":1212:1242   */\n      swap1\n      pop\n        /* \"#utility.yul\":1251:1284   */\n      tag_78\n        /* \"#utility.yul\":1279:1283   */\n      dup3\n        /* \"#utility.yul\":1271:1277   */\n      dup3\n        /* \"#utility.yul\":1251:1284   */\n      tag_47\n      jump\t// in\n    tag_78:\n        /* \"#utility.yul\":1161:1290   */\n      swap2\n      swap1\n      pop\n      jump\t// out\n        /* \"#utility.yul\":1296:1604   */\n    tag_49:\n        /* \"#utility.yul\":1358:1362   */\n      0x00\n        /* \"#utility.yul\":1448:1466   */\n      0xffffffffffffffff\n        /* \"#utility.yul\":1440:1446   */\n      dup3\n        /* \"#utility.yul\":1437:1467   */\n      gt\n        /* \"#utility.yul\":1434:1490   */\n      iszero\n      tag_80\n      jumpi\n        /* \"#utility.yul\":1470:1488   */\n      tag_81\n      tag_30\n      jump\t// in\n    tag_81:\n        /* \"#utility.yul\":1434:1490   */\n    tag_80:\n        /* \"#utility.yul\":1508:1537   */\n      tag_82\n        /* \"#utility.yul\":1530:1536   */\n      dup3\n        /* \"#utility.yul\":1508:1537   */\n      tag_46\n      jump\t// in\n    tag_82:\n        /* \"#utility.yul\":1500:1537   */\n      swap1\n      pop\n        /* \"#utility.yul\":1592:1596   */\n      0x20\n        /* \"#utility.yul\":1586:1590   */\n      dup2\n        /* \"#utility.yul\":1582:1597   */\n      add\n        /* \"#utility.yul\":1574:1597   */\n      swap1\n      pop\n        /* \"#utility.yul\":1296:1604   */\n      swap2\n      swap1\n      pop\n      jump\t// out\n        /* \"#utility.yul\":1610:1758   */\n    tag_50:\n        /* \"#utility.yul\":1708:1714   */\n      dup3\n        /* \"#utility.yul\":1703:1706   */\n      dup2\n        /* \"#utility.yul\":1698:1701   */\n      dup4\n        /* \"#utility.yul\":1685:1715   */\n      calldatacopy\n        /* \"#utility.yul\":1749:1750   */\n      0x00\n        /* \"#utility.yul\":1740:1746   */\n      dup4\n        /* \"#utility.yul\":1735:1738   */\n      dup4\n        /* \"#utility.yul\":1731:1747   */\n      add\n        /* \"#utility.yul\":1724:1751   */\n      mstore\n        /* \"#utility.yul\":1610:1758   */\n      pop\n      pop\n      pop\n      jump\t// out\n        /* \"#utility.yul\":1764:2189   */\n    tag_51:\n        /* \"#utility.yul\":1842:1847   */\n      0x00\n        /* \"#utility.yul\":1867:1933   */\n      tag_85\n        /* \"#utility.yul\":1883:1932   */\n      tag_86\n        /* \"#utility.yul\":1925:1931   */\n      dup5\n        /* \"#utility.yul\":1883:1932   */\n      tag_49\n      jump\t// in\n    tag_86:\n        /* \"#utility.yul\":1867:1933   */\n      tag_48\n      jump\t// in\n    tag_85:\n        /* \"#utility.yul\":1858:1933   */\n      swap1\n      pop\n        /* \"#utility.yul\":1956:1962   */\n      dup3\n        /* \"#utility.yul\":1949:1954   */\n      dup2\n        /* \"#utility.yul\":1942:1963   */\n      mstore\n        /* \"#utility.yul\":1994:1998   */\n      0x20\n        /* \"#utility.yul\":1987:1992   */\n      dup2\n        /* \"#utility.yul\":1983:1999   */\n      add\n        /* \"#utility.yul\":2032:2035   */\n      dup5\n        /* \"#utility.yul\":2023:2029   */\n      dup5\n        /* \"#utility.yul\":2018:2021   */\n      dup5\n        /* \"#utility.yul\":2014:2030   */\n      add\n        /* \"#utility.yul\":2011:2036   */\n      gt\n        /* \"#utility.yul\":2008:2120   */\n      iszero\n      tag_87\n      jumpi\n        /* \"#utility.yul\":2039:2118   */\n      tag_88\n      tag_45\n      jump\t// in\n    tag_88:\n        /* \"#utility.yul\":2008:2120   */\n    tag_87:\n        /* \"#utility.yul\":2129:2183   */\n      tag_89\n        /* \"#utility.yul\":2176:2182   */\n      dup5\n        /* \"#utility.yul\":2171:2174   */\n      dup3\n        /* \"#utility.yul\":2166:2169   */\n      dup6\n        /* \"#utility.yul\":2129:2183   */\n      tag_50\n      jump\t// in\n    tag_89:\n        /* \"#utility.yul\":1848:2189   */\n      pop\n        /* \"#utility.yul\":1764:2189   */\n      swap4\n      swap3\n      pop\n      pop\n      pop\n      jump\t// out\n        /* \"#utility.yul\":2209:2549   */\n    tag_52:\n        /* \"#utility.yul\":2265:2270   */\n      0x00\n        /* \"#utility.yul\":2314:2317   */\n      dup3\n        /* \"#utility.yul\":2307:2311   */\n      0x1f\n        /* \"#utility.yul\":2299:2305   */\n      dup4\n        /* \"#utility.yul\":2295:2312   */\n      add\n        /* \"#utility.yul\":2291:2318   */\n      slt\n        /* \"#utility.yul\":2281:2403   */\n      tag_91\n      jumpi\n        /* \"#utility.yul\":2322:2401   */\n      tag_92\n      tag_44\n      jump\t// in\n    tag_92:\n        /* \"#utility.yul\":2281:2403   */\n    tag_91:\n        /* \"#utility.yul\":2439:2445   */\n      dup2\n        /* \"#utility.yul\":2426:2446   */\n      calldataload\n        /* \"#utility.yul\":2464:2543   */\n      tag_93\n        /* \"#utility.yul\":2539:2542   */\n      dup5\n        /* \"#utility.yul\":2531:2537   */\n      dup3\n        /* \"#utility.yul\":2524:2528   */\n      0x20\n        /* \"#utility.yul\":2516:2522   */\n      dup7\n        /* \"#utility.yul\":2512:2529   */\n      add\n        /* \"#utility.yul\":2464:2543   */\n      tag_51\n      jump\t// in\n    tag_93:\n        /* \"#utility.yul\":2455:2543   */\n      swap2\n      pop\n        /* \"#utility.yul\":2271:2549   */\n      pop\n        /* \"#utility.yul\":2209:2549   */\n      swap3\n      swap2\n      pop\n      pop\n      jump\t// out\n        /* \"#utility.yul\":2555:3064   */\n    tag_7:\n        /* \"#utility.yul\":2624:2630   */\n      0x00\n        /* \"#utility.yul\":2673:2675   */\n      0x20\n        /* \"#utility.yul\":2661:2670   */\n      dup3\n        /* \"#utility.yul\":2652:2659   */\n      dup5\n        /* \"#utility.yul\":2648:2671   */\n      sub\n        /* \"#utility.yul\":2644:2676   */\n      slt\n        /* \"#utility.yul\":2641:2760   */\n      iszero\n      tag_95\n      jumpi\n        /* \"#utility.yul\":2679:2758   */\n      tag_96\n      tag_42\n      jump\t// in\n    tag_96:\n        /* \"#utility.yul\":2641:2760   */\n    tag_95:\n        /* \"#utility.yul\":2827:2828   */\n      0x00\n        /* \"#utility.yul\":2816:2825   */\n      dup3\n        /* \"#utility.yul\":2812:2829   */\n      add\n        /* \"#utility.yul\":2799:2830   */\n      calldataload\n        /* \"#utility.yul\":2857:2875   */\n      0xffffffffffffffff\n        /* \"#utility.yul\":2849:2855   */\n      dup2\n        /* \"#utility.yul\":2846:2876   */\n      gt\n        /* \"#utility.yul\":2843:2960   */\n      iszero\n      tag_97\n      jumpi\n        /* \"#utility.yul\":2879:2958   */\n      tag_98\n      tag_43\n      jump\t// in\n    tag_98:\n        /* \"#utility.yul\":2843:2960   */\n    tag_97:\n        /* \"#utility.yul\":2984:3047   */\n      tag_99\n        /* \"#utility.yul\":3039:3046   */\n      dup5\n        /* \"#utility.yul\":3030:3036   */\n      dup3\n        /* \"#utility.yul\":3019:3028   */\n      dup6\n        /* \"#utility.yul\":3015:3037   */\n      add\n        /* \"#utility.yul\":2984:3047   */\n      tag_52\n      jump\t// in\n    tag_99:\n        /* \"#utility.yul\":2974:3047   */\n      swap2\n      pop\n        /* \"#utility.yul\":2770:3057   */\n      pop\n        /* \"#utility.yul\":2555:3064   */\n      swap3\n      swap2\n      pop\n      pop\n      jump\t// out\n        /* \"#utility.yul\":3070:3169   */\n    tag_53:\n        /* \"#utility.yul\":3122:3128   */\n      0x00\n        /* \"#utility.yul\":3156:3161   */\n      dup2\n        /* \"#utility.yul\":3150:3162   */\n      mload\n        /* \"#utility.yul\":3140:3162   */\n      swap1\n      pop\n        /* \"#utility.yul\":3070:3169   */\n      swap2\n      swap1\n      pop\n      jump\t// out\n        /* \"#utility.yul\":3175:3344   */\n    tag_54:\n        /* \"#utility.yul\":3259:3270   */\n      0x00\n        /* \"#utility.yul\":3293:3299   */\n      dup3\n        /* \"#utility.yul\":3288:3291   */\n      dup3\n        /* \"#utility.yul\":3281:3300   */\n      mstore\n        /* \"#utility.yul\":3333:3337   */\n      0x20\n        /* \"#utility.yul\":3328:3331   */\n      dup3\n        /* \"#utility.yul\":3324:3338   */\n      add\n        /* \"#utility.yul\":3309:3338   */\n      swap1\n      pop\n        /* \"#utility.yul\":3175:3344   */\n      swap3\n      swap2\n      pop\n      pop\n      jump\t// out\n        /* \"#utility.yul\":3350:3489   */\n    tag_55:\n        /* \"#utility.yul\":3439:3445   */\n      dup3\n        /* \"#utility.yul\":3434:3437   */\n      dup2\n        /* \"#utility.yul\":3429:3432   */\n      dup4\n        /* \"#utility.yul\":3423:3446   */\n      mcopy\n        /* \"#utility.yul\":3480:3481   */\n      0x00\n        /* \"#utility.yul\":3471:3477   */\n      dup4\n        /* \"#utility.yul\":3466:3469   */\n      dup4\n        /* \"#utility.yul\":3462:3478   */\n      add\n        /* \"#utility.yul\":3455:3482   */\n      mstore\n        /* \"#utility.yul\":3350:3489   */\n      pop\n      pop\n      pop\n      jump\t// out\n        /* \"#utility.yul\":3495:3872   */\n    tag_56:\n        /* \"#utility.yul\":3583:3586   */\n      0x00\n        /* \"#utility.yul\":3611:3650   */\n      tag_104\n        /* \"#utility.yul\":3644:3649   */\n      dup3\n        /* \"#utility.yul\":3611:3650   */\n      tag_53\n      jump\t// in\n    tag_104:\n        /* \"#utility.yul\":3666:3737   */\n      tag_105\n        /* \"#utility.yul\":3730:3736   */\n      dup2\n        /* \"#utility.yul\":3725:3728   */\n      dup6\n        /* \"#utility.yul\":3666:3737   */\n      tag_54\n      jump\t// in\n    tag_105:\n        /* \"#utility.yul\":3659:3737   */\n      swap4\n      pop\n        /* \"#utility.yul\":3746:3811   */\n      tag_106\n        /* \"#utility.yul\":3804:3810   */\n      dup2\n        /* \"#utility.yul\":3799:3802   */\n      dup6\n        /* \"#utility.yul\":3792:3796   */\n      0x20\n        /* \"#utility.yul\":3785:3790   */\n      dup7\n        /* \"#utility.yul\":3781:3797   */\n      add\n        /* \"#utility.yul\":3746:3811   */\n      tag_55\n      jump\t// in\n    tag_106:\n        /* \"#utility.yul\":3836:3865   */\n      tag_107\n        /* \"#utility.yul\":3858:3864   */\n      dup2\n        /* \"#utility.yul\":3836:3865   */\n      tag_46\n      jump\t// in\n    tag_107:\n        /* \"#utility.yul\":3831:3834   */\n      dup5\n        /* \"#utility.yul\":3827:3866   */\n      add\n        /* \"#utility.yul\":3820:3866   */\n      swap2\n      pop\n        /* \"#utility.yul\":3587:3872   */\n      pop\n        /* \"#utility.yul\":3495:3872   */\n      swap3\n      swap2\n      pop\n      pop\n      jump\t// out\n        /* \"#utility.yul\":3878:4191   */\n    tag_10:\n        /* \"#utility.yul\":3991:3995   */\n      0x00\n        /* \"#utility.yul\":4029:4031   */\n      0x20\n        /* \"#utility.yul\":4018:4027   */\n      dup3\n        /* \"#utility.yul\":4014:4032   */\n      add\n        /* \"#utility.yul\":4006:4032   */\n      swap1\n      pop\n        /* \"#utility.yul\":4078:4087   */\n      dup2\n        /* \"#utility.yul\":4072:4076   */\n      dup2\n        /* \"#utility.yul\":4068:4088   */\n      sub\n        /* \"#utility.yul\":4064:4065   */\n      0x00\n        /* \"#utility.yul\":4053:4062   */\n      dup4\n        /* \"#utility.yul\":4049:4066   */\n      add\n        /* \"#utility.yul\":4042:4089   */\n      mstore\n        /* \"#utility.yul\":4106:4184   */\n      tag_109\n        /* \"#utility.yul\":4179:4183   */\n      dup2\n        /* \"#utility.yul\":4170:4176   */\n      dup5\n        /* \"#utility.yul\":4106:4184   */\n      tag_56\n      jump\t// in\n    tag_109:\n        /* \"#utility.yul\":4098:4184   */\n      swap1\n      pop\n        /* \"#utility.yul\":3878:4191   */\n      swap3\n      swap2\n      pop\n      pop\n      jump\t// out\n        /* \"#utility.yul\":4197:4274   */\n    tag_57:\n        /* \"#utility.yul\":4234:4241   */\n      0x00\n        /* \"#utility.yul\":4263:4268   */\n      dup2\n        /* \"#utility.yul\":4252:4268   */\n      swap1\n      pop\n        /* \"#utility.yul\":4197:4274   */\n      swap2\n      swap1\n      pop\n      jump\t// out\n        /* \"#utility.yul\":4280:4460   */\n    tag_58:\n        /* \"#utility.yul\":4328:4405   */\n      0x4e487b7100000000000000000000000000000000000000000000000000000000\n        /* \"#utility.yul\":4325:4326   */\n      0x00\n        /* \"#utility.yul\":4318:4406   */\n      mstore\n        /* \"#utility.yul\":4425:4429   */\n      0x11\n        /* \"#utility.yul\":4422:4423   */\n      0x04\n        /* \"#utility.yul\":4415:4430   */\n      mstore\n        /* \"#utility.yul\":4449:4453   */\n      0x24\n        /* \"#utility.yul\":4446:4447   */\n      0x00\n        /* \"#utility.yul\":4439:4454   */\n      revert\n        /* \"#utility.yul\":4466:4660   */\n    tag_20:\n        /* \"#utility.yul\":4506:4510   */\n      0x00\n        /* \"#utility.yul\":4526:4546   */\n      tag_113\n        /* \"#utility.yul\":4544:4545   */\n      dup3\n        /* \"#utility.yul\":4526:4546   */\n      tag_57\n      jump\t// in\n    tag_113:\n        /* \"#utility.yul\":4521:4546   */\n      swap2\n      pop\n        /* \"#utility.yul\":4560:4580   */\n      tag_114\n        /* \"#utility.yul\":4578:4579   */\n      dup4\n        /* \"#utility.yul\":4560:4580   */\n      tag_57\n      jump\t// in\n    tag_114:\n        /* \"#utility.yul\":4555:4580   */\n      swap3\n      pop\n        /* \"#utility.yul\":4604:4605   */\n      dup3\n        /* \"#utility.yul\":4601:4602   */\n      dup3\n        /* \"#utility.yul\":4597:4606   */\n      sub\n        /* \"#utility.yul\":4589:4606   */\n      swap1\n      pop\n        /* \"#utility.yul\":4628:4629   */\n      dup2\n        /* \"#utility.yul\":4622:4626   */\n      dup2\n        /* \"#utility.yul\":4619:4630   */\n      gt\n        /* \"#utility.yul\":4616:4653   */\n      iszero\n      tag_115\n      jumpi\n        /* \"#utility.yul\":4633:4651   */\n      tag_116\n      tag_58\n      jump\t// in\n    tag_116:\n        /* \"#utility.yul\":4616:4653   */\n    tag_115:\n        /* \"#utility.yul\":4466:4660   */\n      swap3\n      swap2\n      pop\n      pop\n      jump\t// out\n        /* \"#utility.yul\":4666:4846   */\n    tag_24:\n        /* \"#utility.yul\":4714:4791   */\n      0x4e487b7100000000000000000000000000000000000000000000000000000000\n        /* \"#utility.yul\":4711:4712   */\n      0x00\n        /* \"#utility.yul\":4704:4792   */\n      mstore\n        /* \"#utility.yul\":4811:4815   */\n      0x32\n        /* \"#utility.yul\":4808:4809   */\n      0x04\n        /* \"#utility.yul\":4801:4816   */\n      mstore\n        /* \"#utility.yul\":4835:4839   */\n      0x24\n        /* \"#utility.yul\":4832:4833   */\n      0x00\n        /* \"#utility.yul\":4825:4840   */\n      revert\n        /* \"#utility.yul\":4852:5000   */\n    tag_59:\n        /* \"#utility.yul\":4954:4965   */\n      0x00\n        /* \"#utility.yul\":4991:4994   */\n      dup2\n        /* \"#utility.yul\":4976:4994   */\n      swap1\n      pop\n        /* \"#utility.yul\":4852:5000   */\n      swap3\n      swap2\n      pop\n      pop\n      jump\t// out\n        /* \"#utility.yul\":5006:5396   */\n    tag_60:\n        /* \"#utility.yul\":5112:5115   */\n      0x00\n        /* \"#utility.yul\":5140:5179   */\n      tag_120\n        /* \"#utility.yul\":5173:5178   */\n      dup3\n        /* \"#utility.yul\":5140:5179   */\n      tag_53\n      jump\t// in\n    tag_120:\n        /* \"#utility.yul\":5195:5284   */\n      tag_121\n        /* \"#utility.yul\":5277:5283   */\n      dup2\n        /* \"#utility.yul\":5272:5275   */\n      dup6\n        /* \"#utility.yul\":5195:5284   */\n      tag_59\n      jump\t// in\n    tag_121:\n        /* \"#utility.yul\":5188:5284   */\n      swap4\n      pop\n        /* \"#utility.yul\":5293:5358   */\n      tag_122\n        /* \"#utility.yul\":5351:5357   */\n      dup2\n        /* \"#utility.yul\":5346:5349   */\n      dup6\n        /* \"#utility.yul\":5339:5343   */\n      0x20\n        /* \"#utility.yul\":5332:5337   */\n      dup7\n        /* \"#utility.yul\":5328:5344   */\n      add\n        /* \"#utility.yul\":5293:5358   */\n      tag_55\n      jump\t// in\n    tag_122:\n        /* \"#utility.yul\":5383:5389   */\n      dup1\n        /* \"#utility.yul\":5378:5381   */\n      dup5\n        /* \"#utility.yul\":5374:5390   */\n      add\n        /* \"#utility.yul\":5367:5390   */\n      swap2\n      pop\n        /* \"#utility.yul\":5116:5396   */\n      pop\n        /* \"#utility.yul\":5006:5396   */\n      swap3\n      swap2\n      pop\n      pop\n      jump\t// out\n        /* \"#utility.yul\":5402:5551   */\n    tag_61:\n        /* \"#utility.yul\":5438:5445   */\n      0x00\n        /* \"#utility.yul\":5478:5544   */\n      0xff00000000000000000000000000000000000000000000000000000000000000\n        /* \"#utility.yul\":5471:5476   */\n      dup3\n        /* \"#utility.yul\":5467:5545   */\n      and\n        /* \"#utility.yul\":5456:5545   */\n      swap1\n      pop\n        /* \"#utility.yul\":5402:5551   */\n      swap2\n      swap1\n      pop\n      jump\t// out\n        /* \"#utility.yul\":5557:5635   */\n    tag_62:\n        /* \"#utility.yul\":5595:5602   */\n      0x00\n        /* \"#utility.yul\":5624:5629   */\n      dup2\n        /* \"#utility.yul\":5613:5629   */\n      swap1\n      pop\n        /* \"#utility.yul\":5557:5635   */\n      swap2\n      swap1\n      pop\n      jump\t// out\n        /* \"#utility.yul\":5641:5794   */\n    tag_63:\n        /* \"#utility.yul\":5744:5787   */\n      tag_126\n        /* \"#utility.yul\":5763:5786   */\n      tag_127\n        /* \"#utility.yul\":5780:5785   */\n      dup3\n        /* \"#utility.yul\":5763:5786   */\n      tag_61\n      jump\t// in\n    tag_127:\n        /* \"#utility.yul\":5744:5787   */\n      tag_62\n      jump\t// in\n    tag_126:\n        /* \"#utility.yul\":5739:5742   */\n      dup3\n        /* \"#utility.yul\":5732:5788   */\n      mstore\n        /* \"#utility.yul\":5641:5794   */\n      pop\n      pop\n      jump\t// out\n        /* \"#utility.yul\":5800:6211   */\n    tag_26:\n        /* \"#utility.yul\":5958:5961   */\n      0x00\n        /* \"#utility.yul\":5980:6075   */\n      tag_129\n        /* \"#utility.yul\":6071:6074   */\n      dup3\n        /* \"#utility.yul\":6062:6068   */\n      dup6\n        /* \"#utility.yul\":5980:6075   */\n      tag_60\n      jump\t// in\n    tag_129:\n        /* \"#utility.yul\":5973:6075   */\n      swap2\n      pop\n        /* \"#utility.yul\":6085:6158   */\n      tag_130\n        /* \"#utility.yul\":6154:6157   */\n      dup3\n        /* \"#utility.yul\":6145:6151   */\n      dup5\n        /* \"#utility.yul\":6085:6158   */\n      tag_63\n      jump\t// in\n    tag_130:\n        /* \"#utility.yul\":6183:6184   */\n      0x01\n        /* \"#utility.yul\":6178:6181   */\n      dup3\n        /* \"#utility.yul\":6174:6185   */\n      add\n        /* \"#utility.yul\":6167:6185   */\n      swap2\n      pop\n        /* \"#utility.yul\":6202:6205   */\n      dup2\n        /* \"#utility.yul\":6195:6205   */\n      swap1\n      pop\n        /* \"#utility.yul\":5800:6211   */\n      swap4\n      swap3\n      pop\n      pop\n      pop\n      jump\t// out\n\n    auxdata: 0xa2646970667358221220d4c77652959cb2a20ffb375c47c7b94bfb07d25ca8a6519186e80e3e7b9daff164736f6c63430008220033\n}\n",
				"bytecode": {
					"linkReferences": {},
					"object": "6080604052348015600e575f5ffd5b5061059e8061001c5f395ff3fe608060405234801561000f575f5ffd5b5060043610610034575f3560e01c80635729c21114610038578063ceb6a20014610068575b5f5ffd5b610052600480360381019061004d919061035f565b610098565b60405161005f9190610406565b60405180910390f35b610082600480360381019061007d919061035f565b61011e565b60405161008f9190610406565b60405180910390f35b6060805f8390505f5f90505b815181101561011357828282600185516100be919061045c565b6100c8919061045c565b815181106100d9576100d861048f565b5b602001015160f81c60f81b6040516020016100f5929190610541565b604051602081830303815290604052925080806001019150506100a4565b508192505050919050565b60605f8290505f815167ffffffffffffffff8111156101405761013f61023b565b5b6040519080825280601f01601f1916602001820160405280156101725781602001600182028036833780820191505090505b5090505f5f90505b825181101561020757828160018551610193919061045c565b61019d919061045c565b815181106101ae576101ad61048f565b5b602001015160f81c60f81b8282815181106101cc576101cb61048f565b5b60200101907effffffffffffffffffffffffffffffffffffffffffffffffffffffffffffff191690815f1a905350808060010191505061017a565b508092505050919050565b5f604051905090565b5f5ffd5b5f5ffd5b5f5ffd5b5f5ffd5b5f601f19601f8301169050919050565b7f4e487b71000000000000000000000000000000000000000000000000000000005f52604160045260245ffd5b6102718261022b565b810181811067ffffffffffffffff821117156102905761028f61023b565b5b80604052505050565b5f6102a2610212565b90506102ae8282610268565b919050565b5f67ffffffffffffffff8211156102cd576102cc61023b565b5b6102d68261022b565b9050602081019050919050565b828183375f83830152505050565b5f6103036102fe846102b3565b610299565b90508281526020810184848401111561031f5761031e610227565b5b61032a8482856102e3565b509392505050565b5f82601f83011261034657610345610223565b5b81356103568482602086016102f1565b91505092915050565b5f602082840312156103745761037361021b565b5b5f82013567ffffffffffffffff8111156103915761039061021f565b5b61039d84828501610332565b91505092915050565b5f81519050919050565b5f82825260208201905092915050565b8281835e5f83830152505050565b5f6103d8826103a6565b6103e281856103b0565b93506103f28185602086016103c0565b6103fb8161022b565b840191505092915050565b5f6020820190508181035f83015261041e81846103ce565b905092915050565b5f819050919050565b7f4e487b71000000000000000000000000000000000000000000000000000000005f52601160045260245ffd5b5f61046682610426565b915061047183610426565b92508282039050818111156104895761048861042f565b5b92915050565b7f4e487b71000000000000000000000000000000000000000000000000000000005f52603260045260245ffd5b5f81905092915050565b5f6104d0826103a6565b6104da81856104bc565b93506104ea8185602086016103c0565b80840191505092915050565b5f7fff0000000000000000000000000000000000000000000000000000000000000082169050919050565b5f819050919050565b61053b610536826104f6565b610521565b82525050565b5f61054c82856104c6565b9150610558828461052a565b600182019150819050939250505056fea2646970667358221220d4c77652959cb2a20ffb375c47c7b94bfb07d25ca8a6519186e80e3e7b9daff164736f6c63430008220033",
					"opcodes": "PUSH1 0x80 PUSH1 0x40 MSTORE CALLVALUE DUP1 ISZERO PUSH1 0xE JUMPI PUSH0 PUSH0 REVERT JUMPDEST POP PUSH2 0x59E DUP1 PUSH2 0x1C PUSH0 CODECOPY PUSH0 RETURN INVALID PUSH1 0x80 PUSH1 0x40 MSTORE CALLVALUE DUP1 ISZERO PUSH2 0xF JUMPI PUSH0 PUSH0 REVERT JUMPDEST POP PUSH1 0x4 CALLDATASIZE LT PUSH2 0x34 JUMPI PUSH0 CALLDATALOAD PUSH1 0xE0 SHR DUP1 PUSH4 0x5729C211 EQ PUSH2 0x38 JUMPI DUP1 PUSH4 0xCEB6A200 EQ PUSH2 0x68 JUMPI JUMPDEST PUSH0 PUSH0 REVERT JUMPDEST PUSH2 0x52 PUSH1 0x4 DUP1 CALLDATASIZE SUB DUP2 ADD SWAP1 PUSH2 0x4D SWAP2 SWAP1 PUSH2 0x35F JUMP JUMPDEST PUSH2 0x98 JUMP JUMPDEST PUSH1 0x40 MLOAD PUSH2 0x5F SWAP2 SWAP1 PUSH2 0x406 JUMP JUMPDEST PUSH1 0x40 MLOAD DUP1 SWAP2 SUB SWAP1 RETURN JUMPDEST PUSH2 0x82 PUSH1 0x4 DUP1 CALLDATASIZE SUB DUP2 ADD SWAP1 PUSH2 0x7D SWAP2 SWAP1 PUSH2 0x35F JUMP JUMPDEST PUSH2 0x11E JUMP JUMPDEST PUSH1 0x40 MLOAD PUSH2 0x8F SWAP2 SWAP1 PUSH2 0x406 JUMP JUMPDEST PUSH1 0x40 MLOAD DUP1 SWAP2 SUB SWAP1 RETURN JUMPDEST PUSH1 0x60 DUP1 PUSH0 DUP4 SWAP1 POP PUSH0 PUSH0 SWAP1 POP JUMPDEST DUP2 MLOAD DUP2 LT ISZERO PUSH2 0x113 JUMPI DUP3 DUP3 DUP3 PUSH1 0x1 DUP6 MLOAD PUSH2 0xBE SWAP2 SWAP1 PUSH2 0x45C JUMP JUMPDEST PUSH2 0xC8 SWAP2 SWAP1 PUSH2 0x45C JUMP JUMPDEST DUP2 MLOAD DUP2 LT PUSH2 0xD9 JUMPI PUSH2 0xD8 PUSH2 0x48F JUMP JUMPDEST JUMPDEST PUSH1 0x20 ADD ADD MLOAD PUSH1 0xF8 SHR PUSH1 0xF8 SHL PUSH1 0x40 MLOAD PUSH1 0x20 ADD PUSH2 0xF5 SWAP3 SWAP2 SWAP1 PUSH2 0x541 JUMP JUMPDEST PUSH1 0x40 MLOAD PUSH1 0x20 DUP2 DUP4 SUB SUB DUP2 MSTORE SWAP1 PUSH1 0x40 MSTORE SWAP3 POP DUP1 DUP1 PUSH1 0x1 ADD SWAP2 POP POP PUSH2 0xA4 JUMP JUMPDEST POP DUP2 SWAP3 POP POP POP SWAP2 SWAP1 POP JUMP JUMPDEST PUSH1 0x60 PUSH0 DUP3 SWAP1 POP PUSH0 DUP2 MLOAD PUSH8 0xFFFFFFFFFFFFFFFF DUP2 GT ISZERO PUSH2 0x140 JUMPI PUSH2 0x13F PUSH2 0x23B JUMP JUMPDEST JUMPDEST PUSH1 0x40 MLOAD SWAP1 DUP1 DUP3 MSTORE DUP1 PUSH1 0x1F ADD PUSH1 0x1F NOT AND PUSH1 0x20 ADD DUP3 ADD PUSH1 0x40 MSTORE DUP1 ISZERO PUSH2 0x172 JUMPI DUP2 PUSH1 0x20 ADD PUSH1 0x1 DUP3 MUL DUP1 CALLDATASIZE DUP4 CALLDATACOPY DUP1 DUP3 ADD SWAP2 POP POP SWAP1 POP JUMPDEST POP SWAP1 POP PUSH0 PUSH0 SWAP1 POP JUMPDEST DUP3 MLOAD DUP2 LT ISZERO PUSH2 0x207 JUMPI DUP3 DUP2 PUSH1 0x1 DUP6 MLOAD PUSH2 0x193 SWAP2 SWAP1 PUSH2 0x45C JUMP JUMPDEST PUSH2 0x19D SWAP2 SWAP1 PUSH2 0x45C JUMP JUMPDEST DUP2 MLOAD DUP2 LT PUSH2 0x1AE JUMPI PUSH2 0x1AD PUSH2 0x48F JUMP JUMPDEST JUMPDEST PUSH1 0x20 ADD ADD MLOAD PUSH1 0xF8 SHR PUSH1 0xF8 SHL DUP3 DUP3 DUP2 MLOAD DUP2 LT PUSH2 0x1CC JUMPI PUSH2 0x1CB PUSH2 0x48F JUMP JUMPDEST JUMPDEST PUSH1 0x20 ADD ADD SWAP1 PUSH31 0xFFFFFFFFFFFFFFFFFFFFFFFFFFFFFFFFFFFFFFFFFFFFFFFFFFFFFFFFFFFFFF NOT AND SWAP1 DUP2 PUSH0 BYTE SWAP1 MSTORE8 POP DUP1 DUP1 PUSH1 0x1 ADD SWAP2 POP POP PUSH2 0x17A JUMP JUMPDEST POP DUP1 SWAP3 POP POP POP SWAP2 SWAP1 POP JUMP JUMPDEST PUSH0 PUSH1 0x40 MLOAD SWAP1 POP SWAP1 JUMP JUMPDEST PUSH0 PUSH0 REVERT JUMPDEST PUSH0 PUSH0 REVERT JUMPDEST PUSH0 PUSH0 REVERT JUMPDEST PUSH0 PUSH0 REVERT JUMPDEST PUSH0 PUSH1 0x1F NOT PUSH1 0x1F DUP4 ADD AND SWAP1 POP SWAP2 SWAP1 POP JUMP JUMPDEST PUSH32 0x4E487B7100000000000000000000000000000000000000000000000000000000 PUSH0 MSTORE PUSH1 0x41 PUSH1 0x4 MSTORE PUSH1 0x24 PUSH0 REVERT JUMPDEST PUSH2 0x271 DUP3 PUSH2 0x22B JUMP JUMPDEST DUP2 ADD DUP2 DUP2 LT PUSH8 0xFFFFFFFFFFFFFFFF DUP3 GT OR ISZERO PUSH2 0x290 JUMPI PUSH2 0x28F PUSH2 0x23B JUMP JUMPDEST JUMPDEST DUP1 PUSH1 0x40 MSTORE POP POP POP JUMP JUMPDEST PUSH0 PUSH2 0x2A2 PUSH2 0x212 JUMP JUMPDEST SWAP1 POP PUSH2 0x2AE DUP3 DUP3 PUSH2 0x268 JUMP JUMPDEST SWAP2 SWAP1 POP JUMP JUMPDEST PUSH0 PUSH8 0xFFFFFFFFFFFFFFFF DUP3 GT ISZERO PUSH2 0x2CD JUMPI PUSH2 0x2CC PUSH2 0x23B JUMP JUMPDEST JUMPDEST PUSH2 0x2D6 DUP3 PUSH2 0x22B JUMP JUMPDEST SWAP1 POP PUSH1 0x20 DUP2 ADD SWAP1 POP SWAP2 SWAP1 POP JUMP JUMPDEST DUP3 DUP2 DUP4 CALLDATACOPY PUSH0 DUP4 DUP4 ADD MSTORE POP POP POP JUMP JUMPDEST PUSH0 PUSH2 0x303 PUSH2 0x2FE DUP5 PUSH2 0x2B3 JUMP JUMPDEST PUSH2 0x299 JUMP JUMPDEST SWAP1 POP DUP3 DUP2 MSTORE PUSH1 0x20 DUP2 ADD DUP5 DUP5 DUP5 ADD GT ISZERO PUSH2 0x31F JUMPI PUSH2 0x31E PUSH2 0x227 JUMP JUMPDEST JUMPDEST PUSH2 0x32A DUP5 DUP3 DUP6 PUSH2 0x2E3 JUMP JUMPDEST POP SWAP4 SWAP3 POP POP POP JUMP JUMPDEST PUSH0 DUP3 PUSH1 0x1F DUP4 ADD SLT PUSH2 0x346 JUMPI PUSH2 0x345 PUSH2 0x223 JUMP JUMPDEST JUMPDEST DUP2 CALLDATALOAD PUSH2 0x356 DUP5 DUP3 PUSH1 0x20 DUP7 ADD PUSH2 0x2F1 JUMP JUMPDEST SWAP2 POP POP SWAP3 SWAP2 POP POP JUMP JUMPDEST PUSH0 PUSH1 0x20 DUP3 DUP5 SUB SLT ISZERO PUSH2 0x374 JUMPI PUSH2 0x373 PUSH2 0x21B JUMP JUMPDEST JUMPDEST PUSH0 DUP3 ADD CALLDATALOAD PUSH8 0xFFFFFFFFFFFFFFFF DUP2 GT ISZERO PUSH2 0x391 JUMPI PUSH2 0x390 PUSH2 0x21F JUMP JUMPDEST JUMPDEST PUSH2 0x39D DUP5 DUP3 DUP6 ADD PUSH2 0x332 JUMP JUMPDEST SWAP2 POP POP SWAP3 SWAP2 POP POP JUMP JUMPDEST PUSH0 DUP2 MLOAD SWAP1 POP SWAP2 SWAP1 POP JUMP JUMPDEST PUSH0 DUP3 DUP3 MSTORE PUSH1 0x20 DUP3 ADD SWAP1 POP SWAP3 SWAP2 POP POP JUMP JUMPDEST DUP3 DUP2 DUP4 MCOPY PUSH0 DUP4 DUP4 ADD MSTORE POP POP POP JUMP JUMPDEST PUSH0 PUSH2 0x3D8 DUP3 PUSH2 0x3A6 JUMP JUMPDEST PUSH2 0x3E2 DUP2 DUP6 PUSH2 0x3B0 JUMP JUMPDEST SWAP4 POP PUSH2 0x3F2 DUP2 DUP6 PUSH1 0x20 DUP7 ADD PUSH2 0x3C0 JUMP JUMPDEST PUSH2 0x3FB DUP2 PUSH2 0x22B JUMP JUMPDEST DUP5 ADD SWAP2 POP POP SWAP3 SWAP2 POP POP JUMP JUMPDEST PUSH0 PUSH1 0x20 DUP3 ADD SWAP1 POP DUP2 DUP2 SUB PUSH0 DUP4 ADD MSTORE PUSH2 0x41E DUP2 DUP5 PUSH2 0x3CE JUMP JUMPDEST SWAP1 POP SWAP3 SWAP2 POP POP JUMP JUMPDEST PUSH0 DUP2 SWAP1 POP SWAP2 SWAP1 POP JUMP JUMPDEST PUSH32 0x4E487B7100000000000000000000000000000000000000000000000000000000 PUSH0 MSTORE PUSH1 0x11 PUSH1 0x4 MSTORE PUSH1 0x24 PUSH0 REVERT JUMPDEST PUSH0 PUSH2 0x466 DUP3 PUSH2 0x426 JUMP JUMPDEST SWAP2 POP PUSH2 0x471 DUP4 PUSH2 0x426 JUMP JUMPDEST SWAP3 POP DUP3 DUP3 SUB SWAP1 POP DUP2 DUP2 GT ISZERO PUSH2 0x489 JUMPI PUSH2 0x488 PUSH2 0x42F JUMP JUMPDEST JUMPDEST SWAP3 SWAP2 POP POP JUMP JUMPDEST PUSH32 0x4E487B7100000000000000000000000000000000000000000000000000000000 PUSH0 MSTORE PUSH1 0x32 PUSH1 0x4 MSTORE PUSH1 0x24 PUSH0 REVERT JUMPDEST PUSH0 DUP2 SWAP1 POP SWAP3 SWAP2 POP POP JUMP JUMPDEST PUSH0 PUSH2 0x4D0 DUP3 PUSH2 0x3A6 JUMP JUMPDEST PUSH2 0x4DA DUP2 DUP6 PUSH2 0x4BC JUMP JUMPDEST SWAP4 POP PUSH2 0x4EA DUP2 DUP6 PUSH1 0x20 DUP7 ADD PUSH2 0x3C0 JUMP JUMPDEST DUP1 DUP5 ADD SWAP2 POP POP SWAP3 SWAP2 POP POP JUMP JUMPDEST PUSH0 PUSH32 0xFF00000000000000000000000000000000000000000000000000000000000000 DUP3 AND SWAP1 POP SWAP2 SWAP1 POP JUMP JUMPDEST PUSH0 DUP2 SWAP1 POP SWAP2 SWAP1 POP JUMP JUMPDEST PUSH2 0x53B PUSH2 0x536 DUP3 PUSH2 0x4F6 JUMP JUMPDEST PUSH2 0x521 JUMP JUMPDEST DUP3 MSTORE POP POP JUMP JUMPDEST PUSH0 PUSH2 0x54C DUP3 DUP6 PUSH2 0x4C6 JUMP JUMPDEST SWAP2 POP PUSH2 0x558 DUP3 DUP5 PUSH2 0x52A JUMP JUMPDEST PUSH1 0x1 DUP3 ADD SWAP2 POP DUP2 SWAP1 POP SWAP4 SWAP3 POP POP POP JUMP INVALID LOG2 PUSH5 0x6970667358 0x22 SLT KECCAK256 0xD4 0xC7 PUSH23 0x52959CB2A20FFB375C47C7B94BFB07D25CA8A6519186E8 0xE RETURNDATACOPY PUSH28 0x9DAFF164736F6C634300082200330000000000000000000000000000 "
				},
				"gasEstimates": {
					"creation": {
						"codeDepositCost": "287600",
						"executionCost": "322",
						"totalCost": "287922"
					},
					"external": {
						"reverseString(string)": "infinite",
						"reverseString2(string)": "infinite"
					}
				},
				"methodIdentifiers": {
					"reverseString(string)": "5729c211",
					"reverseString2(string)": "ceb6a200"
				}
			},
			"storageLayout": {
				"storage": [],
				"types": null
			},
			"userdoc": {
				"kind": "user",
				"methods": {},
				"version": 1
			}
		}
	}
}