{
	"test/test.sol": {
		"HelloWorld": {
			"abi": [
				{
					"inputs": [
						{
							"internalType": "string",
							"name": "phrase",
							"type": "string"
						},
						{
							"internalType": "uint256",
							"name": "_id",
							"type": "uint256"
						}
					],
					"name": "addInfo",
					"outputs": [],
					"stateMutability": "nonpayable",
					"type": "function"
				},
				{
					"inputs": [
						{
							"internalType": "string",
							"name": "phrase",
							"type": "string"
						},
						{
							"internalType": "uint256",
							"name": "_id",
							"type": "uint256"
						}
					],
					"name": "addInfoMapping",
					"outputs": [],
					"stateMutability": "nonpayable",
					"type": "function"
				},
				{
					"inputs": [
						{
							"internalType": "uint256",
							"name": "_id",
							"type": "uint256"
						}
					],
					"name": "getInfo",
					"outputs": [
						{
							"internalType": "string",
							"name": "",
							"type": "string"
						}
					],
					"stateMutability": "view",
					"type": "function"
				},
				{
					"inputs": [
						{
							"internalType": "uint256",
							"name": "_id",
							"type": "uint256"
						}
					],
					"name": "getInfoMapping",
					"outputs": [
						{
							"internalType": "string",
							"name": "",
							"type": "string"
						}
					],
					"stateMutability": "view",
					"type": "function"
				},
				{
					"inputs": [
						{
							"internalType": "uint256",
							"name": "",
							"type": "uint256"
						}
					],
					"name": "infoList",
					"outputs": [
						{
							"internalType": "string",
							"name": "phrase",
							"type": "string"
						},
						{
							"internalType": "uint256",
							"name": "id",
							"type": "uint256"
						},
						{
							"internalType": "address",
							"name": "sender",
							"type": "address"
						}
					],
					"stateMutability": "view",
					"type": "function"
				},
				{
					"inputs": [],
					"name": "sayHello",
					"outputs": [
						{
							"internalType": "string",
							"name": "",
							"type": "string"
						}
					],
					"stateMutability": "view",
					"type": "function"
				},
				{
					"inputs": [],
					"name": "sayHelloAddInfo",
					"outputs": [
						{
							"internalType": "string",
							"name": "",
							"type": "string"
						}
					],
					"stateMutability": "view",
					"type": "function"
				},
				{
					"inputs": [
						{
							"internalType": "string",
							"name": "newStr",
							"type": "string"
						}
					],
					"name": "setHello",
					"outputs": [],
					"stateMutability": "nonpayable",
					"type": "function"
				}
			],
			"devdoc": {
				"kind": "dev",
				"methods": {},
				"version": 1
			},
			"evm": {
				"assembly": "    /* \"test/test.sol\":58:2152  contract HelloWorld {... */\n  mstore(0x40, 0x80)\n    /* \"test/test.sol\":126:131  false */\n  0x00\n    /* \"test/test.sol\":109:131  bool boolVar_1 = false */\n  0x00\n  exp(0x0100, 0x00)\n  dup2\n  sload\n  dup2\n  0xff\n  mul\n  not\n  and\n  swap1\n  dup4\n  iszero\n  iszero\n  mul\n  or\n  swap1\n  sstore\n  pop\n    /* \"test/test.sol\":154:158  true */\n  0x01\n    /* \"test/test.sol\":137:158  bool boolVar_2 = true */\n  0x00\n  exp(0x0100, 0x01)\n  dup2\n  sload\n  dup2\n  0xff\n  mul\n  not\n  and\n  swap1\n  dup4\n  iszero\n  iszero\n  mul\n  or\n  swap1\n  sstore\n  pop\n    /* \"test/test.sol\":183:184  1 */\n  0x01\n    /* \"test/test.sol\":165:184  uint256 uintVar = 1 */\n  dup1\n  sstore\n    /* \"test/test.sol\":206:208  -1 */\n  0xffffffffffffffffffffffffffffffffffffffffffffffffffffffffffffffff\n    /* \"test/test.sol\":190:208  int256 intVar = -1 */\n  0x02\n  sstore\n    /* \"test/test.sol\":215:247  bytes23 bytesVar = \"Hello world\" */\n  0x48656c6c6f20776f726c64000000000000000000000000000000000000000000\n  0x03\n  exp(0x0100, 0x00)\n  dup2\n  sload\n  dup2\n  0xffffffffffffffffffffffffffffffffffffffffffffff\n  mul\n  not\n  and\n  swap1\n  dup4\n  0x48\n  shr\n  mul\n  or\n  swap1\n  sstore\n  pop\n    /* \"test/test.sol\":253:284  string stringVar = \"Hello word\" */\n  mload(0x40)\n  dup1\n  0x40\n  add\n  0x40\n  mstore\n  dup1\n  0x0a\n  dup2\n  mstore\n  0x20\n  add\n  0x48656c6c6f20776f726400000000000000000000000000000000000000000000\n  dup2\n  mstore\n  pop\n  0x04\n  swap1\n  dup2\n  tag_1\n  swap2\n  swap1\n  tag_2\n  jump\t// in\ntag_1:\n  pop\n    /* \"test/test.sol\":312:354  0x3465b9ED06fd366C23481404601d4dA1B4b679B5 */\n  0x3465b9ed06fd366c23481404601d4da1b4b679b5\n    /* \"test/test.sol\":291:354  address addressVar = 0x3465b9ED06fd366C23481404601d4dA1B4b679B5 */\n  0x05\n  exp(0x0100, 0x00)\n  dup2\n  sload\n  dup2\n  0xffffffffffffffffffffffffffffffffffffffff\n  mul\n  not\n  and\n  swap1\n  dup4\n  0xffffffffffffffffffffffffffffffffffffffff\n  and\n  mul\n  or\n  swap1\n  sstore\n  pop\n    /* \"test/test.sol\":58:2152  contract HelloWorld {... */\n  callvalue\n  dup1\n  iszero\n  tag_3\n  jumpi\n  revert(0x00, 0x00)\ntag_3:\n  pop\n  jump(tag_4)\n    /* \"#utility.yul\":7:106   */\ntag_5:\n    /* \"#utility.yul\":59:65   */\n  0x00\n    /* \"#utility.yul\":93:98   */\n  dup2\n    /* \"#utility.yul\":87:99   */\n  mload\n    /* \"#utility.yul\":77:99   */\n  swap1\n  pop\n    /* \"#utility.yul\":7:106   */\n  swap2\n  swap1\n  pop\n  jump\t// out\n    /* \"#utility.yul\":112:292   */\ntag_6:\n    /* \"#utility.yul\":160:237   */\n  0x4e487b7100000000000000000000000000000000000000000000000000000000\n    /* \"#utility.yul\":157:158   */\n  0x00\n    /* \"#utility.yul\":150:238   */\n  mstore\n    /* \"#utility.yul\":257:261   */\n  0x41\n    /* \"#utility.yul\":254:255   */\n  0x04\n    /* \"#utility.yul\":247:262   */\n  mstore\n    /* \"#utility.yul\":281:285   */\n  0x24\n    /* \"#utility.yul\":278:279   */\n  0x00\n    /* \"#utility.yul\":271:286   */\n  revert\n    /* \"#utility.yul\":298:478   */\ntag_7:\n    /* \"#utility.yul\":346:423   */\n  0x4e487b7100000000000000000000000000000000000000000000000000000000\n    /* \"#utility.yul\":343:344   */\n  0x00\n    /* \"#utility.yul\":336:424   */\n  mstore\n    /* \"#utility.yul\":443:447   */\n  0x22\n    /* \"#utility.yul\":440:441   */\n  0x04\n    /* \"#utility.yul\":433:448   */\n  mstore\n    /* \"#utility.yul\":467:471   */\n  0x24\n    /* \"#utility.yul\":464:465   */\n  0x00\n    /* \"#utility.yul\":457:472   */\n  revert\n    /* \"#utility.yul\":484:804   */\ntag_8:\n    /* \"#utility.yul\":528:534   */\n  0x00\n    /* \"#utility.yul\":565:566   */\n  0x02\n    /* \"#utility.yul\":559:563   */\n  dup3\n    /* \"#utility.yul\":555:567   */\n  div\n    /* \"#utility.yul\":545:567   */\n  swap1\n  pop\n    /* \"#utility.yul\":612:613   */\n  0x01\n    /* \"#utility.yul\":606:610   */\n  dup3\n    /* \"#utility.yul\":602:614   */\n  and\n    /* \"#utility.yul\":633:651   */\n  dup1\n    /* \"#utility.yul\":623:704   */\n  tag_30\n  jumpi\n    /* \"#utility.yul\":689:693   */\n  0x7f\n    /* \"#utility.yul\":681:687   */\n  dup3\n    /* \"#utility.yul\":677:694   */\n  and\n    /* \"#utility.yul\":667:694   */\n  swap2\n  pop\n    /* \"#utility.yul\":623:704   */\ntag_30:\n    /* \"#utility.yul\":751:753   */\n  0x20\n    /* \"#utility.yul\":743:749   */\n  dup3\n    /* \"#utility.yul\":740:754   */\n  lt\n    /* \"#utility.yul\":720:738   */\n  dup2\n    /* \"#utility.yul\":717:755   */\n  sub\n    /* \"#utility.yul\":714:798   */\n  tag_31\n  jumpi\n    /* \"#utility.yul\":770:788   */\n  tag_32\n  tag_7\n  jump\t// in\ntag_32:\n    /* \"#utility.yul\":714:798   */\ntag_31:\n    /* \"#utility.yul\":535:804   */\n  pop\n    /* \"#utility.yul\":484:804   */\n  swap2\n  swap1\n  pop\n  jump\t// out\n    /* \"#utility.yul\":810:951   */\ntag_9:\n    /* \"#utility.yul\":859:863   */\n  0x00\n    /* \"#utility.yul\":882:885   */\n  dup2\n    /* \"#utility.yul\":874:885   */\n  swap1\n  pop\n    /* \"#utility.yul\":905:908   */\n  dup2\n    /* \"#utility.yul\":902:903   */\n  0x00\n    /* \"#utility.yul\":895:909   */\n  mstore\n    /* \"#utility.yul\":939:943   */\n  0x20\n    /* \"#utility.yul\":936:937   */\n  0x00\n    /* \"#utility.yul\":926:944   */\n  keccak256\n    /* \"#utility.yul\":918:944   */\n  swap1\n  pop\n    /* \"#utility.yul\":810:951   */\n  swap2\n  swap1\n  pop\n  jump\t// out\n    /* \"#utility.yul\":957:1050   */\ntag_10:\n    /* \"#utility.yul\":994:1000   */\n  0x00\n    /* \"#utility.yul\":1041:1043   */\n  0x20\n    /* \"#utility.yul\":1036:1038   */\n  0x1f\n    /* \"#utility.yul\":1029:1034   */\n  dup4\n    /* \"#utility.yul\":1025:1039   */\n  add\n    /* \"#utility.yul\":1021:1044   */\n  div\n    /* \"#utility.yul\":1011:1044   */\n  swap1\n  pop\n    /* \"#utility.yul\":957:1050   */\n  swap2\n  swap1\n  pop\n  jump\t// out\n    /* \"#utility.yul\":1056:1163   */\ntag_11:\n    /* \"#utility.yul\":1100:1108   */\n  0x00\n    /* \"#utility.yul\":1150:1155   */\n  dup3\n    /* \"#utility.yul\":1144:1148   */\n  dup3\n    /* \"#utility.yul\":1140:1156   */\n  shl\n    /* \"#utility.yul\":1119:1156   */\n  swap1\n  pop\n    /* \"#utility.yul\":1056:1163   */\n  swap3\n  swap2\n  pop\n  pop\n  jump\t// out\n    /* \"#utility.yul\":1169:1562   */\ntag_12:\n    /* \"#utility.yul\":1238:1244   */\n  0x00\n    /* \"#utility.yul\":1288:1289   */\n  0x08\n    /* \"#utility.yul\":1276:1286   */\n  dup4\n    /* \"#utility.yul\":1272:1290   */\n  mul\n    /* \"#utility.yul\":1311:1408   */\n  tag_37\n    /* \"#utility.yul\":1341:1407   */\n  0xffffffffffffffffffffffffffffffffffffffffffffffffffffffffffffffff\n    /* \"#utility.yul\":1330:1339   */\n  dup3\n    /* \"#utility.yul\":1311:1408   */\n  tag_11\n  jump\t// in\ntag_37:\n    /* \"#utility.yul\":1429:1468   */\n  tag_38\n    /* \"#utility.yul\":1459:1467   */\n  dup7\n    /* \"#utility.yul\":1448:1457   */\n  dup4\n    /* \"#utility.yul\":1429:1468   */\n  tag_11\n  jump\t// in\ntag_38:\n    /* \"#utility.yul\":1417:1468   */\n  swap6\n  pop\n    /* \"#utility.yul\":1501:1505   */\n  dup1\n    /* \"#utility.yul\":1497:1506   */\n  not\n    /* \"#utility.yul\":1490:1495   */\n  dup5\n    /* \"#utility.yul\":1486:1507   */\n  and\n    /* \"#utility.yul\":1477:1507   */\n  swap4\n  pop\n    /* \"#utility.yul\":1550:1554   */\n  dup1\n    /* \"#utility.yul\":1540:1548   */\n  dup7\n    /* \"#utility.yul\":1536:1555   */\n  and\n    /* \"#utility.yul\":1529:1534   */\n  dup5\n    /* \"#utility.yul\":1526:1556   */\n  or\n    /* \"#utility.yul\":1516:1556   */\n  swap3\n  pop\n    /* \"#utility.yul\":1245:1562   */\n  pop\n  pop\n    /* \"#utility.yul\":1169:1562   */\n  swap4\n  swap3\n  pop\n  pop\n  pop\n  jump\t// out\n    /* \"#utility.yul\":1568:1645   */\ntag_13:\n    /* \"#utility.yul\":1605:1612   */\n  0x00\n    /* \"#utility.yul\":1634:1639   */\n  dup2\n    /* \"#utility.yul\":1623:1639   */\n  swap1\n  pop\n    /* \"#utility.yul\":1568:1645   */\n  swap2\n  swap1\n  pop\n  jump\t// out\n    /* \"#utility.yul\":1651:1711   */\ntag_14:\n    /* \"#utility.yul\":1679:1682   */\n  0x00\n    /* \"#utility.yul\":1700:1705   */\n  dup2\n    /* \"#utility.yul\":1693:1705   */\n  swap1\n  pop\n    /* \"#utility.yul\":1651:1711   */\n  swap2\n  swap1\n  pop\n  jump\t// out\n    /* \"#utility.yul\":1717:1859   */\ntag_15:\n    /* \"#utility.yul\":1767:1776   */\n  0x00\n    /* \"#utility.yul\":1800:1853   */\n  tag_42\n    /* \"#utility.yul\":1818:1852   */\n  tag_43\n    /* \"#utility.yul\":1827:1851   */\n  tag_44\n    /* \"#utility.yul\":1845:1850   */\n  dup5\n    /* \"#utility.yul\":1827:1851   */\n  tag_13\n  jump\t// in\ntag_44:\n    /* \"#utility.yul\":1818:1852   */\n  tag_14\n  jump\t// in\ntag_43:\n    /* \"#utility.yul\":1800:1853   */\n  tag_13\n  jump\t// in\ntag_42:\n    /* \"#utility.yul\":1787:1853   */\n  swap1\n  pop\n    /* \"#utility.yul\":1717:1859   */\n  swap2\n  swap1\n  pop\n  jump\t// out\n    /* \"#utility.yul\":1865:1940   */\ntag_16:\n    /* \"#utility.yul\":1908:1911   */\n  0x00\n    /* \"#utility.yul\":1929:1934   */\n  dup2\n    /* \"#utility.yul\":1922:1934   */\n  swap1\n  pop\n    /* \"#utility.yul\":1865:1940   */\n  swap2\n  swap1\n  pop\n  jump\t// out\n    /* \"#utility.yul\":1946:2215   */\ntag_17:\n    /* \"#utility.yul\":2056:2095   */\n  tag_47\n    /* \"#utility.yul\":2087:2094   */\n  dup4\n    /* \"#utility.yul\":2056:2095   */\n  tag_15\n  jump\t// in\ntag_47:\n    /* \"#utility.yul\":2117:2208   */\n  tag_48\n    /* \"#utility.yul\":2166:2207   */\n  tag_49\n    /* \"#utility.yul\":2190:2206   */\n  dup3\n    /* \"#utility.yul\":2166:2207   */\n  tag_16\n  jump\t// in\ntag_49:\n    /* \"#utility.yul\":2158:2164   */\n  dup5\n    /* \"#utility.yul\":2151:2155   */\n  dup5\n    /* \"#utility.yul\":2145:2156   */\n  sload\n    /* \"#utility.yul\":2117:2208   */\n  tag_12\n  jump\t// in\ntag_48:\n    /* \"#utility.yul\":2111:2115   */\n  dup3\n    /* \"#utility.yul\":2104:2209   */\n  sstore\n    /* \"#utility.yul\":2022:2215   */\n  pop\n    /* \"#utility.yul\":1946:2215   */\n  pop\n  pop\n  pop\n  jump\t// out\n    /* \"#utility.yul\":2221:2294   */\ntag_18:\n    /* \"#utility.yul\":2266:2269   */\n  0x00\n    /* \"#utility.yul\":2287:2288   */\n  0x00\n    /* \"#utility.yul\":2280:2288   */\n  swap1\n  pop\n    /* \"#utility.yul\":2221:2294   */\n  swap1\n  jump\t// out\n    /* \"#utility.yul\":2300:2489   */\ntag_19:\n    /* \"#utility.yul\":2377:2409   */\n  tag_52\n  tag_18\n  jump\t// in\ntag_52:\n    /* \"#utility.yul\":2418:2483   */\n  tag_53\n    /* \"#utility.yul\":2476:2482   */\n  dup2\n    /* \"#utility.yul\":2468:2474   */\n  dup5\n    /* \"#utility.yul\":2462:2466   */\n  dup5\n    /* \"#utility.yul\":2418:2483   */\n  tag_17\n  jump\t// in\ntag_53:\n    /* \"#utility.yul\":2353:2489   */\n  pop\n    /* \"#utility.yul\":2300:2489   */\n  pop\n  pop\n  jump\t// out\n    /* \"#utility.yul\":2495:2709   */\ntag_20:\n    /* \"#utility.yul\":2580:2581   */\n  0x00\n    /* \"#utility.yul\":2565:2703   */\ntag_55:\n    /* \"#utility.yul\":2590:2599   */\n  dup3\n    /* \"#utility.yul\":2587:2588   */\n  dup2\n    /* \"#utility.yul\":2584:2600   */\n  lt\n    /* \"#utility.yul\":2565:2703   */\n  iszero\n  tag_57\n  jumpi\n    /* \"#utility.yul\":2642:2693   */\n  tag_58\n    /* \"#utility.yul\":2691:2692   */\n  0x00\n    /* \"#utility.yul\":2687:2688   */\n  dup3\n    /* \"#utility.yul\":2676:2685   */\n  dup5\n    /* \"#utility.yul\":2672:2689   */\n  add\n    /* \"#utility.yul\":2642:2693   */\n  tag_19\n  jump\t// in\ntag_58:\n    /* \"#utility.yul\":2615:2616   */\n  0x01\n    /* \"#utility.yul\":2612:2613   */\n  dup2\n    /* \"#utility.yul\":2608:2617   */\n  add\n    /* \"#utility.yul\":2603:2617   */\n  swap1\n  pop\n    /* \"#utility.yul\":2565:2703   */\n  jump(tag_55)\ntag_57:\n    /* \"#utility.yul\":2569:2583   */\n  pop\n    /* \"#utility.yul\":2495:2709   */\n  pop\n  pop\n  jump\t// out\n    /* \"#utility.yul\":2715:3461   */\ntag_21:\n    /* \"#utility.yul\":2816:2818   */\n  0x1f\n    /* \"#utility.yul\":2811:2814   */\n  dup3\n    /* \"#utility.yul\":2808:2819   */\n  gt\n    /* \"#utility.yul\":2805:3454   */\n  iszero\n  tag_60\n  jumpi\n    /* \"#utility.yul\":2845:2855   */\n  dup3\n    /* \"#utility.yul\":2840:2843   */\n  dup3\n    /* \"#utility.yul\":2837:2856   */\n  gt\n    /* \"#utility.yul\":2834:3444   */\n  iszero\n  tag_61\n  jumpi\n    /* \"#utility.yul\":2891:2929   */\n  tag_62\n    /* \"#utility.yul\":2923:2928   */\n  dup2\n    /* \"#utility.yul\":2891:2929   */\n  tag_9\n  jump\t// in\ntag_62:\n    /* \"#utility.yul\":2966:2988   */\n  tag_63\n    /* \"#utility.yul\":2984:2987   */\n  dup4\n    /* \"#utility.yul\":2966:2988   */\n  tag_10\n  jump\t// in\ntag_63:\n    /* \"#utility.yul\":3025:3054   */\n  tag_64\n    /* \"#utility.yul\":3043:3053   */\n  dup6\n    /* \"#utility.yul\":3025:3054   */\n  tag_10\n  jump\t// in\ntag_64:\n    /* \"#utility.yul\":3215:3217   */\n  0x20\n    /* \"#utility.yul\":3203:3213   */\n  dup7\n    /* \"#utility.yul\":3200:3218   */\n  lt\n    /* \"#utility.yul\":3197:3276   */\n  iszero\n  tag_65\n  jumpi\n    /* \"#utility.yul\":3257:3258   */\n  0x00\n    /* \"#utility.yul\":3241:3258   */\n  swap1\n  pop\n    /* \"#utility.yul\":3197:3276   */\ntag_65:\n    /* \"#utility.yul\":3326:3338   */\n  dup1\n    /* \"#utility.yul\":3316:3324   */\n  dup4\n    /* \"#utility.yul\":3312:3339   */\n  add\n    /* \"#utility.yul\":3356:3430   */\n  tag_66\n    /* \"#utility.yul\":3416:3428   */\n  dup3\n    /* \"#utility.yul\":3402:3414   */\n  dup5\n    /* \"#utility.yul\":3398:3429   */\n  sub\n    /* \"#utility.yul\":3385:3396   */\n  dup3\n    /* \"#utility.yul\":3356:3430   */\n  tag_20\n  jump\t// in\ntag_66:\n    /* \"#utility.yul\":2857:3444   */\n  pop\n  pop\n  pop\n  pop\n    /* \"#utility.yul\":2834:3444   */\ntag_61:\n    /* \"#utility.yul\":2805:3454   */\ntag_60:\n    /* \"#utility.yul\":2715:3461   */\n  pop\n  pop\n  pop\n  jump\t// out\n    /* \"#utility.yul\":3467:3584   */\ntag_22:\n    /* \"#utility.yul\":3521:3529   */\n  0x00\n    /* \"#utility.yul\":3571:3576   */\n  dup3\n    /* \"#utility.yul\":3565:3569   */\n  dup3\n    /* \"#utility.yul\":3561:3577   */\n  shr\n    /* \"#utility.yul\":3540:3577   */\n  swap1\n  pop\n    /* \"#utility.yul\":3467:3584   */\n  swap3\n  swap2\n  pop\n  pop\n  jump\t// out\n    /* \"#utility.yul\":3590:3759   */\ntag_23:\n    /* \"#utility.yul\":3634:3640   */\n  0x00\n    /* \"#utility.yul\":3667:3718   */\n  tag_69\n    /* \"#utility.yul\":3715:3716   */\n  0x00\n    /* \"#utility.yul\":3711:3717   */\n  not\n    /* \"#utility.yul\":3703:3708   */\n  dup5\n    /* \"#utility.yul\":3700:3701   */\n  0x08\n    /* \"#utility.yul\":3696:3709   */\n  mul\n    /* \"#utility.yul\":3667:3718   */\n  tag_22\n  jump\t// in\ntag_69:\n    /* \"#utility.yul\":3663:3719   */\n  not\n    /* \"#utility.yul\":3748:3752   */\n  dup1\n    /* \"#utility.yul\":3742:3746   */\n  dup4\n    /* \"#utility.yul\":3738:3753   */\n  and\n    /* \"#utility.yul\":3728:3753   */\n  swap2\n  pop\n    /* \"#utility.yul\":3641:3759   */\n  pop\n    /* \"#utility.yul\":3590:3759   */\n  swap3\n  swap2\n  pop\n  pop\n  jump\t// out\n    /* \"#utility.yul\":3764:4059   */\ntag_24:\n    /* \"#utility.yul\":3840:3844   */\n  0x00\n    /* \"#utility.yul\":3986:4015   */\n  tag_71\n    /* \"#utility.yul\":4011:4014   */\n  dup4\n    /* \"#utility.yul\":4005:4009   */\n  dup4\n    /* \"#utility.yul\":3986:4015   */\n  tag_23\n  jump\t// in\ntag_71:\n    /* \"#utility.yul\":3978:4015   */\n  swap2\n  pop\n    /* \"#utility.yul\":4048:4051   */\n  dup3\n    /* \"#utility.yul\":4045:4046   */\n  0x02\n    /* \"#utility.yul\":4041:4052   */\n  mul\n    /* \"#utility.yul\":4035:4039   */\n  dup3\n    /* \"#utility.yul\":4032:4053   */\n  or\n    /* \"#utility.yul\":4024:4053   */\n  swap1\n  pop\n    /* \"#utility.yul\":3764:4059   */\n  swap3\n  swap2\n  pop\n  pop\n  jump\t// out\n    /* \"#utility.yul\":4064:5459   */\ntag_2:\n    /* \"#utility.yul\":4181:4218   */\n  tag_73\n    /* \"#utility.yul\":4214:4217   */\n  dup3\n    /* \"#utility.yul\":4181:4218   */\n  tag_5\n  jump\t// in\ntag_73:\n    /* \"#utility.yul\":4283:4301   */\n  0xffffffffffffffff\n    /* \"#utility.yul\":4275:4281   */\n  dup2\n    /* \"#utility.yul\":4272:4302   */\n  gt\n    /* \"#utility.yul\":4269:4325   */\n  iszero\n  tag_74\n  jumpi\n    /* \"#utility.yul\":4305:4323   */\n  tag_75\n  tag_6\n  jump\t// in\ntag_75:\n    /* \"#utility.yul\":4269:4325   */\ntag_74:\n    /* \"#utility.yul\":4349:4387   */\n  tag_76\n    /* \"#utility.yul\":4381:4385   */\n  dup3\n    /* \"#utility.yul\":4375:4386   */\n  sload\n    /* \"#utility.yul\":4349:4387   */\n  tag_8\n  jump\t// in\ntag_76:\n    /* \"#utility.yul\":4434:4501   */\n  tag_77\n    /* \"#utility.yul\":4494:4500   */\n  dup3\n    /* \"#utility.yul\":4486:4492   */\n  dup3\n    /* \"#utility.yul\":4480:4484   */\n  dup6\n    /* \"#utility.yul\":4434:4501   */\n  tag_21\n  jump\t// in\ntag_77:\n    /* \"#utility.yul\":4528:4529   */\n  0x00\n    /* \"#utility.yul\":4552:4556   */\n  0x20\n    /* \"#utility.yul\":4539:4556   */\n  swap1\n  pop\n    /* \"#utility.yul\":4584:4586   */\n  0x1f\n    /* \"#utility.yul\":4576:4582   */\n  dup4\n    /* \"#utility.yul\":4573:4587   */\n  gt\n    /* \"#utility.yul\":4601:4602   */\n  0x01\n    /* \"#utility.yul\":4596:5214   */\n  dup2\n  eq\n  tag_79\n  jumpi\n    /* \"#utility.yul\":5258:5259   */\n  0x00\n    /* \"#utility.yul\":5275:5281   */\n  dup5\n    /* \"#utility.yul\":5272:5349   */\n  iszero\n  tag_80\n  jumpi\n    /* \"#utility.yul\":5324:5333   */\n  dup3\n    /* \"#utility.yul\":5319:5322   */\n  dup8\n    /* \"#utility.yul\":5315:5334   */\n  add\n    /* \"#utility.yul\":5309:5335   */\n  mload\n    /* \"#utility.yul\":5300:5335   */\n  swap1\n  pop\n    /* \"#utility.yul\":5272:5349   */\ntag_80:\n    /* \"#utility.yul\":5375:5442   */\n  tag_81\n    /* \"#utility.yul\":5435:5441   */\n  dup6\n    /* \"#utility.yul\":5428:5433   */\n  dup3\n    /* \"#utility.yul\":5375:5442   */\n  tag_24\n  jump\t// in\ntag_81:\n    /* \"#utility.yul\":5369:5373   */\n  dup7\n    /* \"#utility.yul\":5362:5443   */\n  sstore\n    /* \"#utility.yul\":5231:5453   */\n  pop\n    /* \"#utility.yul\":4566:5453   */\n  jump(tag_78)\n    /* \"#utility.yul\":4596:5214   */\ntag_79:\n    /* \"#utility.yul\":4648:4652   */\n  0x1f\n    /* \"#utility.yul\":4644:4653   */\n  not\n    /* \"#utility.yul\":4636:4642   */\n  dup5\n    /* \"#utility.yul\":4632:4654   */\n  and\n    /* \"#utility.yul\":4682:4719   */\n  tag_82\n    /* \"#utility.yul\":4714:4718   */\n  dup7\n    /* \"#utility.yul\":4682:4719   */\n  tag_9\n  jump\t// in\ntag_82:\n    /* \"#utility.yul\":4741:4742   */\n  0x00\n    /* \"#utility.yul\":4755:4963   */\ntag_83:\n    /* \"#utility.yul\":4769:4776   */\n  dup3\n    /* \"#utility.yul\":4766:4767   */\n  dup2\n    /* \"#utility.yul\":4763:4777   */\n  lt\n    /* \"#utility.yul\":4755:4963   */\n  iszero\n  tag_85\n  jumpi\n    /* \"#utility.yul\":4848:4857   */\n  dup5\n    /* \"#utility.yul\":4843:4846   */\n  dup10\n    /* \"#utility.yul\":4839:4858   */\n  add\n    /* \"#utility.yul\":4833:4859   */\n  mload\n    /* \"#utility.yul\":4825:4831   */\n  dup3\n    /* \"#utility.yul\":4818:4860   */\n  sstore\n    /* \"#utility.yul\":4899:4900   */\n  0x01\n    /* \"#utility.yul\":4891:4897   */\n  dup3\n    /* \"#utility.yul\":4887:4901   */\n  add\n    /* \"#utility.yul\":4877:4901   */\n  swap2\n  pop\n    /* \"#utility.yul\":4946:4948   */\n  0x20\n    /* \"#utility.yul\":4935:4944   */\n  dup6\n    /* \"#utility.yul\":4931:4949   */\n  add\n    /* \"#utility.yul\":4918:4949   */\n  swap5\n  pop\n    /* \"#utility.yul\":4792:4796   */\n  0x20\n    /* \"#utility.yul\":4789:4790   */\n  dup2\n    /* \"#utility.yul\":4785:4797   */\n  add\n    /* \"#utility.yul\":4780:4797   */\n  swap1\n  pop\n    /* \"#utility.yul\":4755:4963   */\n  jump(tag_83)\ntag_85:\n    /* \"#utility.yul\":4991:4997   */\n  dup7\n    /* \"#utility.yul\":4982:4989   */\n  dup4\n    /* \"#utility.yul\":4979:4998   */\n  lt\n    /* \"#utility.yul\":4976:5155   */\n  iszero\n  tag_86\n  jumpi\n    /* \"#utility.yul\":5049:5058   */\n  dup5\n    /* \"#utility.yul\":5044:5047   */\n  dup10\n    /* \"#utility.yul\":5040:5059   */\n  add\n    /* \"#utility.yul\":5034:5060   */\n  mload\n    /* \"#utility.yul\":5092:5140   */\n  tag_87\n    /* \"#utility.yul\":5134:5138   */\n  0x1f\n    /* \"#utility.yul\":5126:5132   */\n  dup10\n    /* \"#utility.yul\":5122:5139   */\n  and\n    /* \"#utility.yul\":5111:5120   */\n  dup3\n    /* \"#utility.yul\":5092:5140   */\n  tag_23\n  jump\t// in\ntag_87:\n    /* \"#utility.yul\":5084:5090   */\n  dup4\n    /* \"#utility.yul\":5077:5141   */\n  sstore\n    /* \"#utility.yul\":4999:5155   */\n  pop\n    /* \"#utility.yul\":4976:5155   */\ntag_86:\n    /* \"#utility.yul\":5201:5202   */\n  0x01\n    /* \"#utility.yul\":5197:5198   */\n  0x02\n    /* \"#utility.yul\":5189:5195   */\n  dup9\n    /* \"#utility.yul\":5185:5199   */\n  mul\n    /* \"#utility.yul\":5181:5203   */\n  add\n    /* \"#utility.yul\":5175:5179   */\n  dup9\n    /* \"#utility.yul\":5168:5204   */\n  sstore\n    /* \"#utility.yul\":4603:5214   */\n  pop\n  pop\n  pop\n    /* \"#utility.yul\":4566:5453   */\ntag_78:\n  pop\n    /* \"#utility.yul\":4156:5459   */\n  pop\n  pop\n  pop\n    /* \"#utility.yul\":4064:5459   */\n  pop\n  pop\n  jump\t// out\n    /* \"test/test.sol\":58:2152  contract HelloWorld {... */\ntag_4:\n  dataSize(sub_0)\n  dup1\n  dataOffset(sub_0)\n  0x00\n  codecopy\n  0x00\n  return\nstop\n\nsub_0: assembly {\n        /* \"test/test.sol\":58:2152  contract HelloWorld {... */\n      mstore(0x40, 0x80)\n      callvalue\n      dup1\n      iszero\n      tag_1\n      jumpi\n      revert(0x00, 0x00)\n    tag_1:\n      pop\n      jumpi(tag_2, lt(calldatasize, 0x04))\n      shr(0xe0, calldataload(0x00))\n      dup1\n      0x90b1215b\n      gt\n      tag_11\n      jumpi\n      dup1\n      0x90b1215b\n      eq\n      tag_7\n      jumpi\n      dup1\n      0xcd6bc3dd\n      eq\n      tag_8\n      jumpi\n      dup1\n      0xef5fb05b\n      eq\n      tag_9\n      jumpi\n      dup1\n      0xfb74ad85\n      eq\n      tag_10\n      jumpi\n      jump(tag_2)\n    tag_11:\n      dup1\n      0x1a3cd59a\n      eq\n      tag_3\n      jumpi\n      dup1\n      0x435ffe94\n      eq\n      tag_4\n      jumpi\n      dup1\n      0x5fb6bf54\n      eq\n      tag_5\n      jumpi\n      dup1\n      0x79e61801\n      eq\n      tag_6\n      jumpi\n    tag_2:\n      revert(0x00, 0x00)\n        /* \"test/test.sol\":1357:1638  function getInfo(uint256 _id) public view returns (string memory) {... */\n    tag_3:\n      tag_12\n      0x04\n      dup1\n      calldatasize\n      sub\n      dup2\n      add\n      swap1\n      tag_13\n      swap2\n      swap1\n      tag_14\n      jump\t// in\n    tag_13:\n      tag_15\n      jump\t// in\n    tag_12:\n      mload(0x40)\n      tag_16\n      swap2\n      swap1\n      tag_17\n      jump\t// in\n    tag_16:\n      mload(0x40)\n      dup1\n      swap2\n      sub\n      swap1\n      return\n        /* \"test/test.sol\":492:574  function setHello(string memory newStr) public {... */\n    tag_4:\n      tag_18\n      0x04\n      dup1\n      calldatasize\n      sub\n      dup2\n      add\n      swap1\n      tag_19\n      swap2\n      swap1\n      tag_20\n      jump\t// in\n    tag_19:\n      tag_21\n      jump\t// in\n    tag_18:\n      stop\n        /* \"test/test.sol\":883:988  function sayHelloAddInfo() public view returns (string memory) {... */\n    tag_5:\n      tag_22\n      tag_23\n      jump\t// in\n    tag_22:\n      mload(0x40)\n      tag_24\n      swap2\n      swap1\n      tag_17\n      jump\t// in\n    tag_24:\n      mload(0x40)\n      dup1\n      swap2\n      sub\n      swap1\n      return\n        /* \"test/test.sol\":1923:2150  function getInfoMapping(uint256 _id) public view returns (string memory) {... */\n    tag_6:\n      tag_25\n      0x04\n      dup1\n      calldatasize\n      sub\n      dup2\n      add\n      swap1\n      tag_26\n      swap2\n      swap1\n      tag_14\n      jump\t// in\n    tag_26:\n      tag_27\n      jump\t// in\n    tag_25:\n      mload(0x40)\n      tag_28\n      swap2\n      swap1\n      tag_17\n      jump\t// in\n    tag_28:\n      mload(0x40)\n      dup1\n      swap2\n      sub\n      swap1\n      return\n        /* \"test/test.sol\":1727:1891  function addInfoMapping(string memory phrase, uint256 _id) public {... */\n    tag_7:\n      tag_29\n      0x04\n      dup1\n      calldatasize\n      sub\n      dup2\n      add\n      swap1\n      tag_30\n      swap2\n      swap1\n      tag_31\n      jump\t// in\n    tag_30:\n      tag_32\n      jump\t// in\n    tag_29:\n      stop\n        /* \"test/test.sol\":1170:1323  function addInfo(string memory phrase, uint256 _id) public {... */\n    tag_8:\n      tag_33\n      0x04\n      dup1\n      calldatasize\n      sub\n      dup2\n      add\n      swap1\n      tag_34\n      swap2\n      swap1\n      tag_31\n      jump\t// in\n    tag_34:\n      tag_35\n      jump\t// in\n    tag_33:\n      stop\n        /* \"test/test.sol\":381:470  function sayHello() public view returns (string memory) {... */\n    tag_9:\n      tag_36\n      tag_37\n      jump\t// in\n    tag_36:\n      mload(0x40)\n      tag_38\n      swap2\n      swap1\n      tag_17\n      jump\t// in\n    tag_38:\n      mload(0x40)\n      dup1\n      swap2\n      sub\n      swap1\n      return\n        /* \"test/test.sol\":1113:1135  Info[] public infoList */\n    tag_10:\n      tag_39\n      0x04\n      dup1\n      calldatasize\n      sub\n      dup2\n      add\n      swap1\n      tag_40\n      swap2\n      swap1\n      tag_14\n      jump\t// in\n    tag_40:\n      tag_41\n      jump\t// in\n    tag_39:\n      mload(0x40)\n      tag_42\n      swap4\n      swap3\n      swap2\n      swap1\n      tag_43\n      jump\t// in\n    tag_42:\n      mload(0x40)\n      dup1\n      swap2\n      sub\n      swap1\n      return\n        /* \"test/test.sol\":1357:1638  function getInfo(uint256 _id) public view returns (string memory) {... */\n    tag_15:\n        /* \"test/test.sol\":1408:1421  string memory */\n      0x60\n        /* \"test/test.sol\":1438:1447  uint256 i */\n      0x00\n        /* \"test/test.sol\":1450:1451  0 */\n      0x00\n        /* \"test/test.sol\":1438:1451  uint256 i = 0 */\n      swap1\n      pop\n        /* \"test/test.sol\":1433:1597  for (uint256 i = 0; i < infoList.length; i++) {... */\n    tag_45:\n        /* \"test/test.sol\":1457:1465  infoList */\n      0x06\n        /* \"test/test.sol\":1457:1472  infoList.length */\n      dup1\n      sload\n      swap1\n      pop\n        /* \"test/test.sol\":1453:1454  i */\n      dup2\n        /* \"test/test.sol\":1453:1472  i < infoList.length */\n      lt\n        /* \"test/test.sol\":1433:1597  for (uint256 i = 0; i < infoList.length; i++) {... */\n      iszero\n      tag_46\n      jumpi\n        /* \"test/test.sol\":1515:1518  _id */\n      dup3\n        /* \"test/test.sol\":1497:1505  infoList */\n      0x06\n        /* \"test/test.sol\":1506:1507  i */\n      dup3\n        /* \"test/test.sol\":1497:1508  infoList[i] */\n      dup2\n      sload\n      dup2\n      lt\n      tag_48\n      jumpi\n      tag_49\n      tag_50\n      jump\t// in\n    tag_49:\n    tag_48:\n      swap1\n      0x00\n      mstore\n      keccak256(0x00, 0x20)\n      swap1\n      0x03\n      mul\n      add\n        /* \"test/test.sol\":1497:1511  infoList[i].id */\n      0x01\n      add\n      sload\n        /* \"test/test.sol\":1497:1518  infoList[i].id == _id */\n      sub\n        /* \"test/test.sol\":1493:1587  if (infoList[i].id == _id) {... */\n      tag_52\n      jumpi\n        /* \"test/test.sol\":1545:1572  addInfo(infoList[i].phrase) */\n      tag_53\n        /* \"test/test.sol\":1553:1561  infoList */\n      0x06\n        /* \"test/test.sol\":1562:1563  i */\n      dup3\n        /* \"test/test.sol\":1553:1564  infoList[i] */\n      dup2\n      sload\n      dup2\n      lt\n      tag_54\n      jumpi\n      tag_55\n      tag_50\n      jump\t// in\n    tag_55:\n    tag_54:\n      swap1\n      0x00\n      mstore\n      keccak256(0x00, 0x20)\n      swap1\n      0x03\n      mul\n      add\n        /* \"test/test.sol\":1553:1571  infoList[i].phrase */\n      0x00\n      add\n        /* \"test/test.sol\":1545:1572  addInfo(infoList[i].phrase) */\n      dup1\n      sload\n      tag_57\n      swap1\n      tag_58\n      jump\t// in\n    tag_57:\n      dup1\n      0x1f\n      add\n      0x20\n      dup1\n      swap2\n      div\n      mul\n      0x20\n      add\n      mload(0x40)\n      swap1\n      dup2\n      add\n      0x40\n      mstore\n      dup1\n      swap3\n      swap2\n      swap1\n      dup2\n      dup2\n      mstore\n      0x20\n      add\n      dup3\n      dup1\n      sload\n      tag_59\n      swap1\n      tag_58\n      jump\t// in\n    tag_59:\n      dup1\n      iszero\n      tag_60\n      jumpi\n      dup1\n      0x1f\n      lt\n      tag_61\n      jumpi\n      0x0100\n      dup1\n      dup4\n      sload\n      div\n      mul\n      dup4\n      mstore\n      swap2\n      0x20\n      add\n      swap2\n      jump(tag_60)\n    tag_61:\n      dup3\n      add\n      swap2\n      swap1\n      0x00\n      mstore\n      keccak256(0x00, 0x20)\n      swap1\n    tag_62:\n      dup2\n      sload\n      dup2\n      mstore\n      swap1\n      0x01\n      add\n      swap1\n      0x20\n      add\n      dup1\n      dup4\n      gt\n      tag_62\n      jumpi\n      dup3\n      swap1\n      sub\n      0x1f\n      and\n      dup3\n      add\n      swap2\n    tag_60:\n      pop\n      pop\n      pop\n      pop\n      pop\n        /* \"test/test.sol\":1545:1552  addInfo */\n      tag_63\n        /* \"test/test.sol\":1545:1572  addInfo(infoList[i].phrase) */\n      jump\t// in\n    tag_53:\n        /* \"test/test.sol\":1538:1572  return addInfo(infoList[i].phrase) */\n      swap2\n      pop\n      pop\n      jump(tag_44)\n        /* \"test/test.sol\":1493:1587  if (infoList[i].id == _id) {... */\n    tag_52:\n        /* \"test/test.sol\":1474:1477  i++ */\n      dup1\n      dup1\n      0x01\n      add\n      swap2\n      pop\n      pop\n        /* \"test/test.sol\":1433:1597  for (uint256 i = 0; i < infoList.length; i++) {... */\n      jump(tag_45)\n    tag_46:\n      pop\n        /* \"test/test.sol\":1613:1631  addInfo(stringVar) */\n      tag_64\n        /* \"test/test.sol\":1621:1630  stringVar */\n      0x04\n        /* \"test/test.sol\":1613:1631  addInfo(stringVar) */\n      dup1\n      sload\n      tag_65\n      swap1\n      tag_58\n      jump\t// in\n    tag_65:\n      dup1\n      0x1f\n      add\n      0x20\n      dup1\n      swap2\n      div\n      mul\n      0x20\n      add\n      mload(0x40)\n      swap1\n      dup2\n      add\n      0x40\n      mstore\n      dup1\n      swap3\n      swap2\n      swap1\n      dup2\n      dup2\n      mstore\n      0x20\n      add\n      dup3\n      dup1\n      sload\n      tag_66\n      swap1\n      tag_58\n      jump\t// in\n    tag_66:\n      dup1\n      iszero\n      tag_67\n      jumpi\n      dup1\n      0x1f\n      lt\n      tag_68\n      jumpi\n      0x0100\n      dup1\n      dup4\n      sload\n      div\n      mul\n      dup4\n      mstore\n      swap2\n      0x20\n      add\n      swap2\n      jump(tag_67)\n    tag_68:\n      dup3\n      add\n      swap2\n      swap1\n      0x00\n      mstore\n      keccak256(0x00, 0x20)\n      swap1\n    tag_69:\n      dup2\n      sload\n      dup2\n      mstore\n      swap1\n      0x01\n      add\n      swap1\n      0x20\n      add\n      dup1\n      dup4\n      gt\n      tag_69\n      jumpi\n      dup3\n      swap1\n      sub\n      0x1f\n      and\n      dup3\n      add\n      swap2\n    tag_67:\n      pop\n      pop\n      pop\n      pop\n      pop\n        /* \"test/test.sol\":1613:1620  addInfo */\n      tag_63\n        /* \"test/test.sol\":1613:1631  addInfo(stringVar) */\n      jump\t// in\n    tag_64:\n        /* \"test/test.sol\":1606:1631  return addInfo(stringVar) */\n      swap1\n      pop\n        /* \"test/test.sol\":1357:1638  function getInfo(uint256 _id) public view returns (string memory) {... */\n    tag_44:\n      swap2\n      swap1\n      pop\n      jump\t// out\n        /* \"test/test.sol\":492:574  function setHello(string memory newStr) public {... */\n    tag_21:\n        /* \"test/test.sol\":561:567  newStr */\n      dup1\n        /* \"test/test.sol\":549:558  stringVar */\n      0x04\n        /* \"test/test.sol\":549:567  stringVar = newStr */\n      swap1\n      dup2\n      tag_71\n      swap2\n      swap1\n      tag_72\n      jump\t// in\n    tag_71:\n      pop\n        /* \"test/test.sol\":492:574  function setHello(string memory newStr) public {... */\n      pop\n      jump\t// out\n        /* \"test/test.sol\":883:988  function sayHelloAddInfo() public view returns (string memory) {... */\n    tag_23:\n        /* \"test/test.sol\":931:944  string memory */\n      0x60\n        /* \"test/test.sol\":963:981  addInfo(stringVar) */\n      tag_74\n        /* \"test/test.sol\":971:980  stringVar */\n      0x04\n        /* \"test/test.sol\":963:981  addInfo(stringVar) */\n      dup1\n      sload\n      tag_75\n      swap1\n      tag_58\n      jump\t// in\n    tag_75:\n      dup1\n      0x1f\n      add\n      0x20\n      dup1\n      swap2\n      div\n      mul\n      0x20\n      add\n      mload(0x40)\n      swap1\n      dup2\n      add\n      0x40\n      mstore\n      dup1\n      swap3\n      swap2\n      swap1\n      dup2\n      dup2\n      mstore\n      0x20\n      add\n      dup3\n      dup1\n      sload\n      tag_76\n      swap1\n      tag_58\n      jump\t// in\n    tag_76:\n      dup1\n      iszero\n      tag_77\n      jumpi\n      dup1\n      0x1f\n      lt\n      tag_78\n      jumpi\n      0x0100\n      dup1\n      dup4\n      sload\n      div\n      mul\n      dup4\n      mstore\n      swap2\n      0x20\n      add\n      swap2\n      jump(tag_77)\n    tag_78:\n      dup3\n      add\n      swap2\n      swap1\n      0x00\n      mstore\n      keccak256(0x00, 0x20)\n      swap1\n    tag_79:\n      dup2\n      sload\n      dup2\n      mstore\n      swap1\n      0x01\n      add\n      swap1\n      0x20\n      add\n      dup1\n      dup4\n      gt\n      tag_79\n      jumpi\n      dup3\n      swap1\n      sub\n      0x1f\n      and\n      dup3\n      add\n      swap2\n    tag_77:\n      pop\n      pop\n      pop\n      pop\n      pop\n        /* \"test/test.sol\":963:970  addInfo */\n      tag_63\n        /* \"test/test.sol\":963:981  addInfo(stringVar) */\n      jump\t// in\n    tag_74:\n        /* \"test/test.sol\":956:981  return addInfo(stringVar) */\n      swap1\n      pop\n        /* \"test/test.sol\":883:988  function sayHelloAddInfo() public view returns (string memory) {... */\n      swap1\n      jump\t// out\n        /* \"test/test.sol\":1923:2150  function getInfoMapping(uint256 _id) public view returns (string memory) {... */\n    tag_27:\n        /* \"test/test.sol\":1981:1994  string memory */\n      0x60\n        /* \"test/test.sol\":2045:2048  0x0 */\n      0x00\n        /* \"test/test.sol\":2010:2049  infoMapping[_id].sender == address(0x0) */\n      0xffffffffffffffffffffffffffffffffffffffff\n      and\n        /* \"test/test.sol\":2010:2021  infoMapping */\n      0x07\n        /* \"test/test.sol\":2010:2026  infoMapping[_id] */\n      0x00\n        /* \"test/test.sol\":2022:2025  _id */\n      dup5\n        /* \"test/test.sol\":2010:2026  infoMapping[_id] */\n      dup2\n      mstore\n      0x20\n      add\n      swap1\n      dup2\n      mstore\n      0x20\n      add\n      0x00\n      keccak256\n        /* \"test/test.sol\":2010:2033  infoMapping[_id].sender */\n      0x02\n      add\n      0x00\n      swap1\n      sload\n      swap1\n      0x0100\n      exp\n      swap1\n      div\n      0xffffffffffffffffffffffffffffffffffffffff\n      and\n        /* \"test/test.sol\":2010:2049  infoMapping[_id].sender == address(0x0) */\n      0xffffffffffffffffffffffffffffffffffffffff\n      and\n      sub\n        /* \"test/test.sol\":2006:2104  if (infoMapping[_id].sender == address(0x0)) {... */\n      tag_81\n      jumpi\n        /* \"test/test.sol\":2065:2093  return unicode\"没有找到\" */\n      mload(0x40)\n      dup1\n      0x40\n      add\n      0x40\n      mstore\n      dup1\n      0x0c\n      dup2\n      mstore\n      0x20\n      add\n      0xe6b2a1e69c89e689bee588b00000000000000000000000000000000000000000\n      dup2\n      mstore\n      pop\n      swap1\n      pop\n      jump(tag_80)\n        /* \"test/test.sol\":2006:2104  if (infoMapping[_id].sender == address(0x0)) {... */\n    tag_81:\n        /* \"test/test.sol\":2120:2131  infoMapping */\n      0x07\n        /* \"test/test.sol\":2120:2136  infoMapping[_id] */\n      0x00\n        /* \"test/test.sol\":2132:2135  _id */\n      dup4\n        /* \"test/test.sol\":2120:2136  infoMapping[_id] */\n      dup2\n      mstore\n      0x20\n      add\n      swap1\n      dup2\n      mstore\n      0x20\n      add\n      0x00\n      keccak256\n        /* \"test/test.sol\":2120:2143  infoMapping[_id].phrase */\n      0x00\n      add\n        /* \"test/test.sol\":2113:2143  return infoMapping[_id].phrase */\n      dup1\n      sload\n      tag_82\n      swap1\n      tag_58\n      jump\t// in\n    tag_82:\n      dup1\n      0x1f\n      add\n      0x20\n      dup1\n      swap2\n      div\n      mul\n      0x20\n      add\n      mload(0x40)\n      swap1\n      dup2\n      add\n      0x40\n      mstore\n      dup1\n      swap3\n      swap2\n      swap1\n      dup2\n      dup2\n      mstore\n      0x20\n      add\n      dup3\n      dup1\n      sload\n      tag_83\n      swap1\n      tag_58\n      jump\t// in\n    tag_83:\n      dup1\n      iszero\n      tag_84\n      jumpi\n      dup1\n      0x1f\n      lt\n      tag_85\n      jumpi\n      0x0100\n      dup1\n      dup4\n      sload\n      div\n      mul\n      dup4\n      mstore\n      swap2\n      0x20\n      add\n      swap2\n      jump(tag_84)\n    tag_85:\n      dup3\n      add\n      swap2\n      swap1\n      0x00\n      mstore\n      keccak256(0x00, 0x20)\n      swap1\n    tag_86:\n      dup2\n      sload\n      dup2\n      mstore\n      swap1\n      0x01\n      add\n      swap1\n      0x20\n      add\n      dup1\n      dup4\n      gt\n      tag_86\n      jumpi\n      dup3\n      swap1\n      sub\n      0x1f\n      and\n      dup3\n      add\n      swap2\n    tag_84:\n      pop\n      pop\n      pop\n      pop\n      pop\n      swap1\n      pop\n        /* \"test/test.sol\":1923:2150  function getInfoMapping(uint256 _id) public view returns (string memory) {... */\n    tag_80:\n      swap2\n      swap1\n      pop\n      jump\t// out\n        /* \"test/test.sol\":1727:1891  function addInfoMapping(string memory phrase, uint256 _id) public {... */\n    tag_32:\n        /* \"test/test.sol\":1803:1819  Info memory info */\n      0x00\n        /* \"test/test.sol\":1822:1851  Info(phrase, _id, msg.sender) */\n      mload(0x40)\n      dup1\n      0x60\n      add\n      0x40\n      mstore\n      dup1\n        /* \"test/test.sol\":1827:1833  phrase */\n      dup5\n        /* \"test/test.sol\":1822:1851  Info(phrase, _id, msg.sender) */\n      dup2\n      mstore\n      0x20\n      add\n        /* \"test/test.sol\":1835:1838  _id */\n      dup4\n        /* \"test/test.sol\":1822:1851  Info(phrase, _id, msg.sender) */\n      dup2\n      mstore\n      0x20\n      add\n        /* \"test/test.sol\":1840:1850  msg.sender */\n      caller\n        /* \"test/test.sol\":1822:1851  Info(phrase, _id, msg.sender) */\n      0xffffffffffffffffffffffffffffffffffffffff\n      and\n      dup2\n      mstore\n      pop\n        /* \"test/test.sol\":1803:1851  Info memory info = Info(phrase, _id, msg.sender) */\n      swap1\n      pop\n        /* \"test/test.sol\":1880:1884  info */\n      dup1\n        /* \"test/test.sol\":1861:1872  infoMapping */\n      0x07\n        /* \"test/test.sol\":1861:1877  infoMapping[_id] */\n      0x00\n        /* \"test/test.sol\":1873:1876  _id */\n      dup5\n        /* \"test/test.sol\":1861:1877  infoMapping[_id] */\n      dup2\n      mstore\n      0x20\n      add\n      swap1\n      dup2\n      mstore\n      0x20\n      add\n      0x00\n      keccak256\n        /* \"test/test.sol\":1861:1884  infoMapping[_id] = info */\n      0x00\n      dup3\n      add\n      mload\n      dup2\n      0x00\n      add\n      swap1\n      dup2\n      tag_88\n      swap2\n      swap1\n      tag_72\n      jump\t// in\n    tag_88:\n      pop\n      0x20\n      dup3\n      add\n      mload\n      dup2\n      0x01\n      add\n      sstore\n      0x40\n      dup3\n      add\n      mload\n      dup2\n      0x02\n      add\n      exp(0x0100, 0x00)\n      dup2\n      sload\n      dup2\n      0xffffffffffffffffffffffffffffffffffffffff\n      mul\n      not\n      and\n      swap1\n      dup4\n      0xffffffffffffffffffffffffffffffffffffffff\n      and\n      mul\n      or\n      swap1\n      sstore\n      pop\n      swap1\n      pop\n      pop\n        /* \"test/test.sol\":1793:1891  {... */\n      pop\n        /* \"test/test.sol\":1727:1891  function addInfoMapping(string memory phrase, uint256 _id) public {... */\n      pop\n      pop\n      jump\t// out\n        /* \"test/test.sol\":1170:1323  function addInfo(string memory phrase, uint256 _id) public {... */\n    tag_35:\n        /* \"test/test.sol\":1239:1255  Info memory info */\n      0x00\n        /* \"test/test.sol\":1258:1287  Info(phrase, _id, msg.sender) */\n      mload(0x40)\n      dup1\n      0x60\n      add\n      0x40\n      mstore\n      dup1\n        /* \"test/test.sol\":1263:1269  phrase */\n      dup5\n        /* \"test/test.sol\":1258:1287  Info(phrase, _id, msg.sender) */\n      dup2\n      mstore\n      0x20\n      add\n        /* \"test/test.sol\":1271:1274  _id */\n      dup4\n        /* \"test/test.sol\":1258:1287  Info(phrase, _id, msg.sender) */\n      dup2\n      mstore\n      0x20\n      add\n        /* \"test/test.sol\":1276:1286  msg.sender */\n      caller\n        /* \"test/test.sol\":1258:1287  Info(phrase, _id, msg.sender) */\n      0xffffffffffffffffffffffffffffffffffffffff\n      and\n      dup2\n      mstore\n      pop\n        /* \"test/test.sol\":1239:1287  Info memory info = Info(phrase, _id, msg.sender) */\n      swap1\n      pop\n        /* \"test/test.sol\":1297:1305  infoList */\n      0x06\n        /* \"test/test.sol\":1311:1315  info */\n      dup2\n        /* \"test/test.sol\":1297:1316  infoList.push(info) */\n      swap1\n      dup1\n      0x01\n      dup2\n      sload\n      add\n      dup1\n      dup3\n      sstore\n      dup1\n      swap2\n      pop\n      pop\n      0x01\n      swap1\n      sub\n      swap1\n      0x00\n      mstore\n      keccak256(0x00, 0x20)\n      swap1\n      0x03\n      mul\n      add\n      0x00\n      swap1\n      swap2\n      swap1\n      swap2\n      swap1\n      swap2\n      pop\n      0x00\n      dup3\n      add\n      mload\n      dup2\n      0x00\n      add\n      swap1\n      dup2\n      tag_91\n      swap2\n      swap1\n      tag_72\n      jump\t// in\n    tag_91:\n      pop\n      0x20\n      dup3\n      add\n      mload\n      dup2\n      0x01\n      add\n      sstore\n      0x40\n      dup3\n      add\n      mload\n      dup2\n      0x02\n      add\n      exp(0x0100, 0x00)\n      dup2\n      sload\n      dup2\n      0xffffffffffffffffffffffffffffffffffffffff\n      mul\n      not\n      and\n      swap1\n      dup4\n      0xffffffffffffffffffffffffffffffffffffffff\n      and\n      mul\n      or\n      swap1\n      sstore\n      pop\n      pop\n      pop\n        /* \"test/test.sol\":1229:1323  {... */\n      pop\n        /* \"test/test.sol\":1170:1323  function addInfo(string memory phrase, uint256 _id) public {... */\n      pop\n      pop\n      jump\t// out\n        /* \"test/test.sol\":381:470  function sayHello() public view returns (string memory) {... */\n    tag_37:\n        /* \"test/test.sol\":422:435  string memory */\n      0x60\n        /* \"test/test.sol\":454:463  stringVar */\n      0x04\n        /* \"test/test.sol\":447:463  return stringVar */\n      dup1\n      sload\n      tag_93\n      swap1\n      tag_58\n      jump\t// in\n    tag_93:\n      dup1\n      0x1f\n      add\n      0x20\n      dup1\n      swap2\n      div\n      mul\n      0x20\n      add\n      mload(0x40)\n      swap1\n      dup2\n      add\n      0x40\n      mstore\n      dup1\n      swap3\n      swap2\n      swap1\n      dup2\n      dup2\n      mstore\n      0x20\n      add\n      dup3\n      dup1\n      sload\n      tag_94\n      swap1\n      tag_58\n      jump\t// in\n    tag_94:\n      dup1\n      iszero\n      tag_95\n      jumpi\n      dup1\n      0x1f\n      lt\n      tag_96\n      jumpi\n      0x0100\n      dup1\n      dup4\n      sload\n      div\n      mul\n      dup4\n      mstore\n      swap2\n      0x20\n      add\n      swap2\n      jump(tag_95)\n    tag_96:\n      dup3\n      add\n      swap2\n      swap1\n      0x00\n      mstore\n      keccak256(0x00, 0x20)\n      swap1\n    tag_97:\n      dup2\n      sload\n      dup2\n      mstore\n      swap1\n      0x01\n      add\n      swap1\n      0x20\n      add\n      dup1\n      dup4\n      gt\n      tag_97\n      jumpi\n      dup3\n      swap1\n      sub\n      0x1f\n      and\n      dup3\n      add\n      swap2\n    tag_95:\n      pop\n      pop\n      pop\n      pop\n      pop\n      swap1\n      pop\n        /* \"test/test.sol\":381:470  function sayHello() public view returns (string memory) {... */\n      swap1\n      jump\t// out\n        /* \"test/test.sol\":1113:1135  Info[] public infoList */\n    tag_41:\n      0x06\n      dup2\n      dup2\n      sload\n      dup2\n      lt\n      tag_98\n      jumpi\n      0x00\n      dup1\n      revert\n    tag_98:\n      swap1\n      0x00\n      mstore\n      keccak256(0x00, 0x20)\n      swap1\n      0x03\n      mul\n      add\n      0x00\n      swap2\n      pop\n      swap1\n      pop\n      dup1\n      0x00\n      add\n      dup1\n      sload\n      tag_100\n      swap1\n      tag_58\n      jump\t// in\n    tag_100:\n      dup1\n      0x1f\n      add\n      0x20\n      dup1\n      swap2\n      div\n      mul\n      0x20\n      add\n      mload(0x40)\n      swap1\n      dup2\n      add\n      0x40\n      mstore\n      dup1\n      swap3\n      swap2\n      swap1\n      dup2\n      dup2\n      mstore\n      0x20\n      add\n      dup3\n      dup1\n      sload\n      tag_101\n      swap1\n      tag_58\n      jump\t// in\n    tag_101:\n      dup1\n      iszero\n      tag_102\n      jumpi\n      dup1\n      0x1f\n      lt\n      tag_103\n      jumpi\n      0x0100\n      dup1\n      dup4\n      sload\n      div\n      mul\n      dup4\n      mstore\n      swap2\n      0x20\n      add\n      swap2\n      jump(tag_102)\n    tag_103:\n      dup3\n      add\n      swap2\n      swap1\n      0x00\n      mstore\n      keccak256(0x00, 0x20)\n      swap1\n    tag_104:\n      dup2\n      sload\n      dup2\n      mstore\n      swap1\n      0x01\n      add\n      swap1\n      0x20\n      add\n      dup1\n      dup4\n      gt\n      tag_104\n      jumpi\n      dup3\n      swap1\n      sub\n      0x1f\n      and\n      dup3\n      add\n      swap2\n    tag_102:\n      pop\n      pop\n      pop\n      pop\n      pop\n      swap1\n      dup1\n      0x01\n      add\n      sload\n      swap1\n      dup1\n      0x02\n      add\n      0x00\n      swap1\n      sload\n      swap1\n      0x0100\n      exp\n      swap1\n      div\n      0xffffffffffffffffffffffffffffffffffffffff\n      and\n      swap1\n      pop\n      dup4\n      jump\t// out\n        /* \"test/test.sol\":602:845  function addInfo(string memory str) internal pure returns (string memory) {... */\n    tag_63:\n        /* \"test/test.sol\":661:674  string memory */\n      0x60\n        /* \"test/test.sol\":762:765  str */\n      dup2\n        /* \"test/test.sol\":748:783  string.concat(str, \" ---from WEEK\") */\n      add(0x20, mload(0x40))\n      tag_106\n      swap2\n      swap1\n      tag_107\n      jump\t// in\n    tag_106:\n      mload(0x40)\n      0x20\n      dup2\n      dup4\n      sub\n      sub\n      dup2\n      mstore\n      swap1\n      0x40\n      mstore\n        /* \"test/test.sol\":741:783  return string.concat(str, \" ---from WEEK\") */\n      swap1\n      pop\n        /* \"test/test.sol\":602:845  function addInfo(string memory str) internal pure returns (string memory) {... */\n      swap2\n      swap1\n      pop\n      jump\t// out\n        /* \"#utility.yul\":7:82   */\n    tag_108:\n        /* \"#utility.yul\":40:46   */\n      0x00\n        /* \"#utility.yul\":73:75   */\n      0x40\n        /* \"#utility.yul\":67:76   */\n      mload\n        /* \"#utility.yul\":57:76   */\n      swap1\n      pop\n        /* \"#utility.yul\":7:82   */\n      swap1\n      jump\t// out\n        /* \"#utility.yul\":88:205   */\n    tag_109:\n        /* \"#utility.yul\":197:198   */\n      0x00\n        /* \"#utility.yul\":194:195   */\n      0x00\n        /* \"#utility.yul\":187:199   */\n      revert\n        /* \"#utility.yul\":211:328   */\n    tag_110:\n        /* \"#utility.yul\":320:321   */\n      0x00\n        /* \"#utility.yul\":317:318   */\n      0x00\n        /* \"#utility.yul\":310:322   */\n      revert\n        /* \"#utility.yul\":334:411   */\n    tag_111:\n        /* \"#utility.yul\":371:378   */\n      0x00\n        /* \"#utility.yul\":400:405   */\n      dup2\n        /* \"#utility.yul\":389:405   */\n      swap1\n      pop\n        /* \"#utility.yul\":334:411   */\n      swap2\n      swap1\n      pop\n      jump\t// out\n        /* \"#utility.yul\":417:539   */\n    tag_112:\n        /* \"#utility.yul\":490:514   */\n      tag_157\n        /* \"#utility.yul\":508:513   */\n      dup2\n        /* \"#utility.yul\":490:514   */\n      tag_111\n      jump\t// in\n    tag_157:\n        /* \"#utility.yul\":483:488   */\n      dup2\n        /* \"#utility.yul\":480:515   */\n      eq\n        /* \"#utility.yul\":470:533   */\n      tag_158\n      jumpi\n        /* \"#utility.yul\":529:530   */\n      0x00\n        /* \"#utility.yul\":526:527   */\n      0x00\n        /* \"#utility.yul\":519:531   */\n      revert\n        /* \"#utility.yul\":470:533   */\n    tag_158:\n        /* \"#utility.yul\":417:539   */\n      pop\n      jump\t// out\n        /* \"#utility.yul\":545:684   */\n    tag_113:\n        /* \"#utility.yul\":591:596   */\n      0x00\n        /* \"#utility.yul\":629:635   */\n      dup2\n        /* \"#utility.yul\":616:636   */\n      calldataload\n        /* \"#utility.yul\":607:636   */\n      swap1\n      pop\n        /* \"#utility.yul\":645:678   */\n      tag_160\n        /* \"#utility.yul\":672:677   */\n      dup2\n        /* \"#utility.yul\":645:678   */\n      tag_112\n      jump\t// in\n    tag_160:\n        /* \"#utility.yul\":545:684   */\n      swap3\n      swap2\n      pop\n      pop\n      jump\t// out\n        /* \"#utility.yul\":690:1019   */\n    tag_14:\n        /* \"#utility.yul\":749:755   */\n      0x00\n        /* \"#utility.yul\":798:800   */\n      0x20\n        /* \"#utility.yul\":786:795   */\n      dup3\n        /* \"#utility.yul\":777:784   */\n      dup5\n        /* \"#utility.yul\":773:796   */\n      sub\n        /* \"#utility.yul\":769:801   */\n      slt\n        /* \"#utility.yul\":766:885   */\n      iszero\n      tag_162\n      jumpi\n        /* \"#utility.yul\":804:883   */\n      tag_163\n      tag_109\n      jump\t// in\n    tag_163:\n        /* \"#utility.yul\":766:885   */\n    tag_162:\n        /* \"#utility.yul\":924:925   */\n      0x00\n        /* \"#utility.yul\":949:1002   */\n      tag_164\n        /* \"#utility.yul\":994:1001   */\n      dup5\n        /* \"#utility.yul\":985:991   */\n      dup3\n        /* \"#utility.yul\":974:983   */\n      dup6\n        /* \"#utility.yul\":970:992   */\n      add\n        /* \"#utility.yul\":949:1002   */\n      tag_113\n      jump\t// in\n    tag_164:\n        /* \"#utility.yul\":939:1002   */\n      swap2\n      pop\n        /* \"#utility.yul\":895:1012   */\n      pop\n        /* \"#utility.yul\":690:1019   */\n      swap3\n      swap2\n      pop\n      pop\n      jump\t// out\n        /* \"#utility.yul\":1025:1124   */\n    tag_114:\n        /* \"#utility.yul\":1077:1083   */\n      0x00\n        /* \"#utility.yul\":1111:1116   */\n      dup2\n        /* \"#utility.yul\":1105:1117   */\n      mload\n        /* \"#utility.yul\":1095:1117   */\n      swap1\n      pop\n        /* \"#utility.yul\":1025:1124   */\n      swap2\n      swap1\n      pop\n      jump\t// out\n        /* \"#utility.yul\":1130:1299   */\n    tag_115:\n        /* \"#utility.yul\":1214:1225   */\n      0x00\n        /* \"#utility.yul\":1248:1254   */\n      dup3\n        /* \"#utility.yul\":1243:1246   */\n      dup3\n        /* \"#utility.yul\":1236:1255   */\n      mstore\n        /* \"#utility.yul\":1288:1292   */\n      0x20\n        /* \"#utility.yul\":1283:1286   */\n      dup3\n        /* \"#utility.yul\":1279:1293   */\n      add\n        /* \"#utility.yul\":1264:1293   */\n      swap1\n      pop\n        /* \"#utility.yul\":1130:1299   */\n      swap3\n      swap2\n      pop\n      pop\n      jump\t// out\n        /* \"#utility.yul\":1305:1444   */\n    tag_116:\n        /* \"#utility.yul\":1394:1400   */\n      dup3\n        /* \"#utility.yul\":1389:1392   */\n      dup2\n        /* \"#utility.yul\":1384:1387   */\n      dup4\n        /* \"#utility.yul\":1378:1401   */\n      mcopy\n        /* \"#utility.yul\":1435:1436   */\n      0x00\n        /* \"#utility.yul\":1426:1432   */\n      dup4\n        /* \"#utility.yul\":1421:1424   */\n      dup4\n        /* \"#utility.yul\":1417:1433   */\n      add\n        /* \"#utility.yul\":1410:1437   */\n      mstore\n        /* \"#utility.yul\":1305:1444   */\n      pop\n      pop\n      pop\n      jump\t// out\n        /* \"#utility.yul\":1450:1552   */\n    tag_117:\n        /* \"#utility.yul\":1491:1497   */\n      0x00\n        /* \"#utility.yul\":1542:1544   */\n      0x1f\n        /* \"#utility.yul\":1538:1545   */\n      not\n        /* \"#utility.yul\":1533:1535   */\n      0x1f\n        /* \"#utility.yul\":1526:1531   */\n      dup4\n        /* \"#utility.yul\":1522:1536   */\n      add\n        /* \"#utility.yul\":1518:1546   */\n      and\n        /* \"#utility.yul\":1508:1546   */\n      swap1\n      pop\n        /* \"#utility.yul\":1450:1552   */\n      swap2\n      swap1\n      pop\n      jump\t// out\n        /* \"#utility.yul\":1558:1935   */\n    tag_118:\n        /* \"#utility.yul\":1646:1649   */\n      0x00\n        /* \"#utility.yul\":1674:1713   */\n      tag_170\n        /* \"#utility.yul\":1707:1712   */\n      dup3\n        /* \"#utility.yul\":1674:1713   */\n      tag_114\n      jump\t// in\n    tag_170:\n        /* \"#utility.yul\":1729:1800   */\n      tag_171\n        /* \"#utility.yul\":1793:1799   */\n      dup2\n        /* \"#utility.yul\":1788:1791   */\n      dup6\n        /* \"#utility.yul\":1729:1800   */\n      tag_115\n      jump\t// in\n    tag_171:\n        /* \"#utility.yul\":1722:1800   */\n      swap4\n      pop\n        /* \"#utility.yul\":1809:1874   */\n      tag_172\n        /* \"#utility.yul\":1867:1873   */\n      dup2\n        /* \"#utility.yul\":1862:1865   */\n      dup6\n        /* \"#utility.yul\":1855:1859   */\n      0x20\n        /* \"#utility.yul\":1848:1853   */\n      dup7\n        /* \"#utility.yul\":1844:1860   */\n      add\n        /* \"#utility.yul\":1809:1874   */\n      tag_116\n      jump\t// in\n    tag_172:\n        /* \"#utility.yul\":1899:1928   */\n      tag_173\n        /* \"#utility.yul\":1921:1927   */\n      dup2\n        /* \"#utility.yul\":1899:1928   */\n      tag_117\n      jump\t// in\n    tag_173:\n        /* \"#utility.yul\":1894:1897   */\n      dup5\n        /* \"#utility.yul\":1890:1929   */\n      add\n        /* \"#utility.yul\":1883:1929   */\n      swap2\n      pop\n        /* \"#utility.yul\":1650:1935   */\n      pop\n        /* \"#utility.yul\":1558:1935   */\n      swap3\n      swap2\n      pop\n      pop\n      jump\t// out\n        /* \"#utility.yul\":1941:2254   */\n    tag_17:\n        /* \"#utility.yul\":2054:2058   */\n      0x00\n        /* \"#utility.yul\":2092:2094   */\n      0x20\n        /* \"#utility.yul\":2081:2090   */\n      dup3\n        /* \"#utility.yul\":2077:2095   */\n      add\n        /* \"#utility.yul\":2069:2095   */\n      swap1\n      pop\n        /* \"#utility.yul\":2141:2150   */\n      dup2\n        /* \"#utility.yul\":2135:2139   */\n      dup2\n        /* \"#utility.yul\":2131:2151   */\n      sub\n        /* \"#utility.yul\":2127:2128   */\n      0x00\n        /* \"#utility.yul\":2116:2125   */\n      dup4\n        /* \"#utility.yul\":2112:2129   */\n      add\n        /* \"#utility.yul\":2105:2152   */\n      mstore\n        /* \"#utility.yul\":2169:2247   */\n      tag_175\n        /* \"#utility.yul\":2242:2246   */\n      dup2\n        /* \"#utility.yul\":2233:2239   */\n      dup5\n        /* \"#utility.yul\":2169:2247   */\n      tag_118\n      jump\t// in\n    tag_175:\n        /* \"#utility.yul\":2161:2247   */\n      swap1\n      pop\n        /* \"#utility.yul\":1941:2254   */\n      swap3\n      swap2\n      pop\n      pop\n      jump\t// out\n        /* \"#utility.yul\":2260:2377   */\n    tag_119:\n        /* \"#utility.yul\":2369:2370   */\n      0x00\n        /* \"#utility.yul\":2366:2367   */\n      0x00\n        /* \"#utility.yul\":2359:2371   */\n      revert\n        /* \"#utility.yul\":2383:2500   */\n    tag_120:\n        /* \"#utility.yul\":2492:2493   */\n      0x00\n        /* \"#utility.yul\":2489:2490   */\n      0x00\n        /* \"#utility.yul\":2482:2494   */\n      revert\n        /* \"#utility.yul\":2506:2686   */\n    tag_121:\n        /* \"#utility.yul\":2554:2631   */\n      0x4e487b7100000000000000000000000000000000000000000000000000000000\n        /* \"#utility.yul\":2551:2552   */\n      0x00\n        /* \"#utility.yul\":2544:2632   */\n      mstore\n        /* \"#utility.yul\":2651:2655   */\n      0x41\n        /* \"#utility.yul\":2648:2649   */\n      0x04\n        /* \"#utility.yul\":2641:2656   */\n      mstore\n        /* \"#utility.yul\":2675:2679   */\n      0x24\n        /* \"#utility.yul\":2672:2673   */\n      0x00\n        /* \"#utility.yul\":2665:2680   */\n      revert\n        /* \"#utility.yul\":2692:2973   */\n    tag_122:\n        /* \"#utility.yul\":2775:2802   */\n      tag_180\n        /* \"#utility.yul\":2797:2801   */\n      dup3\n        /* \"#utility.yul\":2775:2802   */\n      tag_117\n      jump\t// in\n    tag_180:\n        /* \"#utility.yul\":2767:2773   */\n      dup2\n        /* \"#utility.yul\":2763:2803   */\n      add\n        /* \"#utility.yul\":2905:2911   */\n      dup2\n        /* \"#utility.yul\":2893:2903   */\n      dup2\n        /* \"#utility.yul\":2890:2912   */\n      lt\n        /* \"#utility.yul\":2869:2887   */\n      0xffffffffffffffff\n        /* \"#utility.yul\":2857:2867   */\n      dup3\n        /* \"#utility.yul\":2854:2888   */\n      gt\n        /* \"#utility.yul\":2851:2913   */\n      or\n        /* \"#utility.yul\":2848:2936   */\n      iszero\n      tag_181\n      jumpi\n        /* \"#utility.yul\":2916:2934   */\n      tag_182\n      tag_121\n      jump\t// in\n    tag_182:\n        /* \"#utility.yul\":2848:2936   */\n    tag_181:\n        /* \"#utility.yul\":2956:2966   */\n      dup1\n        /* \"#utility.yul\":2952:2954   */\n      0x40\n        /* \"#utility.yul\":2945:2967   */\n      mstore\n        /* \"#utility.yul\":2735:2973   */\n      pop\n        /* \"#utility.yul\":2692:2973   */\n      pop\n      pop\n      jump\t// out\n        /* \"#utility.yul\":2979:3108   */\n    tag_123:\n        /* \"#utility.yul\":3013:3019   */\n      0x00\n        /* \"#utility.yul\":3040:3060   */\n      tag_184\n      tag_108\n      jump\t// in\n    tag_184:\n        /* \"#utility.yul\":3030:3060   */\n      swap1\n      pop\n        /* \"#utility.yul\":3069:3102   */\n      tag_185\n        /* \"#utility.yul\":3097:3101   */\n      dup3\n        /* \"#utility.yul\":3089:3095   */\n      dup3\n        /* \"#utility.yul\":3069:3102   */\n      tag_122\n      jump\t// in\n    tag_185:\n        /* \"#utility.yul\":2979:3108   */\n      swap2\n      swap1\n      pop\n      jump\t// out\n        /* \"#utility.yul\":3114:3422   */\n    tag_124:\n        /* \"#utility.yul\":3176:3180   */\n      0x00\n        /* \"#utility.yul\":3266:3284   */\n      0xffffffffffffffff\n        /* \"#utility.yul\":3258:3264   */\n      dup3\n        /* \"#utility.yul\":3255:3285   */\n      gt\n        /* \"#utility.yul\":3252:3308   */\n      iszero\n      tag_187\n      jumpi\n        /* \"#utility.yul\":3288:3306   */\n      tag_188\n      tag_121\n      jump\t// in\n    tag_188:\n        /* \"#utility.yul\":3252:3308   */\n    tag_187:\n        /* \"#utility.yul\":3326:3355   */\n      tag_189\n        /* \"#utility.yul\":3348:3354   */\n      dup3\n        /* \"#utility.yul\":3326:3355   */\n      tag_117\n      jump\t// in\n    tag_189:\n        /* \"#utility.yul\":3318:3355   */\n      swap1\n      pop\n        /* \"#utility.yul\":3410:3414   */\n      0x20\n        /* \"#utility.yul\":3404:3408   */\n      dup2\n        /* \"#utility.yul\":3400:3415   */\n      add\n        /* \"#utility.yul\":3392:3415   */\n      swap1\n      pop\n        /* \"#utility.yul\":3114:3422   */\n      swap2\n      swap1\n      pop\n      jump\t// out\n        /* \"#utility.yul\":3428:3576   */\n    tag_125:\n        /* \"#utility.yul\":3526:3532   */\n      dup3\n        /* \"#utility.yul\":3521:3524   */\n      dup2\n        /* \"#utility.yul\":3516:3519   */\n      dup4\n        /* \"#utility.yul\":3503:3533   */\n      calldatacopy\n        /* \"#utility.yul\":3567:3568   */\n      0x00\n        /* \"#utility.yul\":3558:3564   */\n      dup4\n        /* \"#utility.yul\":3553:3556   */\n      dup4\n        /* \"#utility.yul\":3549:3565   */\n      add\n        /* \"#utility.yul\":3542:3569   */\n      mstore\n        /* \"#utility.yul\":3428:3576   */\n      pop\n      pop\n      pop\n      jump\t// out\n        /* \"#utility.yul\":3582:4007   */\n    tag_126:\n        /* \"#utility.yul\":3660:3665   */\n      0x00\n        /* \"#utility.yul\":3685:3751   */\n      tag_192\n        /* \"#utility.yul\":3701:3750   */\n      tag_193\n        /* \"#utility.yul\":3743:3749   */\n      dup5\n        /* \"#utility.yul\":3701:3750   */\n      tag_124\n      jump\t// in\n    tag_193:\n        /* \"#utility.yul\":3685:3751   */\n      tag_123\n      jump\t// in\n    tag_192:\n        /* \"#utility.yul\":3676:3751   */\n      swap1\n      pop\n        /* \"#utility.yul\":3774:3780   */\n      dup3\n        /* \"#utility.yul\":3767:3772   */\n      dup2\n        /* \"#utility.yul\":3760:3781   */\n      mstore\n        /* \"#utility.yul\":3812:3816   */\n      0x20\n        /* \"#utility.yul\":3805:3810   */\n      dup2\n        /* \"#utility.yul\":3801:3817   */\n      add\n        /* \"#utility.yul\":3850:3853   */\n      dup5\n        /* \"#utility.yul\":3841:3847   */\n      dup5\n        /* \"#utility.yul\":3836:3839   */\n      dup5\n        /* \"#utility.yul\":3832:3848   */\n      add\n        /* \"#utility.yul\":3829:3854   */\n      gt\n        /* \"#utility.yul\":3826:3938   */\n      iszero\n      tag_194\n      jumpi\n        /* \"#utility.yul\":3857:3936   */\n      tag_195\n      tag_120\n      jump\t// in\n    tag_195:\n        /* \"#utility.yul\":3826:3938   */\n    tag_194:\n        /* \"#utility.yul\":3947:4001   */\n      tag_196\n        /* \"#utility.yul\":3994:4000   */\n      dup5\n        /* \"#utility.yul\":3989:3992   */\n      dup3\n        /* \"#utility.yul\":3984:3987   */\n      dup6\n        /* \"#utility.yul\":3947:4001   */\n      tag_125\n      jump\t// in\n    tag_196:\n        /* \"#utility.yul\":3666:4007   */\n      pop\n        /* \"#utility.yul\":3582:4007   */\n      swap4\n      swap3\n      pop\n      pop\n      pop\n      jump\t// out\n        /* \"#utility.yul\":4027:4367   */\n    tag_127:\n        /* \"#utility.yul\":4083:4088   */\n      0x00\n        /* \"#utility.yul\":4132:4135   */\n      dup3\n        /* \"#utility.yul\":4125:4129   */\n      0x1f\n        /* \"#utility.yul\":4117:4123   */\n      dup4\n        /* \"#utility.yul\":4113:4130   */\n      add\n        /* \"#utility.yul\":4109:4136   */\n      slt\n        /* \"#utility.yul\":4099:4221   */\n      tag_198\n      jumpi\n        /* \"#utility.yul\":4140:4219   */\n      tag_199\n      tag_119\n      jump\t// in\n    tag_199:\n        /* \"#utility.yul\":4099:4221   */\n    tag_198:\n        /* \"#utility.yul\":4257:4263   */\n      dup2\n        /* \"#utility.yul\":4244:4264   */\n      calldataload\n        /* \"#utility.yul\":4282:4361   */\n      tag_200\n        /* \"#utility.yul\":4357:4360   */\n      dup5\n        /* \"#utility.yul\":4349:4355   */\n      dup3\n        /* \"#utility.yul\":4342:4346   */\n      0x20\n        /* \"#utility.yul\":4334:4340   */\n      dup7\n        /* \"#utility.yul\":4330:4347   */\n      add\n        /* \"#utility.yul\":4282:4361   */\n      tag_126\n      jump\t// in\n    tag_200:\n        /* \"#utility.yul\":4273:4361   */\n      swap2\n      pop\n        /* \"#utility.yul\":4089:4367   */\n      pop\n        /* \"#utility.yul\":4027:4367   */\n      swap3\n      swap2\n      pop\n      pop\n      jump\t// out\n        /* \"#utility.yul\":4373:4882   */\n    tag_20:\n        /* \"#utility.yul\":4442:4448   */\n      0x00\n        /* \"#utility.yul\":4491:4493   */\n      0x20\n        /* \"#utility.yul\":4479:4488   */\n      dup3\n        /* \"#utility.yul\":4470:4477   */\n      dup5\n        /* \"#utility.yul\":4466:4489   */\n      sub\n        /* \"#utility.yul\":4462:4494   */\n      slt\n        /* \"#utility.yul\":4459:4578   */\n      iszero\n      tag_202\n      jumpi\n        /* \"#utility.yul\":4497:4576   */\n      tag_203\n      tag_109\n      jump\t// in\n    tag_203:\n        /* \"#utility.yul\":4459:4578   */\n    tag_202:\n        /* \"#utility.yul\":4645:4646   */\n      0x00\n        /* \"#utility.yul\":4634:4643   */\n      dup3\n        /* \"#utility.yul\":4630:4647   */\n      add\n        /* \"#utility.yul\":4617:4648   */\n      calldataload\n        /* \"#utility.yul\":4675:4693   */\n      0xffffffffffffffff\n        /* \"#utility.yul\":4667:4673   */\n      dup2\n        /* \"#utility.yul\":4664:4694   */\n      gt\n        /* \"#utility.yul\":4661:4778   */\n      iszero\n      tag_204\n      jumpi\n        /* \"#utility.yul\":4697:4776   */\n      tag_205\n      tag_110\n      jump\t// in\n    tag_205:\n        /* \"#utility.yul\":4661:4778   */\n    tag_204:\n        /* \"#utility.yul\":4802:4865   */\n      tag_206\n        /* \"#utility.yul\":4857:4864   */\n      dup5\n        /* \"#utility.yul\":4848:4854   */\n      dup3\n        /* \"#utility.yul\":4837:4846   */\n      dup6\n        /* \"#utility.yul\":4833:4855   */\n      add\n        /* \"#utility.yul\":4802:4865   */\n      tag_127\n      jump\t// in\n    tag_206:\n        /* \"#utility.yul\":4792:4865   */\n      swap2\n      pop\n        /* \"#utility.yul\":4588:4875   */\n      pop\n        /* \"#utility.yul\":4373:4882   */\n      swap3\n      swap2\n      pop\n      pop\n      jump\t// out\n        /* \"#utility.yul\":4888:5542   */\n    tag_31:\n        /* \"#utility.yul\":4966:4972   */\n      0x00\n        /* \"#utility.yul\":4974:4980   */\n      0x00\n        /* \"#utility.yul\":5023:5025   */\n      0x40\n        /* \"#utility.yul\":5011:5020   */\n      dup4\n        /* \"#utility.yul\":5002:5009   */\n      dup6\n        /* \"#utility.yul\":4998:5021   */\n      sub\n        /* \"#utility.yul\":4994:5026   */\n      slt\n        /* \"#utility.yul\":4991:5110   */\n      iszero\n      tag_208\n      jumpi\n        /* \"#utility.yul\":5029:5108   */\n      tag_209\n      tag_109\n      jump\t// in\n    tag_209:\n        /* \"#utility.yul\":4991:5110   */\n    tag_208:\n        /* \"#utility.yul\":5177:5178   */\n      0x00\n        /* \"#utility.yul\":5166:5175   */\n      dup4\n        /* \"#utility.yul\":5162:5179   */\n      add\n        /* \"#utility.yul\":5149:5180   */\n      calldataload\n        /* \"#utility.yul\":5207:5225   */\n      0xffffffffffffffff\n        /* \"#utility.yul\":5199:5205   */\n      dup2\n        /* \"#utility.yul\":5196:5226   */\n      gt\n        /* \"#utility.yul\":5193:5310   */\n      iszero\n      tag_210\n      jumpi\n        /* \"#utility.yul\":5229:5308   */\n      tag_211\n      tag_110\n      jump\t// in\n    tag_211:\n        /* \"#utility.yul\":5193:5310   */\n    tag_210:\n        /* \"#utility.yul\":5334:5397   */\n      tag_212\n        /* \"#utility.yul\":5389:5396   */\n      dup6\n        /* \"#utility.yul\":5380:5386   */\n      dup3\n        /* \"#utility.yul\":5369:5378   */\n      dup7\n        /* \"#utility.yul\":5365:5387   */\n      add\n        /* \"#utility.yul\":5334:5397   */\n      tag_127\n      jump\t// in\n    tag_212:\n        /* \"#utility.yul\":5324:5397   */\n      swap3\n      pop\n        /* \"#utility.yul\":5120:5407   */\n      pop\n        /* \"#utility.yul\":5446:5448   */\n      0x20\n        /* \"#utility.yul\":5472:5525   */\n      tag_213\n        /* \"#utility.yul\":5517:5524   */\n      dup6\n        /* \"#utility.yul\":5508:5514   */\n      dup3\n        /* \"#utility.yul\":5497:5506   */\n      dup7\n        /* \"#utility.yul\":5493:5515   */\n      add\n        /* \"#utility.yul\":5472:5525   */\n      tag_113\n      jump\t// in\n    tag_213:\n        /* \"#utility.yul\":5462:5525   */\n      swap2\n      pop\n        /* \"#utility.yul\":5417:5535   */\n      pop\n        /* \"#utility.yul\":4888:5542   */\n      swap3\n      pop\n      swap3\n      swap1\n      pop\n      jump\t// out\n        /* \"#utility.yul\":5548:5666   */\n    tag_128:\n        /* \"#utility.yul\":5635:5659   */\n      tag_215\n        /* \"#utility.yul\":5653:5658   */\n      dup2\n        /* \"#utility.yul\":5635:5659   */\n      tag_111\n      jump\t// in\n    tag_215:\n        /* \"#utility.yul\":5630:5633   */\n      dup3\n        /* \"#utility.yul\":5623:5660   */\n      mstore\n        /* \"#utility.yul\":5548:5666   */\n      pop\n      pop\n      jump\t// out\n        /* \"#utility.yul\":5672:5798   */\n    tag_129:\n        /* \"#utility.yul\":5709:5716   */\n      0x00\n        /* \"#utility.yul\":5749:5791   */\n      0xffffffffffffffffffffffffffffffffffffffff\n        /* \"#utility.yul\":5742:5747   */\n      dup3\n        /* \"#utility.yul\":5738:5792   */\n      and\n        /* \"#utility.yul\":5727:5792   */\n      swap1\n      pop\n        /* \"#utility.yul\":5672:5798   */\n      swap2\n      swap1\n      pop\n      jump\t// out\n        /* \"#utility.yul\":5804:5900   */\n    tag_130:\n        /* \"#utility.yul\":5841:5848   */\n      0x00\n        /* \"#utility.yul\":5870:5894   */\n      tag_218\n        /* \"#utility.yul\":5888:5893   */\n      dup3\n        /* \"#utility.yul\":5870:5894   */\n      tag_129\n      jump\t// in\n    tag_218:\n        /* \"#utility.yul\":5859:5894   */\n      swap1\n      pop\n        /* \"#utility.yul\":5804:5900   */\n      swap2\n      swap1\n      pop\n      jump\t// out\n        /* \"#utility.yul\":5906:6024   */\n    tag_131:\n        /* \"#utility.yul\":5993:6017   */\n      tag_220\n        /* \"#utility.yul\":6011:6016   */\n      dup2\n        /* \"#utility.yul\":5993:6017   */\n      tag_130\n      jump\t// in\n    tag_220:\n        /* \"#utility.yul\":5988:5991   */\n      dup3\n        /* \"#utility.yul\":5981:6018   */\n      mstore\n        /* \"#utility.yul\":5906:6024   */\n      pop\n      pop\n      jump\t// out\n        /* \"#utility.yul\":6030:6563   */\n    tag_43:\n        /* \"#utility.yul\":6199:6203   */\n      0x00\n        /* \"#utility.yul\":6237:6239   */\n      0x60\n        /* \"#utility.yul\":6226:6235   */\n      dup3\n        /* \"#utility.yul\":6222:6240   */\n      add\n        /* \"#utility.yul\":6214:6240   */\n      swap1\n      pop\n        /* \"#utility.yul\":6286:6295   */\n      dup2\n        /* \"#utility.yul\":6280:6284   */\n      dup2\n        /* \"#utility.yul\":6276:6296   */\n      sub\n        /* \"#utility.yul\":6272:6273   */\n      0x00\n        /* \"#utility.yul\":6261:6270   */\n      dup4\n        /* \"#utility.yul\":6257:6274   */\n      add\n        /* \"#utility.yul\":6250:6297   */\n      mstore\n        /* \"#utility.yul\":6314:6392   */\n      tag_222\n        /* \"#utility.yul\":6387:6391   */\n      dup2\n        /* \"#utility.yul\":6378:6384   */\n      dup7\n        /* \"#utility.yul\":6314:6392   */\n      tag_118\n      jump\t// in\n    tag_222:\n        /* \"#utility.yul\":6306:6392   */\n      swap1\n      pop\n        /* \"#utility.yul\":6402:6474   */\n      tag_223\n        /* \"#utility.yul\":6470:6472   */\n      0x20\n        /* \"#utility.yul\":6459:6468   */\n      dup4\n        /* \"#utility.yul\":6455:6473   */\n      add\n        /* \"#utility.yul\":6446:6452   */\n      dup6\n        /* \"#utility.yul\":6402:6474   */\n      tag_128\n      jump\t// in\n    tag_223:\n        /* \"#utility.yul\":6484:6556   */\n      tag_224\n        /* \"#utility.yul\":6552:6554   */\n      0x40\n        /* \"#utility.yul\":6541:6550   */\n      dup4\n        /* \"#utility.yul\":6537:6555   */\n      add\n        /* \"#utility.yul\":6528:6534   */\n      dup5\n        /* \"#utility.yul\":6484:6556   */\n      tag_131\n      jump\t// in\n    tag_224:\n        /* \"#utility.yul\":6030:6563   */\n      swap5\n      swap4\n      pop\n      pop\n      pop\n      pop\n      jump\t// out\n        /* \"#utility.yul\":6569:6749   */\n    tag_50:\n        /* \"#utility.yul\":6617:6694   */\n      0x4e487b7100000000000000000000000000000000000000000000000000000000\n        /* \"#utility.yul\":6614:6615   */\n      0x00\n        /* \"#utility.yul\":6607:6695   */\n      mstore\n        /* \"#utility.yul\":6714:6718   */\n      0x32\n        /* \"#utility.yul\":6711:6712   */\n      0x04\n        /* \"#utility.yul\":6704:6719   */\n      mstore\n        /* \"#utility.yul\":6738:6742   */\n      0x24\n        /* \"#utility.yul\":6735:6736   */\n      0x00\n        /* \"#utility.yul\":6728:6743   */\n      revert\n        /* \"#utility.yul\":6755:6935   */\n    tag_132:\n        /* \"#utility.yul\":6803:6880   */\n      0x4e487b7100000000000000000000000000000000000000000000000000000000\n        /* \"#utility.yul\":6800:6801   */\n      0x00\n        /* \"#utility.yul\":6793:6881   */\n      mstore\n        /* \"#utility.yul\":6900:6904   */\n      0x22\n        /* \"#utility.yul\":6897:6898   */\n      0x04\n        /* \"#utility.yul\":6890:6905   */\n      mstore\n        /* \"#utility.yul\":6924:6928   */\n      0x24\n        /* \"#utility.yul\":6921:6922   */\n      0x00\n        /* \"#utility.yul\":6914:6929   */\n      revert\n        /* \"#utility.yul\":6941:7261   */\n    tag_58:\n        /* \"#utility.yul\":6985:6991   */\n      0x00\n        /* \"#utility.yul\":7022:7023   */\n      0x02\n        /* \"#utility.yul\":7016:7020   */\n      dup3\n        /* \"#utility.yul\":7012:7024   */\n      div\n        /* \"#utility.yul\":7002:7024   */\n      swap1\n      pop\n        /* \"#utility.yul\":7069:7070   */\n      0x01\n        /* \"#utility.yul\":7063:7067   */\n      dup3\n        /* \"#utility.yul\":7059:7071   */\n      and\n        /* \"#utility.yul\":7090:7108   */\n      dup1\n        /* \"#utility.yul\":7080:7161   */\n      tag_228\n      jumpi\n        /* \"#utility.yul\":7146:7150   */\n      0x7f\n        /* \"#utility.yul\":7138:7144   */\n      dup3\n        /* \"#utility.yul\":7134:7151   */\n      and\n        /* \"#utility.yul\":7124:7151   */\n      swap2\n      pop\n        /* \"#utility.yul\":7080:7161   */\n    tag_228:\n        /* \"#utility.yul\":7208:7210   */\n      0x20\n        /* \"#utility.yul\":7200:7206   */\n      dup3\n        /* \"#utility.yul\":7197:7211   */\n      lt\n        /* \"#utility.yul\":7177:7195   */\n      dup2\n        /* \"#utility.yul\":7174:7212   */\n      sub\n        /* \"#utility.yul\":7171:7255   */\n      tag_229\n      jumpi\n        /* \"#utility.yul\":7227:7245   */\n      tag_230\n      tag_132\n      jump\t// in\n    tag_230:\n        /* \"#utility.yul\":7171:7255   */\n    tag_229:\n        /* \"#utility.yul\":6992:7261   */\n      pop\n        /* \"#utility.yul\":6941:7261   */\n      swap2\n      swap1\n      pop\n      jump\t// out\n        /* \"#utility.yul\":7267:7408   */\n    tag_133:\n        /* \"#utility.yul\":7316:7320   */\n      0x00\n        /* \"#utility.yul\":7339:7342   */\n      dup2\n        /* \"#utility.yul\":7331:7342   */\n      swap1\n      pop\n        /* \"#utility.yul\":7362:7365   */\n      dup2\n        /* \"#utility.yul\":7359:7360   */\n      0x00\n        /* \"#utility.yul\":7352:7366   */\n      mstore\n        /* \"#utility.yul\":7396:7400   */\n      0x20\n        /* \"#utility.yul\":7393:7394   */\n      0x00\n        /* \"#utility.yul\":7383:7401   */\n      keccak256\n        /* \"#utility.yul\":7375:7401   */\n      swap1\n      pop\n        /* \"#utility.yul\":7267:7408   */\n      swap2\n      swap1\n      pop\n      jump\t// out\n        /* \"#utility.yul\":7414:7507   */\n    tag_134:\n        /* \"#utility.yul\":7451:7457   */\n      0x00\n        /* \"#utility.yul\":7498:7500   */\n      0x20\n        /* \"#utility.yul\":7493:7495   */\n      0x1f\n        /* \"#utility.yul\":7486:7491   */\n      dup4\n        /* \"#utility.yul\":7482:7496   */\n      add\n        /* \"#utility.yul\":7478:7501   */\n      div\n        /* \"#utility.yul\":7468:7501   */\n      swap1\n      pop\n        /* \"#utility.yul\":7414:7507   */\n      swap2\n      swap1\n      pop\n      jump\t// out\n        /* \"#utility.yul\":7513:7620   */\n    tag_135:\n        /* \"#utility.yul\":7557:7565   */\n      0x00\n        /* \"#utility.yul\":7607:7612   */\n      dup3\n        /* \"#utility.yul\":7601:7605   */\n      dup3\n        /* \"#utility.yul\":7597:7613   */\n      shl\n        /* \"#utility.yul\":7576:7613   */\n      swap1\n      pop\n        /* \"#utility.yul\":7513:7620   */\n      swap3\n      swap2\n      pop\n      pop\n      jump\t// out\n        /* \"#utility.yul\":7626:8019   */\n    tag_136:\n        /* \"#utility.yul\":7695:7701   */\n      0x00\n        /* \"#utility.yul\":7745:7746   */\n      0x08\n        /* \"#utility.yul\":7733:7743   */\n      dup4\n        /* \"#utility.yul\":7729:7747   */\n      mul\n        /* \"#utility.yul\":7768:7865   */\n      tag_235\n        /* \"#utility.yul\":7798:7864   */\n      0xffffffffffffffffffffffffffffffffffffffffffffffffffffffffffffffff\n        /* \"#utility.yul\":7787:7796   */\n      dup3\n        /* \"#utility.yul\":7768:7865   */\n      tag_135\n      jump\t// in\n    tag_235:\n        /* \"#utility.yul\":7886:7925   */\n      tag_236\n        /* \"#utility.yul\":7916:7924   */\n      dup7\n        /* \"#utility.yul\":7905:7914   */\n      dup4\n        /* \"#utility.yul\":7886:7925   */\n      tag_135\n      jump\t// in\n    tag_236:\n        /* \"#utility.yul\":7874:7925   */\n      swap6\n      pop\n        /* \"#utility.yul\":7958:7962   */\n      dup1\n        /* \"#utility.yul\":7954:7963   */\n      not\n        /* \"#utility.yul\":7947:7952   */\n      dup5\n        /* \"#utility.yul\":7943:7964   */\n      and\n        /* \"#utility.yul\":7934:7964   */\n      swap4\n      pop\n        /* \"#utility.yul\":8007:8011   */\n      dup1\n        /* \"#utility.yul\":7997:8005   */\n      dup7\n        /* \"#utility.yul\":7993:8012   */\n      and\n        /* \"#utility.yul\":7986:7991   */\n      dup5\n        /* \"#utility.yul\":7983:8013   */\n      or\n        /* \"#utility.yul\":7973:8013   */\n      swap3\n      pop\n        /* \"#utility.yul\":7702:8019   */\n      pop\n      pop\n        /* \"#utility.yul\":7626:8019   */\n      swap4\n      swap3\n      pop\n      pop\n      pop\n      jump\t// out\n        /* \"#utility.yul\":8025:8085   */\n    tag_137:\n        /* \"#utility.yul\":8053:8056   */\n      0x00\n        /* \"#utility.yul\":8074:8079   */\n      dup2\n        /* \"#utility.yul\":8067:8079   */\n      swap1\n      pop\n        /* \"#utility.yul\":8025:8085   */\n      swap2\n      swap1\n      pop\n      jump\t// out\n        /* \"#utility.yul\":8091:8233   */\n    tag_138:\n        /* \"#utility.yul\":8141:8150   */\n      0x00\n        /* \"#utility.yul\":8174:8227   */\n      tag_239\n        /* \"#utility.yul\":8192:8226   */\n      tag_240\n        /* \"#utility.yul\":8201:8225   */\n      tag_241\n        /* \"#utility.yul\":8219:8224   */\n      dup5\n        /* \"#utility.yul\":8201:8225   */\n      tag_111\n      jump\t// in\n    tag_241:\n        /* \"#utility.yul\":8192:8226   */\n      tag_137\n      jump\t// in\n    tag_240:\n        /* \"#utility.yul\":8174:8227   */\n      tag_111\n      jump\t// in\n    tag_239:\n        /* \"#utility.yul\":8161:8227   */\n      swap1\n      pop\n        /* \"#utility.yul\":8091:8233   */\n      swap2\n      swap1\n      pop\n      jump\t// out\n        /* \"#utility.yul\":8239:8314   */\n    tag_139:\n        /* \"#utility.yul\":8282:8285   */\n      0x00\n        /* \"#utility.yul\":8303:8308   */\n      dup2\n        /* \"#utility.yul\":8296:8308   */\n      swap1\n      pop\n        /* \"#utility.yul\":8239:8314   */\n      swap2\n      swap1\n      pop\n      jump\t// out\n        /* \"#utility.yul\":8320:8589   */\n    tag_140:\n        /* \"#utility.yul\":8430:8469   */\n      tag_244\n        /* \"#utility.yul\":8461:8468   */\n      dup4\n        /* \"#utility.yul\":8430:8469   */\n      tag_138\n      jump\t// in\n    tag_244:\n        /* \"#utility.yul\":8491:8582   */\n      tag_245\n        /* \"#utility.yul\":8540:8581   */\n      tag_246\n        /* \"#utility.yul\":8564:8580   */\n      dup3\n        /* \"#utility.yul\":8540:8581   */\n      tag_139\n      jump\t// in\n    tag_246:\n        /* \"#utility.yul\":8532:8538   */\n      dup5\n        /* \"#utility.yul\":8525:8529   */\n      dup5\n        /* \"#utility.yul\":8519:8530   */\n      sload\n        /* \"#utility.yul\":8491:8582   */\n      tag_136\n      jump\t// in\n    tag_245:\n        /* \"#utility.yul\":8485:8489   */\n      dup3\n        /* \"#utility.yul\":8478:8583   */\n      sstore\n        /* \"#utility.yul\":8396:8589   */\n      pop\n        /* \"#utility.yul\":8320:8589   */\n      pop\n      pop\n      pop\n      jump\t// out\n        /* \"#utility.yul\":8595:8668   */\n    tag_141:\n        /* \"#utility.yul\":8640:8643   */\n      0x00\n        /* \"#utility.yul\":8661:8662   */\n      0x00\n        /* \"#utility.yul\":8654:8662   */\n      swap1\n      pop\n        /* \"#utility.yul\":8595:8668   */\n      swap1\n      jump\t// out\n        /* \"#utility.yul\":8674:8863   */\n    tag_142:\n        /* \"#utility.yul\":8751:8783   */\n      tag_249\n      tag_141\n      jump\t// in\n    tag_249:\n        /* \"#utility.yul\":8792:8857   */\n      tag_250\n        /* \"#utility.yul\":8850:8856   */\n      dup2\n        /* \"#utility.yul\":8842:8848   */\n      dup5\n        /* \"#utility.yul\":8836:8840   */\n      dup5\n        /* \"#utility.yul\":8792:8857   */\n      tag_140\n      jump\t// in\n    tag_250:\n        /* \"#utility.yul\":8727:8863   */\n      pop\n        /* \"#utility.yul\":8674:8863   */\n      pop\n      pop\n      jump\t// out\n        /* \"#utility.yul\":8869:9083   */\n    tag_143:\n        /* \"#utility.yul\":8954:8955   */\n      0x00\n        /* \"#utility.yul\":8939:9077   */\n    tag_252:\n        /* \"#utility.yul\":8964:8973   */\n      dup3\n        /* \"#utility.yul\":8961:8962   */\n      dup2\n        /* \"#utility.yul\":8958:8974   */\n      lt\n        /* \"#utility.yul\":8939:9077   */\n      iszero\n      tag_254\n      jumpi\n        /* \"#utility.yul\":9016:9067   */\n      tag_255\n        /* \"#utility.yul\":9065:9066   */\n      0x00\n        /* \"#utility.yul\":9061:9062   */\n      dup3\n        /* \"#utility.yul\":9050:9059   */\n      dup5\n        /* \"#utility.yul\":9046:9063   */\n      add\n        /* \"#utility.yul\":9016:9067   */\n      tag_142\n      jump\t// in\n    tag_255:\n        /* \"#utility.yul\":8989:8990   */\n      0x01\n        /* \"#utility.yul\":8986:8987   */\n      dup2\n        /* \"#utility.yul\":8982:8991   */\n      add\n        /* \"#utility.yul\":8977:8991   */\n      swap1\n      pop\n        /* \"#utility.yul\":8939:9077   */\n      jump(tag_252)\n    tag_254:\n        /* \"#utility.yul\":8943:8957   */\n      pop\n        /* \"#utility.yul\":8869:9083   */\n      pop\n      pop\n      jump\t// out\n        /* \"#utility.yul\":9089:9835   */\n    tag_144:\n        /* \"#utility.yul\":9190:9192   */\n      0x1f\n        /* \"#utility.yul\":9185:9188   */\n      dup3\n        /* \"#utility.yul\":9182:9193   */\n      gt\n        /* \"#utility.yul\":9179:9828   */\n      iszero\n      tag_257\n      jumpi\n        /* \"#utility.yul\":9219:9229   */\n      dup3\n        /* \"#utility.yul\":9214:9217   */\n      dup3\n        /* \"#utility.yul\":9211:9230   */\n      gt\n        /* \"#utility.yul\":9208:9818   */\n      iszero\n      tag_258\n      jumpi\n        /* \"#utility.yul\":9265:9303   */\n      tag_259\n        /* \"#utility.yul\":9297:9302   */\n      dup2\n        /* \"#utility.yul\":9265:9303   */\n      tag_133\n      jump\t// in\n    tag_259:\n        /* \"#utility.yul\":9340:9362   */\n      tag_260\n        /* \"#utility.yul\":9358:9361   */\n      dup4\n        /* \"#utility.yul\":9340:9362   */\n      tag_134\n      jump\t// in\n    tag_260:\n        /* \"#utility.yul\":9399:9428   */\n      tag_261\n        /* \"#utility.yul\":9417:9427   */\n      dup6\n        /* \"#utility.yul\":9399:9428   */\n      tag_134\n      jump\t// in\n    tag_261:\n        /* \"#utility.yul\":9589:9591   */\n      0x20\n        /* \"#utility.yul\":9577:9587   */\n      dup7\n        /* \"#utility.yul\":9574:9592   */\n      lt\n        /* \"#utility.yul\":9571:9650   */\n      iszero\n      tag_262\n      jumpi\n        /* \"#utility.yul\":9631:9632   */\n      0x00\n        /* \"#utility.yul\":9615:9632   */\n      swap1\n      pop\n        /* \"#utility.yul\":9571:9650   */\n    tag_262:\n        /* \"#utility.yul\":9700:9712   */\n      dup1\n        /* \"#utility.yul\":9690:9698   */\n      dup4\n        /* \"#utility.yul\":9686:9713   */\n      add\n        /* \"#utility.yul\":9730:9804   */\n      tag_263\n        /* \"#utility.yul\":9790:9802   */\n      dup3\n        /* \"#utility.yul\":9776:9788   */\n      dup5\n        /* \"#utility.yul\":9772:9803   */\n      sub\n        /* \"#utility.yul\":9759:9770   */\n      dup3\n        /* \"#utility.yul\":9730:9804   */\n      tag_143\n      jump\t// in\n    tag_263:\n        /* \"#utility.yul\":9231:9818   */\n      pop\n      pop\n      pop\n      pop\n        /* \"#utility.yul\":9208:9818   */\n    tag_258:\n        /* \"#utility.yul\":9179:9828   */\n    tag_257:\n        /* \"#utility.yul\":9089:9835   */\n      pop\n      pop\n      pop\n      jump\t// out\n        /* \"#utility.yul\":9841:9958   */\n    tag_145:\n        /* \"#utility.yul\":9895:9903   */\n      0x00\n        /* \"#utility.yul\":9945:9950   */\n      dup3\n        /* \"#utility.yul\":9939:9943   */\n      dup3\n        /* \"#utility.yul\":9935:9951   */\n      shr\n        /* \"#utility.yul\":9914:9951   */\n      swap1\n      pop\n        /* \"#utility.yul\":9841:9958   */\n      swap3\n      swap2\n      pop\n      pop\n      jump\t// out\n        /* \"#utility.yul\":9964:10133   */\n    tag_146:\n        /* \"#utility.yul\":10008:10014   */\n      0x00\n        /* \"#utility.yul\":10041:10092   */\n      tag_266\n        /* \"#utility.yul\":10089:10090   */\n      0x00\n        /* \"#utility.yul\":10085:10091   */\n      not\n        /* \"#utility.yul\":10077:10082   */\n      dup5\n        /* \"#utility.yul\":10074:10075   */\n      0x08\n        /* \"#utility.yul\":10070:10083   */\n      mul\n        /* \"#utility.yul\":10041:10092   */\n      tag_145\n      jump\t// in\n    tag_266:\n        /* \"#utility.yul\":10037:10093   */\n      not\n        /* \"#utility.yul\":10122:10126   */\n      dup1\n        /* \"#utility.yul\":10116:10120   */\n      dup4\n        /* \"#utility.yul\":10112:10127   */\n      and\n        /* \"#utility.yul\":10102:10127   */\n      swap2\n      pop\n        /* \"#utility.yul\":10015:10133   */\n      pop\n        /* \"#utility.yul\":9964:10133   */\n      swap3\n      swap2\n      pop\n      pop\n      jump\t// out\n        /* \"#utility.yul\":10138:10433   */\n    tag_147:\n        /* \"#utility.yul\":10214:10218   */\n      0x00\n        /* \"#utility.yul\":10360:10389   */\n      tag_268\n        /* \"#utility.yul\":10385:10388   */\n      dup4\n        /* \"#utility.yul\":10379:10383   */\n      dup4\n        /* \"#utility.yul\":10360:10389   */\n      tag_146\n      jump\t// in\n    tag_268:\n        /* \"#utility.yul\":10352:10389   */\n      swap2\n      pop\n        /* \"#utility.yul\":10422:10425   */\n      dup3\n        /* \"#utility.yul\":10419:10420   */\n      0x02\n        /* \"#utility.yul\":10415:10426   */\n      mul\n        /* \"#utility.yul\":10409:10413   */\n      dup3\n        /* \"#utility.yul\":10406:10427   */\n      or\n        /* \"#utility.yul\":10398:10427   */\n      swap1\n      pop\n        /* \"#utility.yul\":10138:10433   */\n      swap3\n      swap2\n      pop\n      pop\n      jump\t// out\n        /* \"#utility.yul\":10438:11833   */\n    tag_72:\n        /* \"#utility.yul\":10555:10592   */\n      tag_270\n        /* \"#utility.yul\":10588:10591   */\n      dup3\n        /* \"#utility.yul\":10555:10592   */\n      tag_114\n      jump\t// in\n    tag_270:\n        /* \"#utility.yul\":10657:10675   */\n      0xffffffffffffffff\n        /* \"#utility.yul\":10649:10655   */\n      dup2\n        /* \"#utility.yul\":10646:10676   */\n      gt\n        /* \"#utility.yul\":10643:10699   */\n      iszero\n      tag_271\n      jumpi\n        /* \"#utility.yul\":10679:10697   */\n      tag_272\n      tag_121\n      jump\t// in\n    tag_272:\n        /* \"#utility.yul\":10643:10699   */\n    tag_271:\n        /* \"#utility.yul\":10723:10761   */\n      tag_273\n        /* \"#utility.yul\":10755:10759   */\n      dup3\n        /* \"#utility.yul\":10749:10760   */\n      sload\n        /* \"#utility.yul\":10723:10761   */\n      tag_58\n      jump\t// in\n    tag_273:\n        /* \"#utility.yul\":10808:10875   */\n      tag_274\n        /* \"#utility.yul\":10868:10874   */\n      dup3\n        /* \"#utility.yul\":10860:10866   */\n      dup3\n        /* \"#utility.yul\":10854:10858   */\n      dup6\n        /* \"#utility.yul\":10808:10875   */\n      tag_144\n      jump\t// in\n    tag_274:\n        /* \"#utility.yul\":10902:10903   */\n      0x00\n        /* \"#utility.yul\":10926:10930   */\n      0x20\n        /* \"#utility.yul\":10913:10930   */\n      swap1\n      pop\n        /* \"#utility.yul\":10958:10960   */\n      0x1f\n        /* \"#utility.yul\":10950:10956   */\n      dup4\n        /* \"#utility.yul\":10947:10961   */\n      gt\n        /* \"#utility.yul\":10975:10976   */\n      0x01\n        /* \"#utility.yul\":10970:11588   */\n      dup2\n      eq\n      tag_276\n      jumpi\n        /* \"#utility.yul\":11632:11633   */\n      0x00\n        /* \"#utility.yul\":11649:11655   */\n      dup5\n        /* \"#utility.yul\":11646:11723   */\n      iszero\n      tag_277\n      jumpi\n        /* \"#utility.yul\":11698:11707   */\n      dup3\n        /* \"#utility.yul\":11693:11696   */\n      dup8\n        /* \"#utility.yul\":11689:11708   */\n      add\n        /* \"#utility.yul\":11683:11709   */\n      mload\n        /* \"#utility.yul\":11674:11709   */\n      swap1\n      pop\n        /* \"#utility.yul\":11646:11723   */\n    tag_277:\n        /* \"#utility.yul\":11749:11816   */\n      tag_278\n        /* \"#utility.yul\":11809:11815   */\n      dup6\n        /* \"#utility.yul\":11802:11807   */\n      dup3\n        /* \"#utility.yul\":11749:11816   */\n      tag_147\n      jump\t// in\n    tag_278:\n        /* \"#utility.yul\":11743:11747   */\n      dup7\n        /* \"#utility.yul\":11736:11817   */\n      sstore\n        /* \"#utility.yul\":11605:11827   */\n      pop\n        /* \"#utility.yul\":10940:11827   */\n      jump(tag_275)\n        /* \"#utility.yul\":10970:11588   */\n    tag_276:\n        /* \"#utility.yul\":11022:11026   */\n      0x1f\n        /* \"#utility.yul\":11018:11027   */\n      not\n        /* \"#utility.yul\":11010:11016   */\n      dup5\n        /* \"#utility.yul\":11006:11028   */\n      and\n        /* \"#utility.yul\":11056:11093   */\n      tag_279\n        /* \"#utility.yul\":11088:11092   */\n      dup7\n        /* \"#utility.yul\":11056:11093   */\n      tag_133\n      jump\t// in\n    tag_279:\n        /* \"#utility.yul\":11115:11116   */\n      0x00\n        /* \"#utility.yul\":11129:11337   */\n    tag_280:\n        /* \"#utility.yul\":11143:11150   */\n      dup3\n        /* \"#utility.yul\":11140:11141   */\n      dup2\n        /* \"#utility.yul\":11137:11151   */\n      lt\n        /* \"#utility.yul\":11129:11337   */\n      iszero\n      tag_282\n      jumpi\n        /* \"#utility.yul\":11222:11231   */\n      dup5\n        /* \"#utility.yul\":11217:11220   */\n      dup10\n        /* \"#utility.yul\":11213:11232   */\n      add\n        /* \"#utility.yul\":11207:11233   */\n      mload\n        /* \"#utility.yul\":11199:11205   */\n      dup3\n        /* \"#utility.yul\":11192:11234   */\n      sstore\n        /* \"#utility.yul\":11273:11274   */\n      0x01\n        /* \"#utility.yul\":11265:11271   */\n      dup3\n        /* \"#utility.yul\":11261:11275   */\n      add\n        /* \"#utility.yul\":11251:11275   */\n      swap2\n      pop\n        /* \"#utility.yul\":11320:11322   */\n      0x20\n        /* \"#utility.yul\":11309:11318   */\n      dup6\n        /* \"#utility.yul\":11305:11323   */\n      add\n        /* \"#utility.yul\":11292:11323   */\n      swap5\n      pop\n        /* \"#utility.yul\":11166:11170   */\n      0x20\n        /* \"#utility.yul\":11163:11164   */\n      dup2\n        /* \"#utility.yul\":11159:11171   */\n      add\n        /* \"#utility.yul\":11154:11171   */\n      swap1\n      pop\n        /* \"#utility.yul\":11129:11337   */\n      jump(tag_280)\n    tag_282:\n        /* \"#utility.yul\":11365:11371   */\n      dup7\n        /* \"#utility.yul\":11356:11363   */\n      dup4\n        /* \"#utility.yul\":11353:11372   */\n      lt\n        /* \"#utility.yul\":11350:11529   */\n      iszero\n      tag_283\n      jumpi\n        /* \"#utility.yul\":11423:11432   */\n      dup5\n        /* \"#utility.yul\":11418:11421   */\n      dup10\n        /* \"#utility.yul\":11414:11433   */\n      add\n        /* \"#utility.yul\":11408:11434   */\n      mload\n        /* \"#utility.yul\":11466:11514   */\n      tag_284\n        /* \"#utility.yul\":11508:11512   */\n      0x1f\n        /* \"#utility.yul\":11500:11506   */\n      dup10\n        /* \"#utility.yul\":11496:11513   */\n      and\n        /* \"#utility.yul\":11485:11494   */\n      dup3\n        /* \"#utility.yul\":11466:11514   */\n      tag_146\n      jump\t// in\n    tag_284:\n        /* \"#utility.yul\":11458:11464   */\n      dup4\n        /* \"#utility.yul\":11451:11515   */\n      sstore\n        /* \"#utility.yul\":11373:11529   */\n      pop\n        /* \"#utility.yul\":11350:11529   */\n    tag_283:\n        /* \"#utility.yul\":11575:11576   */\n      0x01\n        /* \"#utility.yul\":11571:11572   */\n      0x02\n        /* \"#utility.yul\":11563:11569   */\n      dup9\n        /* \"#utility.yul\":11559:11573   */\n      mul\n        /* \"#utility.yul\":11555:11577   */\n      add\n        /* \"#utility.yul\":11549:11553   */\n      dup9\n        /* \"#utility.yul\":11542:11578   */\n      sstore\n        /* \"#utility.yul\":10977:11588   */\n      pop\n      pop\n      pop\n        /* \"#utility.yul\":10940:11827   */\n    tag_275:\n      pop\n        /* \"#utility.yul\":10530:11833   */\n      pop\n      pop\n      pop\n        /* \"#utility.yul\":10438:11833   */\n      pop\n      pop\n      jump\t// out\n        /* \"#utility.yul\":11839:11987   */\n    tag_148:\n        /* \"#utility.yul\":11941:11952   */\n      0x00\n        /* \"#utility.yul\":11978:11981   */\n      dup2\n        /* \"#utility.yul\":11963:11981   */\n      swap1\n      pop\n        /* \"#utility.yul\":11839:11987   */\n      swap3\n      swap2\n      pop\n      pop\n      jump\t// out\n        /* \"#utility.yul\":11993:12383   */\n    tag_149:\n        /* \"#utility.yul\":12099:12102   */\n      0x00\n        /* \"#utility.yul\":12127:12166   */\n      tag_287\n        /* \"#utility.yul\":12160:12165   */\n      dup3\n        /* \"#utility.yul\":12127:12166   */\n      tag_114\n      jump\t// in\n    tag_287:\n        /* \"#utility.yul\":12182:12271   */\n      tag_288\n        /* \"#utility.yul\":12264:12270   */\n      dup2\n        /* \"#utility.yul\":12259:12262   */\n      dup6\n        /* \"#utility.yul\":12182:12271   */\n      tag_148\n      jump\t// in\n    tag_288:\n        /* \"#utility.yul\":12175:12271   */\n      swap4\n      pop\n        /* \"#utility.yul\":12280:12345   */\n      tag_289\n        /* \"#utility.yul\":12338:12344   */\n      dup2\n        /* \"#utility.yul\":12333:12336   */\n      dup6\n        /* \"#utility.yul\":12326:12330   */\n      0x20\n        /* \"#utility.yul\":12319:12324   */\n      dup7\n        /* \"#utility.yul\":12315:12331   */\n      add\n        /* \"#utility.yul\":12280:12345   */\n      tag_116\n      jump\t// in\n    tag_289:\n        /* \"#utility.yul\":12370:12376   */\n      dup1\n        /* \"#utility.yul\":12365:12368   */\n      dup5\n        /* \"#utility.yul\":12361:12377   */\n      add\n        /* \"#utility.yul\":12354:12377   */\n      swap2\n      pop\n        /* \"#utility.yul\":12103:12383   */\n      pop\n        /* \"#utility.yul\":11993:12383   */\n      swap3\n      swap2\n      pop\n      pop\n      jump\t// out\n        /* \"#utility.yul\":12389:12580   */\n    tag_150:\n        /* \"#utility.yul\":12558:12573   */\n      0x202d2d2d66726f6d205745454b00000000000000000000000000000000000000\n        /* \"#utility.yul\":12553:12556   */\n      dup2\n        /* \"#utility.yul\":12546:12574   */\n      mstore\n        /* \"#utility.yul\":12389:12580   */\n      pop\n      jump\t// out\n        /* \"#utility.yul\":12586:13128   */\n    tag_107:\n        /* \"#utility.yul\":12809:12812   */\n      0x00\n        /* \"#utility.yul\":12831:12926   */\n      tag_292\n        /* \"#utility.yul\":12922:12925   */\n      dup3\n        /* \"#utility.yul\":12913:12919   */\n      dup5\n        /* \"#utility.yul\":12831:12926   */\n      tag_149\n      jump\t// in\n    tag_292:\n        /* \"#utility.yul\":12824:12926   */\n      swap2\n      pop\n        /* \"#utility.yul\":12936:13074   */\n      tag_293\n        /* \"#utility.yul\":13070:13073   */\n      dup3\n        /* \"#utility.yul\":12936:13074   */\n      tag_150\n      jump\t// in\n    tag_293:\n        /* \"#utility.yul\":13099:13101   */\n      0x0d\n        /* \"#utility.yul\":13094:13097   */\n      dup3\n        /* \"#utility.yul\":13090:13102   */\n      add\n        /* \"#utility.yul\":13083:13102   */\n      swap2\n      pop\n        /* \"#utility.yul\":13119:13122   */\n      dup2\n        /* \"#utility.yul\":13112:13122   */\n      swap1\n      pop\n        /* \"#utility.yul\":12586:13128   */\n      swap3\n      swap2\n      pop\n      pop\n      jump\t// out\n\n    auxdata: 0xa2646970667358221220604f8ccfbc301e12a92313402c6da761a1fd32df036519823ad989916c7a1b4b64736f6c63430008220033\n}\n",
				"bytecode": {
					"linkReferences": {},
					"object": "60806040525f5f5f6101000a81548160ff02191690831515021790555060015f60016101000a81548160ff021916908315150217905550600180557fffffffffffffffffffffffffffffffffffffffffffffffffffffffffffffffff6002557f48656c6c6f20776f726c6400000000000000000000000000000000000000000060035f6101000a81548176ffffffffffffffffffffffffffffffffffffffffffffff021916908360481c02179055506040518060400160405280600a81526020017f48656c6c6f20776f726400000000000000000000000000000000000000000000815250600490816100f291906103a6565b50733465b9ed06fd366c23481404601d4da1b4b679b560055f6101000a81548173ffffffffffffffffffffffffffffffffffffffff021916908373ffffffffffffffffffffffffffffffffffffffff160217905550348015610152575f5ffd5b50610475565b5f81519050919050565b7f4e487b71000000000000000000000000000000000000000000000000000000005f52604160045260245ffd5b7f4e487b71000000000000000000000000000000000000000000000000000000005f52602260045260245ffd5b5f60028204905060018216806101d357607f821691505b6020821081036101e6576101e561018f565b5b50919050565b5f819050815f5260205f209050919050565b5f6020601f8301049050919050565b5f82821b905092915050565b5f600883026102487fffffffffffffffffffffffffffffffffffffffffffffffffffffffffffffffff8261020d565b610252868361020d565b95508019841693508086168417925050509392505050565b5f819050919050565b5f819050919050565b5f61029661029161028c8461026a565b610273565b61026a565b9050919050565b5f819050919050565b6102af8361027c565b6102c36102bb8261029d565b848454610219565b825550505050565b5f5f905090565b6102da6102cb565b6102e58184846102a6565b505050565b5f5b8281101561030b576103005f8284016102d2565b6001810190506102ec565b505050565b601f82111561035e578282111561035d5761032a816101ec565b610333836101fe565b61033c856101fe565b6020861015610349575f90505b808301610358828403826102ea565b505050505b5b505050565b5f82821c905092915050565b5f61037e5f1984600802610363565b1980831691505092915050565b5f610396838361036f565b9150826002028217905092915050565b6103af82610158565b67ffffffffffffffff8111156103c8576103c7610162565b5b6103d282546101bc565b6103dd828285610310565b5f60209050601f83116001811461040e575f84156103fc578287015190505b610406858261038b565b86555061046d565b601f19841661041c866101ec565b5f5b828110156104435784890151825560018201915060208501945060208101905061041e565b86831015610460578489015161045c601f89168261036f565b8355505b6001600288020188555050505b505050505050565b610f64806104825f395ff3fe608060405234801561000f575f5ffd5b5060043610610086575f3560e01c806390b1215b1161005957806390b1215b14610124578063cd6bc3dd14610140578063ef5fb05b1461015c578063fb74ad851461017a57610086565b80631a3cd59a1461008a578063435ffe94146100ba5780635fb6bf54146100d657806379e61801146100f4575b5f5ffd5b6100a4600480360381019061009f919061088d565b6101ac565b6040516100b19190610928565b60405180910390f35b6100d460048036038101906100cf9190610a74565b61034a565b005b6100de61035d565b6040516100eb9190610928565b60405180910390f35b61010e6004803603810190610109919061088d565b6103f5565b60405161011b9190610928565b60405180910390f35b61013e60048036038101906101399190610abb565b61053c565b005b61015a60048036038101906101559190610abb565b6105ee565b005b6101646106b6565b6040516101719190610928565b60405180910390f35b610194600480360381019061018f919061088d565b610746565b6040516101a393929190610b63565b60405180910390f35b60605f5f90505b6006805490508110156102b05782600682815481106101d5576101d4610b9f565b5b905f5260205f20906003020160010154036102a35761029b6006828154811061020157610200610b9f565b5b905f5260205f2090600302015f01805461021a90610bf9565b80601f016020809104026020016040519081016040528092919081815260200182805461024690610bf9565b80156102915780601f1061026857610100808354040283529160200191610291565b820191905f5260205f20905b81548152906001019060200180831161027457829003601f168201915b5050505050610820565b915050610345565b80806001019150506101b3565b50610342600480546102c190610bf9565b80601f01602080910402602001604051908101604052809291908181526020018280546102ed90610bf9565b80156103385780601f1061030f57610100808354040283529160200191610338565b820191905f5260205f20905b81548152906001019060200180831161031b57829003601f168201915b5050505050610820565b90505b919050565b80600490816103599190610dda565b5050565b60606103f06004805461036f90610bf9565b80601f016020809104026020016040519081016040528092919081815260200182805461039b90610bf9565b80156103e65780601f106103bd576101008083540402835291602001916103e6565b820191905f5260205f20905b8154815290600101906020018083116103c957829003601f168201915b5050505050610820565b905090565b60605f73ffffffffffffffffffffffffffffffffffffffff1660075f8481526020019081526020015f206002015f9054906101000a900473ffffffffffffffffffffffffffffffffffffffff1673ffffffffffffffffffffffffffffffffffffffff160361049a576040518060400160405280600c81526020017fe6b2a1e69c89e689bee588b000000000000000000000000000000000000000008152509050610537565b60075f8381526020019081526020015f205f0180546104b890610bf9565b80601f01602080910402602001604051908101604052809291908181526020018280546104e490610bf9565b801561052f5780601f106105065761010080835404028352916020019161052f565b820191905f5260205f20905b81548152906001019060200180831161051257829003601f168201915b505050505090505b919050565b5f60405180606001604052808481526020018381526020013373ffffffffffffffffffffffffffffffffffffffff1681525090508060075f8481526020019081526020015f205f820151815f0190816105959190610dda565b50602082015181600101556040820151816002015f6101000a81548173ffffffffffffffffffffffffffffffffffffffff021916908373ffffffffffffffffffffffffffffffffffffffff160217905550905050505050565b5f60405180606001604052808481526020018381526020013373ffffffffffffffffffffffffffffffffffffffff168152509050600681908060018154018082558091505060019003905f5260205f2090600302015f909190919091505f820151815f01908161065e9190610dda565b50602082015181600101556040820151816002015f6101000a81548173ffffffffffffffffffffffffffffffffffffffff021916908373ffffffffffffffffffffffffffffffffffffffff1602179055505050505050565b6060600480546106c590610bf9565b80601f01602080910402602001604051908101604052809291908181526020018280546106f190610bf9565b801561073c5780601f106107135761010080835404028352916020019161073c565b820191905f5260205f20905b81548152906001019060200180831161071f57829003601f168201915b5050505050905090565b60068181548110610755575f80fd5b905f5260205f2090600302015f91509050805f01805461077490610bf9565b80601f01602080910402602001604051908101604052809291908181526020018280546107a090610bf9565b80156107eb5780601f106107c2576101008083540402835291602001916107eb565b820191905f5260205f20905b8154815290600101906020018083116107ce57829003601f168201915b505050505090806001015490806002015f9054906101000a900473ffffffffffffffffffffffffffffffffffffffff16905083565b6060816040516020016108339190610f09565b6040516020818303038152906040529050919050565b5f604051905090565b5f5ffd5b5f5ffd5b5f819050919050565b61086c8161085a565b8114610876575f5ffd5b50565b5f8135905061088781610863565b92915050565b5f602082840312156108a2576108a1610852565b5b5f6108af84828501610879565b91505092915050565b5f81519050919050565b5f82825260208201905092915050565b8281835e5f83830152505050565b5f601f19601f8301169050919050565b5f6108fa826108b8565b61090481856108c2565b93506109148185602086016108d2565b61091d816108e0565b840191505092915050565b5f6020820190508181035f83015261094081846108f0565b905092915050565b5f5ffd5b5f5ffd5b7f4e487b71000000000000000000000000000000000000000000000000000000005f52604160045260245ffd5b610986826108e0565b810181811067ffffffffffffffff821117156109a5576109a4610950565b5b80604052505050565b5f6109b7610849565b90506109c3828261097d565b919050565b5f67ffffffffffffffff8211156109e2576109e1610950565b5b6109eb826108e0565b9050602081019050919050565b828183375f83830152505050565b5f610a18610a13846109c8565b6109ae565b905082815260208101848484011115610a3457610a3361094c565b5b610a3f8482856109f8565b509392505050565b5f82601f830112610a5b57610a5a610948565b5b8135610a6b848260208601610a06565b91505092915050565b5f60208284031215610a8957610a88610852565b5b5f82013567ffffffffffffffff811115610aa657610aa5610856565b5b610ab284828501610a47565b91505092915050565b5f5f60408385031215610ad157610ad0610852565b5b5f83013567ffffffffffffffff811115610aee57610aed610856565b5b610afa85828601610a47565b9250506020610b0b85828601610879565b9150509250929050565b610b1e8161085a565b82525050565b5f73ffffffffffffffffffffffffffffffffffffffff82169050919050565b5f610b4d82610b24565b9050919050565b610b5d81610b43565b82525050565b5f6060820190508181035f830152610b7b81866108f0565b9050610b8a6020830185610b15565b610b976040830184610b54565b949350505050565b7f4e487b71000000000000000000000000000000000000000000000000000000005f52603260045260245ffd5b7f4e487b71000000000000000000000000000000000000000000000000000000005f52602260045260245ffd5b5f6002820490506001821680610c1057607f821691505b602082108103610c2357610c22610bcc565b5b50919050565b5f819050815f5260205f209050919050565b5f6020601f8301049050919050565b5f82821b905092915050565b5f60088302610c857fffffffffffffffffffffffffffffffffffffffffffffffffffffffffffffffff82610c4a565b610c8f8683610c4a565b95508019841693508086168417925050509392505050565b5f819050919050565b5f610cca610cc5610cc08461085a565b610ca7565b61085a565b9050919050565b5f819050919050565b610ce383610cb0565b610cf7610cef82610cd1565b848454610c56565b825550505050565b5f5f905090565b610d0e610cff565b610d19818484610cda565b505050565b5f5b82811015610d3f57610d345f828401610d06565b600181019050610d20565b505050565b601f821115610d925782821115610d9157610d5e81610c29565b610d6783610c3b565b610d7085610c3b565b6020861015610d7d575f90505b808301610d8c82840382610d1e565b505050505b5b505050565b5f82821c905092915050565b5f610db25f1984600802610d97565b1980831691505092915050565b5f610dca8383610da3565b9150826002028217905092915050565b610de3826108b8565b67ffffffffffffffff811115610dfc57610dfb610950565b5b610e068254610bf9565b610e11828285610d44565b5f60209050601f831160018114610e42575f8415610e30578287015190505b610e3a8582610dbf565b865550610ea1565b601f198416610e5086610c29565b5f5b82811015610e7757848901518255600182019150602085019450602081019050610e52565b86831015610e945784890151610e90601f891682610da3565b8355505b6001600288020188555050505b505050505050565b5f81905092915050565b5f610ebd826108b8565b610ec78185610ea9565b9350610ed78185602086016108d2565b80840191505092915050565b7f202d2d2d66726f6d205745454b00000000000000000000000000000000000000815250565b5f610f148284610eb3565b9150610f1f82610ee3565b600d820191508190509291505056fea2646970667358221220604f8ccfbc301e12a92313402c6da761a1fd32df036519823ad989916c7a1b4b64736f6c63430008220033",
					"opcodes": "PUSH1 0x80 PUSH1 0x40 MSTORE PUSH0 PUSH0 PUSH0 PUSH2 0x100 EXP DUP2 SLOAD DUP2 PUSH1 0xFF MUL NOT AND SWAP1 DUP4 ISZERO ISZERO MUL OR SWAP1 SSTORE POP PUSH1 0x1 PUSH0 PUSH1 0x1 PUSH2 0x100 EXP DUP2 SLOAD DUP2 PUSH1 0xFF MUL NOT AND SWAP1 DUP4 ISZERO ISZERO MUL OR SWAP1 SSTORE POP PUSH1 0x1 DUP1 SSTORE PUSH32 0xFFFFFFFFFFFFFFFFFFFFFFFFFFFFFFFFFFFFFFFFFFFFFFFFFFFFFFFFFFFFFFFF PUSH1 0x2 SSTORE PUSH32 0x48656C6C6F20776F726C64000000000000000000000000000000000000000000 PUSH1 0x3 PUSH0 PUSH2 0x100 EXP DUP2 SLOAD DUP2 PUSH23 0xFFFFFFFFFFFFFFFFFFFFFFFFFFFFFFFFFFFFFFFFFFFFFF MUL NOT AND SWAP1 DUP4 PUSH1 0x48 SHR MUL OR SWAP1 SSTORE POP PUSH1 0x40 MLOAD DUP1 PUSH1 0x40 ADD PUSH1 0x40 MSTORE DUP1 PUSH1 0xA DUP2 MSTORE PUSH1 0x20 ADD PUSH32 0x48656C6C6F20776F726400000000000000000000000000000000000000000000 DUP2 MSTORE POP PUSH1 0x4 SWAP1 DUP2 PUSH2 0xF2 SWAP2 SWAP1 PUSH2 0x3A6 JUMP JUMPDEST POP PUSH20 0x3465B9ED06FD366C23481404601D4DA1B4B679B5 PUSH1 0x5 PUSH0 PUSH2 0x100 EXP DUP2 SLOAD DUP2 PUSH20 0xFFFFFFFFFFFFFFFFFFFFFFFFFFFFFFFFFFFFFFFF MUL NOT AND SWAP1 DUP4 PUSH20 0xFFFFFFFFFFFFFFFFFFFFFFFFFFFFFFFFFFFFFFFF AND MUL OR SWAP1 SSTORE POP CALLVALUE DUP1 ISZERO PUSH2 0x152 JUMPI PUSH0 PUSH0 REVERT JUMPDEST POP PUSH2 0x475 JUMP JUMPDEST PUSH0 DUP2 MLOAD SWAP1 POP SWAP2 SWAP1 POP JUMP JUMPDEST PUSH32 0x4E487B7100000000000000000000000000000000000000000000000000000000 PUSH0 MSTORE PUSH1 0x41 PUSH1 0x4 MSTORE PUSH1 0x24 PUSH0 REVERT JUMPDEST PUSH32 0x4E487B7100000000000000000000000000000000000000000000000000000000 PUSH0 MSTORE PUSH1 0x22 PUSH1 0x4 MSTORE PUSH1 0x24 PUSH0 REVERT JUMPDEST PUSH0 PUSH1 0x2 DUP3 DIV SWAP1 POP PUSH1 0x1 DUP3 AND DUP1 PUSH2 0x1D3 JUMPI PUSH1 0x7F DUP3 AND SWAP2 POP JUMPDEST PUSH1 0x20 DUP3 LT DUP2 SUB PUSH2 0x1E6 JUMPI PUSH2 0x1E5 PUSH2 0x18F JUMP JUMPDEST JUMPDEST POP SWAP2 SWAP1 POP JUMP JUMPDEST PUSH0 DUP2 SWAP1 POP DUP2 PUSH0 MSTORE PUSH1 0x20 PUSH0 KECCAK256 SWAP1 POP SWAP2 SWAP1 POP JUMP JUMPDEST PUSH0 PUSH1 0x20 PUSH1 0x1F DUP4 ADD DIV SWAP1 POP SWAP2 SWAP1 POP JUMP JUMPDEST PUSH0 DUP3 DUP3 SHL SWAP1 POP SWAP3 SWAP2 POP POP JUMP JUMPDEST PUSH0 PUSH1 0x8 DUP4 MUL PUSH2 0x248 PUSH32 0xFFFFFFFFFFFFFFFFFFFFFFFFFFFFFFFFFFFFFFFFFFFFFFFFFFFFFFFFFFFFFFFF DUP3 PUSH2 0x20D JUMP JUMPDEST PUSH2 0x252 DUP7 DUP4 PUSH2 0x20D JUMP JUMPDEST SWAP6 POP DUP1 NOT DUP5 AND SWAP4 POP DUP1 DUP7 AND DUP5 OR SWAP3 POP POP POP SWAP4 SWAP3 POP POP POP JUMP JUMPDEST PUSH0 DUP2 SWAP1 POP SWAP2 SWAP1 POP JUMP JUMPDEST PUSH0 DUP2 SWAP1 POP SWAP2 SWAP1 POP JUMP JUMPDEST PUSH0 PUSH2 0x296 PUSH2 0x291 PUSH2 0x28C DUP5 PUSH2 0x26A JUMP JUMPDEST PUSH2 0x273 JUMP JUMPDEST PUSH2 0x26A JUMP JUMPDEST SWAP1 POP SWAP2 SWAP1 POP JUMP JUMPDEST PUSH0 DUP2 SWAP1 POP SWAP2 SWAP1 POP JUMP JUMPDEST PUSH2 0x2AF DUP4 PUSH2 0x27C JUMP JUMPDEST PUSH2 0x2C3 PUSH2 0x2BB DUP3 PUSH2 0x29D JUMP JUMPDEST DUP5 DUP5 SLOAD PUSH2 0x219 JUMP JUMPDEST DUP3 SSTORE POP POP POP POP JUMP JUMPDEST PUSH0 PUSH0 SWAP1 POP SWAP1 JUMP JUMPDEST PUSH2 0x2DA PUSH2 0x2CB JUMP JUMPDEST PUSH2 0x2E5 DUP2 DUP5 DUP5 PUSH2 0x2A6 JUMP JUMPDEST POP POP POP JUMP JUMPDEST PUSH0 JUMPDEST DUP3 DUP2 LT ISZERO PUSH2 0x30B JUMPI PUSH2 0x300 PUSH0 DUP3 DUP5 ADD PUSH2 0x2D2 JUMP JUMPDEST PUSH1 0x1 DUP2 ADD SWAP1 POP PUSH2 0x2EC JUMP JUMPDEST POP POP POP JUMP JUMPDEST PUSH1 0x1F DUP3 GT ISZERO PUSH2 0x35E JUMPI DUP3 DUP3 GT ISZERO PUSH2 0x35D JUMPI PUSH2 0x32A DUP2 PUSH2 0x1EC JUMP JUMPDEST PUSH2 0x333 DUP4 PUSH2 0x1FE JUMP JUMPDEST PUSH2 0x33C DUP6 PUSH2 0x1FE JUMP JUMPDEST PUSH1 0x20 DUP7 LT ISZERO PUSH2 0x349 JUMPI PUSH0 SWAP1 POP JUMPDEST DUP1 DUP4 ADD PUSH2 0x358 DUP3 DUP5 SUB DUP3 PUSH2 0x2EA JUMP JUMPDEST POP POP POP POP JUMPDEST JUMPDEST POP POP POP JUMP JUMPDEST PUSH0 DUP3 DUP3 SHR SWAP1 POP SWAP3 SWAP2 POP POP JUMP JUMPDEST PUSH0 PUSH2 0x37E PUSH0 NOT DUP5 PUSH1 0x8 MUL PUSH2 0x363 JUMP JUMPDEST NOT DUP1 DUP4 AND SWAP2 POP POP SWAP3 SWAP2 POP POP JUMP JUMPDEST PUSH0 PUSH2 0x396 DUP4 DUP4 PUSH2 0x36F JUMP JUMPDEST SWAP2 POP DUP3 PUSH1 0x2 MUL DUP3 OR SWAP1 POP SWAP3 SWAP2 POP POP JUMP JUMPDEST PUSH2 0x3AF DUP3 PUSH2 0x158 JUMP JUMPDEST PUSH8 0xFFFFFFFFFFFFFFFF DUP2 GT ISZERO PUSH2 0x3C8 JUMPI PUSH2 0x3C7 PUSH2 0x162 JUMP JUMPDEST JUMPDEST PUSH2 0x3D2 DUP3 SLOAD PUSH2 0x1BC JUMP JUMPDEST PUSH2 0x3DD DUP3 DUP3 DUP6 PUSH2 0x310 JUMP JUMPDEST PUSH0 PUSH1 0x20 SWAP1 POP PUSH1 0x1F DUP4 GT PUSH1 0x1 DUP2 EQ PUSH2 0x40E JUMPI PUSH0 DUP5 ISZERO PUSH2 0x3FC JUMPI DUP3 DUP8 ADD MLOAD SWAP1 POP JUMPDEST PUSH2 0x406 DUP6 DUP3 PUSH2 0x38B JUMP JUMPDEST DUP7 SSTORE POP PUSH2 0x46D JUMP JUMPDEST PUSH1 0x1F NOT DUP5 AND PUSH2 0x41C DUP7 PUSH2 0x1EC JUMP JUMPDEST PUSH0 JUMPDEST DUP3 DUP2 LT ISZERO PUSH2 0x443 JUMPI DUP5 DUP10 ADD MLOAD DUP3 SSTORE PUSH1 0x1 DUP3 ADD SWAP2 POP PUSH1 0x20 DUP6 ADD SWAP5 POP PUSH1 0x20 DUP2 ADD SWAP1 POP PUSH2 0x41E JUMP JUMPDEST DUP7 DUP4 LT ISZERO PUSH2 0x460 JUMPI DUP5 DUP10 ADD MLOAD PUSH2 0x45C PUSH1 0x1F DUP10 AND DUP3 PUSH2 0x36F JUMP JUMPDEST DUP4 SSTORE POP JUMPDEST PUSH1 0x1 PUSH1 0x2 DUP9 MUL ADD DUP9 SSTORE POP POP POP JUMPDEST POP POP POP POP POP POP JUMP JUMPDEST PUSH2 0xF64 DUP1 PUSH2 0x482 PUSH0 CODECOPY PUSH0 RETURN INVALID PUSH1 0x80 PUSH1 0x40 MSTORE CALLVALUE DUP1 ISZERO PUSH2 0xF JUMPI PUSH0 PUSH0 REVERT JUMPDEST POP PUSH1 0x4 CALLDATASIZE LT PUSH2 0x86 JUMPI PUSH0 CALLDATALOAD PUSH1 0xE0 SHR DUP1 PUSH4 0x90B1215B GT PUSH2 0x59 JUMPI DUP1 PUSH4 0x90B1215B EQ PUSH2 0x124 JUMPI DUP1 PUSH4 0xCD6BC3DD EQ PUSH2 0x140 JUMPI DUP1 PUSH4 0xEF5FB05B EQ PUSH2 0x15C JUMPI DUP1 PUSH4 0xFB74AD85 EQ PUSH2 0x17A JUMPI PUSH2 0x86 JUMP JUMPDEST DUP1 PUSH4 0x1A3CD59A EQ PUSH2 0x8A JUMPI DUP1 PUSH4 0x435FFE94 EQ PUSH2 0xBA JUMPI DUP1 PUSH4 0x5FB6BF54 EQ PUSH2 0xD6 JUMPI DUP1 PUSH4 0x79E61801 EQ PUSH2 0xF4 JUMPI JUMPDEST PUSH0 PUSH0 REVERT JUMPDEST PUSH2 0xA4 PUSH1 0x4 DUP1 CALLDATASIZE SUB DUP2 ADD SWAP1 PUSH2 0x9F SWAP2 SWAP1 PUSH2 0x88D JUMP JUMPDEST PUSH2 0x1AC JUMP JUMPDEST PUSH1 0x40 MLOAD PUSH2 0xB1 SWAP2 SWAP1 PUSH2 0x928 JUMP JUMPDEST PUSH1 0x40 MLOAD DUP1 SWAP2 SUB SWAP1 RETURN JUMPDEST PUSH2 0xD4 PUSH1 0x4 DUP1 CALLDATASIZE SUB DUP2 ADD SWAP1 PUSH2 0xCF SWAP2 SWAP1 PUSH2 0xA74 JUMP JUMPDEST PUSH2 0x34A JUMP JUMPDEST STOP JUMPDEST PUSH2 0xDE PUSH2 0x35D JUMP JUMPDEST PUSH1 0x40 MLOAD PUSH2 0xEB SWAP2 SWAP1 PUSH2 0x928 JUMP JUMPDEST PUSH1 0x40 MLOAD DUP1 SWAP2 SUB SWAP1 RETURN JUMPDEST PUSH2 0x10E PUSH1 0x4 DUP1 CALLDATASIZE SUB DUP2 ADD SWAP1 PUSH2 0x109 SWAP2 SWAP1 PUSH2 0x88D JUMP JUMPDEST PUSH2 0x3F5 JUMP JUMPDEST PUSH1 0x40 MLOAD PUSH2 0x11B SWAP2 SWAP1 PUSH2 0x928 JUMP JUMPDEST PUSH1 0x40 MLOAD DUP1 SWAP2 SUB SWAP1 RETURN JUMPDEST PUSH2 0x13E PUSH1 0x4 DUP1 CALLDATASIZE SUB DUP2 ADD SWAP1 PUSH2 0x139 SWAP2 SWAP1 PUSH2 0xABB JUMP JUMPDEST PUSH2 0x53C JUMP JUMPDEST STOP JUMPDEST PUSH2 0x15A PUSH1 0x4 DUP1 CALLDATASIZE SUB DUP2 ADD SWAP1 PUSH2 0x155 SWAP2 SWAP1 PUSH2 0xABB JUMP JUMPDEST PUSH2 0x5EE JUMP JUMPDEST STOP JUMPDEST PUSH2 0x164 PUSH2 0x6B6 JUMP JUMPDEST PUSH1 0x40 MLOAD PUSH2 0x171 SWAP2 SWAP1 PUSH2 0x928 JUMP JUMPDEST PUSH1 0x40 MLOAD DUP1 SWAP2 SUB SWAP1 RETURN JUMPDEST PUSH2 0x194 PUSH1 0x4 DUP1 CALLDATASIZE SUB DUP2 ADD SWAP1 PUSH2 0x18F SWAP2 SWAP1 PUSH2 0x88D JUMP JUMPDEST PUSH2 0x746 JUMP JUMPDEST PUSH1 0x40 MLOAD PUSH2 0x1A3 SWAP4 SWAP3 SWAP2 SWAP1 PUSH2 0xB63 JUMP JUMPDEST PUSH1 0x40 MLOAD DUP1 SWAP2 SUB SWAP1 RETURN JUMPDEST PUSH1 0x60 PUSH0 PUSH0 SWAP1 POP JUMPDEST PUSH1 0x6 DUP1 SLOAD SWAP1 POP DUP2 LT ISZERO PUSH2 0x2B0 JUMPI DUP3 PUSH1 0x6 DUP3 DUP2 SLOAD DUP2 LT PUSH2 0x1D5 JUMPI PUSH2 0x1D4 PUSH2 0xB9F JUMP JUMPDEST JUMPDEST SWAP1 PUSH0 MSTORE PUSH1 0x20 PUSH0 KECCAK256 SWAP1 PUSH1 0x3 MUL ADD PUSH1 0x1 ADD SLOAD SUB PUSH2 0x2A3 JUMPI PUSH2 0x29B PUSH1 0x6 DUP3 DUP2 SLOAD DUP2 LT PUSH2 0x201 JUMPI PUSH2 0x200 PUSH2 0xB9F JUMP JUMPDEST JUMPDEST SWAP1 PUSH0 MSTORE PUSH1 0x20 PUSH0 KECCAK256 SWAP1 PUSH1 0x3 MUL ADD PUSH0 ADD DUP1 SLOAD PUSH2 0x21A SWAP1 PUSH2 0xBF9 JUMP JUMPDEST DUP1 PUSH1 0x1F ADD PUSH1 0x20 DUP1 SWAP2 DIV MUL PUSH1 0x20 ADD PUSH1 0x40 MLOAD SWAP1 DUP2 ADD PUSH1 0x40 MSTORE DUP1 SWAP3 SWAP2 SWAP1 DUP2 DUP2 MSTORE PUSH1 0x20 ADD DUP3 DUP1 SLOAD PUSH2 0x246 SWAP1 PUSH2 0xBF9 JUMP JUMPDEST DUP1 ISZERO PUSH2 0x291 JUMPI DUP1 PUSH1 0x1F LT PUSH2 0x268 JUMPI PUSH2 0x100 DUP1 DUP4 SLOAD DIV MUL DUP4 MSTORE SWAP2 PUSH1 0x20 ADD SWAP2 PUSH2 0x291 JUMP JUMPDEST DUP3 ADD SWAP2 SWAP1 PUSH0 MSTORE PUSH1 0x20 PUSH0 KECCAK256 SWAP1 JUMPDEST DUP2 SLOAD DUP2 MSTORE SWAP1 PUSH1 0x1 ADD SWAP1 PUSH1 0x20 ADD DUP1 DUP4 GT PUSH2 0x274 JUMPI DUP3 SWAP1 SUB PUSH1 0x1F AND DUP3 ADD SWAP2 JUMPDEST POP POP POP POP POP PUSH2 0x820 JUMP JUMPDEST SWAP2 POP POP PUSH2 0x345 JUMP JUMPDEST DUP1 DUP1 PUSH1 0x1 ADD SWAP2 POP POP PUSH2 0x1B3 JUMP JUMPDEST POP PUSH2 0x342 PUSH1 0x4 DUP1 SLOAD PUSH2 0x2C1 SWAP1 PUSH2 0xBF9 JUMP JUMPDEST DUP1 PUSH1 0x1F ADD PUSH1 0x20 DUP1 SWAP2 DIV MUL PUSH1 0x20 ADD PUSH1 0x40 MLOAD SWAP1 DUP2 ADD PUSH1 0x40 MSTORE DUP1 SWAP3 SWAP2 SWAP1 DUP2 DUP2 MSTORE PUSH1 0x20 ADD DUP3 DUP1 SLOAD PUSH2 0x2ED SWAP1 PUSH2 0xBF9 JUMP JUMPDEST DUP1 ISZERO PUSH2 0x338 JUMPI DUP1 PUSH1 0x1F LT PUSH2 0x30F JUMPI PUSH2 0x100 DUP1 DUP4 SLOAD DIV MUL DUP4 MSTORE SWAP2 PUSH1 0x20 ADD SWAP2 PUSH2 0x338 JUMP JUMPDEST DUP3 ADD SWAP2 SWAP1 PUSH0 MSTORE PUSH1 0x20 PUSH0 KECCAK256 SWAP1 JUMPDEST DUP2 SLOAD DUP2 MSTORE SWAP1 PUSH1 0x1 ADD SWAP1 PUSH1 0x20 ADD DUP1 DUP4 GT PUSH2 0x31B JUMPI DUP3 SWAP1 SUB PUSH1 0x1F AND DUP3 ADD SWAP2 JUMPDEST POP POP POP POP POP PUSH2 0x820 JUMP JUMPDEST SWAP1 POP JUMPDEST SWAP2 SWAP1 POP JUMP JUMPDEST DUP1 PUSH1 0x4 SWAP1 DUP2 PUSH2 0x359 SWAP2 SWAP1 PUSH2 0xDDA JUMP JUMPDEST POP POP JUMP JUMPDEST PUSH1 0x60 PUSH2 0x3F0 PUSH1 0x4 DUP1 SLOAD PUSH2 0x36F SWAP1 PUSH2 0xBF9 JUMP JUMPDEST DUP1 PUSH1 0x1F ADD PUSH1 0x20 DUP1 SWAP2 DIV MUL PUSH1 0x20 ADD PUSH1 0x40 MLOAD SWAP1 DUP2 ADD PUSH1 0x40 MSTORE DUP1 SWAP3 SWAP2 SWAP1 DUP2 DUP2 MSTORE PUSH1 0x20 ADD DUP3 DUP1 SLOAD PUSH2 0x39B SWAP1 PUSH2 0xBF9 JUMP JUMPDEST DUP1 ISZERO PUSH2 0x3E6 JUMPI DUP1 PUSH1 0x1F LT PUSH2 0x3BD JUMPI PUSH2 0x100 DUP1 DUP4 SLOAD DIV MUL DUP4 MSTORE SWAP2 PUSH1 0x20 ADD SWAP2 PUSH2 0x3E6 JUMP JUMPDEST DUP3 ADD SWAP2 SWAP1 PUSH0 MSTORE PUSH1 0x20 PUSH0 KECCAK256 SWAP1 JUMPDEST DUP2 SLOAD DUP2 MSTORE SWAP1 PUSH1 0x1 ADD SWAP1 PUSH1 0x20 ADD DUP1 DUP4 GT PUSH2 0x3C9 JUMPI DUP3 SWAP1 SUB PUSH1 0x1F AND DUP3 ADD SWAP2 JUMPDEST POP POP POP POP POP PUSH2 0x820 JUMP JUMPDEST SWAP1 POP SWAP1 JUMP JUMPDEST PUSH1 0x60 PUSH0 PUSH20 0xFFFFFFFFFFFFFFFFFFFFFFFFFFFFFFFFFFFFFFFF AND PUSH1 0x7 PUSH0 DUP5 DUP2 MSTORE PUSH1 0x20 ADD SWAP1 DUP2 MSTORE PUSH1 0x20 ADD PUSH0 KECCAK256 PUSH1 0x2 ADD PUSH0 SWAP1 SLOAD SWAP1 PUSH2 0x100 EXP SWAP1 DIV PUSH20 0xFFFFFFFFFFFFFFFFFFFFFFFFFFFFFFFFFFFFFFFF AND PUSH20 0xFFFFFFFFFFFFFFFFFFFFFFFFFFFFFFFFFFFFFFFF AND SUB PUSH2 0x49A JUMPI PUSH1 0x40 MLOAD DUP1 PUSH1 0x40 ADD PUSH1 0x40 MSTORE DUP1 PUSH1 0xC DUP2 MSTORE PUSH1 0x20 ADD PUSH32 0xE6B2A1E69C89E689BEE588B00000000000000000000000000000000000000000 DUP2 MSTORE POP SWAP1 POP PUSH2 0x537 JUMP JUMPDEST PUSH1 0x7 PUSH0 DUP4 DUP2 MSTORE PUSH1 0x20 ADD SWAP1 DUP2 MSTORE PUSH1 0x20 ADD PUSH0 KECCAK256 PUSH0 ADD DUP1 SLOAD PUSH2 0x4B8 SWAP1 PUSH2 0xBF9 JUMP JUMPDEST DUP1 PUSH1 0x1F ADD PUSH1 0x20 DUP1 SWAP2 DIV MUL PUSH1 0x20 ADD PUSH1 0x40 MLOAD SWAP1 DUP2 ADD PUSH1 0x40 MSTORE DUP1 SWAP3 SWAP2 SWAP1 DUP2 DUP2 MSTORE PUSH1 0x20 ADD DUP3 DUP1 SLOAD PUSH2 0x4E4 SWAP1 PUSH2 0xBF9 JUMP JUMPDEST DUP1 ISZERO PUSH2 0x52F JUMPI DUP1 PUSH1 0x1F LT PUSH2 0x506 JUMPI PUSH2 0x100 DUP1 DUP4 SLOAD DIV MUL DUP4 MSTORE SWAP2 PUSH1 0x20 ADD SWAP2 PUSH2 0x52F JUMP JUMPDEST DUP3 ADD SWAP2 SWAP1 PUSH0 MSTORE PUSH1 0x20 PUSH0 KECCAK256 SWAP1 JUMPDEST DUP2 SLOAD DUP2 MSTORE SWAP1 PUSH1 0x1 ADD SWAP1 PUSH1 0x20 ADD DUP1 DUP4 GT PUSH2 0x512 JUMPI DUP3 SWAP1 SUB PUSH1 0x1F AND DUP3 ADD SWAP2 JUMPDEST POP POP POP POP POP SWAP1 POP JUMPDEST SWAP2 SWAP1 POP JUMP JUMPDEST PUSH0 PUSH1 0x40 MLOAD DUP1 PUSH1 0x60 ADD PUSH1 0x40 MSTORE DUP1 DUP5 DUP2 MSTORE PUSH1 0x20 ADD DUP4 DUP2 MSTORE PUSH1 0x20 ADD CALLER PUSH20 0xFFFFFFFFFFFFFFFFFFFFFFFFFFFFFFFFFFFFFFFF AND DUP2 MSTORE POP SWAP1 POP DUP1 PUSH1 0x7 PUSH0 DUP5 DUP2 MSTORE PUSH1 0x20 ADD SWAP1 DUP2 MSTORE PUSH1 0x20 ADD PUSH0 KECCAK256 PUSH0 DUP3 ADD MLOAD DUP2 PUSH0 ADD SWAP1 DUP2 PUSH2 0x595 SWAP2 SWAP1 PUSH2 0xDDA JUMP JUMPDEST POP PUSH1 0x20 DUP3 ADD MLOAD DUP2 PUSH1 0x1 ADD SSTORE PUSH1 0x40 DUP3 ADD MLOAD DUP2 PUSH1 0x2 ADD PUSH0 PUSH2 0x100 EXP DUP2 SLOAD DUP2 PUSH20 0xFFFFFFFFFFFFFFFFFFFFFFFFFFFFFFFFFFFFFFFF MUL NOT AND SWAP1 DUP4 PUSH20 0xFFFFFFFFFFFFFFFFFFFFFFFFFFFFFFFFFFFFFFFF AND MUL OR SWAP1 SSTORE POP SWAP1 POP POP POP POP POP JUMP JUMPDEST PUSH0 PUSH1 0x40 MLOAD DUP1 PUSH1 0x60 ADD PUSH1 0x40 MSTORE DUP1 DUP5 DUP2 MSTORE PUSH1 0x20 ADD DUP4 DUP2 MSTORE PUSH1 0x20 ADD CALLER PUSH20 0xFFFFFFFFFFFFFFFFFFFFFFFFFFFFFFFFFFFFFFFF AND DUP2 MSTORE POP SWAP1 POP PUSH1 0x6 DUP2 SWAP1 DUP1 PUSH1 0x1 DUP2 SLOAD ADD DUP1 DUP3 SSTORE DUP1 SWAP2 POP POP PUSH1 0x1 SWAP1 SUB SWAP1 PUSH0 MSTORE PUSH1 0x20 PUSH0 KECCAK256 SWAP1 PUSH1 0x3 MUL ADD PUSH0 SWAP1 SWAP2 SWAP1 SWAP2 SWAP1 SWAP2 POP PUSH0 DUP3 ADD MLOAD DUP2 PUSH0 ADD SWAP1 DUP2 PUSH2 0x65E SWAP2 SWAP1 PUSH2 0xDDA JUMP JUMPDEST POP PUSH1 0x20 DUP3 ADD MLOAD DUP2 PUSH1 0x1 ADD SSTORE PUSH1 0x40 DUP3 ADD MLOAD DUP2 PUSH1 0x2 ADD PUSH0 PUSH2 0x100 EXP DUP2 SLOAD DUP2 PUSH20 0xFFFFFFFFFFFFFFFFFFFFFFFFFFFFFFFFFFFFFFFF MUL NOT AND SWAP1 DUP4 PUSH20 0xFFFFFFFFFFFFFFFFFFFFFFFFFFFFFFFFFFFFFFFF AND MUL OR SWAP1 SSTORE POP POP POP POP POP POP JUMP JUMPDEST PUSH1 0x60 PUSH1 0x4 DUP1 SLOAD PUSH2 0x6C5 SWAP1 PUSH2 0xBF9 JUMP JUMPDEST DUP1 PUSH1 0x1F ADD PUSH1 0x20 DUP1 SWAP2 DIV MUL PUSH1 0x20 ADD PUSH1 0x40 MLOAD SWAP1 DUP2 ADD PUSH1 0x40 MSTORE DUP1 SWAP3 SWAP2 SWAP1 DUP2 DUP2 MSTORE PUSH1 0x20 ADD DUP3 DUP1 SLOAD PUSH2 0x6F1 SWAP1 PUSH2 0xBF9 JUMP JUMPDEST DUP1 ISZERO PUSH2 0x73C JUMPI DUP1 PUSH1 0x1F LT PUSH2 0x713 JUMPI PUSH2 0x100 DUP1 DUP4 SLOAD DIV MUL DUP4 MSTORE SWAP2 PUSH1 0x20 ADD SWAP2 PUSH2 0x73C JUMP JUMPDEST DUP3 ADD SWAP2 SWAP1 PUSH0 MSTORE PUSH1 0x20 PUSH0 KECCAK256 SWAP1 JUMPDEST DUP2 SLOAD DUP2 MSTORE SWAP1 PUSH1 0x1 ADD SWAP1 PUSH1 0x20 ADD DUP1 DUP4 GT PUSH2 0x71F JUMPI DUP3 SWAP1 SUB PUSH1 0x1F AND DUP3 ADD SWAP2 JUMPDEST POP POP POP POP POP SWAP1 POP SWAP1 JUMP JUMPDEST PUSH1 0x6 DUP2 DUP2 SLOAD DUP2 LT PUSH2 0x755 JUMPI PUSH0 DUP1 REVERT JUMPDEST SWAP1 PUSH0 MSTORE PUSH1 0x20 PUSH0 KECCAK256 SWAP1 PUSH1 0x3 MUL ADD PUSH0 SWAP2 POP SWAP1 POP DUP1 PUSH0 ADD DUP1 SLOAD PUSH2 0x774 SWAP1 PUSH2 0xBF9 JUMP JUMPDEST DUP1 PUSH1 0x1F ADD PUSH1 0x20 DUP1 SWAP2 DIV MUL PUSH1 0x20 ADD PUSH1 0x40 MLOAD SWAP1 DUP2 ADD PUSH1 0x40 MSTORE DUP1 SWAP3 SWAP2 SWAP1 DUP2 DUP2 MSTORE PUSH1 0x20 ADD DUP3 DUP1 SLOAD PUSH2 0x7A0 SWAP1 PUSH2 0xBF9 JUMP JUMPDEST DUP1 ISZERO PUSH2 0x7EB JUMPI DUP1 PUSH1 0x1F LT PUSH2 0x7C2 JUMPI PUSH2 0x100 DUP1 DUP4 SLOAD DIV MUL DUP4 MSTORE SWAP2 PUSH1 0x20 ADD SWAP2 PUSH2 0x7EB JUMP JUMPDEST DUP3 ADD SWAP2 SWAP1 PUSH0 MSTORE PUSH1 0x20 PUSH0 KECCAK256 SWAP1 JUMPDEST DUP2 SLOAD DUP2 MSTORE SWAP1 PUSH1 0x1 ADD SWAP1 PUSH1 0x20 ADD DUP1 DUP4 GT PUSH2 0x7CE JUMPI DUP3 SWAP1 SUB PUSH1 0x1F AND DUP3 ADD SWAP2 JUMPDEST POP POP POP POP POP SWAP1 DUP1 PUSH1 0x1 ADD SLOAD SWAP1 DUP1 PUSH1 0x2 ADD PUSH0 SWAP1 SLOAD SWAP1 PUSH2 0x100 EXP SWAP1 DIV PUSH20 0xFFFFFFFFFFFFFFFFFFFFFFFFFFFFFFFFFFFFFFFF AND SWAP1 POP DUP4 JUMP JUMPDEST PUSH1 0x60 DUP2 PUSH1 0x40 MLOAD PUSH1 0x20 ADD PUSH2 0x833 SWAP2 SWAP1 PUSH2 0xF09 JUMP JUMPDEST PUSH1 0x40 MLOAD PUSH1 0x20 DUP2 DUP4 SUB SUB DUP2 MSTORE SWAP1 PUSH1 0x40 MSTORE SWAP1 POP SWAP2 SWAP1 POP JUMP JUMPDEST PUSH0 PUSH1 0x40 MLOAD SWAP1 POP SWAP1 JUMP JUMPDEST PUSH0 PUSH0 REVERT JUMPDEST PUSH0 PUSH0 REVERT JUMPDEST PUSH0 DUP2 SWAP1 POP SWAP2 SWAP1 POP JUMP JUMPDEST PUSH2 0x86C DUP2 PUSH2 0x85A JUMP JUMPDEST DUP2 EQ PUSH2 0x876 JUMPI PUSH0 PUSH0 REVERT JUMPDEST POP JUMP JUMPDEST PUSH0 DUP2 CALLDATALOAD SWAP1 POP PUSH2 0x887 DUP2 PUSH2 0x863 JUMP JUMPDEST SWAP3 SWAP2 POP POP JUMP JUMPDEST PUSH0 PUSH1 0x20 DUP3 DUP5 SUB SLT ISZERO PUSH2 0x8A2 JUMPI PUSH2 0x8A1 PUSH2 0x852 JUMP JUMPDEST JUMPDEST PUSH0 PUSH2 0x8AF DUP5 DUP3 DUP6 ADD PUSH2 0x879 JUMP JUMPDEST SWAP2 POP POP SWAP3 SWAP2 POP POP JUMP JUMPDEST PUSH0 DUP2 MLOAD SWAP1 POP SWAP2 SWAP1 POP JUMP JUMPDEST PUSH0 DUP3 DUP3 MSTORE PUSH1 0x20 DUP3 ADD SWAP1 POP SWAP3 SWAP2 POP POP JUMP JUMPDEST DUP3 DUP2 DUP4 MCOPY PUSH0 DUP4 DUP4 ADD MSTORE POP POP POP JUMP JUMPDEST PUSH0 PUSH1 0x1F NOT PUSH1 0x1F DUP4 ADD AND SWAP1 POP SWAP2 SWAP1 POP JUMP JUMPDEST PUSH0 PUSH2 0x8FA DUP3 PUSH2 0x8B8 JUMP JUMPDEST PUSH2 0x904 DUP2 DUP6 PUSH2 0x8C2 JUMP JUMPDEST SWAP4 POP PUSH2 0x914 DUP2 DUP6 PUSH1 0x20 DUP7 ADD PUSH2 0x8D2 JUMP JUMPDEST PUSH2 0x91D DUP2 PUSH2 0x8E0 JUMP JUMPDEST DUP5 ADD SWAP2 POP POP SWAP3 SWAP2 POP POP JUMP JUMPDEST PUSH0 PUSH1 0x20 DUP3 ADD SWAP1 POP DUP2 DUP2 SUB PUSH0 DUP4 ADD MSTORE PUSH2 0x940 DUP2 DUP5 PUSH2 0x8F0 JUMP JUMPDEST SWAP1 POP SWAP3 SWAP2 POP POP JUMP JUMPDEST PUSH0 PUSH0 REVERT JUMPDEST PUSH0 PUSH0 REVERT JUMPDEST PUSH32 0x4E487B7100000000000000000000000000000000000000000000000000000000 PUSH0 MSTORE PUSH1 0x41 PUSH1 0x4 MSTORE PUSH1 0x24 PUSH0 REVERT JUMPDEST PUSH2 0x986 DUP3 PUSH2 0x8E0 JUMP JUMPDEST DUP2 ADD DUP2 DUP2 LT PUSH8 0xFFFFFFFFFFFFFFFF DUP3 GT OR ISZERO PUSH2 0x9A5 JUMPI PUSH2 0x9A4 PUSH2 0x950 JUMP JUMPDEST JUMPDEST DUP1 PUSH1 0x40 MSTORE POP POP POP JUMP JUMPDEST PUSH0 PUSH2 0x9B7 PUSH2 0x849 JUMP JUMPDEST SWAP1 POP PUSH2 0x9C3 DUP3 DUP3 PUSH2 0x97D JUMP JUMPDEST SWAP2 SWAP1 POP JUMP JUMPDEST PUSH0 PUSH8 0xFFFFFFFFFFFFFFFF DUP3 GT ISZERO PUSH2 0x9E2 JUMPI PUSH2 0x9E1 PUSH2 0x950 JUMP JUMPDEST JUMPDEST PUSH2 0x9EB DUP3 PUSH2 0x8E0 JUMP JUMPDEST SWAP1 POP PUSH1 0x20 DUP2 ADD SWAP1 POP SWAP2 SWAP1 POP JUMP JUMPDEST DUP3 DUP2 DUP4 CALLDATACOPY PUSH0 DUP4 DUP4 ADD MSTORE POP POP POP JUMP JUMPDEST PUSH0 PUSH2 0xA18 PUSH2 0xA13 DUP5 PUSH2 0x9C8 JUMP JUMPDEST PUSH2 0x9AE JUMP JUMPDEST SWAP1 POP DUP3 DUP2 MSTORE PUSH1 0x20 DUP2 ADD DUP5 DUP5 DUP5 ADD GT ISZERO PUSH2 0xA34 JUMPI PUSH2 0xA33 PUSH2 0x94C JUMP JUMPDEST JUMPDEST PUSH2 0xA3F DUP5 DUP3 DUP6 PUSH2 0x9F8 JUMP JUMPDEST POP SWAP4 SWAP3 POP POP POP JUMP JUMPDEST PUSH0 DUP3 PUSH1 0x1F DUP4 ADD SLT PUSH2 0xA5B JUMPI PUSH2 0xA5A PUSH2 0x948 JUMP JUMPDEST JUMPDEST DUP2 CALLDATALOAD PUSH2 0xA6B DUP5 DUP3 PUSH1 0x20 DUP7 ADD PUSH2 0xA06 JUMP JUMPDEST SWAP2 POP POP SWAP3 SWAP2 POP POP JUMP JUMPDEST PUSH0 PUSH1 0x20 DUP3 DUP5 SUB SLT ISZERO PUSH2 0xA89 JUMPI PUSH2 0xA88 PUSH2 0x852 JUMP JUMPDEST JUMPDEST PUSH0 DUP3 ADD CALLDATALOAD PUSH8 0xFFFFFFFFFFFFFFFF DUP2 GT ISZERO PUSH2 0xAA6 JUMPI PUSH2 0xAA5 PUSH2 0x856 JUMP JUMPDEST JUMPDEST PUSH2 0xAB2 DUP5 DUP3 DUP6 ADD PUSH2 0xA47 JUMP JUMPDEST SWAP2 POP POP SWAP3 SWAP2 POP POP JUMP JUMPDEST PUSH0 PUSH0 PUSH1 0x40 DUP4 DUP6 SUB SLT ISZERO PUSH2 0xAD1 JUMPI PUSH2 0xAD0 PUSH2 0x852 JUMP JUMPDEST JUMPDEST PUSH0 DUP4 ADD CALLDATALOAD PUSH8 0xFFFFFFFFFFFFFFFF DUP2 GT ISZERO PUSH2 0xAEE JUMPI PUSH2 0xAED PUSH2 0x856 JUMP JUMPDEST JUMPDEST PUSH2 0xAFA DUP6 DUP3 DUP7 ADD PUSH2 0xA47 JUMP JUMPDEST SWAP3 POP POP PUSH1 0x20 PUSH2 0xB0B DUP6 DUP3 DUP7 ADD PUSH2 0x879 JUMP JUMPDEST SWAP2 POP POP SWAP3 POP SWAP3 SWAP1 POP JUMP JUMPDEST PUSH2 0xB1E DUP2 PUSH2 0x85A JUMP JUMPDEST DUP3 MSTORE POP POP JUMP JUMPDEST PUSH0 PUSH20 0xFFFFFFFFFFFFFFFFFFFFFFFFFFFFFFFFFFFFFFFF DUP3 AND SWAP1 POP SWAP2 SWAP1 POP JUMP JUMPDEST PUSH0 PUSH2 0xB4D DUP3 PUSH2 0xB24 JUMP JUMPDEST SWAP1 POP SWAP2 SWAP1 POP JUMP JUMPDEST PUSH2 0xB5D DUP2 PUSH2 0xB43 JUMP JUMPDEST DUP3 MSTORE POP POP JUMP JUMPDEST PUSH0 PUSH1 0x60 DUP3 ADD SWAP1 POP DUP2 DUP2 SUB PUSH0 DUP4 ADD MSTORE PUSH2 0xB7B DUP2 DUP7 PUSH2 0x8F0 JUMP JUMPDEST SWAP1 POP PUSH2 0xB8A PUSH1 0x20 DUP4 ADD DUP6 PUSH2 0xB15 JUMP JUMPDEST PUSH2 0xB97 PUSH1 0x40 DUP4 ADD DUP5 PUSH2 0xB54 JUMP JUMPDEST SWAP5 SWAP4 POP POP POP POP JUMP JUMPDEST PUSH32 0x4E487B7100000000000000000000000000000000000000000000000000000000 PUSH0 MSTORE PUSH1 0x32 PUSH1 0x4 MSTORE PUSH1 0x24 PUSH0 REVERT JUMPDEST PUSH32 0x4E487B7100000000000000000000000000000000000000000000000000000000 PUSH0 MSTORE PUSH1 0x22 PUSH1 0x4 MSTORE PUSH1 0x24 PUSH0 REVERT JUMPDEST PUSH0 PUSH1 0x2 DUP3 DIV SWAP1 POP PUSH1 0x1 DUP3 AND DUP1 PUSH2 0xC10 JUMPI PUSH1 0x7F DUP3 AND SWAP2 POP JUMPDEST PUSH1 0x20 DUP3 LT DUP2 SUB PUSH2 0xC23 JUMPI PUSH2 0xC22 PUSH2 0xBCC JUMP JUMPDEST JUMPDEST POP SWAP2 SWAP1 POP JUMP JUMPDEST PUSH0 DUP2 SWAP1 POP DUP2 PUSH0 MSTORE PUSH1 0x20 PUSH0 KECCAK256 SWAP1 POP SWAP2 SWAP1 POP JUMP JUMPDEST PUSH0 PUSH1 0x20 PUSH1 0x1F DUP4 ADD DIV SWAP1 POP SWAP2 SWAP1 POP JUMP JUMPDEST PUSH0 DUP3 DUP3 SHL SWAP1 POP SWAP3 SWAP2 POP POP JUMP JUMPDEST PUSH0 PUSH1 0x8 DUP4 MUL PUSH2 0xC85 PUSH32 0xFFFFFFFFFFFFFFFFFFFFFFFFFFFFFFFFFFFFFFFFFFFFFFFFFFFFFFFFFFFFFFFF DUP3 PUSH2 0xC4A JUMP JUMPDEST PUSH2 0xC8F DUP7 DUP4 PUSH2 0xC4A JUMP JUMPDEST SWAP6 POP DUP1 NOT DUP5 AND SWAP4 POP DUP1 DUP7 AND DUP5 OR SWAP3 POP POP POP SWAP4 SWAP3 POP POP POP JUMP JUMPDEST PUSH0 DUP2 SWAP1 POP SWAP2 SWAP1 POP JUMP JUMPDEST PUSH0 PUSH2 0xCCA PUSH2 0xCC5 PUSH2 0xCC0 DUP5 PUSH2 0x85A JUMP JUMPDEST PUSH2 0xCA7 JUMP JUMPDEST PUSH2 0x85A JUMP JUMPDEST SWAP1 POP SWAP2 SWAP1 POP JUMP JUMPDEST PUSH0 DUP2 SWAP1 POP SWAP2 SWAP1 POP JUMP JUMPDEST PUSH2 0xCE3 DUP4 PUSH2 0xCB0 JUMP JUMPDEST PUSH2 0xCF7 PUSH2 0xCEF DUP3 PUSH2 0xCD1 JUMP JUMPDEST DUP5 DUP5 SLOAD PUSH2 0xC56 JUMP JUMPDEST DUP3 SSTORE POP POP POP POP JUMP JUMPDEST PUSH0 PUSH0 SWAP1 POP SWAP1 JUMP JUMPDEST PUSH2 0xD0E PUSH2 0xCFF JUMP JUMPDEST PUSH2 0xD19 DUP2 DUP5 DUP5 PUSH2 0xCDA JUMP JUMPDEST POP POP POP JUMP JUMPDEST PUSH0 JUMPDEST DUP3 DUP2 LT ISZERO PUSH2 0xD3F JUMPI PUSH2 0xD34 PUSH0 DUP3 DUP5 ADD PUSH2 0xD06 JUMP JUMPDEST PUSH1 0x1 DUP2 ADD SWAP1 POP PUSH2 0xD20 JUMP JUMPDEST POP POP POP JUMP JUMPDEST PUSH1 0x1F DUP3 GT ISZERO PUSH2 0xD92 JUMPI DUP3 DUP3 GT ISZERO PUSH2 0xD91 JUMPI PUSH2 0xD5E DUP2 PUSH2 0xC29 JUMP JUMPDEST PUSH2 0xD67 DUP4 PUSH2 0xC3B JUMP JUMPDEST PUSH2 0xD70 DUP6 PUSH2 0xC3B JUMP JUMPDEST PUSH1 0x20 DUP7 LT ISZERO PUSH2 0xD7D JUMPI PUSH0 SWAP1 POP JUMPDEST DUP1 DUP4 ADD PUSH2 0xD8C DUP3 DUP5 SUB DUP3 PUSH2 0xD1E JUMP JUMPDEST POP POP POP POP JUMPDEST JUMPDEST POP POP POP JUMP JUMPDEST PUSH0 DUP3 DUP3 SHR SWAP1 POP SWAP3 SWAP2 POP POP JUMP JUMPDEST PUSH0 PUSH2 0xDB2 PUSH0 NOT DUP5 PUSH1 0x8 MUL PUSH2 0xD97 JUMP JUMPDEST NOT DUP1 DUP4 AND SWAP2 POP POP SWAP3 SWAP2 POP POP JUMP JUMPDEST PUSH0 PUSH2 0xDCA DUP4 DUP4 PUSH2 0xDA3 JUMP JUMPDEST SWAP2 POP DUP3 PUSH1 0x2 MUL DUP3 OR SWAP1 POP SWAP3 SWAP2 POP POP JUMP JUMPDEST PUSH2 0xDE3 DUP3 PUSH2 0x8B8 JUMP JUMPDEST PUSH8 0xFFFFFFFFFFFFFFFF DUP2 GT ISZERO PUSH2 0xDFC JUMPI PUSH2 0xDFB PUSH2 0x950 JUMP JUMPDEST JUMPDEST PUSH2 0xE06 DUP3 SLOAD PUSH2 0xBF9 JUMP JUMPDEST PUSH2 0xE11 DUP3 DUP3 DUP6 PUSH2 0xD44 JUMP JUMPDEST PUSH0 PUSH1 0x20 SWAP1 POP PUSH1 0x1F DUP4 GT PUSH1 0x1 DUP2 EQ PUSH2 0xE42 JUMPI PUSH0 DUP5 ISZERO PUSH2 0xE30 JUMPI DUP3 DUP8 ADD MLOAD SWAP1 POP JUMPDEST PUSH2 0xE3A DUP6 DUP3 PUSH2 0xDBF JUMP JUMPDEST DUP7 SSTORE POP PUSH2 0xEA1 JUMP JUMPDEST PUSH1 0x1F NOT DUP5 AND PUSH2 0xE50 DUP7 PUSH2 0xC29 JUMP JUMPDEST PUSH0 JUMPDEST DUP3 DUP2 LT ISZERO PUSH2 0xE77 JUMPI DUP5 DUP10 ADD MLOAD DUP3 SSTORE PUSH1 0x1 DUP3 ADD SWAP2 POP PUSH1 0x20 DUP6 ADD SWAP5 POP PUSH1 0x20 DUP2 ADD SWAP1 POP PUSH2 0xE52 JUMP JUMPDEST DUP7 DUP4 LT ISZERO PUSH2 0xE94 JUMPI DUP5 DUP10 ADD MLOAD PUSH2 0xE90 PUSH1 0x1F DUP10 AND DUP3 PUSH2 0xDA3 JUMP JUMPDEST DUP4 SSTORE POP JUMPDEST PUSH1 0x1 PUSH1 0x2 DUP9 MUL ADD DUP9 SSTORE POP POP POP JUMPDEST POP POP POP POP POP POP JUMP JUMPDEST PUSH0 DUP2 SWAP1 POP SWAP3 SWAP2 POP POP JUMP JUMPDEST PUSH0 PUSH2 0xEBD DUP3 PUSH2 0x8B8 JUMP JUMPDEST PUSH2 0xEC7 DUP2 DUP6 PUSH2 0xEA9 JUMP JUMPDEST SWAP4 POP PUSH2 0xED7 DUP2 DUP6 PUSH1 0x20 DUP7 ADD PUSH2 0x8D2 JUMP JUMPDEST DUP1 DUP5 ADD SWAP2 POP POP SWAP3 SWAP2 POP POP JUMP JUMPDEST PUSH32 0x202D2D2D66726F6D205745454B00000000000000000000000000000000000000 DUP2 MSTORE POP JUMP JUMPDEST PUSH0 PUSH2 0xF14 DUP3 DUP5 PUSH2 0xEB3 JUMP JUMPDEST SWAP2 POP PUSH2 0xF1F DUP3 PUSH2 0xEE3 JUMP JUMPDEST PUSH1 0xD DUP3 ADD SWAP2 POP DUP2 SWAP1 POP SWAP3 SWAP2 POP POP JUMP INVALID LOG2 PUSH5 0x6970667358 0x22 SLT KECCAK256 PUSH1 0x4F DUP13 0xCF 0xBC ADDRESS CLZ SLT 0xA9 0x23 SGT BLOCKHASH 0x2C PUSH14 0xA761A1FD32DF036519823AD98991 PUSH13 0x7A1B4B64736F6C634300082200 CALLER "
				},
				"gasEstimates": {
					"creation": {
						"codeDepositCost": "788000",
						"executionCost": "infinite",
						"totalCost": "infinite"
					},
					"external": {
						"addInfo(string,uint256)": "infinite",
						"addInfoMapping(string,uint256)": "infinite",
						"getInfo(uint256)": "infinite",
						"getInfoMapping(uint256)": "infinite",
						"infoList(uint256)": "infinite",
						"sayHello()": "infinite",
						"sayHelloAddInfo()": "infinite",
						"setHello(string)": "infinite"
					},
					"internal": {
						"addInfo(string memory)": "infinite"
					}
				},
				"methodIdentifiers": {
					"addInfo(string,uint256)": "cd6bc3dd",
					"addInfoMapping(string,uint256)": "90b1215b",
					"getInfo(uint256)": "1a3cd59a",
					"getInfoMapping(uint256)": "79e61801",
					"infoList(uint256)": "fb74ad85",
					"sayHello()": "ef5fb05b",
					"sayHelloAddInfo()": "5fb6bf54",
					"setHello(string)": "435ffe94"
				}
			},
			"storageLayout": {
				"storage": [
					{
						"astId": 60,
						"contract": "test/test.sol:HelloWorld",
						"label": "boolVar_1",
						"offset": 0,
						"slot": "0",
						"type": "t_bool"
					},
					{
						"astId": 63,
						"contract": "test/test.sol:HelloWorld",
						"label": "boolVar_2",
						"offset": 1,
						"slot": "0",
						"type": "t_bool"
					},
					{
						"astId": 66,
						"contract": "test/test.sol:HelloWorld",
						"label": "uintVar",
						"offset": 0,
						"slot": "1",
						"type": "t_uint256"
					},
					{
						"astId": 70,
						"contract": "test/test.sol:HelloWorld",
						"label": "intVar",
						"offset": 0,
						"slot": "2",
						"type": "t_int256"
					},
					{
						"astId": 73,
						"contract": "test/test.sol:HelloWorld",
						"label": "bytesVar",
						"offset": 0,
						"slot": "3",
						"type": "t_bytes23"
					},
					{
						"astId": 76,
						"contract": "test/test.sol:HelloWorld",
						"label": "stringVar",
						"offset": 0,
						"slot": "4",
						"type": "t_string_storage"
					},
					{
						"astId": 79,
						"contract": "test/test.sol:HelloWorld",
						"label": "addressVar",
						"offset": 0,
						"slot": "5",
						"type": "t_address"
					},
					{
						"astId": 133,
						"contract": "test/test.sol:HelloWorld",
						"label": "infoList",
						"offset": 0,
						"slot": "6",
						"type": "t_array(t_struct(Info)129_storage)dyn_storage"
					},
					{
						"astId": 202,
						"contract": "test/test.sol:HelloWorld",
						"label": "infoMapping",
						"offset": 0,
						"slot": "7",
						"type": "t_mapping(t_uint256,t_struct(Info)129_storage)"
					}
				],
				"types": {
					"t_address": {
						"encoding": "inplace",
						"label": "address",
						"numberOfBytes": "20"
					},
					"t_array(t_struct(Info)129_storage)dyn_storage": {
						"base": "t_struct(Info)129_storage",
						"encoding": "dynamic_array",
						"label": "struct HelloWorld.Info[]",
						"numberOfBytes": "32"
					},
					"t_bool": {
						"encoding": "inplace",
						"label": "bool",
						"numberOfBytes": "1"
					},
					"t_bytes23": {
						"encoding": "inplace",
						"label": "bytes23",
						"numberOfBytes": "23"
					},
					"t_int256": {
						"encoding": "inplace",
						"label": "int256",
						"numberOfBytes": "32"
					},
					"t_mapping(t_uint256,t_struct(Info)129_storage)": {
						"encoding": "mapping",
						"key": "t_uint256",
						"label": "mapping(uint256 => struct HelloWorld.Info)",
						"numberOfBytes": "32",
						"value": "t_struct(Info)129_storage"
					},
					"t_string_storage": {
						"encoding": "bytes",
						"label": "string",
						"numberOfBytes": "32"
					},
					"t_struct(Info)129_storage": {
						"encoding": "inplace",
						"label": "struct HelloWorld.Info",
						"members": [
							{
								"astId": 124,
								"contract": "test/test.sol:HelloWorld",
								"label": "phrase",
								"offset": 0,
								"slot": "0",
								"type": "t_string_storage"
							},
							{
								"astId": 126,
								"contract": "test/test.sol:HelloWorld",
								"label": "id",
								"offset": 0,
								"slot": "1",
								"type": "t_uint256"
							},
							{
								"astId": 128,
								"contract": "test/test.sol:HelloWorld",
								"label": "sender",
								"offset": 0,
								"slot": "2",
								"type": "t_address"
							}
						],
						"numberOfBytes": "96"
					},
					"t_uint256": {
						"encoding": "inplace",
						"label": "uint256",
						"numberOfBytes": "32"
					}
				}
			},
			"userdoc": {
				"kind": "user",
				"methods": {},
				"version": 1
			}
		}
	}
}