{
	"homework01/4/IntToRoman.sol": {
		"IntToRoman": {
			"abi": [
				{
					"inputs": [],
					"stateMutability": "nonpayable",
					"type": "constructor"
				},
				{
					"inputs": [
						{
							"internalType": "uint256",
							"name": "",
							"type": "uint256"
						}
					],
					"name": "keys",
					"outputs": [
						{
							"internalType": "string",
							"name": "",
							"type": "string"
						}
					],
					"stateMutability": "view",
					"type": "function"
				},
				{
					"inputs": [
						{
							"internalType": "string",
							"name": "",
							"type": "string"
						}
					],
					"name": "symbolvalue",
					"outputs": [
						{
							"internalType": "uint256",
							"name": "",
							"type": "uint256"
						}
					],
					"stateMutability": "view",
					"type": "function"
				},
				{
					"inputs": [
						{
							"internalType": "uint256",
							"name": "num",
							"type": "uint256"
						}
					],
					"name": "toRoman",
					"outputs": [
						{
							"internalType": "string",
							"name": "",
							"type": "string"
						}
					],
					"stateMutability": "view",
					"type": "function"
				}
			],
			"devdoc": {
				"kind": "dev",
				"methods": {},
				"version": 1
			},
			"evm": {
				"assembly": "    /* \"homework01/4/IntToRoman.sol\":58:1498  contract IntToRoman {... */\n  mstore(0x40, 0x80)\n    /* \"homework01/4/IntToRoman.sol\":163:903  constructor() {... */\n  callvalue\n  dup1\n  iszero\n  tag_1\n  jumpi\n  revert(0x00, 0x00)\ntag_1:\n  pop\n    /* \"homework01/4/IntToRoman.sol\":206:210  1000 */\n  0x03e8\n    /* \"homework01/4/IntToRoman.sol\":187:198  symbolvalue */\n  0x00\n    /* \"homework01/4/IntToRoman.sol\":187:203  symbolvalue[\"M\"] */\n  mload(0x40)\n  tag_4\n  swap1\n  tag_5\n  jump\t// in\ntag_4:\n  swap1\n  dup2\n  mstore\n  0x20\n  add\n  mload(0x40)\n  dup1\n  swap2\n  sub\n  swap1\n  keccak256\n    /* \"homework01/4/IntToRoman.sol\":187:210  symbolvalue[\"M\"] = 1000 */\n  dup2\n  swap1\n  sstore\n  pop\n    /* \"homework01/4/IntToRoman.sol\":240:243  900 */\n  0x0384\n    /* \"homework01/4/IntToRoman.sol\":220:231  symbolvalue */\n  0x00\n    /* \"homework01/4/IntToRoman.sol\":220:237  symbolvalue[\"CM\"] */\n  mload(0x40)\n  tag_6\n  swap1\n  tag_7\n  jump\t// in\ntag_6:\n  swap1\n  dup2\n  mstore\n  0x20\n  add\n  mload(0x40)\n  dup1\n  swap2\n  sub\n  swap1\n  keccak256\n    /* \"homework01/4/IntToRoman.sol\":220:243  symbolvalue[\"CM\"] = 900 */\n  dup2\n  swap1\n  sstore\n  pop\n    /* \"homework01/4/IntToRoman.sol\":272:275  500 */\n  0x01f4\n    /* \"homework01/4/IntToRoman.sol\":253:264  symbolvalue */\n  0x00\n    /* \"homework01/4/IntToRoman.sol\":253:269  symbolvalue[\"D\"] */\n  mload(0x40)\n  tag_8\n  swap1\n  tag_9\n  jump\t// in\ntag_8:\n  swap1\n  dup2\n  mstore\n  0x20\n  add\n  mload(0x40)\n  dup1\n  swap2\n  sub\n  swap1\n  keccak256\n    /* \"homework01/4/IntToRoman.sol\":253:275  symbolvalue[\"D\"] = 500 */\n  dup2\n  swap1\n  sstore\n  pop\n    /* \"homework01/4/IntToRoman.sol\":305:308  400 */\n  0x0190\n    /* \"homework01/4/IntToRoman.sol\":285:296  symbolvalue */\n  0x00\n    /* \"homework01/4/IntToRoman.sol\":285:302  symbolvalue[\"CD\"] */\n  mload(0x40)\n  tag_10\n  swap1\n  tag_11\n  jump\t// in\ntag_10:\n  swap1\n  dup2\n  mstore\n  0x20\n  add\n  mload(0x40)\n  dup1\n  swap2\n  sub\n  swap1\n  keccak256\n    /* \"homework01/4/IntToRoman.sol\":285:308  symbolvalue[\"CD\"] = 400 */\n  dup2\n  swap1\n  sstore\n  pop\n    /* \"homework01/4/IntToRoman.sol\":337:340  100 */\n  0x64\n    /* \"homework01/4/IntToRoman.sol\":318:329  symbolvalue */\n  0x00\n    /* \"homework01/4/IntToRoman.sol\":318:334  symbolvalue[\"C\"] */\n  mload(0x40)\n  tag_12\n  swap1\n  tag_13\n  jump\t// in\ntag_12:\n  swap1\n  dup2\n  mstore\n  0x20\n  add\n  mload(0x40)\n  dup1\n  swap2\n  sub\n  swap1\n  keccak256\n    /* \"homework01/4/IntToRoman.sol\":318:340  symbolvalue[\"C\"] = 100 */\n  dup2\n  swap1\n  sstore\n  pop\n    /* \"homework01/4/IntToRoman.sol\":370:372  90 */\n  0x5a\n    /* \"homework01/4/IntToRoman.sol\":350:361  symbolvalue */\n  0x00\n    /* \"homework01/4/IntToRoman.sol\":350:367  symbolvalue[\"XC\"] */\n  mload(0x40)\n  tag_14\n  swap1\n  tag_15\n  jump\t// in\ntag_14:\n  swap1\n  dup2\n  mstore\n  0x20\n  add\n  mload(0x40)\n  dup1\n  swap2\n  sub\n  swap1\n  keccak256\n    /* \"homework01/4/IntToRoman.sol\":350:372  symbolvalue[\"XC\"] = 90 */\n  dup2\n  swap1\n  sstore\n  pop\n    /* \"homework01/4/IntToRoman.sol\":401:403  50 */\n  0x32\n    /* \"homework01/4/IntToRoman.sol\":382:393  symbolvalue */\n  0x00\n    /* \"homework01/4/IntToRoman.sol\":382:398  symbolvalue[\"L\"] */\n  mload(0x40)\n  tag_16\n  swap1\n  tag_17\n  jump\t// in\ntag_16:\n  swap1\n  dup2\n  mstore\n  0x20\n  add\n  mload(0x40)\n  dup1\n  swap2\n  sub\n  swap1\n  keccak256\n    /* \"homework01/4/IntToRoman.sol\":382:403  symbolvalue[\"L\"] = 50 */\n  dup2\n  swap1\n  sstore\n  pop\n    /* \"homework01/4/IntToRoman.sol\":433:435  40 */\n  0x28\n    /* \"homework01/4/IntToRoman.sol\":413:424  symbolvalue */\n  0x00\n    /* \"homework01/4/IntToRoman.sol\":413:430  symbolvalue[\"XL\"] */\n  mload(0x40)\n  tag_18\n  swap1\n  tag_19\n  jump\t// in\ntag_18:\n  swap1\n  dup2\n  mstore\n  0x20\n  add\n  mload(0x40)\n  dup1\n  swap2\n  sub\n  swap1\n  keccak256\n    /* \"homework01/4/IntToRoman.sol\":413:435  symbolvalue[\"XL\"] = 40 */\n  dup2\n  swap1\n  sstore\n  pop\n    /* \"homework01/4/IntToRoman.sol\":464:466  10 */\n  0x0a\n    /* \"homework01/4/IntToRoman.sol\":445:456  symbolvalue */\n  0x00\n    /* \"homework01/4/IntToRoman.sol\":445:461  symbolvalue[\"X\"] */\n  mload(0x40)\n  tag_20\n  swap1\n  tag_21\n  jump\t// in\ntag_20:\n  swap1\n  dup2\n  mstore\n  0x20\n  add\n  mload(0x40)\n  dup1\n  swap2\n  sub\n  swap1\n  keccak256\n    /* \"homework01/4/IntToRoman.sol\":445:466  symbolvalue[\"X\"] = 10 */\n  dup2\n  swap1\n  sstore\n  pop\n    /* \"homework01/4/IntToRoman.sol\":496:497  9 */\n  0x09\n    /* \"homework01/4/IntToRoman.sol\":476:487  symbolvalue */\n  0x00\n    /* \"homework01/4/IntToRoman.sol\":476:493  symbolvalue[\"IX\"] */\n  mload(0x40)\n  tag_22\n  swap1\n  tag_23\n  jump\t// in\ntag_22:\n  swap1\n  dup2\n  mstore\n  0x20\n  add\n  mload(0x40)\n  dup1\n  swap2\n  sub\n  swap1\n  keccak256\n    /* \"homework01/4/IntToRoman.sol\":476:497  symbolvalue[\"IX\"] = 9 */\n  dup2\n  swap1\n  sstore\n  pop\n    /* \"homework01/4/IntToRoman.sol\":526:527  5 */\n  0x05\n    /* \"homework01/4/IntToRoman.sol\":507:518  symbolvalue */\n  0x00\n    /* \"homework01/4/IntToRoman.sol\":507:523  symbolvalue[\"V\"] */\n  mload(0x40)\n  tag_24\n  swap1\n  tag_25\n  jump\t// in\ntag_24:\n  swap1\n  dup2\n  mstore\n  0x20\n  add\n  mload(0x40)\n  dup1\n  swap2\n  sub\n  swap1\n  keccak256\n    /* \"homework01/4/IntToRoman.sol\":507:527  symbolvalue[\"V\"] = 5 */\n  dup2\n  swap1\n  sstore\n  pop\n    /* \"homework01/4/IntToRoman.sol\":557:558  4 */\n  0x04\n    /* \"homework01/4/IntToRoman.sol\":537:548  symbolvalue */\n  0x00\n    /* \"homework01/4/IntToRoman.sol\":537:554  symbolvalue[\"IV\"] */\n  mload(0x40)\n  tag_26\n  swap1\n  tag_27\n  jump\t// in\ntag_26:\n  swap1\n  dup2\n  mstore\n  0x20\n  add\n  mload(0x40)\n  dup1\n  swap2\n  sub\n  swap1\n  keccak256\n    /* \"homework01/4/IntToRoman.sol\":537:558  symbolvalue[\"IV\"] = 4 */\n  dup2\n  swap1\n  sstore\n  pop\n    /* \"homework01/4/IntToRoman.sol\":587:588  1 */\n  0x01\n    /* \"homework01/4/IntToRoman.sol\":568:579  symbolvalue */\n  0x00\n    /* \"homework01/4/IntToRoman.sol\":568:584  symbolvalue[\"I\"] */\n  mload(0x40)\n  tag_28\n  swap1\n  tag_29\n  jump\t// in\ntag_28:\n  swap1\n  dup2\n  mstore\n  0x20\n  add\n  mload(0x40)\n  dup1\n  swap2\n  sub\n  swap1\n  keccak256\n    /* \"homework01/4/IntToRoman.sol\":568:588  symbolvalue[\"I\"] = 1 */\n  dup2\n  swap1\n  sstore\n  pop\n    /* \"homework01/4/IntToRoman.sol\":598:611  keys[0] = \"M\" */\n  mload(0x40)\n  dup1\n  0x40\n  add\n  0x40\n  mstore\n  dup1\n  0x01\n  dup2\n  mstore\n  0x20\n  add\n  0x4d00000000000000000000000000000000000000000000000000000000000000\n  dup2\n  mstore\n  pop\n    /* \"homework01/4/IntToRoman.sol\":598:602  keys */\n  0x01\n    /* \"homework01/4/IntToRoman.sol\":603:604  0 */\n  0x00\n    /* \"homework01/4/IntToRoman.sol\":598:605  keys[0] */\n  0x0d\n  dup2\n  lt\n  tag_30\n  jumpi\n  tag_31\n  tag_32\n  jump\t// in\ntag_31:\ntag_30:\n  add\n    /* \"homework01/4/IntToRoman.sol\":598:611  keys[0] = \"M\" */\n  swap1\n  dup2\n  tag_34\n  swap2\n  swap1\n  tag_35\n  jump\t// in\ntag_34:\n  pop\n    /* \"homework01/4/IntToRoman.sol\":621:635  keys[1] = \"CM\" */\n  mload(0x40)\n  dup1\n  0x40\n  add\n  0x40\n  mstore\n  dup1\n  0x02\n  dup2\n  mstore\n  0x20\n  add\n  0x434d000000000000000000000000000000000000000000000000000000000000\n  dup2\n  mstore\n  pop\n    /* \"homework01/4/IntToRoman.sol\":621:625  keys */\n  0x01\n    /* \"homework01/4/IntToRoman.sol\":626:627  1 */\n  dup1\n    /* \"homework01/4/IntToRoman.sol\":621:628  keys[1] */\n  0x0d\n  dup2\n  lt\n  tag_36\n  jumpi\n  tag_37\n  tag_32\n  jump\t// in\ntag_37:\ntag_36:\n  add\n    /* \"homework01/4/IntToRoman.sol\":621:635  keys[1] = \"CM\" */\n  swap1\n  dup2\n  tag_39\n  swap2\n  swap1\n  tag_35\n  jump\t// in\ntag_39:\n  pop\n    /* \"homework01/4/IntToRoman.sol\":645:658  keys[2] = \"D\" */\n  mload(0x40)\n  dup1\n  0x40\n  add\n  0x40\n  mstore\n  dup1\n  0x01\n  dup2\n  mstore\n  0x20\n  add\n  0x4400000000000000000000000000000000000000000000000000000000000000\n  dup2\n  mstore\n  pop\n    /* \"homework01/4/IntToRoman.sol\":645:649  keys */\n  0x01\n    /* \"homework01/4/IntToRoman.sol\":650:651  2 */\n  0x02\n    /* \"homework01/4/IntToRoman.sol\":645:652  keys[2] */\n  0x0d\n  dup2\n  lt\n  tag_40\n  jumpi\n  tag_41\n  tag_32\n  jump\t// in\ntag_41:\ntag_40:\n  add\n    /* \"homework01/4/IntToRoman.sol\":645:658  keys[2] = \"D\" */\n  swap1\n  dup2\n  tag_43\n  swap2\n  swap1\n  tag_35\n  jump\t// in\ntag_43:\n  pop\n    /* \"homework01/4/IntToRoman.sol\":668:682  keys[3] = \"CD\" */\n  mload(0x40)\n  dup1\n  0x40\n  add\n  0x40\n  mstore\n  dup1\n  0x02\n  dup2\n  mstore\n  0x20\n  add\n  0x4344000000000000000000000000000000000000000000000000000000000000\n  dup2\n  mstore\n  pop\n    /* \"homework01/4/IntToRoman.sol\":668:672  keys */\n  0x01\n    /* \"homework01/4/IntToRoman.sol\":673:674  3 */\n  0x03\n    /* \"homework01/4/IntToRoman.sol\":668:675  keys[3] */\n  0x0d\n  dup2\n  lt\n  tag_44\n  jumpi\n  tag_45\n  tag_32\n  jump\t// in\ntag_45:\ntag_44:\n  add\n    /* \"homework01/4/IntToRoman.sol\":668:682  keys[3] = \"CD\" */\n  swap1\n  dup2\n  tag_47\n  swap2\n  swap1\n  tag_35\n  jump\t// in\ntag_47:\n  pop\n    /* \"homework01/4/IntToRoman.sol\":692:705  keys[4] = \"C\" */\n  mload(0x40)\n  dup1\n  0x40\n  add\n  0x40\n  mstore\n  dup1\n  0x01\n  dup2\n  mstore\n  0x20\n  add\n  0x4300000000000000000000000000000000000000000000000000000000000000\n  dup2\n  mstore\n  pop\n    /* \"homework01/4/IntToRoman.sol\":692:696  keys */\n  0x01\n    /* \"homework01/4/IntToRoman.sol\":697:698  4 */\n  0x04\n    /* \"homework01/4/IntToRoman.sol\":692:699  keys[4] */\n  0x0d\n  dup2\n  lt\n  tag_48\n  jumpi\n  tag_49\n  tag_32\n  jump\t// in\ntag_49:\ntag_48:\n  add\n    /* \"homework01/4/IntToRoman.sol\":692:705  keys[4] = \"C\" */\n  swap1\n  dup2\n  tag_51\n  swap2\n  swap1\n  tag_35\n  jump\t// in\ntag_51:\n  pop\n    /* \"homework01/4/IntToRoman.sol\":715:729  keys[5] = \"XC\" */\n  mload(0x40)\n  dup1\n  0x40\n  add\n  0x40\n  mstore\n  dup1\n  0x02\n  dup2\n  mstore\n  0x20\n  add\n  0x5843000000000000000000000000000000000000000000000000000000000000\n  dup2\n  mstore\n  pop\n    /* \"homework01/4/IntToRoman.sol\":715:719  keys */\n  0x01\n    /* \"homework01/4/IntToRoman.sol\":720:721  5 */\n  0x05\n    /* \"homework01/4/IntToRoman.sol\":715:722  keys[5] */\n  0x0d\n  dup2\n  lt\n  tag_52\n  jumpi\n  tag_53\n  tag_32\n  jump\t// in\ntag_53:\ntag_52:\n  add\n    /* \"homework01/4/IntToRoman.sol\":715:729  keys[5] = \"XC\" */\n  swap1\n  dup2\n  tag_55\n  swap2\n  swap1\n  tag_35\n  jump\t// in\ntag_55:\n  pop\n    /* \"homework01/4/IntToRoman.sol\":739:752  keys[6] = \"L\" */\n  mload(0x40)\n  dup1\n  0x40\n  add\n  0x40\n  mstore\n  dup1\n  0x01\n  dup2\n  mstore\n  0x20\n  add\n  0x4c00000000000000000000000000000000000000000000000000000000000000\n  dup2\n  mstore\n  pop\n    /* \"homework01/4/IntToRoman.sol\":739:743  keys */\n  0x01\n    /* \"homework01/4/IntToRoman.sol\":744:745  6 */\n  0x06\n    /* \"homework01/4/IntToRoman.sol\":739:746  keys[6] */\n  0x0d\n  dup2\n  lt\n  tag_56\n  jumpi\n  tag_57\n  tag_32\n  jump\t// in\ntag_57:\ntag_56:\n  add\n    /* \"homework01/4/IntToRoman.sol\":739:752  keys[6] = \"L\" */\n  swap1\n  dup2\n  tag_59\n  swap2\n  swap1\n  tag_35\n  jump\t// in\ntag_59:\n  pop\n    /* \"homework01/4/IntToRoman.sol\":762:776  keys[7] = \"XL\" */\n  mload(0x40)\n  dup1\n  0x40\n  add\n  0x40\n  mstore\n  dup1\n  0x02\n  dup2\n  mstore\n  0x20\n  add\n  0x584c000000000000000000000000000000000000000000000000000000000000\n  dup2\n  mstore\n  pop\n    /* \"homework01/4/IntToRoman.sol\":762:766  keys */\n  0x01\n    /* \"homework01/4/IntToRoman.sol\":767:768  7 */\n  0x07\n    /* \"homework01/4/IntToRoman.sol\":762:769  keys[7] */\n  0x0d\n  dup2\n  lt\n  tag_60\n  jumpi\n  tag_61\n  tag_32\n  jump\t// in\ntag_61:\ntag_60:\n  add\n    /* \"homework01/4/IntToRoman.sol\":762:776  keys[7] = \"XL\" */\n  swap1\n  dup2\n  tag_63\n  swap2\n  swap1\n  tag_35\n  jump\t// in\ntag_63:\n  pop\n    /* \"homework01/4/IntToRoman.sol\":786:799  keys[8] = \"X\" */\n  mload(0x40)\n  dup1\n  0x40\n  add\n  0x40\n  mstore\n  dup1\n  0x01\n  dup2\n  mstore\n  0x20\n  add\n  0x5800000000000000000000000000000000000000000000000000000000000000\n  dup2\n  mstore\n  pop\n    /* \"homework01/4/IntToRoman.sol\":786:790  keys */\n  0x01\n    /* \"homework01/4/IntToRoman.sol\":791:792  8 */\n  0x08\n    /* \"homework01/4/IntToRoman.sol\":786:793  keys[8] */\n  0x0d\n  dup2\n  lt\n  tag_64\n  jumpi\n  tag_65\n  tag_32\n  jump\t// in\ntag_65:\ntag_64:\n  add\n    /* \"homework01/4/IntToRoman.sol\":786:799  keys[8] = \"X\" */\n  swap1\n  dup2\n  tag_67\n  swap2\n  swap1\n  tag_35\n  jump\t// in\ntag_67:\n  pop\n    /* \"homework01/4/IntToRoman.sol\":809:823  keys[9] = \"IX\" */\n  mload(0x40)\n  dup1\n  0x40\n  add\n  0x40\n  mstore\n  dup1\n  0x02\n  dup2\n  mstore\n  0x20\n  add\n  0x4958000000000000000000000000000000000000000000000000000000000000\n  dup2\n  mstore\n  pop\n    /* \"homework01/4/IntToRoman.sol\":809:813  keys */\n  0x01\n    /* \"homework01/4/IntToRoman.sol\":814:815  9 */\n  0x09\n    /* \"homework01/4/IntToRoman.sol\":809:816  keys[9] */\n  0x0d\n  dup2\n  lt\n  tag_68\n  jumpi\n  tag_69\n  tag_32\n  jump\t// in\ntag_69:\ntag_68:\n  add\n    /* \"homework01/4/IntToRoman.sol\":809:823  keys[9] = \"IX\" */\n  swap1\n  dup2\n  tag_71\n  swap2\n  swap1\n  tag_35\n  jump\t// in\ntag_71:\n  pop\n    /* \"homework01/4/IntToRoman.sol\":833:847  keys[10] = \"V\" */\n  mload(0x40)\n  dup1\n  0x40\n  add\n  0x40\n  mstore\n  dup1\n  0x01\n  dup2\n  mstore\n  0x20\n  add\n  0x5600000000000000000000000000000000000000000000000000000000000000\n  dup2\n  mstore\n  pop\n    /* \"homework01/4/IntToRoman.sol\":833:837  keys */\n  0x01\n    /* \"homework01/4/IntToRoman.sol\":838:840  10 */\n  0x0a\n    /* \"homework01/4/IntToRoman.sol\":833:841  keys[10] */\n  0x0d\n  dup2\n  lt\n  tag_72\n  jumpi\n  tag_73\n  tag_32\n  jump\t// in\ntag_73:\ntag_72:\n  add\n    /* \"homework01/4/IntToRoman.sol\":833:847  keys[10] = \"V\" */\n  swap1\n  dup2\n  tag_75\n  swap2\n  swap1\n  tag_35\n  jump\t// in\ntag_75:\n  pop\n    /* \"homework01/4/IntToRoman.sol\":857:872  keys[11] = \"IV\" */\n  mload(0x40)\n  dup1\n  0x40\n  add\n  0x40\n  mstore\n  dup1\n  0x02\n  dup2\n  mstore\n  0x20\n  add\n  0x4956000000000000000000000000000000000000000000000000000000000000\n  dup2\n  mstore\n  pop\n    /* \"homework01/4/IntToRoman.sol\":857:861  keys */\n  0x01\n    /* \"homework01/4/IntToRoman.sol\":862:864  11 */\n  0x0b\n    /* \"homework01/4/IntToRoman.sol\":857:865  keys[11] */\n  0x0d\n  dup2\n  lt\n  tag_76\n  jumpi\n  tag_77\n  tag_32\n  jump\t// in\ntag_77:\ntag_76:\n  add\n    /* \"homework01/4/IntToRoman.sol\":857:872  keys[11] = \"IV\" */\n  swap1\n  dup2\n  tag_79\n  swap2\n  swap1\n  tag_35\n  jump\t// in\ntag_79:\n  pop\n    /* \"homework01/4/IntToRoman.sol\":882:896  keys[12] = \"I\" */\n  mload(0x40)\n  dup1\n  0x40\n  add\n  0x40\n  mstore\n  dup1\n  0x01\n  dup2\n  mstore\n  0x20\n  add\n  0x4900000000000000000000000000000000000000000000000000000000000000\n  dup2\n  mstore\n  pop\n    /* \"homework01/4/IntToRoman.sol\":882:886  keys */\n  0x01\n    /* \"homework01/4/IntToRoman.sol\":887:889  12 */\n  0x0c\n    /* \"homework01/4/IntToRoman.sol\":882:890  keys[12] */\n  0x0d\n  dup2\n  lt\n  tag_80\n  jumpi\n  tag_81\n  tag_32\n  jump\t// in\ntag_81:\ntag_80:\n  add\n    /* \"homework01/4/IntToRoman.sol\":882:896  keys[12] = \"I\" */\n  swap1\n  dup2\n  tag_83\n  swap2\n  swap1\n  tag_35\n  jump\t// in\ntag_83:\n  pop\n    /* \"homework01/4/IntToRoman.sol\":58:1498  contract IntToRoman {... */\n  jump(tag_84)\n    /* \"#utility.yul\":7:155   */\ntag_85:\n    /* \"#utility.yul\":109:120   */\n  0x00\n    /* \"#utility.yul\":146:149   */\n  dup2\n    /* \"#utility.yul\":131:149   */\n  swap1\n  pop\n    /* \"#utility.yul\":7:155   */\n  swap3\n  swap2\n  pop\n  pop\n  jump\t// out\n    /* \"#utility.yul\":161:312   */\ntag_86:\n    /* \"#utility.yul\":301:304   */\n  0x4d00000000000000000000000000000000000000000000000000000000000000\n    /* \"#utility.yul\":297:298   */\n  0x00\n    /* \"#utility.yul\":289:295   */\n  dup3\n    /* \"#utility.yul\":285:299   */\n  add\n    /* \"#utility.yul\":278:305   */\n  mstore\n    /* \"#utility.yul\":161:312   */\n  pop\n  jump\t// out\n    /* \"#utility.yul\":318:718   */\ntag_87:\n    /* \"#utility.yul\":478:481   */\n  0x00\n    /* \"#utility.yul\":499:583   */\n  tag_136\n    /* \"#utility.yul\":581:582   */\n  0x01\n    /* \"#utility.yul\":576:579   */\n  dup4\n    /* \"#utility.yul\":499:583   */\n  tag_85\n  jump\t// in\ntag_136:\n    /* \"#utility.yul\":492:583   */\n  swap2\n  pop\n    /* \"#utility.yul\":592:685   */\n  tag_137\n    /* \"#utility.yul\":681:684   */\n  dup3\n    /* \"#utility.yul\":592:685   */\n  tag_86\n  jump\t// in\ntag_137:\n    /* \"#utility.yul\":710:711   */\n  0x01\n    /* \"#utility.yul\":705:708   */\n  dup3\n    /* \"#utility.yul\":701:712   */\n  add\n    /* \"#utility.yul\":694:712   */\n  swap1\n  pop\n    /* \"#utility.yul\":318:718   */\n  swap2\n  swap1\n  pop\n  jump\t// out\n    /* \"#utility.yul\":724:1105   */\ntag_5:\n    /* \"#utility.yul\":909:912   */\n  0x00\n    /* \"#utility.yul\":931:1079   */\n  tag_139\n    /* \"#utility.yul\":1075:1078   */\n  dup3\n    /* \"#utility.yul\":931:1079   */\n  tag_87\n  jump\t// in\ntag_139:\n    /* \"#utility.yul\":924:1079   */\n  swap2\n  pop\n    /* \"#utility.yul\":1096:1099   */\n  dup2\n    /* \"#utility.yul\":1089:1099   */\n  swap1\n  pop\n    /* \"#utility.yul\":724:1105   */\n  swap2\n  swap1\n  pop\n  jump\t// out\n    /* \"#utility.yul\":1111:1263   */\ntag_88:\n    /* \"#utility.yul\":1251:1255   */\n  0x434d000000000000000000000000000000000000000000000000000000000000\n    /* \"#utility.yul\":1247:1248   */\n  0x00\n    /* \"#utility.yul\":1239:1245   */\n  dup3\n    /* \"#utility.yul\":1235:1249   */\n  add\n    /* \"#utility.yul\":1228:1256   */\n  mstore\n    /* \"#utility.yul\":1111:1263   */\n  pop\n  jump\t// out\n    /* \"#utility.yul\":1269:1669   */\ntag_89:\n    /* \"#utility.yul\":1429:1432   */\n  0x00\n    /* \"#utility.yul\":1450:1534   */\n  tag_142\n    /* \"#utility.yul\":1532:1533   */\n  0x02\n    /* \"#utility.yul\":1527:1530   */\n  dup4\n    /* \"#utility.yul\":1450:1534   */\n  tag_85\n  jump\t// in\ntag_142:\n    /* \"#utility.yul\":1443:1534   */\n  swap2\n  pop\n    /* \"#utility.yul\":1543:1636   */\n  tag_143\n    /* \"#utility.yul\":1632:1635   */\n  dup3\n    /* \"#utility.yul\":1543:1636   */\n  tag_88\n  jump\t// in\ntag_143:\n    /* \"#utility.yul\":1661:1662   */\n  0x02\n    /* \"#utility.yul\":1656:1659   */\n  dup3\n    /* \"#utility.yul\":1652:1663   */\n  add\n    /* \"#utility.yul\":1645:1663   */\n  swap1\n  pop\n    /* \"#utility.yul\":1269:1669   */\n  swap2\n  swap1\n  pop\n  jump\t// out\n    /* \"#utility.yul\":1675:2056   */\ntag_7:\n    /* \"#utility.yul\":1860:1863   */\n  0x00\n    /* \"#utility.yul\":1882:2030   */\n  tag_145\n    /* \"#utility.yul\":2026:2029   */\n  dup3\n    /* \"#utility.yul\":1882:2030   */\n  tag_89\n  jump\t// in\ntag_145:\n    /* \"#utility.yul\":1875:2030   */\n  swap2\n  pop\n    /* \"#utility.yul\":2047:2050   */\n  dup2\n    /* \"#utility.yul\":2040:2050   */\n  swap1\n  pop\n    /* \"#utility.yul\":1675:2056   */\n  swap2\n  swap1\n  pop\n  jump\t// out\n    /* \"#utility.yul\":2062:2213   */\ntag_90:\n    /* \"#utility.yul\":2202:2205   */\n  0x4400000000000000000000000000000000000000000000000000000000000000\n    /* \"#utility.yul\":2198:2199   */\n  0x00\n    /* \"#utility.yul\":2190:2196   */\n  dup3\n    /* \"#utility.yul\":2186:2200   */\n  add\n    /* \"#utility.yul\":2179:2206   */\n  mstore\n    /* \"#utility.yul\":2062:2213   */\n  pop\n  jump\t// out\n    /* \"#utility.yul\":2219:2619   */\ntag_91:\n    /* \"#utility.yul\":2379:2382   */\n  0x00\n    /* \"#utility.yul\":2400:2484   */\n  tag_148\n    /* \"#utility.yul\":2482:2483   */\n  0x01\n    /* \"#utility.yul\":2477:2480   */\n  dup4\n    /* \"#utility.yul\":2400:2484   */\n  tag_85\n  jump\t// in\ntag_148:\n    /* \"#utility.yul\":2393:2484   */\n  swap2\n  pop\n    /* \"#utility.yul\":2493:2586   */\n  tag_149\n    /* \"#utility.yul\":2582:2585   */\n  dup3\n    /* \"#utility.yul\":2493:2586   */\n  tag_90\n  jump\t// in\ntag_149:\n    /* \"#utility.yul\":2611:2612   */\n  0x01\n    /* \"#utility.yul\":2606:2609   */\n  dup3\n    /* \"#utility.yul\":2602:2613   */\n  add\n    /* \"#utility.yul\":2595:2613   */\n  swap1\n  pop\n    /* \"#utility.yul\":2219:2619   */\n  swap2\n  swap1\n  pop\n  jump\t// out\n    /* \"#utility.yul\":2625:3006   */\ntag_9:\n    /* \"#utility.yul\":2810:2813   */\n  0x00\n    /* \"#utility.yul\":2832:2980   */\n  tag_151\n    /* \"#utility.yul\":2976:2979   */\n  dup3\n    /* \"#utility.yul\":2832:2980   */\n  tag_91\n  jump\t// in\ntag_151:\n    /* \"#utility.yul\":2825:2980   */\n  swap2\n  pop\n    /* \"#utility.yul\":2997:3000   */\n  dup2\n    /* \"#utility.yul\":2990:3000   */\n  swap1\n  pop\n    /* \"#utility.yul\":2625:3006   */\n  swap2\n  swap1\n  pop\n  jump\t// out\n    /* \"#utility.yul\":3012:3164   */\ntag_92:\n    /* \"#utility.yul\":3152:3156   */\n  0x4344000000000000000000000000000000000000000000000000000000000000\n    /* \"#utility.yul\":3148:3149   */\n  0x00\n    /* \"#utility.yul\":3140:3146   */\n  dup3\n    /* \"#utility.yul\":3136:3150   */\n  add\n    /* \"#utility.yul\":3129:3157   */\n  mstore\n    /* \"#utility.yul\":3012:3164   */\n  pop\n  jump\t// out\n    /* \"#utility.yul\":3170:3570   */\ntag_93:\n    /* \"#utility.yul\":3330:3333   */\n  0x00\n    /* \"#utility.yul\":3351:3435   */\n  tag_154\n    /* \"#utility.yul\":3433:3434   */\n  0x02\n    /* \"#utility.yul\":3428:3431   */\n  dup4\n    /* \"#utility.yul\":3351:3435   */\n  tag_85\n  jump\t// in\ntag_154:\n    /* \"#utility.yul\":3344:3435   */\n  swap2\n  pop\n    /* \"#utility.yul\":3444:3537   */\n  tag_155\n    /* \"#utility.yul\":3533:3536   */\n  dup3\n    /* \"#utility.yul\":3444:3537   */\n  tag_92\n  jump\t// in\ntag_155:\n    /* \"#utility.yul\":3562:3563   */\n  0x02\n    /* \"#utility.yul\":3557:3560   */\n  dup3\n    /* \"#utility.yul\":3553:3564   */\n  add\n    /* \"#utility.yul\":3546:3564   */\n  swap1\n  pop\n    /* \"#utility.yul\":3170:3570   */\n  swap2\n  swap1\n  pop\n  jump\t// out\n    /* \"#utility.yul\":3576:3957   */\ntag_11:\n    /* \"#utility.yul\":3761:3764   */\n  0x00\n    /* \"#utility.yul\":3783:3931   */\n  tag_157\n    /* \"#utility.yul\":3927:3930   */\n  dup3\n    /* \"#utility.yul\":3783:3931   */\n  tag_93\n  jump\t// in\ntag_157:\n    /* \"#utility.yul\":3776:3931   */\n  swap2\n  pop\n    /* \"#utility.yul\":3948:3951   */\n  dup2\n    /* \"#utility.yul\":3941:3951   */\n  swap1\n  pop\n    /* \"#utility.yul\":3576:3957   */\n  swap2\n  swap1\n  pop\n  jump\t// out\n    /* \"#utility.yul\":3963:4114   */\ntag_94:\n    /* \"#utility.yul\":4103:4106   */\n  0x4300000000000000000000000000000000000000000000000000000000000000\n    /* \"#utility.yul\":4099:4100   */\n  0x00\n    /* \"#utility.yul\":4091:4097   */\n  dup3\n    /* \"#utility.yul\":4087:4101   */\n  add\n    /* \"#utility.yul\":4080:4107   */\n  mstore\n    /* \"#utility.yul\":3963:4114   */\n  pop\n  jump\t// out\n    /* \"#utility.yul\":4120:4520   */\ntag_95:\n    /* \"#utility.yul\":4280:4283   */\n  0x00\n    /* \"#utility.yul\":4301:4385   */\n  tag_160\n    /* \"#utility.yul\":4383:4384   */\n  0x01\n    /* \"#utility.yul\":4378:4381   */\n  dup4\n    /* \"#utility.yul\":4301:4385   */\n  tag_85\n  jump\t// in\ntag_160:\n    /* \"#utility.yul\":4294:4385   */\n  swap2\n  pop\n    /* \"#utility.yul\":4394:4487   */\n  tag_161\n    /* \"#utility.yul\":4483:4486   */\n  dup3\n    /* \"#utility.yul\":4394:4487   */\n  tag_94\n  jump\t// in\ntag_161:\n    /* \"#utility.yul\":4512:4513   */\n  0x01\n    /* \"#utility.yul\":4507:4510   */\n  dup3\n    /* \"#utility.yul\":4503:4514   */\n  add\n    /* \"#utility.yul\":4496:4514   */\n  swap1\n  pop\n    /* \"#utility.yul\":4120:4520   */\n  swap2\n  swap1\n  pop\n  jump\t// out\n    /* \"#utility.yul\":4526:4907   */\ntag_13:\n    /* \"#utility.yul\":4711:4714   */\n  0x00\n    /* \"#utility.yul\":4733:4881   */\n  tag_163\n    /* \"#utility.yul\":4877:4880   */\n  dup3\n    /* \"#utility.yul\":4733:4881   */\n  tag_95\n  jump\t// in\ntag_163:\n    /* \"#utility.yul\":4726:4881   */\n  swap2\n  pop\n    /* \"#utility.yul\":4898:4901   */\n  dup2\n    /* \"#utility.yul\":4891:4901   */\n  swap1\n  pop\n    /* \"#utility.yul\":4526:4907   */\n  swap2\n  swap1\n  pop\n  jump\t// out\n    /* \"#utility.yul\":4913:5065   */\ntag_96:\n    /* \"#utility.yul\":5053:5057   */\n  0x5843000000000000000000000000000000000000000000000000000000000000\n    /* \"#utility.yul\":5049:5050   */\n  0x00\n    /* \"#utility.yul\":5041:5047   */\n  dup3\n    /* \"#utility.yul\":5037:5051   */\n  add\n    /* \"#utility.yul\":5030:5058   */\n  mstore\n    /* \"#utility.yul\":4913:5065   */\n  pop\n  jump\t// out\n    /* \"#utility.yul\":5071:5471   */\ntag_97:\n    /* \"#utility.yul\":5231:5234   */\n  0x00\n    /* \"#utility.yul\":5252:5336   */\n  tag_166\n    /* \"#utility.yul\":5334:5335   */\n  0x02\n    /* \"#utility.yul\":5329:5332   */\n  dup4\n    /* \"#utility.yul\":5252:5336   */\n  tag_85\n  jump\t// in\ntag_166:\n    /* \"#utility.yul\":5245:5336   */\n  swap2\n  pop\n    /* \"#utility.yul\":5345:5438   */\n  tag_167\n    /* \"#utility.yul\":5434:5437   */\n  dup3\n    /* \"#utility.yul\":5345:5438   */\n  tag_96\n  jump\t// in\ntag_167:\n    /* \"#utility.yul\":5463:5464   */\n  0x02\n    /* \"#utility.yul\":5458:5461   */\n  dup3\n    /* \"#utility.yul\":5454:5465   */\n  add\n    /* \"#utility.yul\":5447:5465   */\n  swap1\n  pop\n    /* \"#utility.yul\":5071:5471   */\n  swap2\n  swap1\n  pop\n  jump\t// out\n    /* \"#utility.yul\":5477:5858   */\ntag_15:\n    /* \"#utility.yul\":5662:5665   */\n  0x00\n    /* \"#utility.yul\":5684:5832   */\n  tag_169\n    /* \"#utility.yul\":5828:5831   */\n  dup3\n    /* \"#utility.yul\":5684:5832   */\n  tag_97\n  jump\t// in\ntag_169:\n    /* \"#utility.yul\":5677:5832   */\n  swap2\n  pop\n    /* \"#utility.yul\":5849:5852   */\n  dup2\n    /* \"#utility.yul\":5842:5852   */\n  swap1\n  pop\n    /* \"#utility.yul\":5477:5858   */\n  swap2\n  swap1\n  pop\n  jump\t// out\n    /* \"#utility.yul\":5864:6015   */\ntag_98:\n    /* \"#utility.yul\":6004:6007   */\n  0x4c00000000000000000000000000000000000000000000000000000000000000\n    /* \"#utility.yul\":6000:6001   */\n  0x00\n    /* \"#utility.yul\":5992:5998   */\n  dup3\n    /* \"#utility.yul\":5988:6002   */\n  add\n    /* \"#utility.yul\":5981:6008   */\n  mstore\n    /* \"#utility.yul\":5864:6015   */\n  pop\n  jump\t// out\n    /* \"#utility.yul\":6021:6421   */\ntag_99:\n    /* \"#utility.yul\":6181:6184   */\n  0x00\n    /* \"#utility.yul\":6202:6286   */\n  tag_172\n    /* \"#utility.yul\":6284:6285   */\n  0x01\n    /* \"#utility.yul\":6279:6282   */\n  dup4\n    /* \"#utility.yul\":6202:6286   */\n  tag_85\n  jump\t// in\ntag_172:\n    /* \"#utility.yul\":6195:6286   */\n  swap2\n  pop\n    /* \"#utility.yul\":6295:6388   */\n  tag_173\n    /* \"#utility.yul\":6384:6387   */\n  dup3\n    /* \"#utility.yul\":6295:6388   */\n  tag_98\n  jump\t// in\ntag_173:\n    /* \"#utility.yul\":6413:6414   */\n  0x01\n    /* \"#utility.yul\":6408:6411   */\n  dup3\n    /* \"#utility.yul\":6404:6415   */\n  add\n    /* \"#utility.yul\":6397:6415   */\n  swap1\n  pop\n    /* \"#utility.yul\":6021:6421   */\n  swap2\n  swap1\n  pop\n  jump\t// out\n    /* \"#utility.yul\":6427:6808   */\ntag_17:\n    /* \"#utility.yul\":6612:6615   */\n  0x00\n    /* \"#utility.yul\":6634:6782   */\n  tag_175\n    /* \"#utility.yul\":6778:6781   */\n  dup3\n    /* \"#utility.yul\":6634:6782   */\n  tag_99\n  jump\t// in\ntag_175:\n    /* \"#utility.yul\":6627:6782   */\n  swap2\n  pop\n    /* \"#utility.yul\":6799:6802   */\n  dup2\n    /* \"#utility.yul\":6792:6802   */\n  swap1\n  pop\n    /* \"#utility.yul\":6427:6808   */\n  swap2\n  swap1\n  pop\n  jump\t// out\n    /* \"#utility.yul\":6814:6966   */\ntag_100:\n    /* \"#utility.yul\":6954:6958   */\n  0x584c000000000000000000000000000000000000000000000000000000000000\n    /* \"#utility.yul\":6950:6951   */\n  0x00\n    /* \"#utility.yul\":6942:6948   */\n  dup3\n    /* \"#utility.yul\":6938:6952   */\n  add\n    /* \"#utility.yul\":6931:6959   */\n  mstore\n    /* \"#utility.yul\":6814:6966   */\n  pop\n  jump\t// out\n    /* \"#utility.yul\":6972:7372   */\ntag_101:\n    /* \"#utility.yul\":7132:7135   */\n  0x00\n    /* \"#utility.yul\":7153:7237   */\n  tag_178\n    /* \"#utility.yul\":7235:7236   */\n  0x02\n    /* \"#utility.yul\":7230:7233   */\n  dup4\n    /* \"#utility.yul\":7153:7237   */\n  tag_85\n  jump\t// in\ntag_178:\n    /* \"#utility.yul\":7146:7237   */\n  swap2\n  pop\n    /* \"#utility.yul\":7246:7339   */\n  tag_179\n    /* \"#utility.yul\":7335:7338   */\n  dup3\n    /* \"#utility.yul\":7246:7339   */\n  tag_100\n  jump\t// in\ntag_179:\n    /* \"#utility.yul\":7364:7365   */\n  0x02\n    /* \"#utility.yul\":7359:7362   */\n  dup3\n    /* \"#utility.yul\":7355:7366   */\n  add\n    /* \"#utility.yul\":7348:7366   */\n  swap1\n  pop\n    /* \"#utility.yul\":6972:7372   */\n  swap2\n  swap1\n  pop\n  jump\t// out\n    /* \"#utility.yul\":7378:7759   */\ntag_19:\n    /* \"#utility.yul\":7563:7566   */\n  0x00\n    /* \"#utility.yul\":7585:7733   */\n  tag_181\n    /* \"#utility.yul\":7729:7732   */\n  dup3\n    /* \"#utility.yul\":7585:7733   */\n  tag_101\n  jump\t// in\ntag_181:\n    /* \"#utility.yul\":7578:7733   */\n  swap2\n  pop\n    /* \"#utility.yul\":7750:7753   */\n  dup2\n    /* \"#utility.yul\":7743:7753   */\n  swap1\n  pop\n    /* \"#utility.yul\":7378:7759   */\n  swap2\n  swap1\n  pop\n  jump\t// out\n    /* \"#utility.yul\":7765:7916   */\ntag_102:\n    /* \"#utility.yul\":7905:7908   */\n  0x5800000000000000000000000000000000000000000000000000000000000000\n    /* \"#utility.yul\":7901:7902   */\n  0x00\n    /* \"#utility.yul\":7893:7899   */\n  dup3\n    /* \"#utility.yul\":7889:7903   */\n  add\n    /* \"#utility.yul\":7882:7909   */\n  mstore\n    /* \"#utility.yul\":7765:7916   */\n  pop\n  jump\t// out\n    /* \"#utility.yul\":7922:8322   */\ntag_103:\n    /* \"#utility.yul\":8082:8085   */\n  0x00\n    /* \"#utility.yul\":8103:8187   */\n  tag_184\n    /* \"#utility.yul\":8185:8186   */\n  0x01\n    /* \"#utility.yul\":8180:8183   */\n  dup4\n    /* \"#utility.yul\":8103:8187   */\n  tag_85\n  jump\t// in\ntag_184:\n    /* \"#utility.yul\":8096:8187   */\n  swap2\n  pop\n    /* \"#utility.yul\":8196:8289   */\n  tag_185\n    /* \"#utility.yul\":8285:8288   */\n  dup3\n    /* \"#utility.yul\":8196:8289   */\n  tag_102\n  jump\t// in\ntag_185:\n    /* \"#utility.yul\":8314:8315   */\n  0x01\n    /* \"#utility.yul\":8309:8312   */\n  dup3\n    /* \"#utility.yul\":8305:8316   */\n  add\n    /* \"#utility.yul\":8298:8316   */\n  swap1\n  pop\n    /* \"#utility.yul\":7922:8322   */\n  swap2\n  swap1\n  pop\n  jump\t// out\n    /* \"#utility.yul\":8328:8709   */\ntag_21:\n    /* \"#utility.yul\":8513:8516   */\n  0x00\n    /* \"#utility.yul\":8535:8683   */\n  tag_187\n    /* \"#utility.yul\":8679:8682   */\n  dup3\n    /* \"#utility.yul\":8535:8683   */\n  tag_103\n  jump\t// in\ntag_187:\n    /* \"#utility.yul\":8528:8683   */\n  swap2\n  pop\n    /* \"#utility.yul\":8700:8703   */\n  dup2\n    /* \"#utility.yul\":8693:8703   */\n  swap1\n  pop\n    /* \"#utility.yul\":8328:8709   */\n  swap2\n  swap1\n  pop\n  jump\t// out\n    /* \"#utility.yul\":8715:8867   */\ntag_104:\n    /* \"#utility.yul\":8855:8859   */\n  0x4958000000000000000000000000000000000000000000000000000000000000\n    /* \"#utility.yul\":8851:8852   */\n  0x00\n    /* \"#utility.yul\":8843:8849   */\n  dup3\n    /* \"#utility.yul\":8839:8853   */\n  add\n    /* \"#utility.yul\":8832:8860   */\n  mstore\n    /* \"#utility.yul\":8715:8867   */\n  pop\n  jump\t// out\n    /* \"#utility.yul\":8873:9273   */\ntag_105:\n    /* \"#utility.yul\":9033:9036   */\n  0x00\n    /* \"#utility.yul\":9054:9138   */\n  tag_190\n    /* \"#utility.yul\":9136:9137   */\n  0x02\n    /* \"#utility.yul\":9131:9134   */\n  dup4\n    /* \"#utility.yul\":9054:9138   */\n  tag_85\n  jump\t// in\ntag_190:\n    /* \"#utility.yul\":9047:9138   */\n  swap2\n  pop\n    /* \"#utility.yul\":9147:9240   */\n  tag_191\n    /* \"#utility.yul\":9236:9239   */\n  dup3\n    /* \"#utility.yul\":9147:9240   */\n  tag_104\n  jump\t// in\ntag_191:\n    /* \"#utility.yul\":9265:9266   */\n  0x02\n    /* \"#utility.yul\":9260:9263   */\n  dup3\n    /* \"#utility.yul\":9256:9267   */\n  add\n    /* \"#utility.yul\":9249:9267   */\n  swap1\n  pop\n    /* \"#utility.yul\":8873:9273   */\n  swap2\n  swap1\n  pop\n  jump\t// out\n    /* \"#utility.yul\":9279:9660   */\ntag_23:\n    /* \"#utility.yul\":9464:9467   */\n  0x00\n    /* \"#utility.yul\":9486:9634   */\n  tag_193\n    /* \"#utility.yul\":9630:9633   */\n  dup3\n    /* \"#utility.yul\":9486:9634   */\n  tag_105\n  jump\t// in\ntag_193:\n    /* \"#utility.yul\":9479:9634   */\n  swap2\n  pop\n    /* \"#utility.yul\":9651:9654   */\n  dup2\n    /* \"#utility.yul\":9644:9654   */\n  swap1\n  pop\n    /* \"#utility.yul\":9279:9660   */\n  swap2\n  swap1\n  pop\n  jump\t// out\n    /* \"#utility.yul\":9666:9817   */\ntag_106:\n    /* \"#utility.yul\":9806:9809   */\n  0x5600000000000000000000000000000000000000000000000000000000000000\n    /* \"#utility.yul\":9802:9803   */\n  0x00\n    /* \"#utility.yul\":9794:9800   */\n  dup3\n    /* \"#utility.yul\":9790:9804   */\n  add\n    /* \"#utility.yul\":9783:9810   */\n  mstore\n    /* \"#utility.yul\":9666:9817   */\n  pop\n  jump\t// out\n    /* \"#utility.yul\":9823:10223   */\ntag_107:\n    /* \"#utility.yul\":9983:9986   */\n  0x00\n    /* \"#utility.yul\":10004:10088   */\n  tag_196\n    /* \"#utility.yul\":10086:10087   */\n  0x01\n    /* \"#utility.yul\":10081:10084   */\n  dup4\n    /* \"#utility.yul\":10004:10088   */\n  tag_85\n  jump\t// in\ntag_196:\n    /* \"#utility.yul\":9997:10088   */\n  swap2\n  pop\n    /* \"#utility.yul\":10097:10190   */\n  tag_197\n    /* \"#utility.yul\":10186:10189   */\n  dup3\n    /* \"#utility.yul\":10097:10190   */\n  tag_106\n  jump\t// in\ntag_197:\n    /* \"#utility.yul\":10215:10216   */\n  0x01\n    /* \"#utility.yul\":10210:10213   */\n  dup3\n    /* \"#utility.yul\":10206:10217   */\n  add\n    /* \"#utility.yul\":10199:10217   */\n  swap1\n  pop\n    /* \"#utility.yul\":9823:10223   */\n  swap2\n  swap1\n  pop\n  jump\t// out\n    /* \"#utility.yul\":10229:10610   */\ntag_25:\n    /* \"#utility.yul\":10414:10417   */\n  0x00\n    /* \"#utility.yul\":10436:10584   */\n  tag_199\n    /* \"#utility.yul\":10580:10583   */\n  dup3\n    /* \"#utility.yul\":10436:10584   */\n  tag_107\n  jump\t// in\ntag_199:\n    /* \"#utility.yul\":10429:10584   */\n  swap2\n  pop\n    /* \"#utility.yul\":10601:10604   */\n  dup2\n    /* \"#utility.yul\":10594:10604   */\n  swap1\n  pop\n    /* \"#utility.yul\":10229:10610   */\n  swap2\n  swap1\n  pop\n  jump\t// out\n    /* \"#utility.yul\":10616:10768   */\ntag_108:\n    /* \"#utility.yul\":10756:10760   */\n  0x4956000000000000000000000000000000000000000000000000000000000000\n    /* \"#utility.yul\":10752:10753   */\n  0x00\n    /* \"#utility.yul\":10744:10750   */\n  dup3\n    /* \"#utility.yul\":10740:10754   */\n  add\n    /* \"#utility.yul\":10733:10761   */\n  mstore\n    /* \"#utility.yul\":10616:10768   */\n  pop\n  jump\t// out\n    /* \"#utility.yul\":10774:11174   */\ntag_109:\n    /* \"#utility.yul\":10934:10937   */\n  0x00\n    /* \"#utility.yul\":10955:11039   */\n  tag_202\n    /* \"#utility.yul\":11037:11038   */\n  0x02\n    /* \"#utility.yul\":11032:11035   */\n  dup4\n    /* \"#utility.yul\":10955:11039   */\n  tag_85\n  jump\t// in\ntag_202:\n    /* \"#utility.yul\":10948:11039   */\n  swap2\n  pop\n    /* \"#utility.yul\":11048:11141   */\n  tag_203\n    /* \"#utility.yul\":11137:11140   */\n  dup3\n    /* \"#utility.yul\":11048:11141   */\n  tag_108\n  jump\t// in\ntag_203:\n    /* \"#utility.yul\":11166:11167   */\n  0x02\n    /* \"#utility.yul\":11161:11164   */\n  dup3\n    /* \"#utility.yul\":11157:11168   */\n  add\n    /* \"#utility.yul\":11150:11168   */\n  swap1\n  pop\n    /* \"#utility.yul\":10774:11174   */\n  swap2\n  swap1\n  pop\n  jump\t// out\n    /* \"#utility.yul\":11180:11561   */\ntag_27:\n    /* \"#utility.yul\":11365:11368   */\n  0x00\n    /* \"#utility.yul\":11387:11535   */\n  tag_205\n    /* \"#utility.yul\":11531:11534   */\n  dup3\n    /* \"#utility.yul\":11387:11535   */\n  tag_109\n  jump\t// in\ntag_205:\n    /* \"#utility.yul\":11380:11535   */\n  swap2\n  pop\n    /* \"#utility.yul\":11552:11555   */\n  dup2\n    /* \"#utility.yul\":11545:11555   */\n  swap1\n  pop\n    /* \"#utility.yul\":11180:11561   */\n  swap2\n  swap1\n  pop\n  jump\t// out\n    /* \"#utility.yul\":11567:11718   */\ntag_110:\n    /* \"#utility.yul\":11707:11710   */\n  0x4900000000000000000000000000000000000000000000000000000000000000\n    /* \"#utility.yul\":11703:11704   */\n  0x00\n    /* \"#utility.yul\":11695:11701   */\n  dup3\n    /* \"#utility.yul\":11691:11705   */\n  add\n    /* \"#utility.yul\":11684:11711   */\n  mstore\n    /* \"#utility.yul\":11567:11718   */\n  pop\n  jump\t// out\n    /* \"#utility.yul\":11724:12124   */\ntag_111:\n    /* \"#utility.yul\":11884:11887   */\n  0x00\n    /* \"#utility.yul\":11905:11989   */\n  tag_208\n    /* \"#utility.yul\":11987:11988   */\n  0x01\n    /* \"#utility.yul\":11982:11985   */\n  dup4\n    /* \"#utility.yul\":11905:11989   */\n  tag_85\n  jump\t// in\ntag_208:\n    /* \"#utility.yul\":11898:11989   */\n  swap2\n  pop\n    /* \"#utility.yul\":11998:12091   */\n  tag_209\n    /* \"#utility.yul\":12087:12090   */\n  dup3\n    /* \"#utility.yul\":11998:12091   */\n  tag_110\n  jump\t// in\ntag_209:\n    /* \"#utility.yul\":12116:12117   */\n  0x01\n    /* \"#utility.yul\":12111:12114   */\n  dup3\n    /* \"#utility.yul\":12107:12118   */\n  add\n    /* \"#utility.yul\":12100:12118   */\n  swap1\n  pop\n    /* \"#utility.yul\":11724:12124   */\n  swap2\n  swap1\n  pop\n  jump\t// out\n    /* \"#utility.yul\":12130:12511   */\ntag_29:\n    /* \"#utility.yul\":12315:12318   */\n  0x00\n    /* \"#utility.yul\":12337:12485   */\n  tag_211\n    /* \"#utility.yul\":12481:12484   */\n  dup3\n    /* \"#utility.yul\":12337:12485   */\n  tag_111\n  jump\t// in\ntag_211:\n    /* \"#utility.yul\":12330:12485   */\n  swap2\n  pop\n    /* \"#utility.yul\":12502:12505   */\n  dup2\n    /* \"#utility.yul\":12495:12505   */\n  swap1\n  pop\n    /* \"#utility.yul\":12130:12511   */\n  swap2\n  swap1\n  pop\n  jump\t// out\n    /* \"#utility.yul\":12517:12697   */\ntag_32:\n    /* \"#utility.yul\":12565:12642   */\n  0x4e487b7100000000000000000000000000000000000000000000000000000000\n    /* \"#utility.yul\":12562:12563   */\n  0x00\n    /* \"#utility.yul\":12555:12643   */\n  mstore\n    /* \"#utility.yul\":12662:12666   */\n  0x32\n    /* \"#utility.yul\":12659:12660   */\n  0x04\n    /* \"#utility.yul\":12652:12667   */\n  mstore\n    /* \"#utility.yul\":12686:12690   */\n  0x24\n    /* \"#utility.yul\":12683:12684   */\n  0x00\n    /* \"#utility.yul\":12676:12691   */\n  revert\n    /* \"#utility.yul\":12703:12802   */\ntag_112:\n    /* \"#utility.yul\":12755:12761   */\n  0x00\n    /* \"#utility.yul\":12789:12794   */\n  dup2\n    /* \"#utility.yul\":12783:12795   */\n  mload\n    /* \"#utility.yul\":12773:12795   */\n  swap1\n  pop\n    /* \"#utility.yul\":12703:12802   */\n  swap2\n  swap1\n  pop\n  jump\t// out\n    /* \"#utility.yul\":12808:12988   */\ntag_113:\n    /* \"#utility.yul\":12856:12933   */\n  0x4e487b7100000000000000000000000000000000000000000000000000000000\n    /* \"#utility.yul\":12853:12854   */\n  0x00\n    /* \"#utility.yul\":12846:12934   */\n  mstore\n    /* \"#utility.yul\":12953:12957   */\n  0x41\n    /* \"#utility.yul\":12950:12951   */\n  0x04\n    /* \"#utility.yul\":12943:12958   */\n  mstore\n    /* \"#utility.yul\":12977:12981   */\n  0x24\n    /* \"#utility.yul\":12974:12975   */\n  0x00\n    /* \"#utility.yul\":12967:12982   */\n  revert\n    /* \"#utility.yul\":12994:13174   */\ntag_114:\n    /* \"#utility.yul\":13042:13119   */\n  0x4e487b7100000000000000000000000000000000000000000000000000000000\n    /* \"#utility.yul\":13039:13040   */\n  0x00\n    /* \"#utility.yul\":13032:13120   */\n  mstore\n    /* \"#utility.yul\":13139:13143   */\n  0x22\n    /* \"#utility.yul\":13136:13137   */\n  0x04\n    /* \"#utility.yul\":13129:13144   */\n  mstore\n    /* \"#utility.yul\":13163:13167   */\n  0x24\n    /* \"#utility.yul\":13160:13161   */\n  0x00\n    /* \"#utility.yul\":13153:13168   */\n  revert\n    /* \"#utility.yul\":13180:13500   */\ntag_115:\n    /* \"#utility.yul\":13224:13230   */\n  0x00\n    /* \"#utility.yul\":13261:13262   */\n  0x02\n    /* \"#utility.yul\":13255:13259   */\n  dup3\n    /* \"#utility.yul\":13251:13263   */\n  div\n    /* \"#utility.yul\":13241:13263   */\n  swap1\n  pop\n    /* \"#utility.yul\":13308:13309   */\n  0x01\n    /* \"#utility.yul\":13302:13306   */\n  dup3\n    /* \"#utility.yul\":13298:13310   */\n  and\n    /* \"#utility.yul\":13329:13347   */\n  dup1\n    /* \"#utility.yul\":13319:13400   */\n  tag_217\n  jumpi\n    /* \"#utility.yul\":13385:13389   */\n  0x7f\n    /* \"#utility.yul\":13377:13383   */\n  dup3\n    /* \"#utility.yul\":13373:13390   */\n  and\n    /* \"#utility.yul\":13363:13390   */\n  swap2\n  pop\n    /* \"#utility.yul\":13319:13400   */\ntag_217:\n    /* \"#utility.yul\":13447:13449   */\n  0x20\n    /* \"#utility.yul\":13439:13445   */\n  dup3\n    /* \"#utility.yul\":13436:13450   */\n  lt\n    /* \"#utility.yul\":13416:13434   */\n  dup2\n    /* \"#utility.yul\":13413:13451   */\n  sub\n    /* \"#utility.yul\":13410:13494   */\n  tag_218\n  jumpi\n    /* \"#utility.yul\":13466:13484   */\n  tag_219\n  tag_114\n  jump\t// in\ntag_219:\n    /* \"#utility.yul\":13410:13494   */\ntag_218:\n    /* \"#utility.yul\":13231:13500   */\n  pop\n    /* \"#utility.yul\":13180:13500   */\n  swap2\n  swap1\n  pop\n  jump\t// out\n    /* \"#utility.yul\":13506:13647   */\ntag_116:\n    /* \"#utility.yul\":13555:13559   */\n  0x00\n    /* \"#utility.yul\":13578:13581   */\n  dup2\n    /* \"#utility.yul\":13570:13581   */\n  swap1\n  pop\n    /* \"#utility.yul\":13601:13604   */\n  dup2\n    /* \"#utility.yul\":13598:13599   */\n  0x00\n    /* \"#utility.yul\":13591:13605   */\n  mstore\n    /* \"#utility.yul\":13635:13639   */\n  0x20\n    /* \"#utility.yul\":13632:13633   */\n  0x00\n    /* \"#utility.yul\":13622:13640   */\n  keccak256\n    /* \"#utility.yul\":13614:13640   */\n  swap1\n  pop\n    /* \"#utility.yul\":13506:13647   */\n  swap2\n  swap1\n  pop\n  jump\t// out\n    /* \"#utility.yul\":13653:13746   */\ntag_117:\n    /* \"#utility.yul\":13690:13696   */\n  0x00\n    /* \"#utility.yul\":13737:13739   */\n  0x20\n    /* \"#utility.yul\":13732:13734   */\n  0x1f\n    /* \"#utility.yul\":13725:13730   */\n  dup4\n    /* \"#utility.yul\":13721:13735   */\n  add\n    /* \"#utility.yul\":13717:13740   */\n  div\n    /* \"#utility.yul\":13707:13740   */\n  swap1\n  pop\n    /* \"#utility.yul\":13653:13746   */\n  swap2\n  swap1\n  pop\n  jump\t// out\n    /* \"#utility.yul\":13752:13859   */\ntag_118:\n    /* \"#utility.yul\":13796:13804   */\n  0x00\n    /* \"#utility.yul\":13846:13851   */\n  dup3\n    /* \"#utility.yul\":13840:13844   */\n  dup3\n    /* \"#utility.yul\":13836:13852   */\n  shl\n    /* \"#utility.yul\":13815:13852   */\n  swap1\n  pop\n    /* \"#utility.yul\":13752:13859   */\n  swap3\n  swap2\n  pop\n  pop\n  jump\t// out\n    /* \"#utility.yul\":13865:14258   */\ntag_119:\n    /* \"#utility.yul\":13934:13940   */\n  0x00\n    /* \"#utility.yul\":13984:13985   */\n  0x08\n    /* \"#utility.yul\":13972:13982   */\n  dup4\n    /* \"#utility.yul\":13968:13986   */\n  mul\n    /* \"#utility.yul\":14007:14104   */\n  tag_224\n    /* \"#utility.yul\":14037:14103   */\n  0xffffffffffffffffffffffffffffffffffffffffffffffffffffffffffffffff\n    /* \"#utility.yul\":14026:14035   */\n  dup3\n    /* \"#utility.yul\":14007:14104   */\n  tag_118\n  jump\t// in\ntag_224:\n    /* \"#utility.yul\":14125:14164   */\n  tag_225\n    /* \"#utility.yul\":14155:14163   */\n  dup7\n    /* \"#utility.yul\":14144:14153   */\n  dup4\n    /* \"#utility.yul\":14125:14164   */\n  tag_118\n  jump\t// in\ntag_225:\n    /* \"#utility.yul\":14113:14164   */\n  swap6\n  pop\n    /* \"#utility.yul\":14197:14201   */\n  dup1\n    /* \"#utility.yul\":14193:14202   */\n  not\n    /* \"#utility.yul\":14186:14191   */\n  dup5\n    /* \"#utility.yul\":14182:14203   */\n  and\n    /* \"#utility.yul\":14173:14203   */\n  swap4\n  pop\n    /* \"#utility.yul\":14246:14250   */\n  dup1\n    /* \"#utility.yul\":14236:14244   */\n  dup7\n    /* \"#utility.yul\":14232:14251   */\n  and\n    /* \"#utility.yul\":14225:14230   */\n  dup5\n    /* \"#utility.yul\":14222:14252   */\n  or\n    /* \"#utility.yul\":14212:14252   */\n  swap3\n  pop\n    /* \"#utility.yul\":13941:14258   */\n  pop\n  pop\n    /* \"#utility.yul\":13865:14258   */\n  swap4\n  swap3\n  pop\n  pop\n  pop\n  jump\t// out\n    /* \"#utility.yul\":14264:14341   */\ntag_120:\n    /* \"#utility.yul\":14301:14308   */\n  0x00\n    /* \"#utility.yul\":14330:14335   */\n  dup2\n    /* \"#utility.yul\":14319:14335   */\n  swap1\n  pop\n    /* \"#utility.yul\":14264:14341   */\n  swap2\n  swap1\n  pop\n  jump\t// out\n    /* \"#utility.yul\":14347:14407   */\ntag_121:\n    /* \"#utility.yul\":14375:14378   */\n  0x00\n    /* \"#utility.yul\":14396:14401   */\n  dup2\n    /* \"#utility.yul\":14389:14401   */\n  swap1\n  pop\n    /* \"#utility.yul\":14347:14407   */\n  swap2\n  swap1\n  pop\n  jump\t// out\n    /* \"#utility.yul\":14413:14555   */\ntag_122:\n    /* \"#utility.yul\":14463:14472   */\n  0x00\n    /* \"#utility.yul\":14496:14549   */\n  tag_229\n    /* \"#utility.yul\":14514:14548   */\n  tag_230\n    /* \"#utility.yul\":14523:14547   */\n  tag_231\n    /* \"#utility.yul\":14541:14546   */\n  dup5\n    /* \"#utility.yul\":14523:14547   */\n  tag_120\n  jump\t// in\ntag_231:\n    /* \"#utility.yul\":14514:14548   */\n  tag_121\n  jump\t// in\ntag_230:\n    /* \"#utility.yul\":14496:14549   */\n  tag_120\n  jump\t// in\ntag_229:\n    /* \"#utility.yul\":14483:14549   */\n  swap1\n  pop\n    /* \"#utility.yul\":14413:14555   */\n  swap2\n  swap1\n  pop\n  jump\t// out\n    /* \"#utility.yul\":14561:14636   */\ntag_123:\n    /* \"#utility.yul\":14604:14607   */\n  0x00\n    /* \"#utility.yul\":14625:14630   */\n  dup2\n    /* \"#utility.yul\":14618:14630   */\n  swap1\n  pop\n    /* \"#utility.yul\":14561:14636   */\n  swap2\n  swap1\n  pop\n  jump\t// out\n    /* \"#utility.yul\":14642:14911   */\ntag_124:\n    /* \"#utility.yul\":14752:14791   */\n  tag_234\n    /* \"#utility.yul\":14783:14790   */\n  dup4\n    /* \"#utility.yul\":14752:14791   */\n  tag_122\n  jump\t// in\ntag_234:\n    /* \"#utility.yul\":14813:14904   */\n  tag_235\n    /* \"#utility.yul\":14862:14903   */\n  tag_236\n    /* \"#utility.yul\":14886:14902   */\n  dup3\n    /* \"#utility.yul\":14862:14903   */\n  tag_123\n  jump\t// in\ntag_236:\n    /* \"#utility.yul\":14854:14860   */\n  dup5\n    /* \"#utility.yul\":14847:14851   */\n  dup5\n    /* \"#utility.yul\":14841:14852   */\n  sload\n    /* \"#utility.yul\":14813:14904   */\n  tag_119\n  jump\t// in\ntag_235:\n    /* \"#utility.yul\":14807:14811   */\n  dup3\n    /* \"#utility.yul\":14800:14905   */\n  sstore\n    /* \"#utility.yul\":14718:14911   */\n  pop\n    /* \"#utility.yul\":14642:14911   */\n  pop\n  pop\n  pop\n  jump\t// out\n    /* \"#utility.yul\":14917:14990   */\ntag_125:\n    /* \"#utility.yul\":14962:14965   */\n  0x00\n    /* \"#utility.yul\":14983:14984   */\n  0x00\n    /* \"#utility.yul\":14976:14984   */\n  swap1\n  pop\n    /* \"#utility.yul\":14917:14990   */\n  swap1\n  jump\t// out\n    /* \"#utility.yul\":14996:15185   */\ntag_126:\n    /* \"#utility.yul\":15073:15105   */\n  tag_239\n  tag_125\n  jump\t// in\ntag_239:\n    /* \"#utility.yul\":15114:15179   */\n  tag_240\n    /* \"#utility.yul\":15172:15178   */\n  dup2\n    /* \"#utility.yul\":15164:15170   */\n  dup5\n    /* \"#utility.yul\":15158:15162   */\n  dup5\n    /* \"#utility.yul\":15114:15179   */\n  tag_124\n  jump\t// in\ntag_240:\n    /* \"#utility.yul\":15049:15185   */\n  pop\n    /* \"#utility.yul\":14996:15185   */\n  pop\n  pop\n  jump\t// out\n    /* \"#utility.yul\":15191:15405   */\ntag_127:\n    /* \"#utility.yul\":15276:15277   */\n  0x00\n    /* \"#utility.yul\":15261:15399   */\ntag_242:\n    /* \"#utility.yul\":15286:15295   */\n  dup3\n    /* \"#utility.yul\":15283:15284   */\n  dup2\n    /* \"#utility.yul\":15280:15296   */\n  lt\n    /* \"#utility.yul\":15261:15399   */\n  iszero\n  tag_244\n  jumpi\n    /* \"#utility.yul\":15338:15389   */\n  tag_245\n    /* \"#utility.yul\":15387:15388   */\n  0x00\n    /* \"#utility.yul\":15383:15384   */\n  dup3\n    /* \"#utility.yul\":15372:15381   */\n  dup5\n    /* \"#utility.yul\":15368:15385   */\n  add\n    /* \"#utility.yul\":15338:15389   */\n  tag_126\n  jump\t// in\ntag_245:\n    /* \"#utility.yul\":15311:15312   */\n  0x01\n    /* \"#utility.yul\":15308:15309   */\n  dup2\n    /* \"#utility.yul\":15304:15313   */\n  add\n    /* \"#utility.yul\":15299:15313   */\n  swap1\n  pop\n    /* \"#utility.yul\":15261:15399   */\n  jump(tag_242)\ntag_244:\n    /* \"#utility.yul\":15265:15279   */\n  pop\n    /* \"#utility.yul\":15191:15405   */\n  pop\n  pop\n  jump\t// out\n    /* \"#utility.yul\":15411:16157   */\ntag_128:\n    /* \"#utility.yul\":15512:15514   */\n  0x1f\n    /* \"#utility.yul\":15507:15510   */\n  dup3\n    /* \"#utility.yul\":15504:15515   */\n  gt\n    /* \"#utility.yul\":15501:16150   */\n  iszero\n  tag_247\n  jumpi\n    /* \"#utility.yul\":15541:15551   */\n  dup3\n    /* \"#utility.yul\":15536:15539   */\n  dup3\n    /* \"#utility.yul\":15533:15552   */\n  gt\n    /* \"#utility.yul\":15530:16140   */\n  iszero\n  tag_248\n  jumpi\n    /* \"#utility.yul\":15587:15625   */\n  tag_249\n    /* \"#utility.yul\":15619:15624   */\n  dup2\n    /* \"#utility.yul\":15587:15625   */\n  tag_116\n  jump\t// in\ntag_249:\n    /* \"#utility.yul\":15662:15684   */\n  tag_250\n    /* \"#utility.yul\":15680:15683   */\n  dup4\n    /* \"#utility.yul\":15662:15684   */\n  tag_117\n  jump\t// in\ntag_250:\n    /* \"#utility.yul\":15721:15750   */\n  tag_251\n    /* \"#utility.yul\":15739:15749   */\n  dup6\n    /* \"#utility.yul\":15721:15750   */\n  tag_117\n  jump\t// in\ntag_251:\n    /* \"#utility.yul\":15911:15913   */\n  0x20\n    /* \"#utility.yul\":15899:15909   */\n  dup7\n    /* \"#utility.yul\":15896:15914   */\n  lt\n    /* \"#utility.yul\":15893:15972   */\n  iszero\n  tag_252\n  jumpi\n    /* \"#utility.yul\":15953:15954   */\n  0x00\n    /* \"#utility.yul\":15937:15954   */\n  swap1\n  pop\n    /* \"#utility.yul\":15893:15972   */\ntag_252:\n    /* \"#utility.yul\":16022:16034   */\n  dup1\n    /* \"#utility.yul\":16012:16020   */\n  dup4\n    /* \"#utility.yul\":16008:16035   */\n  add\n    /* \"#utility.yul\":16052:16126   */\n  tag_253\n    /* \"#utility.yul\":16112:16124   */\n  dup3\n    /* \"#utility.yul\":16098:16110   */\n  dup5\n    /* \"#utility.yul\":16094:16125   */\n  sub\n    /* \"#utility.yul\":16081:16092   */\n  dup3\n    /* \"#utility.yul\":16052:16126   */\n  tag_127\n  jump\t// in\ntag_253:\n    /* \"#utility.yul\":15553:16140   */\n  pop\n  pop\n  pop\n  pop\n    /* \"#utility.yul\":15530:16140   */\ntag_248:\n    /* \"#utility.yul\":15501:16150   */\ntag_247:\n    /* \"#utility.yul\":15411:16157   */\n  pop\n  pop\n  pop\n  jump\t// out\n    /* \"#utility.yul\":16163:16280   */\ntag_129:\n    /* \"#utility.yul\":16217:16225   */\n  0x00\n    /* \"#utility.yul\":16267:16272   */\n  dup3\n    /* \"#utility.yul\":16261:16265   */\n  dup3\n    /* \"#utility.yul\":16257:16273   */\n  shr\n    /* \"#utility.yul\":16236:16273   */\n  swap1\n  pop\n    /* \"#utility.yul\":16163:16280   */\n  swap3\n  swap2\n  pop\n  pop\n  jump\t// out\n    /* \"#utility.yul\":16286:16455   */\ntag_130:\n    /* \"#utility.yul\":16330:16336   */\n  0x00\n    /* \"#utility.yul\":16363:16414   */\n  tag_256\n    /* \"#utility.yul\":16411:16412   */\n  0x00\n    /* \"#utility.yul\":16407:16413   */\n  not\n    /* \"#utility.yul\":16399:16404   */\n  dup5\n    /* \"#utility.yul\":16396:16397   */\n  0x08\n    /* \"#utility.yul\":16392:16405   */\n  mul\n    /* \"#utility.yul\":16363:16414   */\n  tag_129\n  jump\t// in\ntag_256:\n    /* \"#utility.yul\":16359:16415   */\n  not\n    /* \"#utility.yul\":16444:16448   */\n  dup1\n    /* \"#utility.yul\":16438:16442   */\n  dup4\n    /* \"#utility.yul\":16434:16449   */\n  and\n    /* \"#utility.yul\":16424:16449   */\n  swap2\n  pop\n    /* \"#utility.yul\":16337:16455   */\n  pop\n    /* \"#utility.yul\":16286:16455   */\n  swap3\n  swap2\n  pop\n  pop\n  jump\t// out\n    /* \"#utility.yul\":16460:16755   */\ntag_131:\n    /* \"#utility.yul\":16536:16540   */\n  0x00\n    /* \"#utility.yul\":16682:16711   */\n  tag_258\n    /* \"#utility.yul\":16707:16710   */\n  dup4\n    /* \"#utility.yul\":16701:16705   */\n  dup4\n    /* \"#utility.yul\":16682:16711   */\n  tag_130\n  jump\t// in\ntag_258:\n    /* \"#utility.yul\":16674:16711   */\n  swap2\n  pop\n    /* \"#utility.yul\":16744:16747   */\n  dup3\n    /* \"#utility.yul\":16741:16742   */\n  0x02\n    /* \"#utility.yul\":16737:16748   */\n  mul\n    /* \"#utility.yul\":16731:16735   */\n  dup3\n    /* \"#utility.yul\":16728:16749   */\n  or\n    /* \"#utility.yul\":16720:16749   */\n  swap1\n  pop\n    /* \"#utility.yul\":16460:16755   */\n  swap3\n  swap2\n  pop\n  pop\n  jump\t// out\n    /* \"#utility.yul\":16760:18155   */\ntag_35:\n    /* \"#utility.yul\":16877:16914   */\n  tag_260\n    /* \"#utility.yul\":16910:16913   */\n  dup3\n    /* \"#utility.yul\":16877:16914   */\n  tag_112\n  jump\t// in\ntag_260:\n    /* \"#utility.yul\":16979:16997   */\n  0xffffffffffffffff\n    /* \"#utility.yul\":16971:16977   */\n  dup2\n    /* \"#utility.yul\":16968:16998   */\n  gt\n    /* \"#utility.yul\":16965:17021   */\n  iszero\n  tag_261\n  jumpi\n    /* \"#utility.yul\":17001:17019   */\n  tag_262\n  tag_113\n  jump\t// in\ntag_262:\n    /* \"#utility.yul\":16965:17021   */\ntag_261:\n    /* \"#utility.yul\":17045:17083   */\n  tag_263\n    /* \"#utility.yul\":17077:17081   */\n  dup3\n    /* \"#utility.yul\":17071:17082   */\n  sload\n    /* \"#utility.yul\":17045:17083   */\n  tag_115\n  jump\t// in\ntag_263:\n    /* \"#utility.yul\":17130:17197   */\n  tag_264\n    /* \"#utility.yul\":17190:17196   */\n  dup3\n    /* \"#utility.yul\":17182:17188   */\n  dup3\n    /* \"#utility.yul\":17176:17180   */\n  dup6\n    /* \"#utility.yul\":17130:17197   */\n  tag_128\n  jump\t// in\ntag_264:\n    /* \"#utility.yul\":17224:17225   */\n  0x00\n    /* \"#utility.yul\":17248:17252   */\n  0x20\n    /* \"#utility.yul\":17235:17252   */\n  swap1\n  pop\n    /* \"#utility.yul\":17280:17282   */\n  0x1f\n    /* \"#utility.yul\":17272:17278   */\n  dup4\n    /* \"#utility.yul\":17269:17283   */\n  gt\n    /* \"#utility.yul\":17297:17298   */\n  0x01\n    /* \"#utility.yul\":17292:17910   */\n  dup2\n  eq\n  tag_266\n  jumpi\n    /* \"#utility.yul\":17954:17955   */\n  0x00\n    /* \"#utility.yul\":17971:17977   */\n  dup5\n    /* \"#utility.yul\":17968:18045   */\n  iszero\n  tag_267\n  jumpi\n    /* \"#utility.yul\":18020:18029   */\n  dup3\n    /* \"#utility.yul\":18015:18018   */\n  dup8\n    /* \"#utility.yul\":18011:18030   */\n  add\n    /* \"#utility.yul\":18005:18031   */\n  mload\n    /* \"#utility.yul\":17996:18031   */\n  swap1\n  pop\n    /* \"#utility.yul\":17968:18045   */\ntag_267:\n    /* \"#utility.yul\":18071:18138   */\n  tag_268\n    /* \"#utility.yul\":18131:18137   */\n  dup6\n    /* \"#utility.yul\":18124:18129   */\n  dup3\n    /* \"#utility.yul\":18071:18138   */\n  tag_131\n  jump\t// in\ntag_268:\n    /* \"#utility.yul\":18065:18069   */\n  dup7\n    /* \"#utility.yul\":18058:18139   */\n  sstore\n    /* \"#utility.yul\":17927:18149   */\n  pop\n    /* \"#utility.yul\":17262:18149   */\n  jump(tag_265)\n    /* \"#utility.yul\":17292:17910   */\ntag_266:\n    /* \"#utility.yul\":17344:17348   */\n  0x1f\n    /* \"#utility.yul\":17340:17349   */\n  not\n    /* \"#utility.yul\":17332:17338   */\n  dup5\n    /* \"#utility.yul\":17328:17350   */\n  and\n    /* \"#utility.yul\":17378:17415   */\n  tag_269\n    /* \"#utility.yul\":17410:17414   */\n  dup7\n    /* \"#utility.yul\":17378:17415   */\n  tag_116\n  jump\t// in\ntag_269:\n    /* \"#utility.yul\":17437:17438   */\n  0x00\n    /* \"#utility.yul\":17451:17659   */\ntag_270:\n    /* \"#utility.yul\":17465:17472   */\n  dup3\n    /* \"#utility.yul\":17462:17463   */\n  dup2\n    /* \"#utility.yul\":17459:17473   */\n  lt\n    /* \"#utility.yul\":17451:17659   */\n  iszero\n  tag_272\n  jumpi\n    /* \"#utility.yul\":17544:17553   */\n  dup5\n    /* \"#utility.yul\":17539:17542   */\n  dup10\n    /* \"#utility.yul\":17535:17554   */\n  add\n    /* \"#utility.yul\":17529:17555   */\n  mload\n    /* \"#utility.yul\":17521:17527   */\n  dup3\n    /* \"#utility.yul\":17514:17556   */\n  sstore\n    /* \"#utility.yul\":17595:17596   */\n  0x01\n    /* \"#utility.yul\":17587:17593   */\n  dup3\n    /* \"#utility.yul\":17583:17597   */\n  add\n    /* \"#utility.yul\":17573:17597   */\n  swap2\n  pop\n    /* \"#utility.yul\":17642:17644   */\n  0x20\n    /* \"#utility.yul\":17631:17640   */\n  dup6\n    /* \"#utility.yul\":17627:17645   */\n  add\n    /* \"#utility.yul\":17614:17645   */\n  swap5\n  pop\n    /* \"#utility.yul\":17488:17492   */\n  0x20\n    /* \"#utility.yul\":17485:17486   */\n  dup2\n    /* \"#utility.yul\":17481:17493   */\n  add\n    /* \"#utility.yul\":17476:17493   */\n  swap1\n  pop\n    /* \"#utility.yul\":17451:17659   */\n  jump(tag_270)\ntag_272:\n    /* \"#utility.yul\":17687:17693   */\n  dup7\n    /* \"#utility.yul\":17678:17685   */\n  dup4\n    /* \"#utility.yul\":17675:17694   */\n  lt\n    /* \"#utility.yul\":17672:17851   */\n  iszero\n  tag_273\n  jumpi\n    /* \"#utility.yul\":17745:17754   */\n  dup5\n    /* \"#utility.yul\":17740:17743   */\n  dup10\n    /* \"#utility.yul\":17736:17755   */\n  add\n    /* \"#utility.yul\":17730:17756   */\n  mload\n    /* \"#utility.yul\":17788:17836   */\n  tag_274\n    /* \"#utility.yul\":17830:17834   */\n  0x1f\n    /* \"#utility.yul\":17822:17828   */\n  dup10\n    /* \"#utility.yul\":17818:17835   */\n  and\n    /* \"#utility.yul\":17807:17816   */\n  dup3\n    /* \"#utility.yul\":17788:17836   */\n  tag_130\n  jump\t// in\ntag_274:\n    /* \"#utility.yul\":17780:17786   */\n  dup4\n    /* \"#utility.yul\":17773:17837   */\n  sstore\n    /* \"#utility.yul\":17695:17851   */\n  pop\n    /* \"#utility.yul\":17672:17851   */\ntag_273:\n    /* \"#utility.yul\":17897:17898   */\n  0x01\n    /* \"#utility.yul\":17893:17894   */\n  0x02\n    /* \"#utility.yul\":17885:17891   */\n  dup9\n    /* \"#utility.yul\":17881:17895   */\n  mul\n    /* \"#utility.yul\":17877:17899   */\n  add\n    /* \"#utility.yul\":17871:17875   */\n  dup9\n    /* \"#utility.yul\":17864:17900   */\n  sstore\n    /* \"#utility.yul\":17299:17910   */\n  pop\n  pop\n  pop\n    /* \"#utility.yul\":17262:18149   */\ntag_265:\n  pop\n    /* \"#utility.yul\":16852:18155   */\n  pop\n  pop\n  pop\n    /* \"#utility.yul\":16760:18155   */\n  pop\n  pop\n  jump\t// out\n    /* \"homework01/4/IntToRoman.sol\":58:1498  contract IntToRoman {... */\ntag_84:\n  dataSize(sub_0)\n  dup1\n  dataOffset(sub_0)\n  0x00\n  codecopy\n  0x00\n  return\nstop\n\nsub_0: assembly {\n        /* \"homework01/4/IntToRoman.sol\":58:1498  contract IntToRoman {... */\n      mstore(0x40, 0x80)\n      callvalue\n      dup1\n      iszero\n      tag_1\n      jumpi\n      revert(0x00, 0x00)\n    tag_1:\n      pop\n      jumpi(tag_2, lt(calldatasize, 0x04))\n      shr(0xe0, calldataload(0x00))\n      dup1\n      0x0cb6aaf1\n      eq\n      tag_3\n      jumpi\n      dup1\n      0x5a612f37\n      eq\n      tag_4\n      jumpi\n      dup1\n      0xab7baabe\n      eq\n      tag_5\n      jumpi\n    tag_2:\n      revert(0x00, 0x00)\n        /* \"homework01/4/IntToRoman.sol\":135:157  string[13] public keys */\n    tag_3:\n      tag_6\n      0x04\n      dup1\n      calldatasize\n      sub\n      dup2\n      add\n      swap1\n      tag_7\n      swap2\n      swap1\n      tag_8\n      jump\t// in\n    tag_7:\n      tag_9\n      jump\t// in\n    tag_6:\n      mload(0x40)\n      tag_10\n      swap2\n      swap1\n      tag_11\n      jump\t// in\n    tag_10:\n      mload(0x40)\n      dup1\n      swap2\n      sub\n      swap1\n      return\n        /* \"homework01/4/IntToRoman.sol\":84:129  mapping(string => uint256) public symbolvalue */\n    tag_4:\n      tag_12\n      0x04\n      dup1\n      calldatasize\n      sub\n      dup2\n      add\n      swap1\n      tag_13\n      swap2\n      swap1\n      tag_14\n      jump\t// in\n    tag_13:\n      tag_15\n      jump\t// in\n    tag_12:\n      mload(0x40)\n      tag_16\n      swap2\n      swap1\n      tag_17\n      jump\t// in\n    tag_16:\n      mload(0x40)\n      dup1\n      swap2\n      sub\n      swap1\n      return\n        /* \"homework01/4/IntToRoman.sol\":909:1496  function toRoman(uint256 num) public view returns (string memory) {... */\n    tag_5:\n      tag_18\n      0x04\n      dup1\n      calldatasize\n      sub\n      dup2\n      add\n      swap1\n      tag_19\n      swap2\n      swap1\n      tag_8\n      jump\t// in\n    tag_19:\n      tag_20\n      jump\t// in\n    tag_18:\n      mload(0x40)\n      tag_21\n      swap2\n      swap1\n      tag_11\n      jump\t// in\n    tag_21:\n      mload(0x40)\n      dup1\n      swap2\n      sub\n      swap1\n      return\n        /* \"homework01/4/IntToRoman.sol\":135:157  string[13] public keys */\n    tag_9:\n      0x01\n      dup2\n      0x0d\n      dup2\n      lt\n      tag_22\n      jumpi\n      0x00\n      dup1\n      revert\n    tag_22:\n      add\n      0x00\n      swap2\n      pop\n      swap1\n      pop\n      dup1\n      sload\n      tag_24\n      swap1\n      tag_25\n      jump\t// in\n    tag_24:\n      dup1\n      0x1f\n      add\n      0x20\n      dup1\n      swap2\n      div\n      mul\n      0x20\n      add\n      mload(0x40)\n      swap1\n      dup2\n      add\n      0x40\n      mstore\n      dup1\n      swap3\n      swap2\n      swap1\n      dup2\n      dup2\n      mstore\n      0x20\n      add\n      dup3\n      dup1\n      sload\n      tag_26\n      swap1\n      tag_25\n      jump\t// in\n    tag_26:\n      dup1\n      iszero\n      tag_27\n      jumpi\n      dup1\n      0x1f\n      lt\n      tag_28\n      jumpi\n      0x0100\n      dup1\n      dup4\n      sload\n      div\n      mul\n      dup4\n      mstore\n      swap2\n      0x20\n      add\n      swap2\n      jump(tag_27)\n    tag_28:\n      dup3\n      add\n      swap2\n      swap1\n      0x00\n      mstore\n      keccak256(0x00, 0x20)\n      swap1\n    tag_29:\n      dup2\n      sload\n      dup2\n      mstore\n      swap1\n      0x01\n      add\n      swap1\n      0x20\n      add\n      dup1\n      dup4\n      gt\n      tag_29\n      jumpi\n      dup3\n      swap1\n      sub\n      0x1f\n      and\n      dup3\n      add\n      swap2\n    tag_27:\n      pop\n      pop\n      pop\n      pop\n      pop\n      dup2\n      jump\t// out\n        /* \"homework01/4/IntToRoman.sol\":84:129  mapping(string => uint256) public symbolvalue */\n    tag_15:\n      0x00\n      dup2\n      dup1\n      mload\n      0x20\n      dup2\n      add\n      dup3\n      add\n      dup1\n      mload\n      dup5\n      dup3\n      mstore\n      0x20\n      dup4\n      add\n      0x20\n      dup6\n      add\n      keccak256\n      dup2\n      dup4\n      mstore\n      dup1\n      swap6\n      pop\n      pop\n      pop\n      pop\n      pop\n      pop\n      0x00\n      swap2\n      pop\n      swap1\n      pop\n      sload\n      dup2\n      jump\t// out\n        /* \"homework01/4/IntToRoman.sol\":909:1496  function toRoman(uint256 num) public view returns (string memory) {... */\n    tag_20:\n        /* \"homework01/4/IntToRoman.sol\":960:973  string memory */\n      0x60\n        /* \"homework01/4/IntToRoman.sol\":985:1005  string memory result */\n      dup1\n        /* \"homework01/4/IntToRoman.sol\":1020:1026  uint i */\n      0x00\n        /* \"homework01/4/IntToRoman.sol\":1029:1030  0 */\n      0x00\n        /* \"homework01/4/IntToRoman.sol\":1020:1030  uint i = 0 */\n      swap1\n      pop\n        /* \"homework01/4/IntToRoman.sol\":1015:1467  for (uint i = 0; i < keys.length; i++) {... */\n    tag_31:\n        /* \"homework01/4/IntToRoman.sol\":1036:1047  keys.length */\n      0x0d\n        /* \"homework01/4/IntToRoman.sol\":1032:1033  i */\n      dup2\n        /* \"homework01/4/IntToRoman.sol\":1032:1047  i < keys.length */\n      lt\n        /* \"homework01/4/IntToRoman.sol\":1015:1467  for (uint i = 0; i < keys.length; i++) {... */\n      iszero\n      tag_32\n      jumpi\n        /* \"homework01/4/IntToRoman.sol\":1068:1077  uint256 v */\n      0x00\n        /* \"homework01/4/IntToRoman.sol\":1080:1091  symbolvalue */\n      0x00\n        /* \"homework01/4/IntToRoman.sol\":1092:1096  keys */\n      0x01\n        /* \"homework01/4/IntToRoman.sol\":1097:1098  i */\n      dup4\n        /* \"homework01/4/IntToRoman.sol\":1092:1099  keys[i] */\n      0x0d\n      dup2\n      lt\n      tag_34\n      jumpi\n      tag_35\n      tag_36\n      jump\t// in\n    tag_35:\n    tag_34:\n      add\n        /* \"homework01/4/IntToRoman.sol\":1080:1100  symbolvalue[keys[i]] */\n      mload(0x40)\n      tag_38\n      swap2\n      swap1\n      tag_39\n      jump\t// in\n    tag_38:\n      swap1\n      dup2\n      mstore\n      0x20\n      add\n      mload(0x40)\n      dup1\n      swap2\n      sub\n      swap1\n      keccak256\n      sload\n        /* \"homework01/4/IntToRoman.sol\":1068:1100  uint256 v = symbolvalue[keys[i]] */\n      swap1\n      pop\n        /* \"homework01/4/IntToRoman.sol\":1114:1127  uint256 count */\n      0x00\n        /* \"homework01/4/IntToRoman.sol\":1136:1137  v */\n      dup2\n        /* \"homework01/4/IntToRoman.sol\":1130:1133  num */\n      dup7\n        /* \"homework01/4/IntToRoman.sol\":1130:1137  num / v */\n      tag_40\n      swap2\n      swap1\n      tag_41\n      jump\t// in\n    tag_40:\n        /* \"homework01/4/IntToRoman.sol\":1114:1137  uint256 count = num / v */\n      swap1\n      pop\n        /* \"homework01/4/IntToRoman.sol\":1151:1163  uint256 less */\n      0x00\n        /* \"homework01/4/IntToRoman.sol\":1172:1173  v */\n      dup3\n        /* \"homework01/4/IntToRoman.sol\":1166:1169  num */\n      dup8\n        /* \"homework01/4/IntToRoman.sol\":1166:1173  num % v */\n      tag_42\n      swap2\n      swap1\n      tag_43\n      jump\t// in\n    tag_42:\n        /* \"homework01/4/IntToRoman.sol\":1151:1173  uint256 less = num % v */\n      swap1\n      pop\n        /* \"homework01/4/IntToRoman.sol\":1200:1201  0 */\n      0x00\n        /* \"homework01/4/IntToRoman.sol\":1192:1197  count */\n      dup3\n        /* \"homework01/4/IntToRoman.sol\":1192:1201  count > 0 */\n      gt\n        /* \"homework01/4/IntToRoman.sol\":1188:1457  if (count > 0) {... */\n      iszero\n      tag_44\n      jumpi\n        /* \"homework01/4/IntToRoman.sol\":1226:1235  uint256 k */\n      0x00\n        /* \"homework01/4/IntToRoman.sol\":1238:1239  0 */\n      0x00\n        /* \"homework01/4/IntToRoman.sol\":1226:1239  uint256 k = 0 */\n      swap1\n      pop\n        /* \"homework01/4/IntToRoman.sol\":1221:1337  for (uint256 k = 0; k < count; k++) {... */\n    tag_45:\n        /* \"homework01/4/IntToRoman.sol\":1245:1250  count */\n      dup3\n        /* \"homework01/4/IntToRoman.sol\":1241:1242  k */\n      dup2\n        /* \"homework01/4/IntToRoman.sol\":1241:1250  k < count */\n      lt\n        /* \"homework01/4/IntToRoman.sol\":1221:1337  for (uint256 k = 0; k < count; k++) {... */\n      iszero\n      tag_46\n      jumpi\n        /* \"homework01/4/IntToRoman.sol\":1302:1308  result */\n      dup6\n        /* \"homework01/4/IntToRoman.sol\":1310:1314  keys */\n      0x01\n        /* \"homework01/4/IntToRoman.sol\":1315:1316  i */\n      dup7\n        /* \"homework01/4/IntToRoman.sol\":1310:1317  keys[i] */\n      0x0d\n      dup2\n      lt\n      tag_48\n      jumpi\n      tag_49\n      tag_36\n      jump\t// in\n    tag_49:\n    tag_48:\n      add\n        /* \"homework01/4/IntToRoman.sol\":1288:1318  string.concat(result, keys[i]) */\n      add(0x20, mload(0x40))\n      tag_51\n      swap3\n      swap2\n      swap1\n      tag_52\n      jump\t// in\n    tag_51:\n      mload(0x40)\n      0x20\n      dup2\n      dup4\n      sub\n      sub\n      dup2\n      mstore\n      swap1\n      0x40\n      mstore\n        /* \"homework01/4/IntToRoman.sol\":1279:1318  result = string.concat(result, keys[i]) */\n      swap6\n      pop\n        /* \"homework01/4/IntToRoman.sol\":1252:1255  k++ */\n      dup1\n      dup1\n      0x01\n      add\n      swap2\n      pop\n      pop\n        /* \"homework01/4/IntToRoman.sol\":1221:1337  for (uint256 k = 0; k < count; k++) {... */\n      jump(tag_45)\n    tag_46:\n      pop\n        /* \"homework01/4/IntToRoman.sol\":1366:1367  0 */\n      0x00\n        /* \"homework01/4/IntToRoman.sol\":1358:1362  less */\n      dup2\n        /* \"homework01/4/IntToRoman.sol\":1358:1367  less == 0 */\n      sub\n        /* \"homework01/4/IntToRoman.sol\":1354:1415  if (less == 0) {... */\n      tag_53\n      jumpi\n        /* \"homework01/4/IntToRoman.sol\":1391:1396  break */\n      pop\n      pop\n      pop\n      jump(tag_32)\n        /* \"homework01/4/IntToRoman.sol\":1354:1415  if (less == 0) {... */\n    tag_53:\n        /* \"homework01/4/IntToRoman.sol\":1438:1442  less */\n      dup1\n        /* \"homework01/4/IntToRoman.sol\":1432:1442  num = less */\n      swap7\n      pop\n        /* \"homework01/4/IntToRoman.sol\":1188:1457  if (count > 0) {... */\n    tag_44:\n        /* \"homework01/4/IntToRoman.sol\":1054:1467  {... */\n      pop\n      pop\n      pop\n        /* \"homework01/4/IntToRoman.sol\":1049:1052  i++ */\n      dup1\n      dup1\n      0x01\n      add\n      swap2\n      pop\n      pop\n        /* \"homework01/4/IntToRoman.sol\":1015:1467  for (uint i = 0; i < keys.length; i++) {... */\n      jump(tag_31)\n    tag_32:\n      pop\n        /* \"homework01/4/IntToRoman.sol\":1483:1489  result */\n      dup1\n        /* \"homework01/4/IntToRoman.sol\":1476:1489  return result */\n      swap2\n      pop\n      pop\n        /* \"homework01/4/IntToRoman.sol\":909:1496  function toRoman(uint256 num) public view returns (string memory) {... */\n      swap2\n      swap1\n      pop\n      jump\t// out\n        /* \"#utility.yul\":7:82   */\n    tag_54:\n        /* \"#utility.yul\":40:46   */\n      0x00\n        /* \"#utility.yul\":73:75   */\n      0x40\n        /* \"#utility.yul\":67:76   */\n      mload\n        /* \"#utility.yul\":57:76   */\n      swap1\n      pop\n        /* \"#utility.yul\":7:82   */\n      swap1\n      jump\t// out\n        /* \"#utility.yul\":88:205   */\n    tag_55:\n        /* \"#utility.yul\":197:198   */\n      0x00\n        /* \"#utility.yul\":194:195   */\n      0x00\n        /* \"#utility.yul\":187:199   */\n      revert\n        /* \"#utility.yul\":211:328   */\n    tag_56:\n        /* \"#utility.yul\":320:321   */\n      0x00\n        /* \"#utility.yul\":317:318   */\n      0x00\n        /* \"#utility.yul\":310:322   */\n      revert\n        /* \"#utility.yul\":334:411   */\n    tag_57:\n        /* \"#utility.yul\":371:378   */\n      0x00\n        /* \"#utility.yul\":400:405   */\n      dup2\n        /* \"#utility.yul\":389:405   */\n      swap1\n      pop\n        /* \"#utility.yul\":334:411   */\n      swap2\n      swap1\n      pop\n      jump\t// out\n        /* \"#utility.yul\":417:539   */\n    tag_58:\n        /* \"#utility.yul\":490:514   */\n      tag_88\n        /* \"#utility.yul\":508:513   */\n      dup2\n        /* \"#utility.yul\":490:514   */\n      tag_57\n      jump\t// in\n    tag_88:\n        /* \"#utility.yul\":483:488   */\n      dup2\n        /* \"#utility.yul\":480:515   */\n      eq\n        /* \"#utility.yul\":470:533   */\n      tag_89\n      jumpi\n        /* \"#utility.yul\":529:530   */\n      0x00\n        /* \"#utility.yul\":526:527   */\n      0x00\n        /* \"#utility.yul\":519:531   */\n      revert\n        /* \"#utility.yul\":470:533   */\n    tag_89:\n        /* \"#utility.yul\":417:539   */\n      pop\n      jump\t// out\n        /* \"#utility.yul\":545:684   */\n    tag_59:\n        /* \"#utility.yul\":591:596   */\n      0x00\n        /* \"#utility.yul\":629:635   */\n      dup2\n        /* \"#utility.yul\":616:636   */\n      calldataload\n        /* \"#utility.yul\":607:636   */\n      swap1\n      pop\n        /* \"#utility.yul\":645:678   */\n      tag_91\n        /* \"#utility.yul\":672:677   */\n      dup2\n        /* \"#utility.yul\":645:678   */\n      tag_58\n      jump\t// in\n    tag_91:\n        /* \"#utility.yul\":545:684   */\n      swap3\n      swap2\n      pop\n      pop\n      jump\t// out\n        /* \"#utility.yul\":690:1019   */\n    tag_8:\n        /* \"#utility.yul\":749:755   */\n      0x00\n        /* \"#utility.yul\":798:800   */\n      0x20\n        /* \"#utility.yul\":786:795   */\n      dup3\n        /* \"#utility.yul\":777:784   */\n      dup5\n        /* \"#utility.yul\":773:796   */\n      sub\n        /* \"#utility.yul\":769:801   */\n      slt\n        /* \"#utility.yul\":766:885   */\n      iszero\n      tag_93\n      jumpi\n        /* \"#utility.yul\":804:883   */\n      tag_94\n      tag_55\n      jump\t// in\n    tag_94:\n        /* \"#utility.yul\":766:885   */\n    tag_93:\n        /* \"#utility.yul\":924:925   */\n      0x00\n        /* \"#utility.yul\":949:1002   */\n      tag_95\n        /* \"#utility.yul\":994:1001   */\n      dup5\n        /* \"#utility.yul\":985:991   */\n      dup3\n        /* \"#utility.yul\":974:983   */\n      dup6\n        /* \"#utility.yul\":970:992   */\n      add\n        /* \"#utility.yul\":949:1002   */\n      tag_59\n      jump\t// in\n    tag_95:\n        /* \"#utility.yul\":939:1002   */\n      swap2\n      pop\n        /* \"#utility.yul\":895:1012   */\n      pop\n        /* \"#utility.yul\":690:1019   */\n      swap3\n      swap2\n      pop\n      pop\n      jump\t// out\n        /* \"#utility.yul\":1025:1124   */\n    tag_60:\n        /* \"#utility.yul\":1077:1083   */\n      0x00\n        /* \"#utility.yul\":1111:1116   */\n      dup2\n        /* \"#utility.yul\":1105:1117   */\n      mload\n        /* \"#utility.yul\":1095:1117   */\n      swap1\n      pop\n        /* \"#utility.yul\":1025:1124   */\n      swap2\n      swap1\n      pop\n      jump\t// out\n        /* \"#utility.yul\":1130:1299   */\n    tag_61:\n        /* \"#utility.yul\":1214:1225   */\n      0x00\n        /* \"#utility.yul\":1248:1254   */\n      dup3\n        /* \"#utility.yul\":1243:1246   */\n      dup3\n        /* \"#utility.yul\":1236:1255   */\n      mstore\n        /* \"#utility.yul\":1288:1292   */\n      0x20\n        /* \"#utility.yul\":1283:1286   */\n      dup3\n        /* \"#utility.yul\":1279:1293   */\n      add\n        /* \"#utility.yul\":1264:1293   */\n      swap1\n      pop\n        /* \"#utility.yul\":1130:1299   */\n      swap3\n      swap2\n      pop\n      pop\n      jump\t// out\n        /* \"#utility.yul\":1305:1444   */\n    tag_62:\n        /* \"#utility.yul\":1394:1400   */\n      dup3\n        /* \"#utility.yul\":1389:1392   */\n      dup2\n        /* \"#utility.yul\":1384:1387   */\n      dup4\n        /* \"#utility.yul\":1378:1401   */\n      mcopy\n        /* \"#utility.yul\":1435:1436   */\n      0x00\n        /* \"#utility.yul\":1426:1432   */\n      dup4\n        /* \"#utility.yul\":1421:1424   */\n      dup4\n        /* \"#utility.yul\":1417:1433   */\n      add\n        /* \"#utility.yul\":1410:1437   */\n      mstore\n        /* \"#utility.yul\":1305:1444   */\n      pop\n      pop\n      pop\n      jump\t// out\n        /* \"#utility.yul\":1450:1552   */\n    tag_63:\n        /* \"#utility.yul\":1491:1497   */\n      0x00\n        /* \"#utility.yul\":1542:1544   */\n      0x1f\n        /* \"#utility.yul\":1538:1545   */\n      not\n        /* \"#utility.yul\":1533:1535   */\n      0x1f\n        /* \"#utility.yul\":1526:1531   */\n      dup4\n        /* \"#utility.yul\":1522:1536   */\n      add\n        /* \"#utility.yul\":1518:1546   */\n      and\n        /* \"#utility.yul\":1508:1546   */\n      swap1\n      pop\n        /* \"#utility.yul\":1450:1552   */\n      swap2\n      swap1\n      pop\n      jump\t// out\n        /* \"#utility.yul\":1558:1935   */\n    tag_64:\n        /* \"#utility.yul\":1646:1649   */\n      0x00\n        /* \"#utility.yul\":1674:1713   */\n      tag_101\n        /* \"#utility.yul\":1707:1712   */\n      dup3\n        /* \"#utility.yul\":1674:1713   */\n      tag_60\n      jump\t// in\n    tag_101:\n        /* \"#utility.yul\":1729:1800   */\n      tag_102\n        /* \"#utility.yul\":1793:1799   */\n      dup2\n        /* \"#utility.yul\":1788:1791   */\n      dup6\n        /* \"#utility.yul\":1729:1800   */\n      tag_61\n      jump\t// in\n    tag_102:\n        /* \"#utility.yul\":1722:1800   */\n      swap4\n      pop\n        /* \"#utility.yul\":1809:1874   */\n      tag_103\n        /* \"#utility.yul\":1867:1873   */\n      dup2\n        /* \"#utility.yul\":1862:1865   */\n      dup6\n        /* \"#utility.yul\":1855:1859   */\n      0x20\n        /* \"#utility.yul\":1848:1853   */\n      dup7\n        /* \"#utility.yul\":1844:1860   */\n      add\n        /* \"#utility.yul\":1809:1874   */\n      tag_62\n      jump\t// in\n    tag_103:\n        /* \"#utility.yul\":1899:1928   */\n      tag_104\n        /* \"#utility.yul\":1921:1927   */\n      dup2\n        /* \"#utility.yul\":1899:1928   */\n      tag_63\n      jump\t// in\n    tag_104:\n        /* \"#utility.yul\":1894:1897   */\n      dup5\n        /* \"#utility.yul\":1890:1929   */\n      add\n        /* \"#utility.yul\":1883:1929   */\n      swap2\n      pop\n        /* \"#utility.yul\":1650:1935   */\n      pop\n        /* \"#utility.yul\":1558:1935   */\n      swap3\n      swap2\n      pop\n      pop\n      jump\t// out\n        /* \"#utility.yul\":1941:2254   */\n    tag_11:\n        /* \"#utility.yul\":2054:2058   */\n      0x00\n        /* \"#utility.yul\":2092:2094   */\n      0x20\n        /* \"#utility.yul\":2081:2090   */\n      dup3\n        /* \"#utility.yul\":2077:2095   */\n      add\n        /* \"#utility.yul\":2069:2095   */\n      swap1\n      pop\n        /* \"#utility.yul\":2141:2150   */\n      dup2\n        /* \"#utility.yul\":2135:2139   */\n      dup2\n        /* \"#utility.yul\":2131:2151   */\n      sub\n        /* \"#utility.yul\":2127:2128   */\n      0x00\n        /* \"#utility.yul\":2116:2125   */\n      dup4\n        /* \"#utility.yul\":2112:2129   */\n      add\n        /* \"#utility.yul\":2105:2152   */\n      mstore\n        /* \"#utility.yul\":2169:2247   */\n      tag_106\n        /* \"#utility.yul\":2242:2246   */\n      dup2\n        /* \"#utility.yul\":2233:2239   */\n      dup5\n        /* \"#utility.yul\":2169:2247   */\n      tag_64\n      jump\t// in\n    tag_106:\n        /* \"#utility.yul\":2161:2247   */\n      swap1\n      pop\n        /* \"#utility.yul\":1941:2254   */\n      swap3\n      swap2\n      pop\n      pop\n      jump\t// out\n        /* \"#utility.yul\":2260:2377   */\n    tag_65:\n        /* \"#utility.yul\":2369:2370   */\n      0x00\n        /* \"#utility.yul\":2366:2367   */\n      0x00\n        /* \"#utility.yul\":2359:2371   */\n      revert\n        /* \"#utility.yul\":2383:2500   */\n    tag_66:\n        /* \"#utility.yul\":2492:2493   */\n      0x00\n        /* \"#utility.yul\":2489:2490   */\n      0x00\n        /* \"#utility.yul\":2482:2494   */\n      revert\n        /* \"#utility.yul\":2506:2686   */\n    tag_67:\n        /* \"#utility.yul\":2554:2631   */\n      0x4e487b7100000000000000000000000000000000000000000000000000000000\n        /* \"#utility.yul\":2551:2552   */\n      0x00\n        /* \"#utility.yul\":2544:2632   */\n      mstore\n        /* \"#utility.yul\":2651:2655   */\n      0x41\n        /* \"#utility.yul\":2648:2649   */\n      0x04\n        /* \"#utility.yul\":2641:2656   */\n      mstore\n        /* \"#utility.yul\":2675:2679   */\n      0x24\n        /* \"#utility.yul\":2672:2673   */\n      0x00\n        /* \"#utility.yul\":2665:2680   */\n      revert\n        /* \"#utility.yul\":2692:2973   */\n    tag_68:\n        /* \"#utility.yul\":2775:2802   */\n      tag_111\n        /* \"#utility.yul\":2797:2801   */\n      dup3\n        /* \"#utility.yul\":2775:2802   */\n      tag_63\n      jump\t// in\n    tag_111:\n        /* \"#utility.yul\":2767:2773   */\n      dup2\n        /* \"#utility.yul\":2763:2803   */\n      add\n        /* \"#utility.yul\":2905:2911   */\n      dup2\n        /* \"#utility.yul\":2893:2903   */\n      dup2\n        /* \"#utility.yul\":2890:2912   */\n      lt\n        /* \"#utility.yul\":2869:2887   */\n      0xffffffffffffffff\n        /* \"#utility.yul\":2857:2867   */\n      dup3\n        /* \"#utility.yul\":2854:2888   */\n      gt\n        /* \"#utility.yul\":2851:2913   */\n      or\n        /* \"#utility.yul\":2848:2936   */\n      iszero\n      tag_112\n      jumpi\n        /* \"#utility.yul\":2916:2934   */\n      tag_113\n      tag_67\n      jump\t// in\n    tag_113:\n        /* \"#utility.yul\":2848:2936   */\n    tag_112:\n        /* \"#utility.yul\":2956:2966   */\n      dup1\n        /* \"#utility.yul\":2952:2954   */\n      0x40\n        /* \"#utility.yul\":2945:2967   */\n      mstore\n        /* \"#utility.yul\":2735:2973   */\n      pop\n        /* \"#utility.yul\":2692:2973   */\n      pop\n      pop\n      jump\t// out\n        /* \"#utility.yul\":2979:3108   */\n    tag_69:\n        /* \"#utility.yul\":3013:3019   */\n      0x00\n        /* \"#utility.yul\":3040:3060   */\n      tag_115\n      tag_54\n      jump\t// in\n    tag_115:\n        /* \"#utility.yul\":3030:3060   */\n      swap1\n      pop\n        /* \"#utility.yul\":3069:3102   */\n      tag_116\n        /* \"#utility.yul\":3097:3101   */\n      dup3\n        /* \"#utility.yul\":3089:3095   */\n      dup3\n        /* \"#utility.yul\":3069:3102   */\n      tag_68\n      jump\t// in\n    tag_116:\n        /* \"#utility.yul\":2979:3108   */\n      swap2\n      swap1\n      pop\n      jump\t// out\n        /* \"#utility.yul\":3114:3422   */\n    tag_70:\n        /* \"#utility.yul\":3176:3180   */\n      0x00\n        /* \"#utility.yul\":3266:3284   */\n      0xffffffffffffffff\n        /* \"#utility.yul\":3258:3264   */\n      dup3\n        /* \"#utility.yul\":3255:3285   */\n      gt\n        /* \"#utility.yul\":3252:3308   */\n      iszero\n      tag_118\n      jumpi\n        /* \"#utility.yul\":3288:3306   */\n      tag_119\n      tag_67\n      jump\t// in\n    tag_119:\n        /* \"#utility.yul\":3252:3308   */\n    tag_118:\n        /* \"#utility.yul\":3326:3355   */\n      tag_120\n        /* \"#utility.yul\":3348:3354   */\n      dup3\n        /* \"#utility.yul\":3326:3355   */\n      tag_63\n      jump\t// in\n    tag_120:\n        /* \"#utility.yul\":3318:3355   */\n      swap1\n      pop\n        /* \"#utility.yul\":3410:3414   */\n      0x20\n        /* \"#utility.yul\":3404:3408   */\n      dup2\n        /* \"#utility.yul\":3400:3415   */\n      add\n        /* \"#utility.yul\":3392:3415   */\n      swap1\n      pop\n        /* \"#utility.yul\":3114:3422   */\n      swap2\n      swap1\n      pop\n      jump\t// out\n        /* \"#utility.yul\":3428:3576   */\n    tag_71:\n        /* \"#utility.yul\":3526:3532   */\n      dup3\n        /* \"#utility.yul\":3521:3524   */\n      dup2\n        /* \"#utility.yul\":3516:3519   */\n      dup4\n        /* \"#utility.yul\":3503:3533   */\n      calldatacopy\n        /* \"#utility.yul\":3567:3568   */\n      0x00\n        /* \"#utility.yul\":3558:3564   */\n      dup4\n        /* \"#utility.yul\":3553:3556   */\n      dup4\n        /* \"#utility.yul\":3549:3565   */\n      add\n        /* \"#utility.yul\":3542:3569   */\n      mstore\n        /* \"#utility.yul\":3428:3576   */\n      pop\n      pop\n      pop\n      jump\t// out\n        /* \"#utility.yul\":3582:4007   */\n    tag_72:\n        /* \"#utility.yul\":3660:3665   */\n      0x00\n        /* \"#utility.yul\":3685:3751   */\n      tag_123\n        /* \"#utility.yul\":3701:3750   */\n      tag_124\n        /* \"#utility.yul\":3743:3749   */\n      dup5\n        /* \"#utility.yul\":3701:3750   */\n      tag_70\n      jump\t// in\n    tag_124:\n        /* \"#utility.yul\":3685:3751   */\n      tag_69\n      jump\t// in\n    tag_123:\n        /* \"#utility.yul\":3676:3751   */\n      swap1\n      pop\n        /* \"#utility.yul\":3774:3780   */\n      dup3\n        /* \"#utility.yul\":3767:3772   */\n      dup2\n        /* \"#utility.yul\":3760:3781   */\n      mstore\n        /* \"#utility.yul\":3812:3816   */\n      0x20\n        /* \"#utility.yul\":3805:3810   */\n      dup2\n        /* \"#utility.yul\":3801:3817   */\n      add\n        /* \"#utility.yul\":3850:3853   */\n      dup5\n        /* \"#utility.yul\":3841:3847   */\n      dup5\n        /* \"#utility.yul\":3836:3839   */\n      dup5\n        /* \"#utility.yul\":3832:3848   */\n      add\n        /* \"#utility.yul\":3829:3854   */\n      gt\n        /* \"#utility.yul\":3826:3938   */\n      iszero\n      tag_125\n      jumpi\n        /* \"#utility.yul\":3857:3936   */\n      tag_126\n      tag_66\n      jump\t// in\n    tag_126:\n        /* \"#utility.yul\":3826:3938   */\n    tag_125:\n        /* \"#utility.yul\":3947:4001   */\n      tag_127\n        /* \"#utility.yul\":3994:4000   */\n      dup5\n        /* \"#utility.yul\":3989:3992   */\n      dup3\n        /* \"#utility.yul\":3984:3987   */\n      dup6\n        /* \"#utility.yul\":3947:4001   */\n      tag_71\n      jump\t// in\n    tag_127:\n        /* \"#utility.yul\":3666:4007   */\n      pop\n        /* \"#utility.yul\":3582:4007   */\n      swap4\n      swap3\n      pop\n      pop\n      pop\n      jump\t// out\n        /* \"#utility.yul\":4027:4367   */\n    tag_73:\n        /* \"#utility.yul\":4083:4088   */\n      0x00\n        /* \"#utility.yul\":4132:4135   */\n      dup3\n        /* \"#utility.yul\":4125:4129   */\n      0x1f\n        /* \"#utility.yul\":4117:4123   */\n      dup4\n        /* \"#utility.yul\":4113:4130   */\n      add\n        /* \"#utility.yul\":4109:4136   */\n      slt\n        /* \"#utility.yul\":4099:4221   */\n      tag_129\n      jumpi\n        /* \"#utility.yul\":4140:4219   */\n      tag_130\n      tag_65\n      jump\t// in\n    tag_130:\n        /* \"#utility.yul\":4099:4221   */\n    tag_129:\n        /* \"#utility.yul\":4257:4263   */\n      dup2\n        /* \"#utility.yul\":4244:4264   */\n      calldataload\n        /* \"#utility.yul\":4282:4361   */\n      tag_131\n        /* \"#utility.yul\":4357:4360   */\n      dup5\n        /* \"#utility.yul\":4349:4355   */\n      dup3\n        /* \"#utility.yul\":4342:4346   */\n      0x20\n        /* \"#utility.yul\":4334:4340   */\n      dup7\n        /* \"#utility.yul\":4330:4347   */\n      add\n        /* \"#utility.yul\":4282:4361   */\n      tag_72\n      jump\t// in\n    tag_131:\n        /* \"#utility.yul\":4273:4361   */\n      swap2\n      pop\n        /* \"#utility.yul\":4089:4367   */\n      pop\n        /* \"#utility.yul\":4027:4367   */\n      swap3\n      swap2\n      pop\n      pop\n      jump\t// out\n        /* \"#utility.yul\":4373:4882   */\n    tag_14:\n        /* \"#utility.yul\":4442:4448   */\n      0x00\n        /* \"#utility.yul\":4491:4493   */\n      0x20\n        /* \"#utility.yul\":4479:4488   */\n      dup3\n        /* \"#utility.yul\":4470:4477   */\n      dup5\n        /* \"#utility.yul\":4466:4489   */\n      sub\n        /* \"#utility.yul\":4462:4494   */\n      slt\n        /* \"#utility.yul\":4459:4578   */\n      iszero\n      tag_133\n      jumpi\n        /* \"#utility.yul\":4497:4576   */\n      tag_134\n      tag_55\n      jump\t// in\n    tag_134:\n        /* \"#utility.yul\":4459:4578   */\n    tag_133:\n        /* \"#utility.yul\":4645:4646   */\n      0x00\n        /* \"#utility.yul\":4634:4643   */\n      dup3\n        /* \"#utility.yul\":4630:4647   */\n      add\n        /* \"#utility.yul\":4617:4648   */\n      calldataload\n        /* \"#utility.yul\":4675:4693   */\n      0xffffffffffffffff\n        /* \"#utility.yul\":4667:4673   */\n      dup2\n        /* \"#utility.yul\":4664:4694   */\n      gt\n        /* \"#utility.yul\":4661:4778   */\n      iszero\n      tag_135\n      jumpi\n        /* \"#utility.yul\":4697:4776   */\n      tag_136\n      tag_56\n      jump\t// in\n    tag_136:\n        /* \"#utility.yul\":4661:4778   */\n    tag_135:\n        /* \"#utility.yul\":4802:4865   */\n      tag_137\n        /* \"#utility.yul\":4857:4864   */\n      dup5\n        /* \"#utility.yul\":4848:4854   */\n      dup3\n        /* \"#utility.yul\":4837:4846   */\n      dup6\n        /* \"#utility.yul\":4833:4855   */\n      add\n        /* \"#utility.yul\":4802:4865   */\n      tag_73\n      jump\t// in\n    tag_137:\n        /* \"#utility.yul\":4792:4865   */\n      swap2\n      pop\n        /* \"#utility.yul\":4588:4875   */\n      pop\n        /* \"#utility.yul\":4373:4882   */\n      swap3\n      swap2\n      pop\n      pop\n      jump\t// out\n        /* \"#utility.yul\":4888:5006   */\n    tag_74:\n        /* \"#utility.yul\":4975:4999   */\n      tag_139\n        /* \"#utility.yul\":4993:4998   */\n      dup2\n        /* \"#utility.yul\":4975:4999   */\n      tag_57\n      jump\t// in\n    tag_139:\n        /* \"#utility.yul\":4970:4973   */\n      dup3\n        /* \"#utility.yul\":4963:5000   */\n      mstore\n        /* \"#utility.yul\":4888:5006   */\n      pop\n      pop\n      jump\t// out\n        /* \"#utility.yul\":5012:5234   */\n    tag_17:\n        /* \"#utility.yul\":5105:5109   */\n      0x00\n        /* \"#utility.yul\":5143:5145   */\n      0x20\n        /* \"#utility.yul\":5132:5141   */\n      dup3\n        /* \"#utility.yul\":5128:5146   */\n      add\n        /* \"#utility.yul\":5120:5146   */\n      swap1\n      pop\n        /* \"#utility.yul\":5156:5227   */\n      tag_141\n        /* \"#utility.yul\":5224:5225   */\n      0x00\n        /* \"#utility.yul\":5213:5222   */\n      dup4\n        /* \"#utility.yul\":5209:5226   */\n      add\n        /* \"#utility.yul\":5200:5206   */\n      dup5\n        /* \"#utility.yul\":5156:5227   */\n      tag_74\n      jump\t// in\n    tag_141:\n        /* \"#utility.yul\":5012:5234   */\n      swap3\n      swap2\n      pop\n      pop\n      jump\t// out\n        /* \"#utility.yul\":5240:5420   */\n    tag_75:\n        /* \"#utility.yul\":5288:5365   */\n      0x4e487b7100000000000000000000000000000000000000000000000000000000\n        /* \"#utility.yul\":5285:5286   */\n      0x00\n        /* \"#utility.yul\":5278:5366   */\n      mstore\n        /* \"#utility.yul\":5385:5389   */\n      0x22\n        /* \"#utility.yul\":5382:5383   */\n      0x04\n        /* \"#utility.yul\":5375:5390   */\n      mstore\n        /* \"#utility.yul\":5409:5413   */\n      0x24\n        /* \"#utility.yul\":5406:5407   */\n      0x00\n        /* \"#utility.yul\":5399:5414   */\n      revert\n        /* \"#utility.yul\":5426:5746   */\n    tag_25:\n        /* \"#utility.yul\":5470:5476   */\n      0x00\n        /* \"#utility.yul\":5507:5508   */\n      0x02\n        /* \"#utility.yul\":5501:5505   */\n      dup3\n        /* \"#utility.yul\":5497:5509   */\n      div\n        /* \"#utility.yul\":5487:5509   */\n      swap1\n      pop\n        /* \"#utility.yul\":5554:5555   */\n      0x01\n        /* \"#utility.yul\":5548:5552   */\n      dup3\n        /* \"#utility.yul\":5544:5556   */\n      and\n        /* \"#utility.yul\":5575:5593   */\n      dup1\n        /* \"#utility.yul\":5565:5646   */\n      tag_144\n      jumpi\n        /* \"#utility.yul\":5631:5635   */\n      0x7f\n        /* \"#utility.yul\":5623:5629   */\n      dup3\n        /* \"#utility.yul\":5619:5636   */\n      and\n        /* \"#utility.yul\":5609:5636   */\n      swap2\n      pop\n        /* \"#utility.yul\":5565:5646   */\n    tag_144:\n        /* \"#utility.yul\":5693:5695   */\n      0x20\n        /* \"#utility.yul\":5685:5691   */\n      dup3\n        /* \"#utility.yul\":5682:5696   */\n      lt\n        /* \"#utility.yul\":5662:5680   */\n      dup2\n        /* \"#utility.yul\":5659:5697   */\n      sub\n        /* \"#utility.yul\":5656:5740   */\n      tag_145\n      jumpi\n        /* \"#utility.yul\":5712:5730   */\n      tag_146\n      tag_75\n      jump\t// in\n    tag_146:\n        /* \"#utility.yul\":5656:5740   */\n    tag_145:\n        /* \"#utility.yul\":5477:5746   */\n      pop\n        /* \"#utility.yul\":5426:5746   */\n      swap2\n      swap1\n      pop\n      jump\t// out\n        /* \"#utility.yul\":5752:5932   */\n    tag_36:\n        /* \"#utility.yul\":5800:5877   */\n      0x4e487b7100000000000000000000000000000000000000000000000000000000\n        /* \"#utility.yul\":5797:5798   */\n      0x00\n        /* \"#utility.yul\":5790:5878   */\n      mstore\n        /* \"#utility.yul\":5897:5901   */\n      0x32\n        /* \"#utility.yul\":5894:5895   */\n      0x04\n        /* \"#utility.yul\":5887:5902   */\n      mstore\n        /* \"#utility.yul\":5921:5925   */\n      0x24\n        /* \"#utility.yul\":5918:5919   */\n      0x00\n        /* \"#utility.yul\":5911:5926   */\n      revert\n        /* \"#utility.yul\":5938:6086   */\n    tag_76:\n        /* \"#utility.yul\":6040:6051   */\n      0x00\n        /* \"#utility.yul\":6077:6080   */\n      dup2\n        /* \"#utility.yul\":6062:6080   */\n      swap1\n      pop\n        /* \"#utility.yul\":5938:6086   */\n      swap3\n      swap2\n      pop\n      pop\n      jump\t// out\n        /* \"#utility.yul\":6092:6233   */\n    tag_77:\n        /* \"#utility.yul\":6141:6145   */\n      0x00\n        /* \"#utility.yul\":6164:6167   */\n      dup2\n        /* \"#utility.yul\":6156:6167   */\n      swap1\n      pop\n        /* \"#utility.yul\":6187:6190   */\n      dup2\n        /* \"#utility.yul\":6184:6185   */\n      0x00\n        /* \"#utility.yul\":6177:6191   */\n      mstore\n        /* \"#utility.yul\":6221:6225   */\n      0x20\n        /* \"#utility.yul\":6218:6219   */\n      0x00\n        /* \"#utility.yul\":6208:6226   */\n      keccak256\n        /* \"#utility.yul\":6200:6226   */\n      swap1\n      pop\n        /* \"#utility.yul\":6092:6233   */\n      swap2\n      swap1\n      pop\n      jump\t// out\n        /* \"#utility.yul\":6263:7137   */\n    tag_78:\n        /* \"#utility.yul\":6366:6369   */\n      0x00\n        /* \"#utility.yul\":6403:6408   */\n      dup2\n        /* \"#utility.yul\":6397:6409   */\n      sload\n        /* \"#utility.yul\":6432:6468   */\n      tag_151\n        /* \"#utility.yul\":6458:6467   */\n      dup2\n        /* \"#utility.yul\":6432:6468   */\n      tag_25\n      jump\t// in\n    tag_151:\n        /* \"#utility.yul\":6484:6573   */\n      tag_152\n        /* \"#utility.yul\":6566:6572   */\n      dup2\n        /* \"#utility.yul\":6561:6564   */\n      dup7\n        /* \"#utility.yul\":6484:6573   */\n      tag_76\n      jump\t// in\n    tag_152:\n        /* \"#utility.yul\":6477:6573   */\n      swap5\n      pop\n        /* \"#utility.yul\":6604:6605   */\n      0x01\n        /* \"#utility.yul\":6593:6602   */\n      dup3\n        /* \"#utility.yul\":6589:6606   */\n      and\n        /* \"#utility.yul\":6620:6621   */\n      0x00\n        /* \"#utility.yul\":6615:6781   */\n      dup2\n      eq\n      tag_154\n      jumpi\n        /* \"#utility.yul\":6795:6796   */\n      0x01\n        /* \"#utility.yul\":6790:7131   */\n      dup2\n      eq\n      tag_155\n      jumpi\n        /* \"#utility.yul\":6582:7131   */\n      jump(tag_153)\n        /* \"#utility.yul\":6615:6781   */\n    tag_154:\n        /* \"#utility.yul\":6699:6703   */\n      0xff\n        /* \"#utility.yul\":6695:6704   */\n      not\n        /* \"#utility.yul\":6684:6693   */\n      dup4\n        /* \"#utility.yul\":6680:6705   */\n      and\n        /* \"#utility.yul\":6675:6678   */\n      dup7\n        /* \"#utility.yul\":6668:6706   */\n      mstore\n        /* \"#utility.yul\":6761:6767   */\n      dup2\n        /* \"#utility.yul\":6754:6768   */\n      iszero\n        /* \"#utility.yul\":6747:6769   */\n      iszero\n        /* \"#utility.yul\":6739:6745   */\n      dup3\n        /* \"#utility.yul\":6735:6770   */\n      mul\n        /* \"#utility.yul\":6730:6733   */\n      dup7\n        /* \"#utility.yul\":6726:6771   */\n      add\n        /* \"#utility.yul\":6719:6771   */\n      swap4\n      pop\n        /* \"#utility.yul\":6615:6781   */\n      jump(tag_153)\n        /* \"#utility.yul\":6790:7131   */\n    tag_155:\n        /* \"#utility.yul\":6857:6895   */\n      tag_156\n        /* \"#utility.yul\":6889:6894   */\n      dup6\n        /* \"#utility.yul\":6857:6895   */\n      tag_77\n      jump\t// in\n    tag_156:\n        /* \"#utility.yul\":6917:6918   */\n      0x00\n        /* \"#utility.yul\":6931:7085   */\n    tag_157:\n        /* \"#utility.yul\":6945:6951   */\n      dup4\n        /* \"#utility.yul\":6942:6943   */\n      dup2\n        /* \"#utility.yul\":6939:6952   */\n      lt\n        /* \"#utility.yul\":6931:7085   */\n      iszero\n      tag_159\n      jumpi\n        /* \"#utility.yul\":7019:7026   */\n      dup2\n        /* \"#utility.yul\":7013:7027   */\n      sload\n        /* \"#utility.yul\":7009:7010   */\n      dup2\n        /* \"#utility.yul\":7004:7007   */\n      dup10\n        /* \"#utility.yul\":7000:7011   */\n      add\n        /* \"#utility.yul\":6993:7028   */\n      mstore\n        /* \"#utility.yul\":7069:7070   */\n      0x01\n        /* \"#utility.yul\":7060:7067   */\n      dup3\n        /* \"#utility.yul\":7056:7071   */\n      add\n        /* \"#utility.yul\":7045:7071   */\n      swap2\n      pop\n        /* \"#utility.yul\":6967:6971   */\n      0x20\n        /* \"#utility.yul\":6964:6965   */\n      dup2\n        /* \"#utility.yul\":6960:6972   */\n      add\n        /* \"#utility.yul\":6955:6972   */\n      swap1\n      pop\n        /* \"#utility.yul\":6931:7085   */\n      jump(tag_157)\n    tag_159:\n        /* \"#utility.yul\":7114:7120   */\n      dup4\n        /* \"#utility.yul\":7109:7112   */\n      dup9\n        /* \"#utility.yul\":7105:7121   */\n      add\n        /* \"#utility.yul\":7098:7121   */\n      swap6\n      pop\n        /* \"#utility.yul\":6797:7131   */\n      pop\n      pop\n        /* \"#utility.yul\":6582:7131   */\n    tag_153:\n      pop\n        /* \"#utility.yul\":6370:7137   */\n      pop\n      pop\n        /* \"#utility.yul\":6263:7137   */\n      swap3\n      swap2\n      pop\n      pop\n      jump\t// out\n        /* \"#utility.yul\":7143:7412   */\n    tag_39:\n        /* \"#utility.yul\":7272:7275   */\n      0x00\n        /* \"#utility.yul\":7294:7386   */\n      tag_161\n        /* \"#utility.yul\":7382:7385   */\n      dup3\n        /* \"#utility.yul\":7373:7379   */\n      dup5\n        /* \"#utility.yul\":7294:7386   */\n      tag_78\n      jump\t// in\n    tag_161:\n        /* \"#utility.yul\":7287:7386   */\n      swap2\n      pop\n        /* \"#utility.yul\":7403:7406   */\n      dup2\n        /* \"#utility.yul\":7396:7406   */\n      swap1\n      pop\n        /* \"#utility.yul\":7143:7412   */\n      swap3\n      swap2\n      pop\n      pop\n      jump\t// out\n        /* \"#utility.yul\":7418:7598   */\n    tag_79:\n        /* \"#utility.yul\":7466:7543   */\n      0x4e487b7100000000000000000000000000000000000000000000000000000000\n        /* \"#utility.yul\":7463:7464   */\n      0x00\n        /* \"#utility.yul\":7456:7544   */\n      mstore\n        /* \"#utility.yul\":7563:7567   */\n      0x12\n        /* \"#utility.yul\":7560:7561   */\n      0x04\n        /* \"#utility.yul\":7553:7568   */\n      mstore\n        /* \"#utility.yul\":7587:7591   */\n      0x24\n        /* \"#utility.yul\":7584:7585   */\n      0x00\n        /* \"#utility.yul\":7577:7592   */\n      revert\n        /* \"#utility.yul\":7790:7975   */\n    tag_41:\n        /* \"#utility.yul\":7830:7831   */\n      0x00\n        /* \"#utility.yul\":7847:7867   */\n      tag_165\n        /* \"#utility.yul\":7865:7866   */\n      dup3\n        /* \"#utility.yul\":7847:7867   */\n      tag_57\n      jump\t// in\n    tag_165:\n        /* \"#utility.yul\":7842:7867   */\n      swap2\n      pop\n        /* \"#utility.yul\":7881:7901   */\n      tag_166\n        /* \"#utility.yul\":7899:7900   */\n      dup4\n        /* \"#utility.yul\":7881:7901   */\n      tag_57\n      jump\t// in\n    tag_166:\n        /* \"#utility.yul\":7876:7901   */\n      swap3\n      pop\n        /* \"#utility.yul\":7920:7921   */\n      dup3\n        /* \"#utility.yul\":7910:7945   */\n      tag_167\n      jumpi\n        /* \"#utility.yul\":7925:7943   */\n      tag_168\n      tag_79\n      jump\t// in\n    tag_168:\n        /* \"#utility.yul\":7910:7945   */\n    tag_167:\n        /* \"#utility.yul\":7967:7968   */\n      dup3\n        /* \"#utility.yul\":7964:7965   */\n      dup3\n        /* \"#utility.yul\":7960:7969   */\n      div\n        /* \"#utility.yul\":7955:7969   */\n      swap1\n      pop\n        /* \"#utility.yul\":7790:7975   */\n      swap3\n      swap2\n      pop\n      pop\n      jump\t// out\n        /* \"#utility.yul\":7981:8157   */\n    tag_43:\n        /* \"#utility.yul\":8013:8014   */\n      0x00\n        /* \"#utility.yul\":8030:8050   */\n      tag_170\n        /* \"#utility.yul\":8048:8049   */\n      dup3\n        /* \"#utility.yul\":8030:8050   */\n      tag_57\n      jump\t// in\n    tag_170:\n        /* \"#utility.yul\":8025:8050   */\n      swap2\n      pop\n        /* \"#utility.yul\":8064:8084   */\n      tag_171\n        /* \"#utility.yul\":8082:8083   */\n      dup4\n        /* \"#utility.yul\":8064:8084   */\n      tag_57\n      jump\t// in\n    tag_171:\n        /* \"#utility.yul\":8059:8084   */\n      swap3\n      pop\n        /* \"#utility.yul\":8103:8104   */\n      dup3\n        /* \"#utility.yul\":8093:8128   */\n      tag_172\n      jumpi\n        /* \"#utility.yul\":8108:8126   */\n      tag_173\n      tag_79\n      jump\t// in\n    tag_173:\n        /* \"#utility.yul\":8093:8128   */\n    tag_172:\n        /* \"#utility.yul\":8149:8150   */\n      dup3\n        /* \"#utility.yul\":8146:8147   */\n      dup3\n        /* \"#utility.yul\":8142:8151   */\n      mod\n        /* \"#utility.yul\":8137:8151   */\n      swap1\n      pop\n        /* \"#utility.yul\":7981:8157   */\n      swap3\n      swap2\n      pop\n      pop\n      jump\t// out\n        /* \"#utility.yul\":8163:8553   */\n    tag_81:\n        /* \"#utility.yul\":8269:8272   */\n      0x00\n        /* \"#utility.yul\":8297:8336   */\n      tag_175\n        /* \"#utility.yul\":8330:8335   */\n      dup3\n        /* \"#utility.yul\":8297:8336   */\n      tag_60\n      jump\t// in\n    tag_175:\n        /* \"#utility.yul\":8352:8441   */\n      tag_176\n        /* \"#utility.yul\":8434:8440   */\n      dup2\n        /* \"#utility.yul\":8429:8432   */\n      dup6\n        /* \"#utility.yul\":8352:8441   */\n      tag_76\n      jump\t// in\n    tag_176:\n        /* \"#utility.yul\":8345:8441   */\n      swap4\n      pop\n        /* \"#utility.yul\":8450:8515   */\n      tag_177\n        /* \"#utility.yul\":8508:8514   */\n      dup2\n        /* \"#utility.yul\":8503:8506   */\n      dup6\n        /* \"#utility.yul\":8496:8500   */\n      0x20\n        /* \"#utility.yul\":8489:8494   */\n      dup7\n        /* \"#utility.yul\":8485:8501   */\n      add\n        /* \"#utility.yul\":8450:8515   */\n      tag_62\n      jump\t// in\n    tag_177:\n        /* \"#utility.yul\":8540:8546   */\n      dup1\n        /* \"#utility.yul\":8535:8538   */\n      dup5\n        /* \"#utility.yul\":8531:8547   */\n      add\n        /* \"#utility.yul\":8524:8547   */\n      swap2\n      pop\n        /* \"#utility.yul\":8273:8553   */\n      pop\n        /* \"#utility.yul\":8163:8553   */\n      swap3\n      swap2\n      pop\n      pop\n      jump\t// out\n        /* \"#utility.yul\":8559:8988   */\n    tag_52:\n        /* \"#utility.yul\":8736:8739   */\n      0x00\n        /* \"#utility.yul\":8758:8853   */\n      tag_179\n        /* \"#utility.yul\":8849:8852   */\n      dup3\n        /* \"#utility.yul\":8840:8846   */\n      dup6\n        /* \"#utility.yul\":8758:8853   */\n      tag_81\n      jump\t// in\n    tag_179:\n        /* \"#utility.yul\":8751:8853   */\n      swap2\n      pop\n        /* \"#utility.yul\":8870:8962   */\n      tag_180\n        /* \"#utility.yul\":8958:8961   */\n      dup3\n        /* \"#utility.yul\":8949:8955   */\n      dup5\n        /* \"#utility.yul\":8870:8962   */\n      tag_78\n      jump\t// in\n    tag_180:\n        /* \"#utility.yul\":8863:8962   */\n      swap2\n      pop\n        /* \"#utility.yul\":8979:8982   */\n      dup2\n        /* \"#utility.yul\":8972:8982   */\n      swap1\n      pop\n        /* \"#utility.yul\":8559:8988   */\n      swap4\n      swap3\n      pop\n      pop\n      pop\n      jump\t// out\n\n    auxdata: 0xa26469706673582212206bae4d2aa73630614ce8f9c426722e80a19021a9e71c305f49c959c42bfcf7d364736f6c63430008220033\n}\n",
				"bytecode": {
					"linkReferences": {},
					"object": "608060405234801561000f575f5ffd5b506103e85f6040516100209061069d565b9081526020016040518091039020819055506103845f604051610042906106fb565b9081526020016040518091039020819055506101f45f60405161006490610759565b9081526020016040518091039020819055506101905f604051610086906107b7565b90815260200160405180910390208190555060645f6040516100a790610815565b908152602001604051809103902081905550605a5f6040516100c890610873565b90815260200160405180910390208190555060325f6040516100e9906108d1565b90815260200160405180910390208190555060285f60405161010a9061092f565b908152602001604051809103902081905550600a5f60405161012b9061098d565b90815260200160405180910390208190555060095f60405161014c906109eb565b90815260200160405180910390208190555060055f60405161016d90610a49565b90815260200160405180910390208190555060045f60405161018e90610aa7565b90815260200160405180910390208190555060015f6040516101af90610b05565b9081526020016040518091039020819055506040518060400160405280600181526020017f4d0000000000000000000000000000000000000000000000000000000000000081525060015f600d811061020b5761020a610b19565b5b0190816102189190610d94565b506040518060400160405280600281526020017f434d000000000000000000000000000000000000000000000000000000000000815250600180600d811061026357610262610b19565b5b0190816102709190610d94565b506040518060400160405280600181526020017f440000000000000000000000000000000000000000000000000000000000000081525060016002600d81106102bc576102bb610b19565b5b0190816102c99190610d94565b506040518060400160405280600281526020017f434400000000000000000000000000000000000000000000000000000000000081525060016003600d811061031557610314610b19565b5b0190816103229190610d94565b506040518060400160405280600181526020017f430000000000000000000000000000000000000000000000000000000000000081525060016004600d811061036e5761036d610b19565b5b01908161037b9190610d94565b506040518060400160405280600281526020017f584300000000000000000000000000000000000000000000000000000000000081525060016005600d81106103c7576103c6610b19565b5b0190816103d49190610d94565b506040518060400160405280600181526020017f4c0000000000000000000000000000000000000000000000000000000000000081525060016006600d81106104205761041f610b19565b5b01908161042d9190610d94565b506040518060400160405280600281526020017f584c00000000000000000000000000000000000000000000000000000000000081525060016007600d811061047957610478610b19565b5b0190816104869190610d94565b506040518060400160405280600181526020017f580000000000000000000000000000000000000000000000000000000000000081525060016008600d81106104d2576104d1610b19565b5b0190816104df9190610d94565b506040518060400160405280600281526020017f495800000000000000000000000000000000000000000000000000000000000081525060016009600d811061052b5761052a610b19565b5b0190816105389190610d94565b506040518060400160405280600181526020017f56000000000000000000000000000000000000000000000000000000000000008152506001600a600d811061058457610583610b19565b5b0190816105919190610d94565b506040518060400160405280600281526020017f49560000000000000000000000000000000000000000000000000000000000008152506001600b600d81106105dd576105dc610b19565b5b0190816105ea9190610d94565b506040518060400160405280600181526020017f49000000000000000000000000000000000000000000000000000000000000008152506001600c600d811061063657610635610b19565b5b0190816106439190610d94565b50610e63565b5f81905092915050565b7f4d000000000000000000000000000000000000000000000000000000000000005f82015250565b5f610687600183610649565b915061069282610653565b600182019050919050565b5f6106a78261067b565b9150819050919050565b7f434d0000000000000000000000000000000000000000000000000000000000005f82015250565b5f6106e5600283610649565b91506106f0826106b1565b600282019050919050565b5f610705826106d9565b9150819050919050565b7f44000000000000000000000000000000000000000000000000000000000000005f82015250565b5f610743600183610649565b915061074e8261070f565b600182019050919050565b5f61076382610737565b9150819050919050565b7f43440000000000000000000000000000000000000000000000000000000000005f82015250565b5f6107a1600283610649565b91506107ac8261076d565b600282019050919050565b5f6107c182610795565b9150819050919050565b7f43000000000000000000000000000000000000000000000000000000000000005f82015250565b5f6107ff600183610649565b915061080a826107cb565b600182019050919050565b5f61081f826107f3565b9150819050919050565b7f58430000000000000000000000000000000000000000000000000000000000005f82015250565b5f61085d600283610649565b915061086882610829565b600282019050919050565b5f61087d82610851565b9150819050919050565b7f4c000000000000000000000000000000000000000000000000000000000000005f82015250565b5f6108bb600183610649565b91506108c682610887565b600182019050919050565b5f6108db826108af565b9150819050919050565b7f584c0000000000000000000000000000000000000000000000000000000000005f82015250565b5f610919600283610649565b9150610924826108e5565b600282019050919050565b5f6109398261090d565b9150819050919050565b7f58000000000000000000000000000000000000000000000000000000000000005f82015250565b5f610977600183610649565b915061098282610943565b600182019050919050565b5f6109978261096b565b9150819050919050565b7f49580000000000000000000000000000000000000000000000000000000000005f82015250565b5f6109d5600283610649565b91506109e0826109a1565b600282019050919050565b5f6109f5826109c9565b9150819050919050565b7f56000000000000000000000000000000000000000000000000000000000000005f82015250565b5f610a33600183610649565b9150610a3e826109ff565b600182019050919050565b5f610a5382610a27565b9150819050919050565b7f49560000000000000000000000000000000000000000000000000000000000005f82015250565b5f610a91600283610649565b9150610a9c82610a5d565b600282019050919050565b5f610ab182610a85565b9150819050919050565b7f49000000000000000000000000000000000000000000000000000000000000005f82015250565b5f610aef600183610649565b9150610afa82610abb565b600182019050919050565b5f610b0f82610ae3565b9150819050919050565b7f4e487b71000000000000000000000000000000000000000000000000000000005f52603260045260245ffd5b5f81519050919050565b7f4e487b71000000000000000000000000000000000000000000000000000000005f52604160045260245ffd5b7f4e487b71000000000000000000000000000000000000000000000000000000005f52602260045260245ffd5b5f6002820490506001821680610bc157607f821691505b602082108103610bd457610bd3610b7d565b5b50919050565b5f819050815f5260205f209050919050565b5f6020601f8301049050919050565b5f82821b905092915050565b5f60088302610c367fffffffffffffffffffffffffffffffffffffffffffffffffffffffffffffffff82610bfb565b610c408683610bfb565b95508019841693508086168417925050509392505050565b5f819050919050565b5f819050919050565b5f610c84610c7f610c7a84610c58565b610c61565b610c58565b9050919050565b5f819050919050565b610c9d83610c6a565b610cb1610ca982610c8b565b848454610c07565b825550505050565b5f5f905090565b610cc8610cb9565b610cd3818484610c94565b505050565b5f5b82811015610cf957610cee5f828401610cc0565b600181019050610cda565b505050565b601f821115610d4c5782821115610d4b57610d1881610bda565b610d2183610bec565b610d2a85610bec565b6020861015610d37575f90505b808301610d4682840382610cd8565b505050505b5b505050565b5f82821c905092915050565b5f610d6c5f1984600802610d51565b1980831691505092915050565b5f610d848383610d5d565b9150826002028217905092915050565b610d9d82610b46565b67ffffffffffffffff811115610db657610db5610b50565b5b610dc08254610baa565b610dcb828285610cfe565b5f60209050601f831160018114610dfc575f8415610dea578287015190505b610df48582610d79565b865550610e5b565b601f198416610e0a86610bda565b5f5b82811015610e3157848901518255600182019150602085019450602081019050610e0c565b86831015610e4e5784890151610e4a601f891682610d5d565b8355505b6001600288020188555050505b505050505050565b61077680610e705f395ff3fe608060405234801561000f575f5ffd5b506004361061003f575f3560e01c80630cb6aaf1146100435780635a612f3714610073578063ab7baabe146100a3575b5f5ffd5b61005d600480360381019061005891906102ce565b6100d3565b60405161006a9190610369565b60405180910390f35b61008d600480360381019061008891906104b5565b610172565b60405161009a919061050b565b60405180910390f35b6100bd60048036038101906100b891906102ce565b61019e565b6040516100ca9190610369565b60405180910390f35b600181600d81106100e2575f80fd5b015f9150905080546100f390610551565b80601f016020809104026020016040519081016040528092919081815260200182805461011f90610551565b801561016a5780601f106101415761010080835404028352916020019161016a565b820191905f5260205f20905b81548152906001019060200180831161014d57829003601f168201915b505050505081565b5f818051602081018201805184825260208301602085012081835280955050505050505f915090505481565b6060805f5f90505b600d811015610280575f5f600183600d81106101c5576101c4610581565b5b016040516101d3919061064a565b90815260200160405180910390205490505f81866101f1919061068d565b90505f828761020091906106bd565b90505f821115610270575f5f90505b8281101561025c5785600186600d811061022c5761022b610581565b5b0160405160200161023e92919061071d565b6040516020818303038152906040529550808060010191505061020f565b505f810361026c57505050610280565b8096505b50505080806001019150506101a6565b5080915050919050565b5f604051905090565b5f5ffd5b5f5ffd5b5f819050919050565b6102ad8161029b565b81146102b7575f5ffd5b50565b5f813590506102c8816102a4565b92915050565b5f602082840312156102e3576102e2610293565b5b5f6102f0848285016102ba565b91505092915050565b5f81519050919050565b5f82825260208201905092915050565b8281835e5f83830152505050565b5f601f19601f8301169050919050565b5f61033b826102f9565b6103458185610303565b9350610355818560208601610313565b61035e81610321565b840191505092915050565b5f6020820190508181035f8301526103818184610331565b905092915050565b5f5ffd5b5f5ffd5b7f4e487b71000000000000000000000000000000000000000000000000000000005f52604160045260245ffd5b6103c782610321565b810181811067ffffffffffffffff821117156103e6576103e5610391565b5b80604052505050565b5f6103f861028a565b905061040482826103be565b919050565b5f67ffffffffffffffff82111561042357610422610391565b5b61042c82610321565b9050602081019050919050565b828183375f83830152505050565b5f61045961045484610409565b6103ef565b9050828152602081018484840111156104755761047461038d565b5b610480848285610439565b509392505050565b5f82601f83011261049c5761049b610389565b5b81356104ac848260208601610447565b91505092915050565b5f602082840312156104ca576104c9610293565b5b5f82013567ffffffffffffffff8111156104e7576104e6610297565b5b6104f384828501610488565b91505092915050565b6105058161029b565b82525050565b5f60208201905061051e5f8301846104fc565b92915050565b7f4e487b71000000000000000000000000000000000000000000000000000000005f52602260045260245ffd5b5f600282049050600182168061056857607f821691505b60208210810361057b5761057a610524565b5b50919050565b7f4e487b71000000000000000000000000000000000000000000000000000000005f52603260045260245ffd5b5f81905092915050565b5f819050815f5260205f209050919050565b5f81546105d681610551565b6105e081866105ae565b9450600182165f81146105fa576001811461060f57610641565b60ff1983168652811515820286019350610641565b610618856105b8565b5f5b838110156106395781548189015260018201915060208101905061061a565b838801955050505b50505092915050565b5f61065582846105ca565b915081905092915050565b7f4e487b71000000000000000000000000000000000000000000000000000000005f52601260045260245ffd5b5f6106978261029b565b91506106a28361029b565b9250826106b2576106b1610660565b5b828204905092915050565b5f6106c78261029b565b91506106d28361029b565b9250826106e2576106e1610660565b5b828206905092915050565b5f6106f7826102f9565b61070181856105ae565b9350610711818560208601610313565b80840191505092915050565b5f61072882856106ed565b915061073482846105ca565b9150819050939250505056fea26469706673582212206bae4d2aa73630614ce8f9c426722e80a19021a9e71c305f49c959c42bfcf7d364736f6c63430008220033",
					"opcodes": "PUSH1 0x80 PUSH1 0x40 MSTORE CALLVALUE DUP1 ISZERO PUSH2 0xF JUMPI PUSH0 PUSH0 REVERT JUMPDEST POP PUSH2 0x3E8 PUSH0 PUSH1 0x40 MLOAD PUSH2 0x20 SWAP1 PUSH2 0x69D JUMP JUMPDEST SWAP1 DUP2 MSTORE PUSH1 0x20 ADD PUSH1 0x40 MLOAD DUP1 SWAP2 SUB SWAP1 KECCAK256 DUP2 SWAP1 SSTORE POP PUSH2 0x384 PUSH0 PUSH1 0x40 MLOAD PUSH2 0x42 SWAP1 PUSH2 0x6FB JUMP JUMPDEST SWAP1 DUP2 MSTORE PUSH1 0x20 ADD PUSH1 0x40 MLOAD DUP1 SWAP2 SUB SWAP1 KECCAK256 DUP2 SWAP1 SSTORE POP PUSH2 0x1F4 PUSH0 PUSH1 0x40 MLOAD PUSH2 0x64 SWAP1 PUSH2 0x759 JUMP JUMPDEST SWAP1 DUP2 MSTORE PUSH1 0x20 ADD PUSH1 0x40 MLOAD DUP1 SWAP2 SUB SWAP1 KECCAK256 DUP2 SWAP1 SSTORE POP PUSH2 0x190 PUSH0 PUSH1 0x40 MLOAD PUSH2 0x86 SWAP1 PUSH2 0x7B7 JUMP JUMPDEST SWAP1 DUP2 MSTORE PUSH1 0x20 ADD PUSH1 0x40 MLOAD DUP1 SWAP2 SUB SWAP1 KECCAK256 DUP2 SWAP1 SSTORE POP PUSH1 0x64 PUSH0 PUSH1 0x40 MLOAD PUSH2 0xA7 SWAP1 PUSH2 0x815 JUMP JUMPDEST SWAP1 DUP2 MSTORE PUSH1 0x20 ADD PUSH1 0x40 MLOAD DUP1 SWAP2 SUB SWAP1 KECCAK256 DUP2 SWAP1 SSTORE POP PUSH1 0x5A PUSH0 PUSH1 0x40 MLOAD PUSH2 0xC8 SWAP1 PUSH2 0x873 JUMP JUMPDEST SWAP1 DUP2 MSTORE PUSH1 0x20 ADD PUSH1 0x40 MLOAD DUP1 SWAP2 SUB SWAP1 KECCAK256 DUP2 SWAP1 SSTORE POP PUSH1 0x32 PUSH0 PUSH1 0x40 MLOAD PUSH2 0xE9 SWAP1 PUSH2 0x8D1 JUMP JUMPDEST SWAP1 DUP2 MSTORE PUSH1 0x20 ADD PUSH1 0x40 MLOAD DUP1 SWAP2 SUB SWAP1 KECCAK256 DUP2 SWAP1 SSTORE POP PUSH1 0x28 PUSH0 PUSH1 0x40 MLOAD PUSH2 0x10A SWAP1 PUSH2 0x92F JUMP JUMPDEST SWAP1 DUP2 MSTORE PUSH1 0x20 ADD PUSH1 0x40 MLOAD DUP1 SWAP2 SUB SWAP1 KECCAK256 DUP2 SWAP1 SSTORE POP PUSH1 0xA PUSH0 PUSH1 0x40 MLOAD PUSH2 0x12B SWAP1 PUSH2 0x98D JUMP JUMPDEST SWAP1 DUP2 MSTORE PUSH1 0x20 ADD PUSH1 0x40 MLOAD DUP1 SWAP2 SUB SWAP1 KECCAK256 DUP2 SWAP1 SSTORE POP PUSH1 0x9 PUSH0 PUSH1 0x40 MLOAD PUSH2 0x14C SWAP1 PUSH2 0x9EB JUMP JUMPDEST SWAP1 DUP2 MSTORE PUSH1 0x20 ADD PUSH1 0x40 MLOAD DUP1 SWAP2 SUB SWAP1 KECCAK256 DUP2 SWAP1 SSTORE POP PUSH1 0x5 PUSH0 PUSH1 0x40 MLOAD PUSH2 0x16D SWAP1 PUSH2 0xA49 JUMP JUMPDEST SWAP1 DUP2 MSTORE PUSH1 0x20 ADD PUSH1 0x40 MLOAD DUP1 SWAP2 SUB SWAP1 KECCAK256 DUP2 SWAP1 SSTORE POP PUSH1 0x4 PUSH0 PUSH1 0x40 MLOAD PUSH2 0x18E SWAP1 PUSH2 0xAA7 JUMP JUMPDEST SWAP1 DUP2 MSTORE PUSH1 0x20 ADD PUSH1 0x40 MLOAD DUP1 SWAP2 SUB SWAP1 KECCAK256 DUP2 SWAP1 SSTORE POP PUSH1 0x1 PUSH0 PUSH1 0x40 MLOAD PUSH2 0x1AF SWAP1 PUSH2 0xB05 JUMP JUMPDEST SWAP1 DUP2 MSTORE PUSH1 0x20 ADD PUSH1 0x40 MLOAD DUP1 SWAP2 SUB SWAP1 KECCAK256 DUP2 SWAP1 SSTORE POP PUSH1 0x40 MLOAD DUP1 PUSH1 0x40 ADD PUSH1 0x40 MSTORE DUP1 PUSH1 0x1 DUP2 MSTORE PUSH1 0x20 ADD PUSH32 0x4D00000000000000000000000000000000000000000000000000000000000000 DUP2 MSTORE POP PUSH1 0x1 PUSH0 PUSH1 0xD DUP2 LT PUSH2 0x20B JUMPI PUSH2 0x20A PUSH2 0xB19 JUMP JUMPDEST JUMPDEST ADD SWAP1 DUP2 PUSH2 0x218 SWAP2 SWAP1 PUSH2 0xD94 JUMP JUMPDEST POP PUSH1 0x40 MLOAD DUP1 PUSH1 0x40 ADD PUSH1 0x40 MSTORE DUP1 PUSH1 0x2 DUP2 MSTORE PUSH1 0x20 ADD PUSH32 0x434D000000000000000000000000000000000000000000000000000000000000 DUP2 MSTORE POP PUSH1 0x1 DUP1 PUSH1 0xD DUP2 LT PUSH2 0x263 JUMPI PUSH2 0x262 PUSH2 0xB19 JUMP JUMPDEST JUMPDEST ADD SWAP1 DUP2 PUSH2 0x270 SWAP2 SWAP1 PUSH2 0xD94 JUMP JUMPDEST POP PUSH1 0x40 MLOAD DUP1 PUSH1 0x40 ADD PUSH1 0x40 MSTORE DUP1 PUSH1 0x1 DUP2 MSTORE PUSH1 0x20 ADD PUSH32 0x4400000000000000000000000000000000000000000000000000000000000000 DUP2 MSTORE POP PUSH1 0x1 PUSH1 0x2 PUSH1 0xD DUP2 LT PUSH2 0x2BC JUMPI PUSH2 0x2BB PUSH2 0xB19 JUMP JUMPDEST JUMPDEST ADD SWAP1 DUP2 PUSH2 0x2C9 SWAP2 SWAP1 PUSH2 0xD94 JUMP JUMPDEST POP PUSH1 0x40 MLOAD DUP1 PUSH1 0x40 ADD PUSH1 0x40 MSTORE DUP1 PUSH1 0x2 DUP2 MSTORE PUSH1 0x20 ADD PUSH32 0x4344000000000000000000000000000000000000000000000000000000000000 DUP2 MSTORE POP PUSH1 0x1 PUSH1 0x3 PUSH1 0xD DUP2 LT PUSH2 0x315 JUMPI PUSH2 0x314 PUSH2 0xB19 JUMP JUMPDEST JUMPDEST ADD SWAP1 DUP2 PUSH2 0x322 SWAP2 SWAP1 PUSH2 0xD94 JUMP JUMPDEST POP PUSH1 0x40 MLOAD DUP1 PUSH1 0x40 ADD PUSH1 0x40 MSTORE DUP1 PUSH1 0x1 DUP2 MSTORE PUSH1 0x20 ADD PUSH32 0x4300000000000000000000000000000000000000000000000000000000000000 DUP2 MSTORE POP PUSH1 0x1 PUSH1 0x4 PUSH1 0xD DUP2 LT PUSH2 0x36E JUMPI PUSH2 0x36D PUSH2 0xB19 JUMP JUMPDEST JUMPDEST ADD SWAP1 DUP2 PUSH2 0x37B SWAP2 SWAP1 PUSH2 0xD94 JUMP JUMPDEST POP PUSH1 0x40 MLOAD DUP1 PUSH1 0x40 ADD PUSH1 0x40 MSTORE DUP1 PUSH1 0x2 DUP2 MSTORE PUSH1 0x20 ADD PUSH32 0x5843000000000000000000000000000000000000000000000000000000000000 DUP2 MSTORE POP PUSH1 0x1 PUSH1 0x5 PUSH1 0xD DUP2 LT PUSH2 0x3C7 JUMPI PUSH2 0x3C6 PUSH2 0xB19 JUMP JUMPDEST JUMPDEST ADD SWAP1 DUP2 PUSH2 0x3D4 SWAP2 SWAP1 PUSH2 0xD94 JUMP JUMPDEST POP PUSH1 0x40 MLOAD DUP1 PUSH1 0x40 ADD PUSH1 0x40 MSTORE DUP1 PUSH1 0x1 DUP2 MSTORE PUSH1 0x20 ADD PUSH32 0x4C00000000000000000000000000000000000000000000000000000000000000 DUP2 MSTORE POP PUSH1 0x1 PUSH1 0x6 PUSH1 0xD DUP2 LT PUSH2 0x420 JUMPI PUSH2 0x41F PUSH2 0xB19 JUMP JUMPDEST JUMPDEST ADD SWAP1 DUP2 PUSH2 0x42D SWAP2 SWAP1 PUSH2 0xD94 JUMP JUMPDEST POP PUSH1 0x40 MLOAD DUP1 PUSH1 0x40 ADD PUSH1 0x40 MSTORE DUP1 PUSH1 0x2 DUP2 MSTORE PUSH1 0x20 ADD PUSH32 0x584C000000000000000000000000000000000000000000000000000000000000 DUP2 MSTORE POP PUSH1 0x1 PUSH1 0x7 PUSH1 0xD DUP2 LT PUSH2 0x479 JUMPI PUSH2 0x478 PUSH2 0xB19 JUMP JUMPDEST JUMPDEST ADD SWAP1 DUP2 PUSH2 0x486 SWAP2 SWAP1 PUSH2 0xD94 JUMP JUMPDEST POP PUSH1 0x40 MLOAD DUP1 PUSH1 0x40 ADD PUSH1 0x40 MSTORE DUP1 PUSH1 0x1 DUP2 MSTORE PUSH1 0x20 ADD PUSH32 0x5800000000000000000000000000000000000000000000000000000000000000 DUP2 MSTORE POP PUSH1 0x1 PUSH1 0x8 PUSH1 0xD DUP2 LT PUSH2 0x4D2 JUMPI PUSH2 0x4D1 PUSH2 0xB19 JUMP JUMPDEST JUMPDEST ADD SWAP1 DUP2 PUSH2 0x4DF SWAP2 SWAP1 PUSH2 0xD94 JUMP JUMPDEST POP PUSH1 0x40 MLOAD DUP1 PUSH1 0x40 ADD PUSH1 0x40 MSTORE DUP1 PUSH1 0x2 DUP2 MSTORE PUSH1 0x20 ADD PUSH32 0x4958000000000000000000000000000000000000000000000000000000000000 DUP2 MSTORE POP PUSH1 0x1 PUSH1 0x9 PUSH1 0xD DUP2 LT PUSH2 0x52B JUMPI PUSH2 0x52A PUSH2 0xB19 JUMP JUMPDEST JUMPDEST ADD SWAP1 DUP2 PUSH2 0x538 SWAP2 SWAP1 PUSH2 0xD94 JUMP JUMPDEST POP PUSH1 0x40 MLOAD DUP1 PUSH1 0x40 ADD PUSH1 0x40 MSTORE DUP1 PUSH1 0x1 DUP2 MSTORE PUSH1 0x20 ADD PUSH32 0x5600000000000000000000000000000000000000000000000000000000000000 DUP2 MSTORE POP PUSH1 0x1 PUSH1 0xA PUSH1 0xD DUP2 LT PUSH2 0x584 JUMPI PUSH2 0x583 PUSH2 0xB19 JUMP JUMPDEST JUMPDEST ADD SWAP1 DUP2 PUSH2 0x591 SWAP2 SWAP1 PUSH2 0xD94 JUMP JUMPDEST POP PUSH1 0x40 MLOAD DUP1 PUSH1 0x40 ADD PUSH1 0x40 MSTORE DUP1 PUSH1 0x2 DUP2 MSTORE PUSH1 0x20 ADD PUSH32 0x4956000000000000000000000000000000000000000000000000000000000000 DUP2 MSTORE POP PUSH1 0x1 PUSH1 0xB PUSH1 0xD DUP2 LT PUSH2 0x5DD JUMPI PUSH2 0x5DC PUSH2 0xB19 JUMP JUMPDEST JUMPDEST ADD SWAP1 DUP2 PUSH2 0x5EA SWAP2 SWAP1 PUSH2 0xD94 JUMP JUMPDEST POP PUSH1 0x40 MLOAD DUP1 PUSH1 0x40 ADD PUSH1 0x40 MSTORE DUP1 PUSH1 0x1 DUP2 MSTORE PUSH1 0x20 ADD PUSH32 0x4900000000000000000000000000000000000000000000000000000000000000 DUP2 MSTORE POP PUSH1 0x1 PUSH1 0xC PUSH1 0xD DUP2 LT PUSH2 0x636 JUMPI PUSH2 0x635 PUSH2 0xB19 JUMP JUMPDEST JUMPDEST ADD SWAP1 DUP2 PUSH2 0x643 SWAP2 SWAP1 PUSH2 0xD94 JUMP JUMPDEST POP PUSH2 0xE63 JUMP JUMPDEST PUSH0 DUP2 SWAP1 POP SWAP3 SWAP2 POP POP JUMP JUMPDEST PUSH32 0x4D00000000000000000000000000000000000000000000000000000000000000 PUSH0 DUP3 ADD MSTORE POP JUMP JUMPDEST PUSH0 PUSH2 0x687 PUSH1 0x1 DUP4 PUSH2 0x649 JUMP JUMPDEST SWAP2 POP PUSH2 0x692 DUP3 PUSH2 0x653 JUMP JUMPDEST PUSH1 0x1 DUP3 ADD SWAP1 POP SWAP2 SWAP1 POP JUMP JUMPDEST PUSH0 PUSH2 0x6A7 DUP3 PUSH2 0x67B JUMP JUMPDEST SWAP2 POP DUP2 SWAP1 POP SWAP2 SWAP1 POP JUMP JUMPDEST PUSH32 0x434D000000000000000000000000000000000000000000000000000000000000 PUSH0 DUP3 ADD MSTORE POP JUMP JUMPDEST PUSH0 PUSH2 0x6E5 PUSH1 0x2 DUP4 PUSH2 0x649 JUMP JUMPDEST SWAP2 POP PUSH2 0x6F0 DUP3 PUSH2 0x6B1 JUMP JUMPDEST PUSH1 0x2 DUP3 ADD SWAP1 POP SWAP2 SWAP1 POP JUMP JUMPDEST PUSH0 PUSH2 0x705 DUP3 PUSH2 0x6D9 JUMP JUMPDEST SWAP2 POP DUP2 SWAP1 POP SWAP2 SWAP1 POP JUMP JUMPDEST PUSH32 0x4400000000000000000000000000000000000000000000000000000000000000 PUSH0 DUP3 ADD MSTORE POP JUMP JUMPDEST PUSH0 PUSH2 0x743 PUSH1 0x1 DUP4 PUSH2 0x649 JUMP JUMPDEST SWAP2 POP PUSH2 0x74E DUP3 PUSH2 0x70F JUMP JUMPDEST PUSH1 0x1 DUP3 ADD SWAP1 POP SWAP2 SWAP1 POP JUMP JUMPDEST PUSH0 PUSH2 0x763 DUP3 PUSH2 0x737 JUMP JUMPDEST SWAP2 POP DUP2 SWAP1 POP SWAP2 SWAP1 POP JUMP JUMPDEST PUSH32 0x4344000000000000000000000000000000000000000000000000000000000000 PUSH0 DUP3 ADD MSTORE POP JUMP JUMPDEST PUSH0 PUSH2 0x7A1 PUSH1 0x2 DUP4 PUSH2 0x649 JUMP JUMPDEST SWAP2 POP PUSH2 0x7AC DUP3 PUSH2 0x76D JUMP JUMPDEST PUSH1 0x2 DUP3 ADD SWAP1 POP SWAP2 SWAP1 POP JUMP JUMPDEST PUSH0 PUSH2 0x7C1 DUP3 PUSH2 0x795 JUMP JUMPDEST SWAP2 POP DUP2 SWAP1 POP SWAP2 SWAP1 POP JUMP JUMPDEST PUSH32 0x4300000000000000000000000000000000000000000000000000000000000000 PUSH0 DUP3 ADD MSTORE POP JUMP JUMPDEST PUSH0 PUSH2 0x7FF PUSH1 0x1 DUP4 PUSH2 0x649 JUMP JUMPDEST SWAP2 POP PUSH2 0x80A DUP3 PUSH2 0x7CB JUMP JUMPDEST PUSH1 0x1 DUP3 ADD SWAP1 POP SWAP2 SWAP1 POP JUMP JUMPDEST PUSH0 PUSH2 0x81F DUP3 PUSH2 0x7F3 JUMP JUMPDEST SWAP2 POP DUP2 SWAP1 POP SWAP2 SWAP1 POP JUMP JUMPDEST PUSH32 0x5843000000000000000000000000000000000000000000000000000000000000 PUSH0 DUP3 ADD MSTORE POP JUMP JUMPDEST PUSH0 PUSH2 0x85D PUSH1 0x2 DUP4 PUSH2 0x649 JUMP JUMPDEST SWAP2 POP PUSH2 0x868 DUP3 PUSH2 0x829 JUMP JUMPDEST PUSH1 0x2 DUP3 ADD SWAP1 POP SWAP2 SWAP1 POP JUMP JUMPDEST PUSH0 PUSH2 0x87D DUP3 PUSH2 0x851 JUMP JUMPDEST SWAP2 POP DUP2 SWAP1 POP SWAP2 SWAP1 POP JUMP JUMPDEST PUSH32 0x4C00000000000000000000000000000000000000000000000000000000000000 PUSH0 DUP3 ADD MSTORE POP JUMP JUMPDEST PUSH0 PUSH2 0x8BB PUSH1 0x1 DUP4 PUSH2 0x649 JUMP JUMPDEST SWAP2 POP PUSH2 0x8C6 DUP3 PUSH2 0x887 JUMP JUMPDEST PUSH1 0x1 DUP3 ADD SWAP1 POP SWAP2 SWAP1 POP JUMP JUMPDEST PUSH0 PUSH2 0x8DB DUP3 PUSH2 0x8AF JUMP JUMPDEST SWAP2 POP DUP2 SWAP1 POP SWAP2 SWAP1 POP JUMP JUMPDEST PUSH32 0x584C000000000000000000000000000000000000000000000000000000000000 PUSH0 DUP3 ADD MSTORE POP JUMP JUMPDEST PUSH0 PUSH2 0x919 PUSH1 0x2 DUP4 PUSH2 0x649 JUMP JUMPDEST SWAP2 POP PUSH2 0x924 DUP3 PUSH2 0x8E5 JUMP JUMPDEST PUSH1 0x2 DUP3 ADD SWAP1 POP SWAP2 SWAP1 POP JUMP JUMPDEST PUSH0 PUSH2 0x939 DUP3 PUSH2 0x90D JUMP JUMPDEST SWAP2 POP DUP2 SWAP1 POP SWAP2 SWAP1 POP JUMP JUMPDEST PUSH32 0x5800000000000000000000000000000000000000000000000000000000000000 PUSH0 DUP3 ADD MSTORE POP JUMP JUMPDEST PUSH0 PUSH2 0x977 PUSH1 0x1 DUP4 PUSH2 0x649 JUMP JUMPDEST SWAP2 POP PUSH2 0x982 DUP3 PUSH2 0x943 JUMP JUMPDEST PUSH1 0x1 DUP3 ADD SWAP1 POP SWAP2 SWAP1 POP JUMP JUMPDEST PUSH0 PUSH2 0x997 DUP3 PUSH2 0x96B JUMP JUMPDEST SWAP2 POP DUP2 SWAP1 POP SWAP2 SWAP1 POP JUMP JUMPDEST PUSH32 0x4958000000000000000000000000000000000000000000000000000000000000 PUSH0 DUP3 ADD MSTORE POP JUMP JUMPDEST PUSH0 PUSH2 0x9D5 PUSH1 0x2 DUP4 PUSH2 0x649 JUMP JUMPDEST SWAP2 POP PUSH2 0x9E0 DUP3 PUSH2 0x9A1 JUMP JUMPDEST PUSH1 0x2 DUP3 ADD SWAP1 POP SWAP2 SWAP1 POP JUMP JUMPDEST PUSH0 PUSH2 0x9F5 DUP3 PUSH2 0x9C9 JUMP JUMPDEST SWAP2 POP DUP2 SWAP1 POP SWAP2 SWAP1 POP JUMP JUMPDEST PUSH32 0x5600000000000000000000000000000000000000000000000000000000000000 PUSH0 DUP3 ADD MSTORE POP JUMP JUMPDEST PUSH0 PUSH2 0xA33 PUSH1 0x1 DUP4 PUSH2 0x649 JUMP JUMPDEST SWAP2 POP PUSH2 0xA3E DUP3 PUSH2 0x9FF JUMP JUMPDEST PUSH1 0x1 DUP3 ADD SWAP1 POP SWAP2 SWAP1 POP JUMP JUMPDEST PUSH0 PUSH2 0xA53 DUP3 PUSH2 0xA27 JUMP JUMPDEST SWAP2 POP DUP2 SWAP1 POP SWAP2 SWAP1 POP JUMP JUMPDEST PUSH32 0x4956000000000000000000000000000000000000000000000000000000000000 PUSH0 DUP3 ADD MSTORE POP JUMP JUMPDEST PUSH0 PUSH2 0xA91 PUSH1 0x2 DUP4 PUSH2 0x649 JUMP JUMPDEST SWAP2 POP PUSH2 0xA9C DUP3 PUSH2 0xA5D JUMP JUMPDEST PUSH1 0x2 DUP3 ADD SWAP1 POP SWAP2 SWAP1 POP JUMP JUMPDEST PUSH0 PUSH2 0xAB1 DUP3 PUSH2 0xA85 JUMP JUMPDEST SWAP2 POP DUP2 SWAP1 POP SWAP2 SWAP1 POP JUMP JUMPDEST PUSH32 0x4900000000000000000000000000000000000000000000000000000000000000 PUSH0 DUP3 ADD MSTORE POP JUMP JUMPDEST PUSH0 PUSH2 0xAEF PUSH1 0x1 DUP4 PUSH2 0x649 JUMP JUMPDEST SWAP2 POP PUSH2 0xAFA DUP3 PUSH2 0xABB JUMP JUMPDEST PUSH1 0x1 DUP3 ADD SWAP1 POP SWAP2 SWAP1 POP JUMP JUMPDEST PUSH0 PUSH2 0xB0F DUP3 PUSH2 0xAE3 JUMP JUMPDEST SWAP2 POP DUP2 SWAP1 POP SWAP2 SWAP1 POP JUMP JUMPDEST PUSH32 0x4E487B7100000000000000000000000000000000000000000000000000000000 PUSH0 MSTORE PUSH1 0x32 PUSH1 0x4 MSTORE PUSH1 0x24 PUSH0 REVERT JUMPDEST PUSH0 DUP2 MLOAD SWAP1 POP SWAP2 SWAP1 POP JUMP JUMPDEST PUSH32 0x4E487B7100000000000000000000000000000000000000000000000000000000 PUSH0 MSTORE PUSH1 0x41 PUSH1 0x4 MSTORE PUSH1 0x24 PUSH0 REVERT JUMPDEST PUSH32 0x4E487B7100000000000000000000000000000000000000000000000000000000 PUSH0 MSTORE PUSH1 0x22 PUSH1 0x4 MSTORE PUSH1 0x24 PUSH0 REVERT JUMPDEST PUSH0 PUSH1 0x2 DUP3 DIV SWAP1 POP PUSH1 0x1 DUP3 AND DUP1 PUSH2 0xBC1 JUMPI PUSH1 0x7F DUP3 AND SWAP2 POP JUMPDEST PUSH1 0x20 DUP3 LT DUP2 SUB PUSH2 0xBD4 JUMPI PUSH2 0xBD3 PUSH2 0xB7D JUMP JUMPDEST JUMPDEST POP SWAP2 SWAP1 POP JUMP JUMPDEST PUSH0 DUP2 SWAP1 POP DUP2 PUSH0 MSTORE PUSH1 0x20 PUSH0 KECCAK256 SWAP1 POP SWAP2 SWAP1 POP JUMP JUMPDEST PUSH0 PUSH1 0x20 PUSH1 0x1F DUP4 ADD DIV SWAP1 POP SWAP2 SWAP1 POP JUMP JUMPDEST PUSH0 DUP3 DUP3 SHL SWAP1 POP SWAP3 SWAP2 POP POP JUMP JUMPDEST PUSH0 PUSH1 0x8 DUP4 MUL PUSH2 0xC36 PUSH32 0xFFFFFFFFFFFFFFFFFFFFFFFFFFFFFFFFFFFFFFFFFFFFFFFFFFFFFFFFFFFFFFFF DUP3 PUSH2 0xBFB JUMP JUMPDEST PUSH2 0xC40 DUP7 DUP4 PUSH2 0xBFB JUMP JUMPDEST SWAP6 POP DUP1 NOT DUP5 AND SWAP4 POP DUP1 DUP7 AND DUP5 OR SWAP3 POP POP POP SWAP4 SWAP3 POP POP POP JUMP JUMPDEST PUSH0 DUP2 SWAP1 POP SWAP2 SWAP1 POP JUMP JUMPDEST PUSH0 DUP2 SWAP1 POP SWAP2 SWAP1 POP JUMP JUMPDEST PUSH0 PUSH2 0xC84 PUSH2 0xC7F PUSH2 0xC7A DUP5 PUSH2 0xC58 JUMP JUMPDEST PUSH2 0xC61 JUMP JUMPDEST PUSH2 0xC58 JUMP JUMPDEST SWAP1 POP SWAP2 SWAP1 POP JUMP JUMPDEST PUSH0 DUP2 SWAP1 POP SWAP2 SWAP1 POP JUMP JUMPDEST PUSH2 0xC9D DUP4 PUSH2 0xC6A JUMP JUMPDEST PUSH2 0xCB1 PUSH2 0xCA9 DUP3 PUSH2 0xC8B JUMP JUMPDEST DUP5 DUP5 SLOAD PUSH2 0xC07 JUMP JUMPDEST DUP3 SSTORE POP POP POP POP JUMP JUMPDEST PUSH0 PUSH0 SWAP1 POP SWAP1 JUMP JUMPDEST PUSH2 0xCC8 PUSH2 0xCB9 JUMP JUMPDEST PUSH2 0xCD3 DUP2 DUP5 DUP5 PUSH2 0xC94 JUMP JUMPDEST POP POP POP JUMP JUMPDEST PUSH0 JUMPDEST DUP3 DUP2 LT ISZERO PUSH2 0xCF9 JUMPI PUSH2 0xCEE PUSH0 DUP3 DUP5 ADD PUSH2 0xCC0 JUMP JUMPDEST PUSH1 0x1 DUP2 ADD SWAP1 POP PUSH2 0xCDA JUMP JUMPDEST POP POP POP JUMP JUMPDEST PUSH1 0x1F DUP3 GT ISZERO PUSH2 0xD4C JUMPI DUP3 DUP3 GT ISZERO PUSH2 0xD4B JUMPI PUSH2 0xD18 DUP2 PUSH2 0xBDA JUMP JUMPDEST PUSH2 0xD21 DUP4 PUSH2 0xBEC JUMP JUMPDEST PUSH2 0xD2A DUP6 PUSH2 0xBEC JUMP JUMPDEST PUSH1 0x20 DUP7 LT ISZERO PUSH2 0xD37 JUMPI PUSH0 SWAP1 POP JUMPDEST DUP1 DUP4 ADD PUSH2 0xD46 DUP3 DUP5 SUB DUP3 PUSH2 0xCD8 JUMP JUMPDEST POP POP POP POP JUMPDEST JUMPDEST POP POP POP JUMP JUMPDEST PUSH0 DUP3 DUP3 SHR SWAP1 POP SWAP3 SWAP2 POP POP JUMP JUMPDEST PUSH0 PUSH2 0xD6C PUSH0 NOT DUP5 PUSH1 0x8 MUL PUSH2 0xD51 JUMP JUMPDEST NOT DUP1 DUP4 AND SWAP2 POP POP SWAP3 SWAP2 POP POP JUMP JUMPDEST PUSH0 PUSH2 0xD84 DUP4 DUP4 PUSH2 0xD5D JUMP JUMPDEST SWAP2 POP DUP3 PUSH1 0x2 MUL DUP3 OR SWAP1 POP SWAP3 SWAP2 POP POP JUMP JUMPDEST PUSH2 0xD9D DUP3 PUSH2 0xB46 JUMP JUMPDEST PUSH8 0xFFFFFFFFFFFFFFFF DUP2 GT ISZERO PUSH2 0xDB6 JUMPI PUSH2 0xDB5 PUSH2 0xB50 JUMP JUMPDEST JUMPDEST PUSH2 0xDC0 DUP3 SLOAD PUSH2 0xBAA JUMP JUMPDEST PUSH2 0xDCB DUP3 DUP3 DUP6 PUSH2 0xCFE JUMP JUMPDEST PUSH0 PUSH1 0x20 SWAP1 POP PUSH1 0x1F DUP4 GT PUSH1 0x1 DUP2 EQ PUSH2 0xDFC JUMPI PUSH0 DUP5 ISZERO PUSH2 0xDEA JUMPI DUP3 DUP8 ADD MLOAD SWAP1 POP JUMPDEST PUSH2 0xDF4 DUP6 DUP3 PUSH2 0xD79 JUMP JUMPDEST DUP7 SSTORE POP PUSH2 0xE5B JUMP JUMPDEST PUSH1 0x1F NOT DUP5 AND PUSH2 0xE0A DUP7 PUSH2 0xBDA JUMP JUMPDEST PUSH0 JUMPDEST DUP3 DUP2 LT ISZERO PUSH2 0xE31 JUMPI DUP5 DUP10 ADD MLOAD DUP3 SSTORE PUSH1 0x1 DUP3 ADD SWAP2 POP PUSH1 0x20 DUP6 ADD SWAP5 POP PUSH1 0x20 DUP2 ADD SWAP1 POP PUSH2 0xE0C JUMP JUMPDEST DUP7 DUP4 LT ISZERO PUSH2 0xE4E JUMPI DUP5 DUP10 ADD MLOAD PUSH2 0xE4A PUSH1 0x1F DUP10 AND DUP3 PUSH2 0xD5D JUMP JUMPDEST DUP4 SSTORE POP JUMPDEST PUSH1 0x1 PUSH1 0x2 DUP9 MUL ADD DUP9 SSTORE POP POP POP JUMPDEST POP POP POP POP POP POP JUMP JUMPDEST PUSH2 0x776 DUP1 PUSH2 0xE70 PUSH0 CODECOPY PUSH0 RETURN INVALID PUSH1 0x80 PUSH1 0x40 MSTORE CALLVALUE DUP1 ISZERO PUSH2 0xF JUMPI PUSH0 PUSH0 REVERT JUMPDEST POP PUSH1 0x4 CALLDATASIZE LT PUSH2 0x3F JUMPI PUSH0 CALLDATALOAD PUSH1 0xE0 SHR DUP1 PUSH4 0xCB6AAF1 EQ PUSH2 0x43 JUMPI DUP1 PUSH4 0x5A612F37 EQ PUSH2 0x73 JUMPI DUP1 PUSH4 0xAB7BAABE EQ PUSH2 0xA3 JUMPI JUMPDEST PUSH0 PUSH0 REVERT JUMPDEST PUSH2 0x5D PUSH1 0x4 DUP1 CALLDATASIZE SUB DUP2 ADD SWAP1 PUSH2 0x58 SWAP2 SWAP1 PUSH2 0x2CE JUMP JUMPDEST PUSH2 0xD3 JUMP JUMPDEST PUSH1 0x40 MLOAD PUSH2 0x6A SWAP2 SWAP1 PUSH2 0x369 JUMP JUMPDEST PUSH1 0x40 MLOAD DUP1 SWAP2 SUB SWAP1 RETURN JUMPDEST PUSH2 0x8D PUSH1 0x4 DUP1 CALLDATASIZE SUB DUP2 ADD SWAP1 PUSH2 0x88 SWAP2 SWAP1 PUSH2 0x4B5 JUMP JUMPDEST PUSH2 0x172 JUMP JUMPDEST PUSH1 0x40 MLOAD PUSH2 0x9A SWAP2 SWAP1 PUSH2 0x50B JUMP JUMPDEST PUSH1 0x40 MLOAD DUP1 SWAP2 SUB SWAP1 RETURN JUMPDEST PUSH2 0xBD PUSH1 0x4 DUP1 CALLDATASIZE SUB DUP2 ADD SWAP1 PUSH2 0xB8 SWAP2 SWAP1 PUSH2 0x2CE JUMP JUMPDEST PUSH2 0x19E JUMP JUMPDEST PUSH1 0x40 MLOAD PUSH2 0xCA SWAP2 SWAP1 PUSH2 0x369 JUMP JUMPDEST PUSH1 0x40 MLOAD DUP1 SWAP2 SUB SWAP1 RETURN JUMPDEST PUSH1 0x1 DUP2 PUSH1 0xD DUP2 LT PUSH2 0xE2 JUMPI PUSH0 DUP1 REVERT JUMPDEST ADD PUSH0 SWAP2 POP SWAP1 POP DUP1 SLOAD PUSH2 0xF3 SWAP1 PUSH2 0x551 JUMP JUMPDEST DUP1 PUSH1 0x1F ADD PUSH1 0x20 DUP1 SWAP2 DIV MUL PUSH1 0x20 ADD PUSH1 0x40 MLOAD SWAP1 DUP2 ADD PUSH1 0x40 MSTORE DUP1 SWAP3 SWAP2 SWAP1 DUP2 DUP2 MSTORE PUSH1 0x20 ADD DUP3 DUP1 SLOAD PUSH2 0x11F SWAP1 PUSH2 0x551 JUMP JUMPDEST DUP1 ISZERO PUSH2 0x16A JUMPI DUP1 PUSH1 0x1F LT PUSH2 0x141 JUMPI PUSH2 0x100 DUP1 DUP4 SLOAD DIV MUL DUP4 MSTORE SWAP2 PUSH1 0x20 ADD SWAP2 PUSH2 0x16A JUMP JUMPDEST DUP3 ADD SWAP2 SWAP1 PUSH0 MSTORE PUSH1 0x20 PUSH0 KECCAK256 SWAP1 JUMPDEST DUP2 SLOAD DUP2 MSTORE SWAP1 PUSH1 0x1 ADD SWAP1 PUSH1 0x20 ADD DUP1 DUP4 GT PUSH2 0x14D JUMPI DUP3 SWAP1 SUB PUSH1 0x1F AND DUP3 ADD SWAP2 JUMPDEST POP POP POP POP POP DUP2 JUMP JUMPDEST PUSH0 DUP2 DUP1 MLOAD PUSH1 0x20 DUP2 ADD DUP3 ADD DUP1 MLOAD DUP5 DUP3 MSTORE PUSH1 0x20 DUP4 ADD PUSH1 0x20 DUP6 ADD KECCAK256 DUP2 DUP4 MSTORE DUP1 SWAP6 POP POP POP POP POP POP PUSH0 SWAP2 POP SWAP1 POP SLOAD DUP2 JUMP JUMPDEST PUSH1 0x60 DUP1 PUSH0 PUSH0 SWAP1 POP JUMPDEST PUSH1 0xD DUP2 LT ISZERO PUSH2 0x280 JUMPI PUSH0 PUSH0 PUSH1 0x1 DUP4 PUSH1 0xD DUP2 LT PUSH2 0x1C5 JUMPI PUSH2 0x1C4 PUSH2 0x581 JUMP JUMPDEST JUMPDEST ADD PUSH1 0x40 MLOAD PUSH2 0x1D3 SWAP2 SWAP1 PUSH2 0x64A JUMP JUMPDEST SWAP1 DUP2 MSTORE PUSH1 0x20 ADD PUSH1 0x40 MLOAD DUP1 SWAP2 SUB SWAP1 KECCAK256 SLOAD SWAP1 POP PUSH0 DUP2 DUP7 PUSH2 0x1F1 SWAP2 SWAP1 PUSH2 0x68D JUMP JUMPDEST SWAP1 POP PUSH0 DUP3 DUP8 PUSH2 0x200 SWAP2 SWAP1 PUSH2 0x6BD JUMP JUMPDEST SWAP1 POP PUSH0 DUP3 GT ISZERO PUSH2 0x270 JUMPI PUSH0 PUSH0 SWAP1 POP JUMPDEST DUP3 DUP2 LT ISZERO PUSH2 0x25C JUMPI DUP6 PUSH1 0x1 DUP7 PUSH1 0xD DUP2 LT PUSH2 0x22C JUMPI PUSH2 0x22B PUSH2 0x581 JUMP JUMPDEST JUMPDEST ADD PUSH1 0x40 MLOAD PUSH1 0x20 ADD PUSH2 0x23E SWAP3 SWAP2 SWAP1 PUSH2 0x71D JUMP JUMPDEST PUSH1 0x40 MLOAD PUSH1 0x20 DUP2 DUP4 SUB SUB DUP2 MSTORE SWAP1 PUSH1 0x40 MSTORE SWAP6 POP DUP1 DUP1 PUSH1 0x1 ADD SWAP2 POP POP PUSH2 0x20F JUMP JUMPDEST POP PUSH0 DUP2 SUB PUSH2 0x26C JUMPI POP POP POP PUSH2 0x280 JUMP JUMPDEST DUP1 SWAP7 POP JUMPDEST POP POP POP DUP1 DUP1 PUSH1 0x1 ADD SWAP2 POP POP PUSH2 0x1A6 JUMP JUMPDEST POP DUP1 SWAP2 POP POP SWAP2 SWAP1 POP JUMP JUMPDEST PUSH0 PUSH1 0x40 MLOAD SWAP1 POP SWAP1 JUMP JUMPDEST PUSH0 PUSH0 REVERT JUMPDEST PUSH0 PUSH0 REVERT JUMPDEST PUSH0 DUP2 SWAP1 POP SWAP2 SWAP1 POP JUMP JUMPDEST PUSH2 0x2AD DUP2 PUSH2 0x29B JUMP JUMPDEST DUP2 EQ PUSH2 0x2B7 JUMPI PUSH0 PUSH0 REVERT JUMPDEST POP JUMP JUMPDEST PUSH0 DUP2 CALLDATALOAD SWAP1 POP PUSH2 0x2C8 DUP2 PUSH2 0x2A4 JUMP JUMPDEST SWAP3 SWAP2 POP POP JUMP JUMPDEST PUSH0 PUSH1 0x20 DUP3 DUP5 SUB SLT ISZERO PUSH2 0x2E3 JUMPI PUSH2 0x2E2 PUSH2 0x293 JUMP JUMPDEST JUMPDEST PUSH0 PUSH2 0x2F0 DUP5 DUP3 DUP6 ADD PUSH2 0x2BA JUMP JUMPDEST SWAP2 POP POP SWAP3 SWAP2 POP POP JUMP JUMPDEST PUSH0 DUP2 MLOAD SWAP1 POP SWAP2 SWAP1 POP JUMP JUMPDEST PUSH0 DUP3 DUP3 MSTORE PUSH1 0x20 DUP3 ADD SWAP1 POP SWAP3 SWAP2 POP POP JUMP JUMPDEST DUP3 DUP2 DUP4 MCOPY PUSH0 DUP4 DUP4 ADD MSTORE POP POP POP JUMP JUMPDEST PUSH0 PUSH1 0x1F NOT PUSH1 0x1F DUP4 ADD AND SWAP1 POP SWAP2 SWAP1 POP JUMP JUMPDEST PUSH0 PUSH2 0x33B DUP3 PUSH2 0x2F9 JUMP JUMPDEST PUSH2 0x345 DUP2 DUP6 PUSH2 0x303 JUMP JUMPDEST SWAP4 POP PUSH2 0x355 DUP2 DUP6 PUSH1 0x20 DUP7 ADD PUSH2 0x313 JUMP JUMPDEST PUSH2 0x35E DUP2 PUSH2 0x321 JUMP JUMPDEST DUP5 ADD SWAP2 POP POP SWAP3 SWAP2 POP POP JUMP JUMPDEST PUSH0 PUSH1 0x20 DUP3 ADD SWAP1 POP DUP2 DUP2 SUB PUSH0 DUP4 ADD MSTORE PUSH2 0x381 DUP2 DUP5 PUSH2 0x331 JUMP JUMPDEST SWAP1 POP SWAP3 SWAP2 POP POP JUMP JUMPDEST PUSH0 PUSH0 REVERT JUMPDEST PUSH0 PUSH0 REVERT JUMPDEST PUSH32 0x4E487B7100000000000000000000000000000000000000000000000000000000 PUSH0 MSTORE PUSH1 0x41 PUSH1 0x4 MSTORE PUSH1 0x24 PUSH0 REVERT JUMPDEST PUSH2 0x3C7 DUP3 PUSH2 0x321 JUMP JUMPDEST DUP2 ADD DUP2 DUP2 LT PUSH8 0xFFFFFFFFFFFFFFFF DUP3 GT OR ISZERO PUSH2 0x3E6 JUMPI PUSH2 0x3E5 PUSH2 0x391 JUMP JUMPDEST JUMPDEST DUP1 PUSH1 0x40 MSTORE POP POP POP JUMP JUMPDEST PUSH0 PUSH2 0x3F8 PUSH2 0x28A JUMP JUMPDEST SWAP1 POP PUSH2 0x404 DUP3 DUP3 PUSH2 0x3BE JUMP JUMPDEST SWAP2 SWAP1 POP JUMP JUMPDEST PUSH0 PUSH8 0xFFFFFFFFFFFFFFFF DUP3 GT ISZERO PUSH2 0x423 JUMPI PUSH2 0x422 PUSH2 0x391 JUMP JUMPDEST JUMPDEST PUSH2 0x42C DUP3 PUSH2 0x321 JUMP JUMPDEST SWAP1 POP PUSH1 0x20 DUP2 ADD SWAP1 POP SWAP2 SWAP1 POP JUMP JUMPDEST DUP3 DUP2 DUP4 CALLDATACOPY PUSH0 DUP4 DUP4 ADD MSTORE POP POP POP JUMP JUMPDEST PUSH0 PUSH2 0x459 PUSH2 0x454 DUP5 PUSH2 0x409 JUMP JUMPDEST PUSH2 0x3EF JUMP JUMPDEST SWAP1 POP DUP3 DUP2 MSTORE PUSH1 0x20 DUP2 ADD DUP5 DUP5 DUP5 ADD GT ISZERO PUSH2 0x475 JUMPI PUSH2 0x474 PUSH2 0x38D JUMP JUMPDEST JUMPDEST PUSH2 0x480 DUP5 DUP3 DUP6 PUSH2 0x439 JUMP JUMPDEST POP SWAP4 SWAP3 POP POP POP JUMP JUMPDEST PUSH0 DUP3 PUSH1 0x1F DUP4 ADD SLT PUSH2 0x49C JUMPI PUSH2 0x49B PUSH2 0x389 JUMP JUMPDEST JUMPDEST DUP2 CALLDATALOAD PUSH2 0x4AC DUP5 DUP3 PUSH1 0x20 DUP7 ADD PUSH2 0x447 JUMP JUMPDEST SWAP2 POP POP SWAP3 SWAP2 POP POP JUMP JUMPDEST PUSH0 PUSH1 0x20 DUP3 DUP5 SUB SLT ISZERO PUSH2 0x4CA JUMPI PUSH2 0x4C9 PUSH2 0x293 JUMP JUMPDEST JUMPDEST PUSH0 DUP3 ADD CALLDATALOAD PUSH8 0xFFFFFFFFFFFFFFFF DUP2 GT ISZERO PUSH2 0x4E7 JUMPI PUSH2 0x4E6 PUSH2 0x297 JUMP JUMPDEST JUMPDEST PUSH2 0x4F3 DUP5 DUP3 DUP6 ADD PUSH2 0x488 JUMP JUMPDEST SWAP2 POP POP SWAP3 SWAP2 POP POP JUMP JUMPDEST PUSH2 0x505 DUP2 PUSH2 0x29B JUMP JUMPDEST DUP3 MSTORE POP POP JUMP JUMPDEST PUSH0 PUSH1 0x20 DUP3 ADD SWAP1 POP PUSH2 0x51E PUSH0 DUP4 ADD DUP5 PUSH2 0x4FC JUMP JUMPDEST SWAP3 SWAP2 POP POP JUMP JUMPDEST PUSH32 0x4E487B7100000000000000000000000000000000000000000000000000000000 PUSH0 MSTORE PUSH1 0x22 PUSH1 0x4 MSTORE PUSH1 0x24 PUSH0 REVERT JUMPDEST PUSH0 PUSH1 0x2 DUP3 DIV SWAP1 POP PUSH1 0x1 DUP3 AND DUP1 PUSH2 0x568 JUMPI PUSH1 0x7F DUP3 AND SWAP2 POP JUMPDEST PUSH1 0x20 DUP3 LT DUP2 SUB PUSH2 0x57B JUMPI PUSH2 0x57A PUSH2 0x524 JUMP JUMPDEST JUMPDEST POP SWAP2 SWAP1 POP JUMP JUMPDEST PUSH32 0x4E487B7100000000000000000000000000000000000000000000000000000000 PUSH0 MSTORE PUSH1 0x32 PUSH1 0x4 MSTORE PUSH1 0x24 PUSH0 REVERT JUMPDEST PUSH0 DUP2 SWAP1 POP SWAP3 SWAP2 POP POP JUMP JUMPDEST PUSH0 DUP2 SWAP1 POP DUP2 PUSH0 MSTORE PUSH1 0x20 PUSH0 KECCAK256 SWAP1 POP SWAP2 SWAP1 POP JUMP JUMPDEST PUSH0 DUP2 SLOAD PUSH2 0x5D6 DUP2 PUSH2 0x551 JUMP JUMPDEST PUSH2 0x5E0 DUP2 DUP7 PUSH2 0x5AE JUMP JUMPDEST SWAP5 POP PUSH1 0x1 DUP3 AND PUSH0 DUP2 EQ PUSH2 0x5FA JUMPI PUSH1 0x1 DUP2 EQ PUSH2 0x60F JUMPI PUSH2 0x641 JUMP JUMPDEST PUSH1 0xFF NOT DUP4 AND DUP7 MSTORE DUP2 ISZERO ISZERO DUP3 MUL DUP7 ADD SWAP4 POP PUSH2 0x641 JUMP JUMPDEST PUSH2 0x618 DUP6 PUSH2 0x5B8 JUMP JUMPDEST PUSH0 JUMPDEST DUP4 DUP2 LT ISZERO PUSH2 0x639 JUMPI DUP2 SLOAD DUP2 DUP10 ADD MSTORE PUSH1 0x1 DUP3 ADD SWAP2 POP PUSH1 0x20 DUP2 ADD SWAP1 POP PUSH2 0x61A JUMP JUMPDEST DUP4 DUP9 ADD SWAP6 POP POP POP JUMPDEST POP POP POP SWAP3 SWAP2 POP POP JUMP JUMPDEST PUSH0 PUSH2 0x655 DUP3 DUP5 PUSH2 0x5CA JUMP JUMPDEST SWAP2 POP DUP2 SWAP1 POP SWAP3 SWAP2 POP POP JUMP JUMPDEST PUSH32 0x4E487B7100000000000000000000000000000000000000000000000000000000 PUSH0 MSTORE PUSH1 0x12 PUSH1 0x4 MSTORE PUSH1 0x24 PUSH0 REVERT JUMPDEST PUSH0 PUSH2 0x697 DUP3 PUSH2 0x29B JUMP JUMPDEST SWAP2 POP PUSH2 0x6A2 DUP4 PUSH2 0x29B JUMP JUMPDEST SWAP3 POP DUP3 PUSH2 0x6B2 JUMPI PUSH2 0x6B1 PUSH2 0x660 JUMP JUMPDEST JUMPDEST DUP3 DUP3 DIV SWAP1 POP SWAP3 SWAP2 POP POP JUMP JUMPDEST PUSH0 PUSH2 0x6C7 DUP3 PUSH2 0x29B JUMP JUMPDEST SWAP2 POP PUSH2 0x6D2 DUP4 PUSH2 0x29B JUMP JUMPDEST SWAP3 POP DUP3 PUSH2 0x6E2 JUMPI PUSH2 0x6E1 PUSH2 0x660 JUMP JUMPDEST JUMPDEST DUP3 DUP3 MOD SWAP1 POP SWAP3 SWAP2 POP POP JUMP JUMPDEST PUSH0 PUSH2 0x6F7 DUP3 PUSH2 0x2F9 JUMP JUMPDEST PUSH2 0x701 DUP2 DUP6 PUSH2 0x5AE JUMP JUMPDEST SWAP4 POP PUSH2 0x711 DUP2 DUP6 PUSH1 0x20 DUP7 ADD PUSH2 0x313 JUMP JUMPDEST DUP1 DUP5 ADD SWAP2 POP POP SWAP3 SWAP2 POP POP JUMP JUMPDEST PUSH0 PUSH2 0x728 DUP3 DUP6 PUSH2 0x6ED JUMP JUMPDEST SWAP2 POP PUSH2 0x734 DUP3 DUP5 PUSH2 0x5CA JUMP JUMPDEST SWAP2 POP DUP2 SWAP1 POP SWAP4 SWAP3 POP POP POP JUMP INVALID LOG2 PUSH5 0x6970667358 0x22 SLT KECCAK256 PUSH12 0xAE4D2AA73630614CE8F9C426 PUSH19 0x2E80A19021A9E71C305F49C959C42BFCF7D364 PUSH20 0x6F6C634300082200330000000000000000000000 "
				},
				"gasEstimates": {
					"creation": {
						"codeDepositCost": "382000",
						"executionCost": "infinite",
						"totalCost": "infinite"
					},
					"external": {
						"keys(uint256)": "infinite",
						"symbolvalue(string)": "infinite",
						"toRoman(uint256)": "infinite"
					}
				},
				"methodIdentifiers": {
					"keys(uint256)": "0cb6aaf1",
					"symbolvalue(string)": "5a612f37",
					"toRoman(uint256)": "ab7baabe"
				}
			},
			"storageLayout": {
				"storage": [
					{
						"astId": 5,
						"contract": "homework01/4/IntToRoman.sol:IntToRoman",
						"label": "symbolvalue",
						"offset": 0,
						"slot": "0",
						"type": "t_mapping(t_string_memory_ptr,t_uint256)"
					},
					{
						"astId": 9,
						"contract": "homework01/4/IntToRoman.sol:IntToRoman",
						"label": "keys",
						"offset": 0,
						"slot": "1",
						"type": "t_array(t_string_storage)13_storage"
					}
				],
				"types": {
					"t_array(t_string_storage)13_storage": {
						"base": "t_string_storage",
						"encoding": "inplace",
						"label": "string[13]",
						"numberOfBytes": "416"
					},
					"t_mapping(t_string_memory_ptr,t_uint256)": {
						"encoding": "mapping",
						"key": "t_string_memory_ptr",
						"label": "mapping(string => uint256)",
						"numberOfBytes": "32",
						"value": "t_uint256"
					},
					"t_string_memory_ptr": {
						"encoding": "bytes",
						"label": "string",
						"numberOfBytes": "32"
					},
					"t_string_storage": {
						"encoding": "bytes",
						"label": "string",
						"numberOfBytes": "32"
					},
					"t_uint256": {
						"encoding": "inplace",
						"label": "uint256",
						"numberOfBytes": "32"
					}
				}
			},
			"userdoc": {
				"kind": "user",
				"methods": {},
				"version": 1
			}
		}
	}
}