{
	"data": {
		"bytecode": {
			"linkReferences": {},
			"object": "6080604052348015600e575f5ffd5b506104978061001c5f395ff3fe608060405234801561000f575f5ffd5b5060043610610029575f3560e01c8063d43fc4711461002d575b5f5ffd5b610047600480360381019061004291906102c2565b61005d565b604051610054919061032b565b60405180910390f35b5f5f5f90505f845190505b80821015610102575f6002838361007f9190610371565b61008991906103d1565b836100949190610401565b9050848682815181106100aa576100a9610434565b5b6020026020010151036100c257809350505050610128565b848682815181106100d6576100d5610434565b5b602002602001015110156100f8576001816100f19190610401565b92506100fc565b8091505b50610068565b7fffffffffffffffffffffffffffffffffffffffffffffffffffffffffffffffff925050505b92915050565b5f604051905090565b5f5ffd5b5f5ffd5b5f5ffd5b5f601f19601f8301169050919050565b7f4e487b71000000000000000000000000000000000000000000000000000000005f52604160045260245ffd5b61018982610143565b810181811067ffffffffffffffff821117156101a8576101a7610153565b5b80604052505050565b5f6101ba61012e565b90506101c68282610180565b919050565b5f67ffffffffffffffff8211156101e5576101e4610153565b5b602082029050602081019050919050565b5f5ffd5b5f819050919050565b61020c816101fa565b8114610216575f5ffd5b50565b5f8135905061022781610203565b92915050565b5f61023f61023a846101cb565b6101b1565b90508083825260208201905060208402830185811115610262576102616101f6565b5b835b8181101561028b57806102778882610219565b845260208401935050602081019050610264565b5050509392505050565b5f82601f8301126102a9576102a861013f565b5b81356102b984826020860161022d565b91505092915050565b5f5f604083850312156102d8576102d7610137565b5b5f83013567ffffffffffffffff8111156102f5576102f461013b565b5b61030185828601610295565b925050602061031285828601610219565b9150509250929050565b610325816101fa565b82525050565b5f60208201905061033e5f83018461031c565b92915050565b7f4e487b71000000000000000000000000000000000000000000000000000000005f52601160045260245ffd5b5f61037b826101fa565b9150610386836101fa565b925082820390508181111561039e5761039d610344565b5b92915050565b7f4e487b71000000000000000000000000000000000000000000000000000000005f52601260045260245ffd5b5f6103db826101fa565b91506103e6836101fa565b9250826103f6576103f56103a4565b5b828204905092915050565b5f61040b826101fa565b9150610416836101fa565b925082820190508082111561042e5761042d610344565b5b92915050565b7f4e487b71000000000000000000000000000000000000000000000000000000005f52603260045260245ffdfea2646970667358221220b9c54e116f8db1f4dc17f45435b7336ff79415ebbc19dfb5204f91e0da75915f64736f6c63430008220033",
			"opcodes": "PUSH1 0x80 PUSH1 0x40 MSTORE CALLVALUE DUP1 ISZERO PUSH1 0xE JUMPI PUSH0 PUSH0 REVERT JUMPDEST POP PUSH2 0x497 DUP1 PUSH2 0x1C PUSH0 CODECOPY PUSH0 RETURN INVALID PUSH1 0x80 PUSH1 0x40 MSTORE CALLVALUE DUP1 ISZERO PUSH2 0xF JUMPI PUSH0 PUSH0 REVERT JUMPDEST POP PUSH1 0x4 CALLDATASIZE LT PUSH2 0x29 JUMPI PUSH0 CALLDATALOAD PUSH1 0xE0 SHR DUP1 PUSH4 0xD43FC471 EQ PUSH2 0x2D JUMPI JUMPDEST PUSH0 PUSH0 REVERT JUMPDEST PUSH2 0x47 PUSH1 0x4 DUP1 CALLDATASIZE SUB DUP2 ADD SWAP1 PUSH2 0x42 SWAP2 SWAP1 PUSH2 0x2C2 JUMP JUMPDEST PUSH2 0x5D JUMP JUMPDEST PUSH1 0x40 MLOAD PUSH2 0x54 SWAP2 SWAP1 PUSH2 0x32B JUMP JUMPDEST PUSH1 0x40 MLOAD DUP1 SWAP2 SUB SWAP1 RETURN JUMPDEST PUSH0 PUSH0 PUSH0 SWAP1 POP PUSH0 DUP5 MLOAD SWAP1 POP JUMPDEST DUP1 DUP3 LT ISZERO PUSH2 0x102 JUMPI PUSH0 PUSH1 0x2 DUP4 DUP4 PUSH2 0x7F SWAP2 SWAP1 PUSH2 0x371 JUMP JUMPDEST PUSH2 0x89 SWAP2 SWAP1 PUSH2 0x3D1 JUMP JUMPDEST DUP4 PUSH2 0x94 SWAP2 SWAP1 PUSH2 0x401 JUMP JUMPDEST SWAP1 POP DUP5 DUP7 DUP3 DUP2 MLOAD DUP2 LT PUSH2 0xAA JUMPI PUSH2 0xA9 PUSH2 0x434 JUMP JUMPDEST JUMPDEST PUSH1 0x20 MUL PUSH1 0x20 ADD ADD MLOAD SUB PUSH2 0xC2 JUMPI DUP1 SWAP4 POP POP POP POP PUSH2 0x128 JUMP JUMPDEST DUP5 DUP7 DUP3 DUP2 MLOAD DUP2 LT PUSH2 0xD6 JUMPI PUSH2 0xD5 PUSH2 0x434 JUMP JUMPDEST JUMPDEST PUSH1 0x20 MUL PUSH1 0x20 ADD ADD MLOAD LT ISZERO PUSH2 0xF8 JUMPI PUSH1 0x1 DUP2 PUSH2 0xF1 SWAP2 SWAP1 PUSH2 0x401 JUMP JUMPDEST SWAP3 POP PUSH2 0xFC JUMP JUMPDEST DUP1 SWAP2 POP JUMPDEST POP PUSH2 0x68 JUMP JUMPDEST PUSH32 0xFFFFFFFFFFFFFFFFFFFFFFFFFFFFFFFFFFFFFFFFFFFFFFFFFFFFFFFFFFFFFFFF SWAP3 POP POP POP JUMPDEST SWAP3 SWAP2 POP POP JUMP JUMPDEST PUSH0 PUSH1 0x40 MLOAD SWAP1 POP SWAP1 JUMP JUMPDEST PUSH0 PUSH0 REVERT JUMPDEST PUSH0 PUSH0 REVERT JUMPDEST PUSH0 PUSH0 REVERT JUMPDEST PUSH0 PUSH1 0x1F NOT PUSH1 0x1F DUP4 ADD AND SWAP1 POP SWAP2 SWAP1 POP JUMP JUMPDEST PUSH32 0x4E487B7100000000000000000000000000000000000000000000000000000000 PUSH0 MSTORE PUSH1 0x41 PUSH1 0x4 MSTORE PUSH1 0x24 PUSH0 REVERT JUMPDEST PUSH2 0x189 DUP3 PUSH2 0x143 JUMP JUMPDEST DUP2 ADD DUP2 DUP2 LT PUSH8 0xFFFFFFFFFFFFFFFF DUP3 GT OR ISZERO PUSH2 0x1A8 JUMPI PUSH2 0x1A7 PUSH2 0x153 JUMP JUMPDEST JUMPDEST DUP1 PUSH1 0x40 MSTORE POP POP POP JUMP JUMPDEST PUSH0 PUSH2 0x1BA PUSH2 0x12E JUMP JUMPDEST SWAP1 POP PUSH2 0x1C6 DUP3 DUP3 PUSH2 0x180 JUMP JUMPDEST SWAP2 SWAP1 POP JUMP JUMPDEST PUSH0 PUSH8 0xFFFFFFFFFFFFFFFF DUP3 GT ISZERO PUSH2 0x1E5 JUMPI PUSH2 0x1E4 PUSH2 0x153 JUMP JUMPDEST JUMPDEST PUSH1 0x20 DUP3 MUL SWAP1 POP PUSH1 0x20 DUP2 ADD SWAP1 POP SWAP2 SWAP1 POP JUMP JUMPDEST PUSH0 PUSH0 REVERT JUMPDEST PUSH0 DUP2 SWAP1 POP SWAP2 SWAP1 POP JUMP JUMPDEST PUSH2 0x20C DUP2 PUSH2 0x1FA JUMP JUMPDEST DUP2 EQ PUSH2 0x216 JUMPI PUSH0 PUSH0 REVERT JUMPDEST POP JUMP JUMPDEST PUSH0 DUP2 CALLDATALOAD SWAP1 POP PUSH2 0x227 DUP2 PUSH2 0x203 JUMP JUMPDEST SWAP3 SWAP2 POP POP JUMP JUMPDEST PUSH0 PUSH2 0x23F PUSH2 0x23A DUP5 PUSH2 0x1CB JUMP JUMPDEST PUSH2 0x1B1 JUMP JUMPDEST SWAP1 POP DUP1 DUP4 DUP3 MSTORE PUSH1 0x20 DUP3 ADD SWAP1 POP PUSH1 0x20 DUP5 MUL DUP4 ADD DUP6 DUP2 GT ISZERO PUSH2 0x262 JUMPI PUSH2 0x261 PUSH2 0x1F6 JUMP JUMPDEST JUMPDEST DUP4 JUMPDEST DUP2 DUP2 LT ISZERO PUSH2 0x28B JUMPI DUP1 PUSH2 0x277 DUP9 DUP3 PUSH2 0x219 JUMP JUMPDEST DUP5 MSTORE PUSH1 0x20 DUP5 ADD SWAP4 POP POP PUSH1 0x20 DUP2 ADD SWAP1 POP PUSH2 0x264 JUMP JUMPDEST POP POP POP SWAP4 SWAP3 POP POP POP JUMP JUMPDEST PUSH0 DUP3 PUSH1 0x1F DUP4 ADD SLT PUSH2 0x2A9 JUMPI PUSH2 0x2A8 PUSH2 0x13F JUMP JUMPDEST JUMPDEST DUP2 CALLDATALOAD PUSH2 0x2B9 DUP5 DUP3 PUSH1 0x20 DUP7 ADD PUSH2 0x22D JUMP JUMPDEST SWAP2 POP POP SWAP3 SWAP2 POP POP JUMP JUMPDEST PUSH0 PUSH0 PUSH1 0x40 DUP4 DUP6 SUB SLT ISZERO PUSH2 0x2D8 JUMPI PUSH2 0x2D7 PUSH2 0x137 JUMP JUMPDEST JUMPDEST PUSH0 DUP4 ADD CALLDATALOAD PUSH8 0xFFFFFFFFFFFFFFFF DUP2 GT ISZERO PUSH2 0x2F5 JUMPI PUSH2 0x2F4 PUSH2 0x13B JUMP JUMPDEST JUMPDEST PUSH2 0x301 DUP6 DUP3 DUP7 ADD PUSH2 0x295 JUMP JUMPDEST SWAP3 POP POP PUSH1 0x20 PUSH2 0x312 DUP6 DUP3 DUP7 ADD PUSH2 0x219 JUMP JUMPDEST SWAP2 POP POP SWAP3 POP SWAP3 SWAP1 POP JUMP JUMPDEST PUSH2 0x325 DUP2 PUSH2 0x1FA JUMP JUMPDEST DUP3 MSTORE POP POP JUMP JUMPDEST PUSH0 PUSH1 0x20 DUP3 ADD SWAP1 POP PUSH2 0x33E PUSH0 DUP4 ADD DUP5 PUSH2 0x31C JUMP JUMPDEST SWAP3 SWAP2 POP POP JUMP JUMPDEST PUSH32 0x4E487B7100000000000000000000000000000000000000000000000000000000 PUSH0 MSTORE PUSH1 0x11 PUSH1 0x4 MSTORE PUSH1 0x24 PUSH0 REVERT JUMPDEST PUSH0 PUSH2 0x37B DUP3 PUSH2 0x1FA JUMP JUMPDEST SWAP2 POP PUSH2 0x386 DUP4 PUSH2 0x1FA JUMP JUMPDEST SWAP3 POP DUP3 DUP3 SUB SWAP1 POP DUP2 DUP2 GT ISZERO PUSH2 0x39E JUMPI PUSH2 0x39D PUSH2 0x344 JUMP JUMPDEST JUMPDEST SWAP3 SWAP2 POP POP JUMP JUMPDEST PUSH32 0x4E487B7100000000000000000000000000000000000000000000000000000000 PUSH0 MSTORE PUSH1 0x12 PUSH1 0x4 MSTORE PUSH1 0x24 PUSH0 REVERT JUMPDEST PUSH0 PUSH2 0x3DB DUP3 PUSH2 0x1FA JUMP JUMPDEST SWAP2 POP PUSH2 0x3E6 DUP4 PUSH2 0x1FA JUMP JUMPDEST SWAP3 POP DUP3 PUSH2 0x3F6 JUMPI PUSH2 0x3F5 PUSH2 0x3A4 JUMP JUMPDEST JUMPDEST DUP3 DUP3 DIV SWAP1 POP SWAP3 SWAP2 POP POP JUMP JUMPDEST PUSH0 PUSH2 0x40B DUP3 PUSH2 0x1FA JUMP JUMPDEST SWAP2 POP PUSH2 0x416 DUP4 PUSH2 0x1FA JUMP JUMPDEST SWAP3 POP DUP3 DUP3 ADD SWAP1 POP DUP1 DUP3 GT ISZERO PUSH2 0x42E JUMPI PUSH2 0x42D PUSH2 0x344 JUMP JUMPDEST JUMPDEST SWAP3 SWAP2 POP POP JUMP JUMPDEST PUSH32 0x4E487B7100000000000000000000000000000000000000000000000000000000 PUSH0 MSTORE PUSH1 0x32 PUSH1 0x4 MSTORE PUSH1 0x24 PUSH0 REVERT INVALID LOG2 PUSH5 0x6970667358 0x22 SLT KECCAK256 0xB9 0xC5 0x4E GT PUSH16 0x8DB1F4DC17F45435B7336FF79415EBBC NOT 0xDF 0xB5 KECCAK256 0x4F SWAP2 RJUMP 0xDA75 SWAP2 PUSH0 PUSH5 0x736F6C6343 STOP ADDMOD 0x22 STOP CALLER "
		},
		"gasEstimates": {
			"creation": {
				"codeDepositCost": "235000",
				"executionCost": "273",
				"totalCost": "235273"
			},
			"external": {
				"search(uint256[],uint256)": "infinite"
			}
		},
		"methodIdentifiers": {
			"search(uint256[],uint256)": "d43fc471"
		}
	},
	"abi": [
		{
			"inputs": [
				{
					"internalType": "uint256[]",
					"name": "arr",
					"type": "uint256[]"
				},
				{
					"internalType": "uint256",
					"name": "target",
					"type": "uint256"
				}
			],
			"name": "search",
			"outputs": [
				{
					"internalType": "uint256",
					"name": "",
					"type": "uint256"
				}
			],
			"stateMutability": "pure",
			"type": "function"
		}
	]
}