{
	"data": {
		"bytecode": {
			"linkReferences": {},
			"object": "6080604052348015600e575f5ffd5b506108f88061001c5f395ff3fe608060405234801561000f575f5ffd5b5060043610610034575f3560e01c80633ccb569e146100385780638cee4cad14610068575b5f5ffd5b610052600480360381019061004d91906106a1565b610098565b60405161005f91906107ce565b60405180910390f35b610082600480360381019061007d91906106a1565b6102d7565b60405161008f91906107ce565b60405180910390f35b60605f835190505f835190505f81836100b1919061081b565b67ffffffffffffffff8111156100ca576100c9610532565b5b6040519080825280602002602001820160405280156100f85781602001602082028036833780820191505090505b5090505f5f90505f5f90505f5f90505b858310801561011657508482105b156102005787828151811061012e5761012d61084e565b5b60200260200101518984815181106101495761014861084e565b5b602002602001015110156101a45788838151811061016a5761016961084e565b5b60200260200101518482815181106101855761018461084e565b5b602002602001018181525050828061019c9061087b565b9350506101ed565b8782815181106101b7576101b661084e565b5b60200260200101518482815181106101d2576101d161084e565b5b60200260200101818152505081806101e99061087b565b9250505b80806101f89061087b565b915050610108565b5b858310156102645788838151811061021c5761021b61084e565b5b60200260200101518482815181106102375761023661084e565b5b602002602001018181525050828061024e9061087b565b935050808061025c9061087b565b915050610201565b5b848210156102c8578782815181106102805761027f61084e565b5b602002602001015184828151811061029b5761029a61084e565b5b60200260200101818152505081806102b29061087b565b92505080806102c09061087b565b915050610265565b83965050505050505092915050565b60605f835190505f835190505f81836102f0919061081b565b67ffffffffffffffff81111561030957610308610532565b5b6040519080825280602002602001820160405280156103375781602001602082028036833780820191505090505b5090505f5f90505f5f90505f5f90505b85831480156103565750848214155b156103a85787828151811061036e5761036d61084e565b5b60200260200101518482815181106103895761038861084e565b5b60200260200101818152505081806103a09061087b565b9250506104dd565b8583141580156103b757508482145b15610409578883815181106103cf576103ce61084e565b5b60200260200101518482815181106103ea576103e961084e565b5b60200260200101818152505082806104019061087b565b9350506104dc565b87828151811061041c5761041b61084e565b5b60200260200101518984815181106104375761043661084e565b5b60200260200101511015610492578883815181106104585761045761084e565b5b60200260200101518482815181106104735761047261084e565b5b602002602001018181525050828061048a9061087b565b9350506104db565b8782815181106104a5576104a461084e565b5b60200260200101518482815181106104c0576104bf61084e565b5b60200260200101818152505081806104d79061087b565b9250505b5b5b80806104e89061087b565b91505085831480156104f957508482145b156103475783965050505050505092915050565b5f604051905090565b5f5ffd5b5f5ffd5b5f5ffd5b5f601f19601f8301169050919050565b7f4e487b71000000000000000000000000000000000000000000000000000000005f52604160045260245ffd5b61056882610522565b810181811067ffffffffffffffff8211171561058757610586610532565b5b80604052505050565b5f61059961050d565b90506105a5828261055f565b919050565b5f67ffffffffffffffff8211156105c4576105c3610532565b5b602082029050602081019050919050565b5f5ffd5b5f819050919050565b6105eb816105d9565b81146105f5575f5ffd5b50565b5f81359050610606816105e2565b92915050565b5f61061e610619846105aa565b610590565b90508083825260208201905060208402830185811115610641576106406105d5565b5b835b8181101561066a578061065688826105f8565b845260208401935050602081019050610643565b5050509392505050565b5f82601f8301126106885761068761051e565b5b813561069884826020860161060c565b91505092915050565b5f5f604083850312156106b7576106b6610516565b5b5f83013567ffffffffffffffff8111156106d4576106d361051a565b5b6106e085828601610674565b925050602083013567ffffffffffffffff8111156107015761070061051a565b5b61070d85828601610674565b9150509250929050565b5f81519050919050565b5f82825260208201905092915050565b5f819050602082019050919050565b610749816105d9565b82525050565b5f61075a8383610740565b60208301905092915050565b5f602082019050919050565b5f61077c82610717565b6107868185610721565b935061079183610731565b805f5b838110156107c15781516107a8888261074f565b97506107b383610766565b925050600181019050610794565b5085935050505092915050565b5f6020820190508181035f8301526107e68184610772565b905092915050565b7f4e487b71000000000000000000000000000000000000000000000000000000005f52601160045260245ffd5b5f610825826105d9565b9150610830836105d9565b9250828201905080821115610848576108476107ee565b5b92915050565b7f4e487b71000000000000000000000000000000000000000000000000000000005f52603260045260245ffd5b5f610885826105d9565b91507fffffffffffffffffffffffffffffffffffffffffffffffffffffffffffffffff82036108b7576108b66107ee565b5b60018201905091905056fea26469706673582212207790b0eacdee73d1ca569f4c2c9bd84f9e15d046b47b8dcf8fa6be2de13ca21764736f6c63430008220033",
			"opcodes": "PUSH1 0x80 PUSH1 0x40 MSTORE CALLVALUE DUP1 ISZERO PUSH1 0xE JUMPI PUSH0 PUSH0 REVERT JUMPDEST POP PUSH2 0x8F8 DUP1 PUSH2 0x1C PUSH0 CODECOPY PUSH0 RETURN INVALID PUSH1 0x80 PUSH1 0x40 MSTORE CALLVALUE DUP1 ISZERO PUSH2 0xF JUMPI PUSH0 PUSH0 REVERT JUMPDEST POP PUSH1 0x4 CALLDATASIZE LT PUSH2 0x34 JUMPI PUSH0 CALLDATALOAD PUSH1 0xE0 SHR DUP1 PUSH4 0x3CCB569E EQ PUSH2 0x38 JUMPI DUP1 PUSH4 0x8CEE4CAD EQ PUSH2 0x68 JUMPI JUMPDEST PUSH0 PUSH0 REVERT JUMPDEST PUSH2 0x52 PUSH1 0x4 DUP1 CALLDATASIZE SUB DUP2 ADD SWAP1 PUSH2 0x4D SWAP2 SWAP1 PUSH2 0x6A1 JUMP JUMPDEST PUSH2 0x98 JUMP JUMPDEST PUSH1 0x40 MLOAD PUSH2 0x5F SWAP2 SWAP1 PUSH2 0x7CE JUMP JUMPDEST PUSH1 0x40 MLOAD DUP1 SWAP2 SUB SWAP1 RETURN JUMPDEST PUSH2 0x82 PUSH1 0x4 DUP1 CALLDATASIZE SUB DUP2 ADD SWAP1 PUSH2 0x7D SWAP2 SWAP1 PUSH2 0x6A1 JUMP JUMPDEST PUSH2 0x2D7 JUMP JUMPDEST PUSH1 0x40 MLOAD PUSH2 0x8F SWAP2 SWAP1 PUSH2 0x7CE JUMP JUMPDEST PUSH1 0x40 MLOAD DUP1 SWAP2 SUB SWAP1 RETURN JUMPDEST PUSH1 0x60 PUSH0 DUP4 MLOAD SWAP1 POP PUSH0 DUP4 MLOAD SWAP1 POP PUSH0 DUP2 DUP4 PUSH2 0xB1 SWAP2 SWAP1 PUSH2 0x81B JUMP JUMPDEST PUSH8 0xFFFFFFFFFFFFFFFF DUP2 GT ISZERO PUSH2 0xCA JUMPI PUSH2 0xC9 PUSH2 0x532 JUMP JUMPDEST JUMPDEST PUSH1 0x40 MLOAD SWAP1 DUP1 DUP3 MSTORE DUP1 PUSH1 0x20 MUL PUSH1 0x20 ADD DUP3 ADD PUSH1 0x40 MSTORE DUP1 ISZERO PUSH2 0xF8 JUMPI DUP2 PUSH1 0x20 ADD PUSH1 0x20 DUP3 MUL DUP1 CALLDATASIZE DUP4 CALLDATACOPY DUP1 DUP3 ADD SWAP2 POP POP SWAP1 POP JUMPDEST POP SWAP1 POP PUSH0 PUSH0 SWAP1 POP PUSH0 PUSH0 SWAP1 POP PUSH0 PUSH0 SWAP1 POP JUMPDEST DUP6 DUP4 LT DUP1 ISZERO PUSH2 0x116 JUMPI POP DUP5 DUP3 LT JUMPDEST ISZERO PUSH2 0x200 JUMPI DUP8 DUP3 DUP2 MLOAD DUP2 LT PUSH2 0x12E JUMPI PUSH2 0x12D PUSH2 0x84E JUMP JUMPDEST JUMPDEST PUSH1 0x20 MUL PUSH1 0x20 ADD ADD MLOAD DUP10 DUP5 DUP2 MLOAD DUP2 LT PUSH2 0x149 JUMPI PUSH2 0x148 PUSH2 0x84E JUMP JUMPDEST JUMPDEST PUSH1 0x20 MUL PUSH1 0x20 ADD ADD MLOAD LT ISZERO PUSH2 0x1A4 JUMPI DUP9 DUP4 DUP2 MLOAD DUP2 LT PUSH2 0x16A JUMPI PUSH2 0x169 PUSH2 0x84E JUMP JUMPDEST JUMPDEST PUSH1 0x20 MUL PUSH1 0x20 ADD ADD MLOAD DUP5 DUP3 DUP2 MLOAD DUP2 LT PUSH2 0x185 JUMPI PUSH2 0x184 PUSH2 0x84E JUMP JUMPDEST JUMPDEST PUSH1 0x20 MUL PUSH1 0x20 ADD ADD DUP2 DUP2 MSTORE POP POP DUP3 DUP1 PUSH2 0x19C SWAP1 PUSH2 0x87B JUMP JUMPDEST SWAP4 POP POP PUSH2 0x1ED JUMP JUMPDEST DUP8 DUP3 DUP2 MLOAD DUP2 LT PUSH2 0x1B7 JUMPI PUSH2 0x1B6 PUSH2 0x84E JUMP JUMPDEST JUMPDEST PUSH1 0x20 MUL PUSH1 0x20 ADD ADD MLOAD DUP5 DUP3 DUP2 MLOAD DUP2 LT PUSH2 0x1D2 JUMPI PUSH2 0x1D1 PUSH2 0x84E JUMP JUMPDEST JUMPDEST PUSH1 0x20 MUL PUSH1 0x20 ADD ADD DUP2 DUP2 MSTORE POP POP DUP2 DUP1 PUSH2 0x1E9 SWAP1 PUSH2 0x87B JUMP JUMPDEST SWAP3 POP POP JUMPDEST DUP1 DUP1 PUSH2 0x1F8 SWAP1 PUSH2 0x87B JUMP JUMPDEST SWAP2 POP POP PUSH2 0x108 JUMP JUMPDEST JUMPDEST DUP6 DUP4 LT ISZERO PUSH2 0x264 JUMPI DUP9 DUP4 DUP2 MLOAD DUP2 LT PUSH2 0x21C JUMPI PUSH2 0x21B PUSH2 0x84E JUMP JUMPDEST JUMPDEST PUSH1 0x20 MUL PUSH1 0x20 ADD ADD MLOAD DUP5 DUP3 DUP2 MLOAD DUP2 LT PUSH2 0x237 JUMPI PUSH2 0x236 PUSH2 0x84E JUMP JUMPDEST JUMPDEST PUSH1 0x20 MUL PUSH1 0x20 ADD ADD DUP2 DUP2 MSTORE POP POP DUP3 DUP1 PUSH2 0x24E SWAP1 PUSH2 0x87B JUMP JUMPDEST SWAP4 POP POP DUP1 DUP1 PUSH2 0x25C SWAP1 PUSH2 0x87B JUMP JUMPDEST SWAP2 POP POP PUSH2 0x201 JUMP JUMPDEST JUMPDEST DUP5 DUP3 LT ISZERO PUSH2 0x2C8 JUMPI DUP8 DUP3 DUP2 MLOAD DUP2 LT PUSH2 0x280 JUMPI PUSH2 0x27F PUSH2 0x84E JUMP JUMPDEST JUMPDEST PUSH1 0x20 MUL PUSH1 0x20 ADD ADD MLOAD DUP5 DUP3 DUP2 MLOAD DUP2 LT PUSH2 0x29B JUMPI PUSH2 0x29A PUSH2 0x84E JUMP JUMPDEST JUMPDEST PUSH1 0x20 MUL PUSH1 0x20 ADD ADD DUP2 DUP2 MSTORE POP POP DUP2 DUP1 PUSH2 0x2B2 SWAP1 PUSH2 0x87B JUMP JUMPDEST SWAP3 POP POP DUP1 DUP1 PUSH2 0x2C0 SWAP1 PUSH2 0x87B JUMP JUMPDEST SWAP2 POP POP PUSH2 0x265 JUMP JUMPDEST DUP4 SWAP7 POP POP POP POP POP POP POP SWAP3 SWAP2 POP POP JUMP JUMPDEST PUSH1 0x60 PUSH0 DUP4 MLOAD SWAP1 POP PUSH0 DUP4 MLOAD SWAP1 POP PUSH0 DUP2 DUP4 PUSH2 0x2F0 SWAP2 SWAP1 PUSH2 0x81B JUMP JUMPDEST PUSH8 0xFFFFFFFFFFFFFFFF DUP2 GT ISZERO PUSH2 0x309 JUMPI PUSH2 0x308 PUSH2 0x532 JUMP JUMPDEST JUMPDEST PUSH1 0x40 MLOAD SWAP1 DUP1 DUP3 MSTORE DUP1 PUSH1 0x20 MUL PUSH1 0x20 ADD DUP3 ADD PUSH1 0x40 MSTORE DUP1 ISZERO PUSH2 0x337 JUMPI DUP2 PUSH1 0x20 ADD PUSH1 0x20 DUP3 MUL DUP1 CALLDATASIZE DUP4 CALLDATACOPY DUP1 DUP3 ADD SWAP2 POP POP SWAP1 POP JUMPDEST POP SWAP1 POP PUSH0 PUSH0 SWAP1 POP PUSH0 PUSH0 SWAP1 POP PUSH0 PUSH0 SWAP1 POP JUMPDEST DUP6 DUP4 EQ DUP1 ISZERO PUSH2 0x356 JUMPI POP DUP5 DUP3 EQ ISZERO JUMPDEST ISZERO PUSH2 0x3A8 JUMPI DUP8 DUP3 DUP2 MLOAD DUP2 LT PUSH2 0x36E JUMPI PUSH2 0x36D PUSH2 0x84E JUMP JUMPDEST JUMPDEST PUSH1 0x20 MUL PUSH1 0x20 ADD ADD MLOAD DUP5 DUP3 DUP2 MLOAD DUP2 LT PUSH2 0x389 JUMPI PUSH2 0x388 PUSH2 0x84E JUMP JUMPDEST JUMPDEST PUSH1 0x20 MUL PUSH1 0x20 ADD ADD DUP2 DUP2 MSTORE POP POP DUP2 DUP1 PUSH2 0x3A0 SWAP1 PUSH2 0x87B JUMP JUMPDEST SWAP3 POP POP PUSH2 0x4DD JUMP JUMPDEST DUP6 DUP4 EQ ISZERO DUP1 ISZERO PUSH2 0x3B7 JUMPI POP DUP5 DUP3 EQ JUMPDEST ISZERO PUSH2 0x409 JUMPI DUP9 DUP4 DUP2 MLOAD DUP2 LT PUSH2 0x3CF JUMPI PUSH2 0x3CE PUSH2 0x84E JUMP JUMPDEST JUMPDEST PUSH1 0x20 MUL PUSH1 0x20 ADD ADD MLOAD DUP5 DUP3 DUP2 MLOAD DUP2 LT PUSH2 0x3EA JUMPI PUSH2 0x3E9 PUSH2 0x84E JUMP JUMPDEST JUMPDEST PUSH1 0x20 MUL PUSH1 0x20 ADD ADD DUP2 DUP2 MSTORE POP POP DUP3 DUP1 PUSH2 0x401 SWAP1 PUSH2 0x87B JUMP JUMPDEST SWAP4 POP POP PUSH2 0x4DC JUMP JUMPDEST DUP8 DUP3 DUP2 MLOAD DUP2 LT PUSH2 0x41C JUMPI PUSH2 0x41B PUSH2 0x84E JUMP JUMPDEST JUMPDEST PUSH1 0x20 MUL PUSH1 0x20 ADD ADD MLOAD DUP10 DUP5 DUP2 MLOAD DUP2 LT PUSH2 0x437 JUMPI PUSH2 0x436 PUSH2 0x84E JUMP JUMPDEST JUMPDEST PUSH1 0x20 MUL PUSH1 0x20 ADD ADD MLOAD LT ISZERO PUSH2 0x492 JUMPI DUP9 DUP4 DUP2 MLOAD DUP2 LT PUSH2 0x458 JUMPI PUSH2 0x457 PUSH2 0x84E JUMP JUMPDEST JUMPDEST PUSH1 0x20 MUL PUSH1 0x20 ADD ADD MLOAD DUP5 DUP3 DUP2 MLOAD DUP2 LT PUSH2 0x473 JUMPI PUSH2 0x472 PUSH2 0x84E JUMP JUMPDEST JUMPDEST PUSH1 0x20 MUL PUSH1 0x20 ADD ADD DUP2 DUP2 MSTORE POP POP DUP3 DUP1 PUSH2 0x48A SWAP1 PUSH2 0x87B JUMP JUMPDEST SWAP4 POP POP PUSH2 0x4DB JUMP JUMPDEST DUP8 DUP3 DUP2 MLOAD DUP2 LT PUSH2 0x4A5 JUMPI PUSH2 0x4A4 PUSH2 0x84E JUMP JUMPDEST JUMPDEST PUSH1 0x20 MUL PUSH1 0x20 ADD ADD MLOAD DUP5 DUP3 DUP2 MLOAD DUP2 LT PUSH2 0x4C0 JUMPI PUSH2 0x4BF PUSH2 0x84E JUMP JUMPDEST JUMPDEST PUSH1 0x20 MUL PUSH1 0x20 ADD ADD DUP2 DUP2 MSTORE POP POP DUP2 DUP1 PUSH2 0x4D7 SWAP1 PUSH2 0x87B JUMP JUMPDEST SWAP3 POP POP JUMPDEST JUMPDEST JUMPDEST DUP1 DUP1 PUSH2 0x4E8 SWAP1 PUSH2 0x87B JUMP JUMPDEST SWAP2 POP POP DUP6 DUP4 EQ DUP1 ISZERO PUSH2 0x4F9 JUMPI POP DUP5 DUP3 EQ JUMPDEST ISZERO PUSH2 0x347 JUMPI DUP4 SWAP7 POP POP POP POP POP POP POP SWAP3 SWAP2 POP POP JUMP JUMPDEST PUSH0 PUSH1 0x40 MLOAD SWAP1 POP SWAP1 JUMP JUMPDEST PUSH0 PUSH0 REVERT JUMPDEST PUSH0 PUSH0 REVERT JUMPDEST PUSH0 PUSH0 REVERT JUMPDEST PUSH0 PUSH1 0x1F NOT PUSH1 0x1F DUP4 ADD AND SWAP1 POP SWAP2 SWAP1 POP JUMP JUMPDEST PUSH32 0x4E487B7100000000000000000000000000000000000000000000000000000000 PUSH0 MSTORE PUSH1 0x41 PUSH1 0x4 MSTORE PUSH1 0x24 PUSH0 REVERT JUMPDEST PUSH2 0x568 DUP3 PUSH2 0x522 JUMP JUMPDEST DUP2 ADD DUP2 DUP2 LT PUSH8 0xFFFFFFFFFFFFFFFF DUP3 GT OR ISZERO PUSH2 0x587 JUMPI PUSH2 0x586 PUSH2 0x532 JUMP JUMPDEST JUMPDEST DUP1 PUSH1 0x40 MSTORE POP POP POP JUMP JUMPDEST PUSH0 PUSH2 0x599 PUSH2 0x50D JUMP JUMPDEST SWAP1 POP PUSH2 0x5A5 DUP3 DUP3 PUSH2 0x55F JUMP JUMPDEST SWAP2 SWAP1 POP JUMP JUMPDEST PUSH0 PUSH8 0xFFFFFFFFFFFFFFFF DUP3 GT ISZERO PUSH2 0x5C4 JUMPI PUSH2 0x5C3 PUSH2 0x532 JUMP JUMPDEST JUMPDEST PUSH1 0x20 DUP3 MUL SWAP1 POP PUSH1 0x20 DUP2 ADD SWAP1 POP SWAP2 SWAP1 POP JUMP JUMPDEST PUSH0 PUSH0 REVERT JUMPDEST PUSH0 DUP2 SWAP1 POP SWAP2 SWAP1 POP JUMP JUMPDEST PUSH2 0x5EB DUP2 PUSH2 0x5D9 JUMP JUMPDEST DUP2 EQ PUSH2 0x5F5 JUMPI PUSH0 PUSH0 REVERT JUMPDEST POP JUMP JUMPDEST PUSH0 DUP2 CALLDATALOAD SWAP1 POP PUSH2 0x606 DUP2 PUSH2 0x5E2 JUMP JUMPDEST SWAP3 SWAP2 POP POP JUMP JUMPDEST PUSH0 PUSH2 0x61E PUSH2 0x619 DUP5 PUSH2 0x5AA JUMP JUMPDEST PUSH2 0x590 JUMP JUMPDEST SWAP1 POP DUP1 DUP4 DUP3 MSTORE PUSH1 0x20 DUP3 ADD SWAP1 POP PUSH1 0x20 DUP5 MUL DUP4 ADD DUP6 DUP2 GT ISZERO PUSH2 0x641 JUMPI PUSH2 0x640 PUSH2 0x5D5 JUMP JUMPDEST JUMPDEST DUP4 JUMPDEST DUP2 DUP2 LT ISZERO PUSH2 0x66A JUMPI DUP1 PUSH2 0x656 DUP9 DUP3 PUSH2 0x5F8 JUMP JUMPDEST DUP5 MSTORE PUSH1 0x20 DUP5 ADD SWAP4 POP POP PUSH1 0x20 DUP2 ADD SWAP1 POP PUSH2 0x643 JUMP JUMPDEST POP POP POP SWAP4 SWAP3 POP POP POP JUMP JUMPDEST PUSH0 DUP3 PUSH1 0x1F DUP4 ADD SLT PUSH2 0x688 JUMPI PUSH2 0x687 PUSH2 0x51E JUMP JUMPDEST JUMPDEST DUP2 CALLDATALOAD PUSH2 0x698 DUP5 DUP3 PUSH1 0x20 DUP7 ADD PUSH2 0x60C JUMP JUMPDEST SWAP2 POP POP SWAP3 SWAP2 POP POP JUMP JUMPDEST PUSH0 PUSH0 PUSH1 0x40 DUP4 DUP6 SUB SLT ISZERO PUSH2 0x6B7 JUMPI PUSH2 0x6B6 PUSH2 0x516 JUMP JUMPDEST JUMPDEST PUSH0 DUP4 ADD CALLDATALOAD PUSH8 0xFFFFFFFFFFFFFFFF DUP2 GT ISZERO PUSH2 0x6D4 JUMPI PUSH2 0x6D3 PUSH2 0x51A JUMP JUMPDEST JUMPDEST PUSH2 0x6E0 DUP6 DUP3 DUP7 ADD PUSH2 0x674 JUMP JUMPDEST SWAP3 POP POP PUSH1 0x20 DUP4 ADD CALLDATALOAD PUSH8 0xFFFFFFFFFFFFFFFF DUP2 GT ISZERO PUSH2 0x701 JUMPI PUSH2 0x700 PUSH2 0x51A JUMP JUMPDEST JUMPDEST PUSH2 0x70D DUP6 DUP3 DUP7 ADD PUSH2 0x674 JUMP JUMPDEST SWAP2 POP POP SWAP3 POP SWAP3 SWAP1 POP JUMP JUMPDEST PUSH0 DUP2 MLOAD SWAP1 POP SWAP2 SWAP1 POP JUMP JUMPDEST PUSH0 DUP3 DUP3 MSTORE PUSH1 0x20 DUP3 ADD SWAP1 POP SWAP3 SWAP2 POP POP JUMP JUMPDEST PUSH0 DUP2 SWAP1 POP PUSH1 0x20 DUP3 ADD SWAP1 POP SWAP2 SWAP1 POP JUMP JUMPDEST PUSH2 0x749 DUP2 PUSH2 0x5D9 JUMP JUMPDEST DUP3 MSTORE POP POP JUMP JUMPDEST PUSH0 PUSH2 0x75A DUP4 DUP4 PUSH2 0x740 JUMP JUMPDEST PUSH1 0x20 DUP4 ADD SWAP1 POP SWAP3 SWAP2 POP POP JUMP JUMPDEST PUSH0 PUSH1 0x20 DUP3 ADD SWAP1 POP SWAP2 SWAP1 POP JUMP JUMPDEST PUSH0 PUSH2 0x77C DUP3 PUSH2 0x717 JUMP JUMPDEST PUSH2 0x786 DUP2 DUP6 PUSH2 0x721 JUMP JUMPDEST SWAP4 POP PUSH2 0x791 DUP4 PUSH2 0x731 JUMP JUMPDEST DUP1 PUSH0 JUMPDEST DUP4 DUP2 LT ISZERO PUSH2 0x7C1 JUMPI DUP2 MLOAD PUSH2 0x7A8 DUP9 DUP3 PUSH2 0x74F JUMP JUMPDEST SWAP8 POP PUSH2 0x7B3 DUP4 PUSH2 0x766 JUMP JUMPDEST SWAP3 POP POP PUSH1 0x1 DUP2 ADD SWAP1 POP PUSH2 0x794 JUMP JUMPDEST POP DUP6 SWAP4 POP POP POP POP SWAP3 SWAP2 POP POP JUMP JUMPDEST PUSH0 PUSH1 0x20 DUP3 ADD SWAP1 POP DUP2 DUP2 SUB PUSH0 DUP4 ADD MSTORE PUSH2 0x7E6 DUP2 DUP5 PUSH2 0x772 JUMP JUMPDEST SWAP1 POP SWAP3 SWAP2 POP POP JUMP JUMPDEST PUSH32 0x4E487B7100000000000000000000000000000000000000000000000000000000 PUSH0 MSTORE PUSH1 0x11 PUSH1 0x4 MSTORE PUSH1 0x24 PUSH0 REVERT JUMPDEST PUSH0 PUSH2 0x825 DUP3 PUSH2 0x5D9 JUMP JUMPDEST SWAP2 POP PUSH2 0x830 DUP4 PUSH2 0x5D9 JUMP JUMPDEST SWAP3 POP DUP3 DUP3 ADD SWAP1 POP DUP1 DUP3 GT ISZERO PUSH2 0x848 JUMPI PUSH2 0x847 PUSH2 0x7EE JUMP JUMPDEST JUMPDEST SWAP3 SWAP2 POP POP JUMP JUMPDEST PUSH32 0x4E487B7100000000000000000000000000000000000000000000000000000000 PUSH0 MSTORE PUSH1 0x32 PUSH1 0x4 MSTORE PUSH1 0x24 PUSH0 REVERT JUMPDEST PUSH0 PUSH2 0x885 DUP3 PUSH2 0x5D9 JUMP JUMPDEST SWAP2 POP PUSH32 0xFFFFFFFFFFFFFFFFFFFFFFFFFFFFFFFFFFFFFFFFFFFFFFFFFFFFFFFFFFFFFFFF DUP3 SUB PUSH2 0x8B7 JUMPI PUSH2 0x8B6 PUSH2 0x7EE JUMP JUMPDEST JUMPDEST PUSH1 0x1 DUP3 ADD SWAP1 POP SWAP2 SWAP1 POP JUMP INVALID LOG2 PUSH5 0x6970667358 0x22 SLT KECCAK256 PUSH24 0x90B0EACDEE73D1CA569F4C2C9BD84F9E15D046B47B8DCF8F 0xA6 0xBE 0x2D RJUMPI 0x3CA2 OR PUSH5 0x736F6C6343 STOP ADDMOD 0x22 STOP CALLER "
		},
		"gasEstimates": {
			"creation": {
				"codeDepositCost": "459200",
				"executionCost": "491",
				"totalCost": "459691"
			},
			"external": {
				"processArray(uint256[],uint256[])": "infinite",
				"processArray2(uint256[],uint256[])": "infinite"
			}
		},
		"methodIdentifiers": {
			"processArray(uint256[],uint256[])": "8cee4cad",
			"processArray2(uint256[],uint256[])": "3ccb569e"
		}
	},
	"abi": [
		{
			"inputs": [
				{
					"internalType": "uint256[]",
					"name": "dataA",
					"type": "uint256[]"
				},
				{
					"internalType": "uint256[]",
					"name": "dataB",
					"type": "uint256[]"
				}
			],
			"name": "processArray",
			"outputs": [
				{
					"internalType": "uint256[]",
					"name": "",
					"type": "uint256[]"
				}
			],
			"stateMutability": "pure",
			"type": "function"
		},
		{
			"inputs": [
				{
					"internalType": "uint256[]",
					"name": "dataA",
					"type": "uint256[]"
				},
				{
					"internalType": "uint256[]",
					"name": "dataB",
					"type": "uint256[]"
				}
			],
			"name": "processArray2",
			"outputs": [
				{
					"internalType": "uint256[]",
					"name": "",
					"type": "uint256[]"
				}
			],
			"stateMutability": "pure",
			"type": "function"
		}
	]
}