{
	"data": {
		"bytecode": {
			"linkReferences": {},
			"object": "6080604052348015600e575f5ffd5b50610b158061001c5f395ff3fe608060405234801561000f575f5ffd5b5060043610610055575f3560e01c80634622ab0314610059578063805265e514610089578063a6385803146100b9578063a96a629f146100d5578063b9830ff114610105575b5f5ffd5b610073600480360381019061006e9190610377565b61010f565b6040516100809190610412565b60405180910390f35b6100a3600480360381019061009e919061055e565b6101b5565b6040516100b091906105b4565b60405180910390f35b6100d360048036038101906100ce91906105cd565b6101db565b005b6100ef60048036038101906100ea919061055e565b6102ab565b6040516100fc91906105b4565b60405180910390f35b61010d6102d7565b005b6001818154811061011e575f80fd5b905f5260205f20015f91509050805461013690610654565b80601f016020809104026020016040519081016040528092919081815260200182805461016290610654565b80156101ad5780601f10610184576101008083540402835291602001916101ad565b820191905f5260205f20905b81548152906001019060200180831161019057829003601f168201915b505050505081565b5f5f826040516101c591906106be565b9081526020016040518091039020549050919050565b5f810361021d576040517f08c379a00000000000000000000000000000000000000000000000000000000081526004016102149061071e565b60405180910390fd5b5f5f8360405161022d91906106be565b9081526020016040518091039020540361027457600182908060018154018082558091505060019003905f5260205f20015f90919091909150908161027291906108ed565b505b805f8360405161028491906106be565b90815260200160405180910390205f8282546102a091906109e9565b925050819055505050565b5f818051602081018201805184825260208301602085012081835280955050505050505f915090505481565b5f5b600180549050811015610330575f5f600183815481106102fc576102fb610a1c565b5b905f5260205f20016040516103119190610ac9565b90815260200160405180910390208190555080806001019150506102d9565b50565b5f604051905090565b5f5ffd5b5f5ffd5b5f819050919050565b61035681610344565b8114610360575f5ffd5b50565b5f813590506103718161034d565b92915050565b5f6020828403121561038c5761038b61033c565b5b5f61039984828501610363565b91505092915050565b5f81519050919050565b5f82825260208201905092915050565b8281835e5f83830152505050565b5f601f19601f8301169050919050565b5f6103e4826103a2565b6103ee81856103ac565b93506103fe8185602086016103bc565b610407816103ca565b840191505092915050565b5f6020820190508181035f83015261042a81846103da565b905092915050565b5f5ffd5b5f5ffd5b7f4e487b71000000000000000000000000000000000000000000000000000000005f52604160045260245ffd5b610470826103ca565b810181811067ffffffffffffffff8211171561048f5761048e61043a565b5b80604052505050565b5f6104a1610333565b90506104ad8282610467565b919050565b5f67ffffffffffffffff8211156104cc576104cb61043a565b5b6104d5826103ca565b9050602081019050919050565b828183375f83830152505050565b5f6105026104fd846104b2565b610498565b90508281526020810184848401111561051e5761051d610436565b5b6105298482856104e2565b509392505050565b5f82601f83011261054557610544610432565b5b81356105558482602086016104f0565b91505092915050565b5f602082840312156105735761057261033c565b5b5f82013567ffffffffffffffff8111156105905761058f610340565b5b61059c84828501610531565b91505092915050565b6105ae81610344565b82525050565b5f6020820190506105c75f8301846105a5565b92915050565b5f5f604083850312156105e3576105e261033c565b5b5f83013567ffffffffffffffff811115610600576105ff610340565b5b61060c85828601610531565b925050602061061d85828601610363565b9150509250929050565b7f4e487b71000000000000000000000000000000000000000000000000000000005f52602260045260245ffd5b5f600282049050600182168061066b57607f821691505b60208210810361067e5761067d610627565b5b50919050565b5f81905092915050565b5f610698826103a2565b6106a28185610684565b93506106b28185602086016103bc565b80840191505092915050565b5f6106c9828461068e565b915081905092915050565b7f766f7465732063616e206e6f74206265203000000000000000000000000000005f82015250565b5f6107086012836103ac565b9150610713826106d4565b602082019050919050565b5f6020820190508181035f830152610735816106fc565b9050919050565b5f819050815f5260205f209050919050565b5f6020601f8301049050919050565b5f82821b905092915050565b5f600883026107987fffffffffffffffffffffffffffffffffffffffffffffffffffffffffffffffff8261075d565b6107a2868361075d565b95508019841693508086168417925050509392505050565b5f819050919050565b5f6107dd6107d86107d384610344565b6107ba565b610344565b9050919050565b5f819050919050565b6107f6836107c3565b61080a610802826107e4565b848454610769565b825550505050565b5f5f905090565b610821610812565b61082c8184846107ed565b505050565b5f5b82811015610852576108475f828401610819565b600181019050610833565b505050565b601f8211156108a557828211156108a4576108718161073c565b61087a8361074e565b6108838561074e565b6020861015610890575f90505b80830161089f82840382610831565b505050505b5b505050565b5f82821c905092915050565b5f6108c55f19846008026108aa565b1980831691505092915050565b5f6108dd83836108b6565b9150826002028217905092915050565b6108f6826103a2565b67ffffffffffffffff81111561090f5761090e61043a565b5b6109198254610654565b610924828285610857565b5f60209050601f831160018114610955575f8415610943578287015190505b61094d85826108d2565b8655506109b4565b601f1984166109638661073c565b5f5b8281101561098a57848901518255600182019150602085019450602081019050610965565b868310156109a757848901516109a3601f8916826108b6565b8355505b6001600288020188555050505b505050505050565b7f4e487b71000000000000000000000000000000000000000000000000000000005f52601160045260245ffd5b5f6109f382610344565b91506109fe83610344565b9250828201905080821115610a1657610a156109bc565b5b92915050565b7f4e487b71000000000000000000000000000000000000000000000000000000005f52603260045260245ffd5b5f8154610a5581610654565b610a5f8186610684565b9450600182165f8114610a795760018114610a8e57610ac0565b60ff1983168652811515820286019350610ac0565b610a978561073c565b5f5b83811015610ab857815481890152600182019150602081019050610a99565b838801955050505b50505092915050565b5f610ad48284610a49565b91508190509291505056fea2646970667358221220225707b721c945fa9d4718470056afe10241a8d55db587b4c6607e42a34b336764736f6c63430008220033",
			"opcodes": "PUSH1 0x80 PUSH1 0x40 MSTORE CALLVALUE DUP1 ISZERO PUSH1 0xE JUMPI PUSH0 PUSH0 REVERT JUMPDEST POP PUSH2 0xB15 DUP1 PUSH2 0x1C PUSH0 CODECOPY PUSH0 RETURN INVALID PUSH1 0x80 PUSH1 0x40 MSTORE CALLVALUE DUP1 ISZERO PUSH2 0xF JUMPI PUSH0 PUSH0 REVERT JUMPDEST POP PUSH1 0x4 CALLDATASIZE LT PUSH2 0x55 JUMPI PUSH0 CALLDATALOAD PUSH1 0xE0 SHR DUP1 PUSH4 0x4622AB03 EQ PUSH2 0x59 JUMPI DUP1 PUSH4 0x805265E5 EQ PUSH2 0x89 JUMPI DUP1 PUSH4 0xA6385803 EQ PUSH2 0xB9 JUMPI DUP1 PUSH4 0xA96A629F EQ PUSH2 0xD5 JUMPI DUP1 PUSH4 0xB9830FF1 EQ PUSH2 0x105 JUMPI JUMPDEST PUSH0 PUSH0 REVERT JUMPDEST PUSH2 0x73 PUSH1 0x4 DUP1 CALLDATASIZE SUB DUP2 ADD SWAP1 PUSH2 0x6E SWAP2 SWAP1 PUSH2 0x377 JUMP JUMPDEST PUSH2 0x10F JUMP JUMPDEST PUSH1 0x40 MLOAD PUSH2 0x80 SWAP2 SWAP1 PUSH2 0x412 JUMP JUMPDEST PUSH1 0x40 MLOAD DUP1 SWAP2 SUB SWAP1 RETURN JUMPDEST PUSH2 0xA3 PUSH1 0x4 DUP1 CALLDATASIZE SUB DUP2 ADD SWAP1 PUSH2 0x9E SWAP2 SWAP1 PUSH2 0x55E JUMP JUMPDEST PUSH2 0x1B5 JUMP JUMPDEST PUSH1 0x40 MLOAD PUSH2 0xB0 SWAP2 SWAP1 PUSH2 0x5B4 JUMP JUMPDEST PUSH1 0x40 MLOAD DUP1 SWAP2 SUB SWAP1 RETURN JUMPDEST PUSH2 0xD3 PUSH1 0x4 DUP1 CALLDATASIZE SUB DUP2 ADD SWAP1 PUSH2 0xCE SWAP2 SWAP1 PUSH2 0x5CD JUMP JUMPDEST PUSH2 0x1DB JUMP JUMPDEST STOP JUMPDEST PUSH2 0xEF PUSH1 0x4 DUP1 CALLDATASIZE SUB DUP2 ADD SWAP1 PUSH2 0xEA SWAP2 SWAP1 PUSH2 0x55E JUMP JUMPDEST PUSH2 0x2AB JUMP JUMPDEST PUSH1 0x40 MLOAD PUSH2 0xFC SWAP2 SWAP1 PUSH2 0x5B4 JUMP JUMPDEST PUSH1 0x40 MLOAD DUP1 SWAP2 SUB SWAP1 RETURN JUMPDEST PUSH2 0x10D PUSH2 0x2D7 JUMP JUMPDEST STOP JUMPDEST PUSH1 0x1 DUP2 DUP2 SLOAD DUP2 LT PUSH2 0x11E JUMPI PUSH0 DUP1 REVERT JUMPDEST SWAP1 PUSH0 MSTORE PUSH1 0x20 PUSH0 KECCAK256 ADD PUSH0 SWAP2 POP SWAP1 POP DUP1 SLOAD PUSH2 0x136 SWAP1 PUSH2 0x654 JUMP JUMPDEST DUP1 PUSH1 0x1F ADD PUSH1 0x20 DUP1 SWAP2 DIV MUL PUSH1 0x20 ADD PUSH1 0x40 MLOAD SWAP1 DUP2 ADD PUSH1 0x40 MSTORE DUP1 SWAP3 SWAP2 SWAP1 DUP2 DUP2 MSTORE PUSH1 0x20 ADD DUP3 DUP1 SLOAD PUSH2 0x162 SWAP1 PUSH2 0x654 JUMP JUMPDEST DUP1 ISZERO PUSH2 0x1AD JUMPI DUP1 PUSH1 0x1F LT PUSH2 0x184 JUMPI PUSH2 0x100 DUP1 DUP4 SLOAD DIV MUL DUP4 MSTORE SWAP2 PUSH1 0x20 ADD SWAP2 PUSH2 0x1AD JUMP JUMPDEST DUP3 ADD SWAP2 SWAP1 PUSH0 MSTORE PUSH1 0x20 PUSH0 KECCAK256 SWAP1 JUMPDEST DUP2 SLOAD DUP2 MSTORE SWAP1 PUSH1 0x1 ADD SWAP1 PUSH1 0x20 ADD DUP1 DUP4 GT PUSH2 0x190 JUMPI DUP3 SWAP1 SUB PUSH1 0x1F AND DUP3 ADD SWAP2 JUMPDEST POP POP POP POP POP DUP2 JUMP JUMPDEST PUSH0 PUSH0 DUP3 PUSH1 0x40 MLOAD PUSH2 0x1C5 SWAP2 SWAP1 PUSH2 0x6BE JUMP JUMPDEST SWAP1 DUP2 MSTORE PUSH1 0x20 ADD PUSH1 0x40 MLOAD DUP1 SWAP2 SUB SWAP1 KECCAK256 SLOAD SWAP1 POP SWAP2 SWAP1 POP JUMP JUMPDEST PUSH0 DUP2 SUB PUSH2 0x21D JUMPI PUSH1 0x40 MLOAD PUSH32 0x8C379A000000000000000000000000000000000000000000000000000000000 DUP2 MSTORE PUSH1 0x4 ADD PUSH2 0x214 SWAP1 PUSH2 0x71E JUMP JUMPDEST PUSH1 0x40 MLOAD DUP1 SWAP2 SUB SWAP1 REVERT JUMPDEST PUSH0 PUSH0 DUP4 PUSH1 0x40 MLOAD PUSH2 0x22D SWAP2 SWAP1 PUSH2 0x6BE JUMP JUMPDEST SWAP1 DUP2 MSTORE PUSH1 0x20 ADD PUSH1 0x40 MLOAD DUP1 SWAP2 SUB SWAP1 KECCAK256 SLOAD SUB PUSH2 0x274 JUMPI PUSH1 0x1 DUP3 SWAP1 DUP1 PUSH1 0x1 DUP2 SLOAD ADD DUP1 DUP3 SSTORE DUP1 SWAP2 POP POP PUSH1 0x1 SWAP1 SUB SWAP1 PUSH0 MSTORE PUSH1 0x20 PUSH0 KECCAK256 ADD PUSH0 SWAP1 SWAP2 SWAP1 SWAP2 SWAP1 SWAP2 POP SWAP1 DUP2 PUSH2 0x272 SWAP2 SWAP1 PUSH2 0x8ED JUMP JUMPDEST POP JUMPDEST DUP1 PUSH0 DUP4 PUSH1 0x40 MLOAD PUSH2 0x284 SWAP2 SWAP1 PUSH2 0x6BE JUMP JUMPDEST SWAP1 DUP2 MSTORE PUSH1 0x20 ADD PUSH1 0x40 MLOAD DUP1 SWAP2 SUB SWAP1 KECCAK256 PUSH0 DUP3 DUP3 SLOAD PUSH2 0x2A0 SWAP2 SWAP1 PUSH2 0x9E9 JUMP JUMPDEST SWAP3 POP POP DUP2 SWAP1 SSTORE POP POP POP JUMP JUMPDEST PUSH0 DUP2 DUP1 MLOAD PUSH1 0x20 DUP2 ADD DUP3 ADD DUP1 MLOAD DUP5 DUP3 MSTORE PUSH1 0x20 DUP4 ADD PUSH1 0x20 DUP6 ADD KECCAK256 DUP2 DUP4 MSTORE DUP1 SWAP6 POP POP POP POP POP POP PUSH0 SWAP2 POP SWAP1 POP SLOAD DUP2 JUMP JUMPDEST PUSH0 JUMPDEST PUSH1 0x1 DUP1 SLOAD SWAP1 POP DUP2 LT ISZERO PUSH2 0x330 JUMPI PUSH0 PUSH0 PUSH1 0x1 DUP4 DUP2 SLOAD DUP2 LT PUSH2 0x2FC JUMPI PUSH2 0x2FB PUSH2 0xA1C JUMP JUMPDEST JUMPDEST SWAP1 PUSH0 MSTORE PUSH1 0x20 PUSH0 KECCAK256 ADD PUSH1 0x40 MLOAD PUSH2 0x311 SWAP2 SWAP1 PUSH2 0xAC9 JUMP JUMPDEST SWAP1 DUP2 MSTORE PUSH1 0x20 ADD PUSH1 0x40 MLOAD DUP1 SWAP2 SUB SWAP1 KECCAK256 DUP2 SWAP1 SSTORE POP DUP1 DUP1 PUSH1 0x1 ADD SWAP2 POP POP PUSH2 0x2D9 JUMP JUMPDEST POP JUMP JUMPDEST PUSH0 PUSH1 0x40 MLOAD SWAP1 POP SWAP1 JUMP JUMPDEST PUSH0 PUSH0 REVERT JUMPDEST PUSH0 PUSH0 REVERT JUMPDEST PUSH0 DUP2 SWAP1 POP SWAP2 SWAP1 POP JUMP JUMPDEST PUSH2 0x356 DUP2 PUSH2 0x344 JUMP JUMPDEST DUP2 EQ PUSH2 0x360 JUMPI PUSH0 PUSH0 REVERT JUMPDEST POP JUMP JUMPDEST PUSH0 DUP2 CALLDATALOAD SWAP1 POP PUSH2 0x371 DUP2 PUSH2 0x34D JUMP JUMPDEST SWAP3 SWAP2 POP POP JUMP JUMPDEST PUSH0 PUSH1 0x20 DUP3 DUP5 SUB SLT ISZERO PUSH2 0x38C JUMPI PUSH2 0x38B PUSH2 0x33C JUMP JUMPDEST JUMPDEST PUSH0 PUSH2 0x399 DUP5 DUP3 DUP6 ADD PUSH2 0x363 JUMP JUMPDEST SWAP2 POP POP SWAP3 SWAP2 POP POP JUMP JUMPDEST PUSH0 DUP2 MLOAD SWAP1 POP SWAP2 SWAP1 POP JUMP JUMPDEST PUSH0 DUP3 DUP3 MSTORE PUSH1 0x20 DUP3 ADD SWAP1 POP SWAP3 SWAP2 POP POP JUMP JUMPDEST DUP3 DUP2 DUP4 MCOPY PUSH0 DUP4 DUP4 ADD MSTORE POP POP POP JUMP JUMPDEST PUSH0 PUSH1 0x1F NOT PUSH1 0x1F DUP4 ADD AND SWAP1 POP SWAP2 SWAP1 POP JUMP JUMPDEST PUSH0 PUSH2 0x3E4 DUP3 PUSH2 0x3A2 JUMP JUMPDEST PUSH2 0x3EE DUP2 DUP6 PUSH2 0x3AC JUMP JUMPDEST SWAP4 POP PUSH2 0x3FE DUP2 DUP6 PUSH1 0x20 DUP7 ADD PUSH2 0x3BC JUMP JUMPDEST PUSH2 0x407 DUP2 PUSH2 0x3CA JUMP JUMPDEST DUP5 ADD SWAP2 POP POP SWAP3 SWAP2 POP POP JUMP JUMPDEST PUSH0 PUSH1 0x20 DUP3 ADD SWAP1 POP DUP2 DUP2 SUB PUSH0 DUP4 ADD MSTORE PUSH2 0x42A DUP2 DUP5 PUSH2 0x3DA JUMP JUMPDEST SWAP1 POP SWAP3 SWAP2 POP POP JUMP JUMPDEST PUSH0 PUSH0 REVERT JUMPDEST PUSH0 PUSH0 REVERT JUMPDEST PUSH32 0x4E487B7100000000000000000000000000000000000000000000000000000000 PUSH0 MSTORE PUSH1 0x41 PUSH1 0x4 MSTORE PUSH1 0x24 PUSH0 REVERT JUMPDEST PUSH2 0x470 DUP3 PUSH2 0x3CA JUMP JUMPDEST DUP2 ADD DUP2 DUP2 LT PUSH8 0xFFFFFFFFFFFFFFFF DUP3 GT OR ISZERO PUSH2 0x48F JUMPI PUSH2 0x48E PUSH2 0x43A JUMP JUMPDEST JUMPDEST DUP1 PUSH1 0x40 MSTORE POP POP POP JUMP JUMPDEST PUSH0 PUSH2 0x4A1 PUSH2 0x333 JUMP JUMPDEST SWAP1 POP PUSH2 0x4AD DUP3 DUP3 PUSH2 0x467 JUMP JUMPDEST SWAP2 SWAP1 POP JUMP JUMPDEST PUSH0 PUSH8 0xFFFFFFFFFFFFFFFF DUP3 GT ISZERO PUSH2 0x4CC JUMPI PUSH2 0x4CB PUSH2 0x43A JUMP JUMPDEST JUMPDEST PUSH2 0x4D5 DUP3 PUSH2 0x3CA JUMP JUMPDEST SWAP1 POP PUSH1 0x20 DUP2 ADD SWAP1 POP SWAP2 SWAP1 POP JUMP JUMPDEST DUP3 DUP2 DUP4 CALLDATACOPY PUSH0 DUP4 DUP4 ADD MSTORE POP POP POP JUMP JUMPDEST PUSH0 PUSH2 0x502 PUSH2 0x4FD DUP5 PUSH2 0x4B2 JUMP JUMPDEST PUSH2 0x498 JUMP JUMPDEST SWAP1 POP DUP3 DUP2 MSTORE PUSH1 0x20 DUP2 ADD DUP5 DUP5 DUP5 ADD GT ISZERO PUSH2 0x51E JUMPI PUSH2 0x51D PUSH2 0x436 JUMP JUMPDEST JUMPDEST PUSH2 0x529 DUP5 DUP3 DUP6 PUSH2 0x4E2 JUMP JUMPDEST POP SWAP4 SWAP3 POP POP POP JUMP JUMPDEST PUSH0 DUP3 PUSH1 0x1F DUP4 ADD SLT PUSH2 0x545 JUMPI PUSH2 0x544 PUSH2 0x432 JUMP JUMPDEST JUMPDEST DUP2 CALLDATALOAD PUSH2 0x555 DUP5 DUP3 PUSH1 0x20 DUP7 ADD PUSH2 0x4F0 JUMP JUMPDEST SWAP2 POP POP SWAP3 SWAP2 POP POP JUMP JUMPDEST PUSH0 PUSH1 0x20 DUP3 DUP5 SUB SLT ISZERO PUSH2 0x573 JUMPI PUSH2 0x572 PUSH2 0x33C JUMP JUMPDEST JUMPDEST PUSH0 DUP3 ADD CALLDATALOAD PUSH8 0xFFFFFFFFFFFFFFFF DUP2 GT ISZERO PUSH2 0x590 JUMPI PUSH2 0x58F PUSH2 0x340 JUMP JUMPDEST JUMPDEST PUSH2 0x59C DUP5 DUP3 DUP6 ADD PUSH2 0x531 JUMP JUMPDEST SWAP2 POP POP SWAP3 SWAP2 POP POP JUMP JUMPDEST PUSH2 0x5AE DUP2 PUSH2 0x344 JUMP JUMPDEST DUP3 MSTORE POP POP JUMP JUMPDEST PUSH0 PUSH1 0x20 DUP3 ADD SWAP1 POP PUSH2 0x5C7 PUSH0 DUP4 ADD DUP5 PUSH2 0x5A5 JUMP JUMPDEST SWAP3 SWAP2 POP POP JUMP JUMPDEST PUSH0 PUSH0 PUSH1 0x40 DUP4 DUP6 SUB SLT ISZERO PUSH2 0x5E3 JUMPI PUSH2 0x5E2 PUSH2 0x33C JUMP JUMPDEST JUMPDEST PUSH0 DUP4 ADD CALLDATALOAD PUSH8 0xFFFFFFFFFFFFFFFF DUP2 GT ISZERO PUSH2 0x600 JUMPI PUSH2 0x5FF PUSH2 0x340 JUMP JUMPDEST JUMPDEST PUSH2 0x60C DUP6 DUP3 DUP7 ADD PUSH2 0x531 JUMP JUMPDEST SWAP3 POP POP PUSH1 0x20 PUSH2 0x61D DUP6 DUP3 DUP7 ADD PUSH2 0x363 JUMP JUMPDEST SWAP2 POP POP SWAP3 POP SWAP3 SWAP1 POP JUMP JUMPDEST PUSH32 0x4E487B7100000000000000000000000000000000000000000000000000000000 PUSH0 MSTORE PUSH1 0x22 PUSH1 0x4 MSTORE PUSH1 0x24 PUSH0 REVERT JUMPDEST PUSH0 PUSH1 0x2 DUP3 DIV SWAP1 POP PUSH1 0x1 DUP3 AND DUP1 PUSH2 0x66B JUMPI PUSH1 0x7F DUP3 AND SWAP2 POP JUMPDEST PUSH1 0x20 DUP3 LT DUP2 SUB PUSH2 0x67E JUMPI PUSH2 0x67D PUSH2 0x627 JUMP JUMPDEST JUMPDEST POP SWAP2 SWAP1 POP JUMP JUMPDEST PUSH0 DUP2 SWAP1 POP SWAP3 SWAP2 POP POP JUMP JUMPDEST PUSH0 PUSH2 0x698 DUP3 PUSH2 0x3A2 JUMP JUMPDEST PUSH2 0x6A2 DUP2 DUP6 PUSH2 0x684 JUMP JUMPDEST SWAP4 POP PUSH2 0x6B2 DUP2 DUP6 PUSH1 0x20 DUP7 ADD PUSH2 0x3BC JUMP JUMPDEST DUP1 DUP5 ADD SWAP2 POP POP SWAP3 SWAP2 POP POP JUMP JUMPDEST PUSH0 PUSH2 0x6C9 DUP3 DUP5 PUSH2 0x68E JUMP JUMPDEST SWAP2 POP DUP2 SWAP1 POP SWAP3 SWAP2 POP POP JUMP JUMPDEST PUSH32 0x766F7465732063616E206E6F7420626520300000000000000000000000000000 PUSH0 DUP3 ADD MSTORE POP JUMP JUMPDEST PUSH0 PUSH2 0x708 PUSH1 0x12 DUP4 PUSH2 0x3AC JUMP JUMPDEST SWAP2 POP PUSH2 0x713 DUP3 PUSH2 0x6D4 JUMP JUMPDEST PUSH1 0x20 DUP3 ADD SWAP1 POP SWAP2 SWAP1 POP JUMP JUMPDEST PUSH0 PUSH1 0x20 DUP3 ADD SWAP1 POP DUP2 DUP2 SUB PUSH0 DUP4 ADD MSTORE PUSH2 0x735 DUP2 PUSH2 0x6FC JUMP JUMPDEST SWAP1 POP SWAP2 SWAP1 POP JUMP JUMPDEST PUSH0 DUP2 SWAP1 POP DUP2 PUSH0 MSTORE PUSH1 0x20 PUSH0 KECCAK256 SWAP1 POP SWAP2 SWAP1 POP JUMP JUMPDEST PUSH0 PUSH1 0x20 PUSH1 0x1F DUP4 ADD DIV SWAP1 POP SWAP2 SWAP1 POP JUMP JUMPDEST PUSH0 DUP3 DUP3 SHL SWAP1 POP SWAP3 SWAP2 POP POP JUMP JUMPDEST PUSH0 PUSH1 0x8 DUP4 MUL PUSH2 0x798 PUSH32 0xFFFFFFFFFFFFFFFFFFFFFFFFFFFFFFFFFFFFFFFFFFFFFFFFFFFFFFFFFFFFFFFF DUP3 PUSH2 0x75D JUMP JUMPDEST PUSH2 0x7A2 DUP7 DUP4 PUSH2 0x75D JUMP JUMPDEST SWAP6 POP DUP1 NOT DUP5 AND SWAP4 POP DUP1 DUP7 AND DUP5 OR SWAP3 POP POP POP SWAP4 SWAP3 POP POP POP JUMP JUMPDEST PUSH0 DUP2 SWAP1 POP SWAP2 SWAP1 POP JUMP JUMPDEST PUSH0 PUSH2 0x7DD PUSH2 0x7D8 PUSH2 0x7D3 DUP5 PUSH2 0x344 JUMP JUMPDEST PUSH2 0x7BA JUMP JUMPDEST PUSH2 0x344 JUMP JUMPDEST SWAP1 POP SWAP2 SWAP1 POP JUMP JUMPDEST PUSH0 DUP2 SWAP1 POP SWAP2 SWAP1 POP JUMP JUMPDEST PUSH2 0x7F6 DUP4 PUSH2 0x7C3 JUMP JUMPDEST PUSH2 0x80A PUSH2 0x802 DUP3 PUSH2 0x7E4 JUMP JUMPDEST DUP5 DUP5 SLOAD PUSH2 0x769 JUMP JUMPDEST DUP3 SSTORE POP POP POP POP JUMP JUMPDEST PUSH0 PUSH0 SWAP1 POP SWAP1 JUMP JUMPDEST PUSH2 0x821 PUSH2 0x812 JUMP JUMPDEST PUSH2 0x82C DUP2 DUP5 DUP5 PUSH2 0x7ED JUMP JUMPDEST POP POP POP JUMP JUMPDEST PUSH0 JUMPDEST DUP3 DUP2 LT ISZERO PUSH2 0x852 JUMPI PUSH2 0x847 PUSH0 DUP3 DUP5 ADD PUSH2 0x819 JUMP JUMPDEST PUSH1 0x1 DUP2 ADD SWAP1 POP PUSH2 0x833 JUMP JUMPDEST POP POP POP JUMP JUMPDEST PUSH1 0x1F DUP3 GT ISZERO PUSH2 0x8A5 JUMPI DUP3 DUP3 GT ISZERO PUSH2 0x8A4 JUMPI PUSH2 0x871 DUP2 PUSH2 0x73C JUMP JUMPDEST PUSH2 0x87A DUP4 PUSH2 0x74E JUMP JUMPDEST PUSH2 0x883 DUP6 PUSH2 0x74E JUMP JUMPDEST PUSH1 0x20 DUP7 LT ISZERO PUSH2 0x890 JUMPI PUSH0 SWAP1 POP JUMPDEST DUP1 DUP4 ADD PUSH2 0x89F DUP3 DUP5 SUB DUP3 PUSH2 0x831 JUMP JUMPDEST POP POP POP POP JUMPDEST JUMPDEST POP POP POP JUMP JUMPDEST PUSH0 DUP3 DUP3 SHR SWAP1 POP SWAP3 SWAP2 POP POP JUMP JUMPDEST PUSH0 PUSH2 0x8C5 PUSH0 NOT DUP5 PUSH1 0x8 MUL PUSH2 0x8AA JUMP JUMPDEST NOT DUP1 DUP4 AND SWAP2 POP POP SWAP3 SWAP2 POP POP JUMP JUMPDEST PUSH0 PUSH2 0x8DD DUP4 DUP4 PUSH2 0x8B6 JUMP JUMPDEST SWAP2 POP DUP3 PUSH1 0x2 MUL DUP3 OR SWAP1 POP SWAP3 SWAP2 POP POP JUMP JUMPDEST PUSH2 0x8F6 DUP3 PUSH2 0x3A2 JUMP JUMPDEST PUSH8 0xFFFFFFFFFFFFFFFF DUP2 GT ISZERO PUSH2 0x90F JUMPI PUSH2 0x90E PUSH2 0x43A JUMP JUMPDEST JUMPDEST PUSH2 0x919 DUP3 SLOAD PUSH2 0x654 JUMP JUMPDEST PUSH2 0x924 DUP3 DUP3 DUP6 PUSH2 0x857 JUMP JUMPDEST PUSH0 PUSH1 0x20 SWAP1 POP PUSH1 0x1F DUP4 GT PUSH1 0x1 DUP2 EQ PUSH2 0x955 JUMPI PUSH0 DUP5 ISZERO PUSH2 0x943 JUMPI DUP3 DUP8 ADD MLOAD SWAP1 POP JUMPDEST PUSH2 0x94D DUP6 DUP3 PUSH2 0x8D2 JUMP JUMPDEST DUP7 SSTORE POP PUSH2 0x9B4 JUMP JUMPDEST PUSH1 0x1F NOT DUP5 AND PUSH2 0x963 DUP7 PUSH2 0x73C JUMP JUMPDEST PUSH0 JUMPDEST DUP3 DUP2 LT ISZERO PUSH2 0x98A JUMPI DUP5 DUP10 ADD MLOAD DUP3 SSTORE PUSH1 0x1 DUP3 ADD SWAP2 POP PUSH1 0x20 DUP6 ADD SWAP5 POP PUSH1 0x20 DUP2 ADD SWAP1 POP PUSH2 0x965 JUMP JUMPDEST DUP7 DUP4 LT ISZERO PUSH2 0x9A7 JUMPI DUP5 DUP10 ADD MLOAD PUSH2 0x9A3 PUSH1 0x1F DUP10 AND DUP3 PUSH2 0x8B6 JUMP JUMPDEST DUP4 SSTORE POP JUMPDEST PUSH1 0x1 PUSH1 0x2 DUP9 MUL ADD DUP9 SSTORE POP POP POP JUMPDEST POP POP POP POP POP POP JUMP JUMPDEST PUSH32 0x4E487B7100000000000000000000000000000000000000000000000000000000 PUSH0 MSTORE PUSH1 0x11 PUSH1 0x4 MSTORE PUSH1 0x24 PUSH0 REVERT JUMPDEST PUSH0 PUSH2 0x9F3 DUP3 PUSH2 0x344 JUMP JUMPDEST SWAP2 POP PUSH2 0x9FE DUP4 PUSH2 0x344 JUMP JUMPDEST SWAP3 POP DUP3 DUP3 ADD SWAP1 POP DUP1 DUP3 GT ISZERO PUSH2 0xA16 JUMPI PUSH2 0xA15 PUSH2 0x9BC JUMP JUMPDEST JUMPDEST SWAP3 SWAP2 POP POP JUMP JUMPDEST PUSH32 0x4E487B7100000000000000000000000000000000000000000000000000000000 PUSH0 MSTORE PUSH1 0x32 PUSH1 0x4 MSTORE PUSH1 0x24 PUSH0 REVERT JUMPDEST PUSH0 DUP2 SLOAD PUSH2 0xA55 DUP2 PUSH2 0x654 JUMP JUMPDEST PUSH2 0xA5F DUP2 DUP7 PUSH2 0x684 JUMP JUMPDEST SWAP5 POP PUSH1 0x1 DUP3 AND PUSH0 DUP2 EQ PUSH2 0xA79 JUMPI PUSH1 0x1 DUP2 EQ PUSH2 0xA8E JUMPI PUSH2 0xAC0 JUMP JUMPDEST PUSH1 0xFF NOT DUP4 AND DUP7 MSTORE DUP2 ISZERO ISZERO DUP3 MUL DUP7 ADD SWAP4 POP PUSH2 0xAC0 JUMP JUMPDEST PUSH2 0xA97 DUP6 PUSH2 0x73C JUMP JUMPDEST PUSH0 JUMPDEST DUP4 DUP2 LT ISZERO PUSH2 0xAB8 JUMPI DUP2 SLOAD DUP2 DUP10 ADD MSTORE PUSH1 0x1 DUP3 ADD SWAP2 POP PUSH1 0x20 DUP2 ADD SWAP1 POP PUSH2 0xA99 JUMP JUMPDEST DUP4 DUP9 ADD SWAP6 POP POP POP JUMPDEST POP POP POP SWAP3 SWAP2 POP POP JUMP JUMPDEST PUSH0 PUSH2 0xAD4 DUP3 DUP5 PUSH2 0xA49 JUMP JUMPDEST SWAP2 POP DUP2 SWAP1 POP SWAP3 SWAP2 POP POP JUMP INVALID LOG2 PUSH5 0x6970667358 0x22 SLT KECCAK256 0x22 JUMPI SMOD 0xB7 0x21 0xC9 GASLIMIT STATICCALL SWAP14 SELFBALANCE XOR SELFBALANCE STOP JUMP 0xAF RJUMPI 0x241 0xA8 0xD5 TSTORE 0xB5 DUP8 0xB4 0xC6 PUSH1 0x7E TIMESTAMP LOG3 0x4B CALLER PUSH8 0x64736F6C63430008 0x22 STOP CALLER "
		},
		"gasEstimates": {
			"creation": {
				"codeDepositCost": "567400",
				"executionCost": "598",
				"totalCost": "567998"
			},
			"external": {
				"getVotes(string)": "infinite",
				"names(uint256)": "infinite",
				"resetVotes()": "infinite",
				"vote(string,uint256)": "infinite",
				"votingToName(string)": "infinite"
			}
		},
		"methodIdentifiers": {
			"getVotes(string)": "805265e5",
			"names(uint256)": "4622ab03",
			"resetVotes()": "b9830ff1",
			"vote(string,uint256)": "a6385803",
			"votingToName(string)": "a96a629f"
		}
	},
	"abi": [
		{
			"inputs": [
				{
					"internalType": "string",
					"name": "name",
					"type": "string"
				}
			],
			"name": "getVotes",
			"outputs": [
				{
					"internalType": "uint256",
					"name": "",
					"type": "uint256"
				}
			],
			"stateMutability": "view",
			"type": "function"
		},
		{
			"inputs": [
				{
					"internalType": "uint256",
					"name": "",
					"type": "uint256"
				}
			],
			"name": "names",
			"outputs": [
				{
					"internalType": "string",
					"name": "",
					"type": "string"
				}
			],
			"stateMutability": "view",
			"type": "function"
		},
		{
			"inputs": [],
			"name": "resetVotes",
			"outputs": [],
			"stateMutability": "nonpayable",
			"type": "function"
		},
		{
			"inputs": [
				{
					"internalType": "string",
					"name": "name",
					"type": "string"
				},
				{
					"internalType": "uint256",
					"name": "votes",
					"type": "uint256"
				}
			],
			"name": "vote",
			"outputs": [],
			"stateMutability": "nonpayable",
			"type": "function"
		},
		{
			"inputs": [
				{
					"internalType": "string",
					"name": "",
					"type": "string"
				}
			],
			"name": "votingToName",
			"outputs": [
				{
					"internalType": "uint256",
					"name": "",
					"type": "uint256"
				}
			],
			"stateMutability": "view",
			"type": "function"
		}
	]
}